8=FIXT.1.1|9=81|35=A|34=1|49=FOLEOTRADER|52=20260608-20:31:01.002|56=FOLEOAPI|98=0|108=20|1137=9|10=006|8=FIXT.1.1|9=310|35=8|34=2|49=FOLEOTRADER|52=20260608-20:31:04.041|56=FOLEOAPI|6=21.9846|11=FT-6-019ea8ee76b57453b8fa42f313098497|14=8.16|15=JPY|17=EXEC-019ea8ee836972a9b64c1148e9dcec62|22=8|31=21.9846|32=8.16|37=FOLEOTRADER-019ea8ee77a3738c99aa0611a4dec529|38=34|39=1|44=22|48=8306|54=1|55=8306|150=F|151=25.84|381=179.394336|10=080|8=FIXT.1.1|9=308|35=8|34=3|49=FOLEOTRADER|52=20260608-20:31:09.056|56=FOLEOAPI|6=21.9934|11=FT-6-019ea8ee76b57453b8fa42f313098497|14=34.00|15=JPY|17=EXEC-019ea8ee97007b638a890cadf5ccda32|22=8|31=21.9934|32=25.84|37=FOLEOTRADER-019ea8ee77a3738c99aa0611a4dec529|38=34|39=2|44=22|48=8306|54=1|55=8306|150=F|151=0|381=568.309456|10=060|8=FIXT.1.1|9=62|35=0|34=4|49=FOLEOTRADER|52=20260608-20:31:29.181|56=FOLEOAPI|10=174|8=FIXT.1.1|9=62|35=0|34=5|49=FOLEOTRADER|52=20260608-20:31:49.322|56=FOLEOAPI|10=174|8=FIXT.1.1|9=62|35=0|34=6|49=FOLEOTRADER|52=20260608-20:32:09.491|56=FOLEOAPI|10=179|8=FIXT.1.1|9=62|35=0|34=7|49=FOLEOTRADER|52=20260608-20:32:29.667|56=FOLEOAPI|10=187|8=FIXT.1.1|9=62|35=0|34=8|49=FOLEOTRADER|52=20260608-20:32:49.851|56=FOLEOAPI|10=185|8=FIXT.1.1|9=62|35=0|34=9|49=FOLEOTRADER|52=20260608-20:33:10.021|56=FOLEOAPI|10=164|8=FIXT.1.1|9=63|35=0|34=10|49=FOLEOTRADER|52=20260608-20:33:30.137|56=FOLEOAPI|10=215|8=FIXT.1.1|9=63|35=0|34=11|49=FOLEOTRADER|52=20260608-20:33:50.305|56=FOLEOAPI|10=215|8=FIXT.1.1|9=63|35=0|34=12|49=FOLEOTRADER|52=20260608-20:34:10.426|56=FOLEOAPI|10=217|8=FIXT.1.1|9=63|35=0|34=13|49=FOLEOTRADER|52=20260608-20:34:30.555|56=FOLEOAPI|10=223|8=FIXT.1.1|9=289|35=8|34=14|49=FOLEOTRADER|52=20260608-20:34:40.818|56=FOLEOAPI|6=50|11=FT-7-019ea8f1beb07aeb8c0674299aa53dfe|14=200|15=GBP|17=EXEC-019ea8f1d2327f5b86abba815c5b2196|22=8|31=50|32=200|37=FOLEOTRADER-019ea8f1beb779829c4143429084e711|38=200|39=2|44=50|48=MKS|54=1|55=MKS|150=F|151=0|381=10000|10=183|8=FIXT.1.1|9=63|35=0|34=15|49=FOLEOTRADER|52=20260608-20:35:00.964|56=FOLEOAPI|10=227|8=FIXT.1.1|9=63|35=0|34=16|49=FOLEOTRADER|52=20260608-20:35:21.116|56=FOLEOAPI|10=220|8=FIXT.1.1|9=63|35=0|34=17|49=FOLEOTRADER|52=20260608-20:35:41.276|56=FOLEOAPI|10=230|8=FIXT.1.1|9=63|35=0|34=18|49=FOLEOTRADER|52=20260608-20:36:01.430|56=FOLEOAPI|10=220|8=FIXT.1.1|9=63|35=0|34=19|49=FOLEOTRADER|52=20260608-20:36:21.581|56=FOLEOAPI|10=230|8=FIXT.1.1|9=63|35=0|34=20|49=FOLEOTRADER|52=20260608-20:36:41.732|56=FOLEOAPI|10=222|8=FIXT.1.1|9=63|35=0|34=21|49=FOLEOTRADER|52=20260608-20:37:01.897|56=FOLEOAPI|10=232|8=FIXT.1.1|9=63|35=0|34=22|49=FOLEOTRADER|52=20260608-20:37:22.038|56=FOLEOAPI|10=223|8=FIXT.1.1|9=63|35=0|34=23|49=FOLEOTRADER|52=20260608-20:37:42.204|56=FOLEOAPI|10=221|8=FIXT.1.1|9=63|35=0|34=24|49=FOLEOTRADER|52=20260608-20:38:02.362|56=FOLEOAPI|10=224|8=FIXT.1.1|9=63|35=0|34=25|49=FOLEOTRADER|52=20260608-20:38:22.530|56=FOLEOAPI|10=224|8=FIXT.1.1|9=63|35=0|34=26|49=FOLEOTRADER|52=20260608-20:38:42.695|56=FOLEOAPI|10=239|8=FIXT.1.1|9=63|35=0|34=27|49=FOLEOTRADER|52=20260608-20:39:02.852|56=FOLEOAPI|10=232|8=FIXT.1.1|9=63|35=0|34=28|49=FOLEOTRADER|52=20260608-20:39:23.024|56=FOLEOAPI|10=227|8=FIXT.1.1|9=63|35=0|34=29|49=FOLEOTRADER|52=20260608-20:39:43.174|56=FOLEOAPI|10=236|8=FIXT.1.1|9=63|35=0|34=30|49=FOLEOTRADER|52=20260608-20:40:03.329|56=FOLEOAPI|10=218|8=FIXT.1.1|9=63|35=0|34=31|49=FOLEOTRADER|52=20260608-20:40:23.455|56=FOLEOAPI|10=221|8=FIXT.1.1|9=63|35=0|34=32|49=FOLEOTRADER|52=20260608-20:40:43.598|56=FOLEOAPI|10=232|8=FIXT.1.1|9=63|35=0|34=33|49=FOLEOTRADER|52=20260608-20:41:03.743|56=FOLEOAPI|10=222|8=FIXT.1.1|9=63|35=0|34=34|49=FOLEOTRADER|52=20260608-20:41:23.895|56=FOLEOAPI|10=233|8=FIXT.1.1|9=63|35=0|34=35|49=FOLEOTRADER|52=20260608-20:41:44.059|56=FOLEOAPI|10=229|8=FIXT.1.1|9=63|35=0|34=36|49=FOLEOTRADER|52=20260608-20:42:04.221|56=FOLEOAPI|10=218|8=FIXT.1.1|9=63|35=0|34=37|49=FOLEOTRADER|52=20260608-20:42:24.358|56=FOLEOAPI|10=232|8=FIXT.1.1|9=63|35=0|34=38|49=FOLEOTRADER|52=20260608-20:42:44.514|56=FOLEOAPI|10=229|8=FIXT.1.1|9=63|35=0|34=39|49=FOLEOTRADER|52=20260608-20:43:04.661|56=FOLEOAPI|10=230|8=FIXT.1.1|9=63|35=0|34=40|49=FOLEOTRADER|52=20260608-20:43:24.827|56=FOLEOAPI|10=228|8=FIXT.1.1|9=63|35=0|34=41|49=FOLEOTRADER|52=20260608-20:43:44.997|56=FOLEOAPI|10=239|8=FIXT.1.1|9=63|35=0|34=42|49=FOLEOTRADER|52=20260608-20:44:05.165|56=FOLEOAPI|10=225|8=FIXT.1.1|9=63|35=0|34=43|49=FOLEOTRADER|52=20260608-20:44:25.327|56=FOLEOAPI|10=228|8=FIXT.1.1|9=63|35=0|34=44|49=FOLEOTRADER|52=20260608-20:44:45.499|56=FOLEOAPI|10=241|8=FIXT.1.1|9=63|35=0|34=45|49=FOLEOTRADER|52=20260608-20:45:05.644|56=FOLEOAPI|10=231|8=FIXT.1.1|9=63|35=0|34=46|49=FOLEOTRADER|52=20260608-20:45:25.788|56=FOLEOAPI|10=243|8=FIXT.1.1|9=63|35=0|34=47|49=FOLEOTRADER|52=20260608-20:45:45.987|56=FOLEOAPI|10=247|8=FIXT.1.1|9=63|35=0|34=48|49=FOLEOTRADER|52=20260608-20:46:06.134|56=FOLEOAPI|10=230|8=FIXT.1.1|9=63|35=0|34=49|49=FOLEOTRADER|52=20260608-20:46:26.264|56=FOLEOAPI|10=237|8=FIXT.1.1|9=63|35=0|34=50|49=FOLEOTRADER|52=20260608-20:46:46.416|56=FOLEOAPI|10=230|8=FIXT.1.1|9=63|35=0|34=51|49=FOLEOTRADER|52=20260608-20:47:06.559|56=FOLEOAPI|10=236|8=FIXT.1.1|9=63|35=0|34=52|49=FOLEOTRADER|52=20260608-20:47:26.710|56=FOLEOAPI|10=228|8=FIXT.1.1|9=63|35=0|34=53|49=FOLEOTRADER|52=20260608-20:47:46.859|56=FOLEOAPI|10=245|8=FIXT.1.1|9=63|35=0|34=54|49=FOLEOTRADER|52=20260608-20:48:07.025|56=FOLEOAPI|10=229|8=FIXT.1.1|9=63|35=0|34=55|49=FOLEOTRADER|52=20260608-20:48:27.188|56=FOLEOAPI|10=242|8=FIXT.1.1|9=63|35=0|34=56|49=FOLEOTRADER|52=20260608-20:48:47.374|56=FOLEOAPI|10=242|8=FIXT.1.1|9=63|35=0|34=57|49=FOLEOTRADER|52=20260608-20:49:07.524|56=FOLEOAPI|10=237|8=FIXT.1.1|9=63|35=0|34=58|49=FOLEOTRADER|52=20260608-20:49:27.677|56=FOLEOAPI|10=249|8=FIXT.1.1|9=63|35=0|34=59|49=FOLEOTRADER|52=20260608-20:49:47.842|56=FOLEOAPI|10=246|8=FIXT.1.1|9=63|35=0|34=60|49=FOLEOTRADER|52=20260608-20:50:08.008|56=FOLEOAPI|10=221|8=FIXT.1.1|9=63|35=0|34=61|49=FOLEOTRADER|52=20260608-20:50:28.156|56=FOLEOAPI|10=228|8=FIXT.1.1|9=63|35=0|34=62|49=FOLEOTRADER|52=20260608-20:50:48.324|56=FOLEOAPI|10=228|8=FIXT.1.1|9=63|35=0|34=63|49=FOLEOTRADER|52=20260608-20:51:08.473|56=FOLEOAPI|10=231|8=FIXT.1.1|9=63|35=0|34=64|49=FOLEOTRADER|52=20260608-20:51:28.617|56=FOLEOAPI|10=234|8=FIXT.1.1|9=63|35=0|34=65|49=FOLEOTRADER|52=20260608-20:51:48.803|56=FOLEOAPI|10=234|8=FIXT.1.1|9=63|35=0|34=66|49=FOLEOTRADER|52=20260608-20:52:08.956|56=FOLEOAPI|10=241|8=FIXT.1.1|9=63|35=0|34=67|49=FOLEOTRADER|52=20260608-20:52:29.130|56=FOLEOAPI|10=229|8=FIXT.1.1|9=63|35=0|34=68|49=FOLEOTRADER|52=20260608-20:52:49.290|56=FOLEOAPI|10=239|8=FIXT.1.1|9=63|35=0|34=69|49=FOLEOTRADER|52=20260608-20:53:09.463|56=FOLEOAPI|10=239|8=FIXT.1.1|9=63|35=0|34=70|49=FOLEOTRADER|52=20260608-20:53:29.590|56=FOLEOAPI|10=234|8=FIXT.1.1|9=63|35=0|34=71|49=FOLEOTRADER|52=20260608-20:53:49.756|56=FOLEOAPI|10=241|8=FIXT.1.1|9=63|35=0|34=72|49=FOLEOTRADER|52=20260608-20:54:09.948|56=FOLEOAPI|10=242|8=FIXT.1.1|9=63|35=0|34=73|49=FOLEOTRADER|52=20260608-20:54:30.122|56=FOLEOAPI|10=221|8=FIXT.1.1|9=63|35=0|34=74|49=FOLEOTRADER|52=20260608-20:54:50.284|56=FOLEOAPI|10=233|8=FIXT.1.1|9=63|35=0|34=75|49=FOLEOTRADER|52=20260608-20:55:10.428|56=FOLEOAPI|10=231|8=FIXT.1.1|9=63|35=0|34=76|49=FOLEOTRADER|52=20260608-20:55:30.579|56=FOLEOAPI|10=241|8=FIXT.1.1|9=63|35=0|34=77|49=FOLEOTRADER|52=20260608-20:55:50.694|56=FOLEOAPI|10=242|8=FIXT.1.1|9=63|35=0|34=78|49=FOLEOTRADER|52=20260608-20:56:10.860|56=FOLEOAPI|10=235|8=FIXT.1.1|9=63|35=0|34=79|49=FOLEOTRADER|52=20260608-20:56:31.060|56=FOLEOAPI|10=231|8=FIXT.1.1|9=63|35=0|34=80|49=FOLEOTRADER|52=20260608-20:56:51.183|56=FOLEOAPI|10=231|8=FIXT.1.1|9=63|35=0|34=81|49=FOLEOTRADER|52=20260608-20:57:11.361|56=FOLEOAPI|10=227|8=FIXT.1.1|9=63|35=0|34=82|49=FOLEOTRADER|52=20260608-20:57:31.519|56=FOLEOAPI|10=235|8=FIXT.1.1|9=63|35=0|34=83|49=FOLEOTRADER|52=20260608-20:57:51.676|56=FOLEOAPI|10=242|8=FIXT.1.1|9=63|35=0|34=84|49=FOLEOTRADER|52=20260608-20:58:11.821|56=FOLEOAPI|10=232|8=FIXT.1.1|9=63|35=0|34=85|49=FOLEOTRADER|52=20260608-20:58:31.999|56=FOLEOAPI|10=251|8=FIXT.1.1|9=63|35=0|34=86|49=FOLEOTRADER|52=20260608-20:58:52.160|56=FOLEOAPI|10=235|8=FIXT.1.1|9=63|35=0|34=87|49=FOLEOTRADER|52=20260608-20:59:12.303|56=FOLEOAPI|10=232|8=FIXT.1.1|9=63|35=0|34=88|49=FOLEOTRADER|52=20260608-20:59:32.491|56=FOLEOAPI|10=243|8=FIXT.1.1|9=63|35=0|34=89|49=FOLEOTRADER|52=20260608-20:59:52.626|56=FOLEOAPI|10=246|8=FIXT.1.1|9=63|35=0|34=90|49=FOLEOTRADER|52=20260608-21:00:13.508|56=FOLEOAPI|10=221|8=FIXT.1.1|9=63|35=0|34=91|49=FOLEOTRADER|52=20260608-21:00:33.652|56=FOLEOAPI|10=224|8=FIXT.1.1|9=63|35=0|34=92|49=FOLEOTRADER|52=20260608-21:00:53.817|56=FOLEOAPI|10=230|8=FIXT.1.1|9=63|35=0|34=93|49=FOLEOTRADER|52=20260608-21:01:13.954|56=FOLEOAPI|10=230|8=FIXT.1.1|9=63|35=0|34=94|49=FOLEOTRADER|52=20260608-21:01:34.120|56=FOLEOAPI|10=219|8=FIXT.1.1|9=63|35=0|34=95|49=FOLEOTRADER|52=20260608-21:01:54.280|56=FOLEOAPI|10=229|8=FIXT.1.1|9=63|35=0|34=96|49=FOLEOTRADER|52=20260608-21:02:14.466|56=FOLEOAPI|10=233|8=FIXT.1.1|9=63|35=0|34=97|49=FOLEOTRADER|52=20260608-21:02:34.631|56=FOLEOAPI|10=230|8=FIXT.1.1|9=63|35=0|34=98|49=FOLEOTRADER|52=20260608-21:02:54.792|56=FOLEOAPI|10=241|8=FIXT.1.1|9=63|35=0|34=99|49=FOLEOTRADER|52=20260608-21:03:14.982|56=FOLEOAPI|10=240|8=FIXT.1.1|9=64|35=0|34=100|49=FOLEOTRADER|52=20260608-21:03:35.183|56=FOLEOAPI|10=012|8=FIXT.1.1|9=64|35=0|34=101|49=FOLEOTRADER|52=20260608-21:03:55.338|56=FOLEOAPI|10=017|8=FIXT.1.1|9=64|35=0|34=102|49=FOLEOTRADER|52=20260608-21:04:15.510|56=FOLEOAPI|10=007|8=FIXT.1.1|9=64|35=0|34=103|49=FOLEOTRADER|52=20260608-21:04:35.703|56=FOLEOAPI|10=014|8=FIXT.1.1|9=64|35=0|34=104|49=FOLEOTRADER|52=20260608-21:04:55.860|56=FOLEOAPI|10=021|8=FIXT.1.1|9=64|35=0|34=105|49=FOLEOTRADER|52=20260608-21:05:16.039|56=FOLEOAPI|10=018|8=FIXT.1.1|9=64|35=0|34=106|49=FOLEOTRADER|52=20260608-21:05:36.189|56=FOLEOAPI|10=027|8=FIXT.1.1|9=64|35=0|34=107|49=FOLEOTRADER|52=20260608-21:05:56.338|56=FOLEOAPI|10=026|8=FIXT.1.1|9=64|35=0|34=108|49=FOLEOTRADER|52=20260608-21:06:16.513|56=FOLEOAPI|10=019|8=FIXT.1.1|9=64|35=0|34=109|49=FOLEOTRADER|52=20260608-21:06:36.679|56=FOLEOAPI|10=035|8=FIXT.1.1|9=64|35=0|34=110|49=FOLEOTRADER|52=20260608-21:06:56.819|56=FOLEOAPI|10=025|8=FIXT.1.1|9=64|35=0|34=111|49=FOLEOTRADER|52=20260608-21:07:16.999|56=FOLEOAPI|10=032|8=FIXT.1.1|9=64|35=0|34=112|49=FOLEOTRADER|52=20260608-21:07:37.170|56=FOLEOAPI|10=017|8=FIXT.1.1|9=64|35=0|34=113|49=FOLEOTRADER|52=20260608-21:07:57.349|56=FOLEOAPI|10=028|8=FIXT.1.1|9=64|35=0|34=114|49=FOLEOTRADER|52=20260608-21:08:17.467|56=FOLEOAPI|10=027|8=FIXT.1.1|9=64|35=0|34=115|49=FOLEOTRADER|52=20260608-21:08:37.628|56=FOLEOAPI|10=029|8=FIXT.1.1|9=64|35=0|34=116|49=FOLEOTRADER|52=20260608-21:08:57.818|56=FOLEOAPI|10=033|8=FIXT.1.1|9=64|35=0|34=117|49=FOLEOTRADER|52=20260608-21:09:17.956|56=FOLEOAPI|10=034|8=FIXT.1.1|9=64|35=0|34=118|49=FOLEOTRADER|52=20260608-21:09:38.139|56=FOLEOAPI|10=031|8=FIXT.1.1|9=64|35=0|34=119|49=FOLEOTRADER|52=20260608-21:09:58.282|56=FOLEOAPI|10=033|8=FIXT.1.1|9=64|35=0|34=120|49=FOLEOTRADER|52=20260608-21:10:18.408|56=FOLEOAPI|10=013|8=FIXT.1.1|9=64|35=0|34=121|49=FOLEOTRADER|52=20260608-21:10:38.592|56=FOLEOAPI|10=020|8=FIXT.1.1|9=64|35=0|34=122|49=FOLEOTRADER|52=20260608-21:10:58.761|56=FOLEOAPI|10=021|8=FIXT.1.1|9=64|35=0|34=123|49=FOLEOTRADER|52=20260608-21:11:18.892|56=FOLEOAPI|10=024|8=FIXT.1.1|9=64|35=0|34=124|49=FOLEOTRADER|52=20260608-21:11:39.054|56=FOLEOAPI|10=018|8=FIXT.1.1|9=64|35=0|34=125|49=FOLEOTRADER|52=20260608-21:11:59.193|56=FOLEOAPI|10=025|8=FIXT.1.1|9=64|35=0|34=126|49=FOLEOTRADER|52=20260608-21:12:19.332|56=FOLEOAPI|10=018|8=FIXT.1.1|9=64|35=0|34=127|49=FOLEOTRADER|52=20260608-21:12:39.493|56=FOLEOAPI|10=029|8=FIXT.1.1|9=64|35=0|34=128|49=FOLEOTRADER|52=20260608-21:12:59.673|56=FOLEOAPI|10=032|8=FIXT.1.1|9=64|35=0|34=129|49=FOLEOTRADER|52=20260608-21:13:19.841|56=FOLEOAPI|10=027|8=FIXT.1.1|9=64|35=0|34=130|49=FOLEOTRADER|52=20260608-21:13:39.989|56=FOLEOAPI|10=034|8=FIXT.1.1|9=64|35=0|34=131|49=FOLEOTRADER|52=20260608-21:14:00.201|56=FOLEOAPI|10=001|8=FIXT.1.1|9=64|35=0|34=132|49=FOLEOTRADER|52=20260608-21:14:20.373|56=FOLEOAPI|10=014|8=FIXT.1.1|9=64|35=0|34=133|49=FOLEOTRADER|52=20260608-21:14:40.547|56=FOLEOAPI|10=020|8=FIXT.1.1|9=64|35=0|34=134|49=FOLEOTRADER|52=20260608-21:15:00.706|56=FOLEOAPI|10=015|8=FIXT.1.1|9=64|35=0|34=135|49=FOLEOTRADER|52=20260608-21:15:20.881|56=FOLEOAPI|10=022|8=FIXT.1.1|9=64|35=0|34=136|49=FOLEOTRADER|52=20260608-21:15:41.023|56=FOLEOAPI|10=014|8=FIXT.1.1|9=64|35=0|34=137|49=FOLEOTRADER|52=20260608-21:16:01.192|56=FOLEOAPI|10=019|8=FIXT.1.1|9=64|35=0|34=138|49=FOLEOTRADER|52=20260608-21:16:21.367|56=FOLEOAPI|10=026|8=FIXT.1.1|9=64|35=0|34=139|49=FOLEOTRADER|52=20260608-21:16:41.518|56=FOLEOAPI|10=027|8=FIXT.1.1|9=64|35=0|34=140|49=FOLEOTRADER|52=20260608-21:17:01.700|56=FOLEOAPI|10=009|8=FIXT.1.1|9=64|35=0|34=141|49=FOLEOTRADER|52=20260608-21:17:21.874|56=FOLEOAPI|10=024|8=FIXT.1.1|9=64|35=0|34=142|49=FOLEOTRADER|52=20260608-21:17:41.996|56=FOLEOAPI|10=032|8=FIXT.1.1|9=64|35=0|34=143|49=FOLEOTRADER|52=20260608-21:18:02.148|56=FOLEOAPI|10=020|8=FIXT.1.1|9=64|35=0|34=144|49=FOLEOTRADER|52=20260608-21:18:22.313|56=FOLEOAPI|10=017|8=FIXT.1.1|9=64|35=0|34=145|49=FOLEOTRADER|52=20260608-21:18:42.448|56=FOLEOAPI|10=029|8=FIXT.1.1|9=64|35=0|34=146|49=FOLEOTRADER|52=20260608-21:19:02.592|56=FOLEOAPI|10=027|8=FIXT.1.1|9=64|35=0|34=147|49=FOLEOTRADER|52=20260608-21:19:22.776|56=FOLEOAPI|10=034|8=FIXT.1.1|9=64|35=0|34=148|49=FOLEOTRADER|52=20260608-21:19:42.949|56=FOLEOAPI|10=039|8=FIXT.1.1|9=64|35=0|34=149|49=FOLEOTRADER|52=20260608-21:20:03.143|56=FOLEOAPI|10=015|8=FIXT.1.1|9=64|35=0|34=150|49=FOLEOTRADER|52=20260608-21:20:23.299|56=FOLEOAPI|10=021|8=FIXT.1.1|9=64|35=0|34=151|49=FOLEOTRADER|52=20260608-21:20:43.481|56=FOLEOAPI|10=017|8=FIXT.1.1|9=64|35=0|34=152|49=FOLEOTRADER|52=20260608-21:21:03.629|56=FOLEOAPI|10=019|8=FIXT.1.1|9=64|35=0|34=153|49=FOLEOTRADER|52=20260608-21:21:23.779|56=FOLEOAPI|10=028|8=FIXT.1.1|9=64|35=0|34=154|49=FOLEOTRADER|52=20260608-21:21:43.931|56=FOLEOAPI|10=021|8=FIXT.1.1|9=64|35=0|34=155|49=FOLEOTRADER|52=20260608-21:22:04.099|56=FOLEOAPI|10=025|8=FIXT.1.1|9=64|35=0|34=156|49=FOLEOTRADER|52=20260608-21:22:24.279|56=FOLEOAPI|10=028|8=FIXT.1.1|9=64|35=0|34=157|49=FOLEOTRADER|52=20260608-21:22:44.411|56=FOLEOAPI|10=019|8=FIXT.1.1|9=64|35=0|34=158|49=FOLEOTRADER|52=20260608-21:23:04.570|56=FOLEOAPI|10=023|8=FIXT.1.1|9=64|35=0|34=159|49=FOLEOTRADER|52=20260608-21:23:24.765|56=FOLEOAPI|10=032|8=FIXT.1.1|9=64|35=0|34=160|49=FOLEOTRADER|52=20260608-21:23:44.911|56=FOLEOAPI|10=019|8=FIXT.1.1|9=64|35=0|34=161|49=FOLEOTRADER|52=20260608-21:24:05.037|56=FOLEOAPI|10=017|8=FIXT.1.1|9=64|35=0|34=162|49=FOLEOTRADER|52=20260608-21:24:25.210|56=FOLEOAPI|10=013|8=FIXT.1.1|9=64|35=0|34=163|49=FOLEOTRADER|52=20260608-21:24:45.335|56=FOLEOAPI|10=024|8=FIXT.1.1|9=64|35=0|34=164|49=FOLEOTRADER|52=20260608-21:25:05.505|56=FOLEOAPI|10=021|8=FIXT.1.1|9=64|35=0|34=165|49=FOLEOTRADER|52=20260608-21:25:25.644|56=FOLEOAPI|10=028|8=FIXT.1.1|9=64|35=0|34=166|49=FOLEOTRADER|52=20260608-21:25:45.826|56=FOLEOAPI|10=033|8=FIXT.1.1|9=64|35=0|34=167|49=FOLEOTRADER|52=20260608-21:26:05.933|56=FOLEOAPI|10=030|8=FIXT.1.1|9=64|35=0|34=168|49=FOLEOTRADER|52=20260608-21:26:26.102|56=FOLEOAPI|10=022|8=FIXT.1.1|9=64|35=0|34=169|49=FOLEOTRADER|52=20260608-21:26:46.276|56=FOLEOAPI|10=037|8=FIXT.1.1|9=64|35=0|34=170|49=FOLEOTRADER|52=20260608-21:27:06.466|56=FOLEOAPI|10=027|8=FIXT.1.1|9=64|35=0|34=171|49=FOLEOTRADER|52=20260608-21:27:26.665|56=FOLEOAPI|10=031|8=FIXT.1.1|9=64|35=0|34=172|49=FOLEOTRADER|52=20260608-21:27:46.829|56=FOLEOAPI|10=036|8=FIXT.1.1|9=64|35=0|34=173|49=FOLEOTRADER|52=20260608-21:28:07.003|56=FOLEOAPI|10=019|8=FIXT.1.1|9=64|35=0|34=174|49=FOLEOTRADER|52=20260608-21:28:27.198|56=FOLEOAPI|10=037|8=FIXT.1.1|9=64|35=0|34=175|49=FOLEOTRADER|52=20260608-21:28:47.355|56=FOLEOAPI|10=035|8=FIXT.1.1|9=64|35=0|34=176|49=FOLEOTRADER|52=20260608-21:29:07.537|56=FOLEOAPI|10=035|8=FIXT.1.1|9=64|35=0|34=177|49=FOLEOTRADER|52=20260608-21:29:27.688|56=FOLEOAPI|10=045|8=FIXT.1.1|9=64|35=0|34=178|49=FOLEOTRADER|52=20260608-21:29:47.843|56=FOLEOAPI|10=041|8=FIXT.1.1|9=64|35=0|34=179|49=FOLEOTRADER|52=20260608-21:30:08.013|56=FOLEOAPI|10=020|8=FIXT.1.1|9=64|35=0|34=180|49=FOLEOTRADER|52=20260608-21:30:28.156|56=FOLEOAPI|10=022|8=FIXT.1.1|9=64|35=0|34=181|49=FOLEOTRADER|52=20260608-21:30:48.324|56=FOLEOAPI|10=022|8=FIXT.1.1|9=64|35=0|34=182|49=FOLEOTRADER|52=20260608-21:31:08.621|56=FOLEOAPI|10=020|8=FIXT.1.1|9=64|35=0|34=183|49=FOLEOTRADER|52=20260608-21:31:28.750|56=FOLEOAPI|10=026|8=FIXT.1.1|9=64|35=0|34=184|49=FOLEOTRADER|52=20260608-21:31:48.946|56=FOLEOAPI|10=036|8=FIXT.1.1|9=64|35=0|34=185|49=FOLEOTRADER|52=20260608-21:32:09.089|56=FOLEOAPI|10=033|8=FIXT.1.1|9=64|35=0|34=186|49=FOLEOTRADER|52=20260608-21:32:29.288|56=FOLEOAPI|10=037|8=FIXT.1.1|9=64|35=0|34=187|49=FOLEOTRADER|52=20260608-21:32:49.428|56=FOLEOAPI|10=036|8=FIXT.1.1|9=64|35=0|34=188|49=FOLEOTRADER|52=20260608-21:33:09.592|56=FOLEOAPI|10=036|8=FIXT.1.1|9=64|35=0|34=189|49=FOLEOTRADER|52=20260608-21:33:29.768|56=FOLEOAPI|10=044|8=FIXT.1.1|9=64|35=0|34=190|49=FOLEOTRADER|52=20260608-21:33:49.955|56=FOLEOAPI|10=036|8=FIXT.1.1|9=64|35=0|34=191|49=FOLEOTRADER|52=20260608-21:34:10.096|56=FOLEOAPI|10=022|8=FIXT.1.1|9=64|35=0|34=192|49=FOLEOTRADER|52=20260608-21:34:30.270|56=FOLEOAPI|10=019|8=FIXT.1.1|9=64|35=0|34=193|49=FOLEOTRADER|52=20260608-21:34:50.432|56=FOLEOAPI|10=022|8=FIXT.1.1|9=64|35=0|34=194|49=FOLEOTRADER|52=20260608-21:35:10.572|56=FOLEOAPI|10=025|8=FIXT.1.1|9=64|35=0|34=195|49=FOLEOTRADER|52=20260608-21:35:30.729|56=FOLEOAPI|10=032|8=FIXT.1.1|9=64|35=0|34=196|49=FOLEOTRADER|52=20260608-21:35:50.911|56=FOLEOAPI|10=028|8=FIXT.1.1|9=64|35=0|34=197|49=FOLEOTRADER|52=20260608-21:36:11.082|56=FOLEOAPI|10=026|8=FIXT.1.1|9=64|35=0|34=198|49=FOLEOTRADER|52=20260608-21:36:31.243|56=FOLEOAPI|10=028|8=FIXT.1.1|9=64|35=0|34=199|49=FOLEOTRADER|52=20260608-21:36:51.428|56=FOLEOAPI|10=036|8=FIXT.1.1|9=64|35=0|34=200|49=FOLEOTRADER|52=20260608-21:37:11.564|56=FOLEOAPI|10=017|8=FIXT.1.1|9=64|35=0|34=201|49=FOLEOTRADER|52=20260608-21:37:31.748|56=FOLEOAPI|10=024|8=FIXT.1.1|9=64|35=0|34=202|49=FOLEOTRADER|52=20260608-21:37:51.896|56=FOLEOAPI|10=031|8=FIXT.1.1|9=64|35=0|34=203|49=FOLEOTRADER|52=20260608-21:38:12.076|56=FOLEOAPI|10=020|8=FIXT.1.1|9=64|35=0|34=204|49=FOLEOTRADER|52=20260608-21:38:32.242|56=FOLEOAPI|10=018|8=FIXT.1.1|9=64|35=0|34=205|49=FOLEOTRADER|52=20260608-21:38:52.415|56=FOLEOAPI|10=023|8=FIXT.1.1|9=64|35=0|34=206|49=FOLEOTRADER|52=20260608-21:39:12.545|56=FOLEOAPI|10=025|8=FIXT.1.1|9=64|35=0|34=207|49=FOLEOTRADER|52=20260608-21:39:32.732|56=FOLEOAPI|10=026|8=FIXT.1.1|9=64|35=0|34=208|49=FOLEOTRADER|52=20260608-21:39:52.881|56=FOLEOAPI|10=034|8=FIXT.1.1|9=64|35=0|34=209|49=FOLEOTRADER|52=20260608-21:40:13.003|56=FOLEOAPI|10=010|8=FIXT.1.1|9=64|35=0|34=210|49=FOLEOTRADER|52=20260608-21:40:33.183|56=FOLEOAPI|10=013|8=FIXT.1.1|9=64|35=0|34=211|49=FOLEOTRADER|52=20260608-21:40:53.372|56=FOLEOAPI|10=016|8=FIXT.1.1|9=64|35=0|34=212|49=FOLEOTRADER|52=20260608-21:41:13.525|56=FOLEOAPI|10=014|8=FIXT.1.1|9=64|35=0|34=213|49=FOLEOTRADER|52=20260608-21:41:33.665|56=FOLEOAPI|10=022|8=FIXT.1.1|9=64|35=0|34=214|49=FOLEOTRADER|52=20260608-21:41:53.839|56=FOLEOAPI|10=028|8=FIXT.1.1|9=64|35=0|34=215|49=FOLEOTRADER|52=20260608-21:42:13.982|56=FOLEOAPI|10=025|8=FIXT.1.1|9=64|35=0|34=216|49=FOLEOTRADER|52=20260608-21:42:34.131|56=FOLEOAPI|10=015|8=FIXT.1.1|9=64|35=0|34=217|49=FOLEOTRADER|52=20260608-21:42:54.290|56=FOLEOAPI|10=024|8=FIXT.1.1|9=64|35=0|34=218|49=FOLEOTRADER|52=20260608-21:43:14.498|56=FOLEOAPI|10=032|8=FIXT.1.1|9=64|35=0|34=219|49=FOLEOTRADER|52=20260608-21:43:34.632|56=FOLEOAPI|10=025|8=FIXT.1.1|9=64|35=0|34=220|49=FOLEOTRADER|52=20260608-21:43:54.779|56=FOLEOAPI|10=031|8=FIXT.1.1|9=64|35=0|34=221|49=FOLEOTRADER|52=20260608-21:44:14.938|56=FOLEOAPI|10=026|8=FIXT.1.1|9=64|35=0|34=222|49=FOLEOTRADER|52=20260608-21:44:35.124|56=FOLEOAPI|10=017|8=FIXT.1.1|9=64|35=0|34=223|49=FOLEOTRADER|52=20260608-21:44:55.262|56=FOLEOAPI|10=023|8=FIXT.1.1|9=64|35=0|34=224|49=FOLEOTRADER|52=20260608-21:45:15.436|56=FOLEOAPI|10=024|8=FIXT.1.1|9=64|35=0|34=225|49=FOLEOTRADER|52=20260608-21:45:35.609|56=FOLEOAPI|10=029|8=FIXT.1.1|9=64|35=0|34=226|49=FOLEOTRADER|52=20260608-21:45:55.758|56=FOLEOAPI|10=037|8=FIXT.1.1|9=64|35=0|34=227|49=FOLEOTRADER|52=20260608-21:46:15.929|56=FOLEOAPI|10=035|8=FIXT.1.1|9=64|35=0|34=228|49=FOLEOTRADER|52=20260608-21:46:36.057|56=FOLEOAPI|10=031|8=FIXT.1.1|9=64|35=0|34=229|49=FOLEOTRADER|52=20260608-21:46:56.224|56=FOLEOAPI|10=030|8=FIXT.1.1|9=64|35=0|34=230|49=FOLEOTRADER|52=20260608-21:47:16.395|56=FOLEOAPI|10=028|8=FIXT.1.1|9=64|35=0|34=231|49=FOLEOTRADER|52=20260608-21:47:36.570|56=FOLEOAPI|10=026|8=FIXT.1.1|9=64|35=0|34=232|49=FOLEOTRADER|52=20260608-21:47:56.739|56=FOLEOAPI|10=036|8=FIXT.1.1|9=64|35=0|34=233|49=FOLEOTRADER|52=20260608-21:48:16.902|56=FOLEOAPI|10=026|8=FIXT.1.1|9=64|35=0|34=234|49=FOLEOTRADER|52=20260608-21:48:37.094|56=FOLEOAPI|10=032|8=FIXT.1.1|9=64|35=0|34=235|49=FOLEOTRADER|52=20260608-21:48:57.267|56=FOLEOAPI|10=037|8=FIXT.1.1|9=64|35=0|34=236|49=FOLEOTRADER|52=20260608-21:49:17.444|56=FOLEOAPI|10=032|8=FIXT.1.1|9=64|35=0|34=237|49=FOLEOTRADER|52=20260608-21:49:37.631|56=FOLEOAPI|10=033|8=FIXT.1.1|9=64|35=0|34=238|49=FOLEOTRADER|52=20260608-21:49:57.788|56=FOLEOAPI|10=049|8=FIXT.1.1|9=64|35=0|34=239|49=FOLEOTRADER|52=20260608-21:50:17.908|56=FOLEOAPI|10=032|8=FIXT.1.1|9=64|35=0|34=240|49=FOLEOTRADER|52=20260608-21:50:38.107|56=FOLEOAPI|10=018|8=FIXT.1.1|9=64|35=0|34=241|49=FOLEOTRADER|52=20260608-21:50:58.293|56=FOLEOAPI|10=027|8=FIXT.1.1|9=64|35=0|34=242|49=FOLEOTRADER|52=20260608-21:51:18.469|56=FOLEOAPI|10=030|8=FIXT.1.1|9=64|35=0|34=243|49=FOLEOTRADER|52=20260608-21:51:38.621|56=FOLEOAPI|10=023|8=FIXT.1.1|9=64|35=0|34=244|49=FOLEOTRADER|52=20260608-21:51:58.806|56=FOLEOAPI|10=031|8=FIXT.1.1|9=64|35=0|34=245|49=FOLEOTRADER|52=20260608-21:52:18.980|56=FOLEOAPI|10=032|8=FIXT.1.1|9=64|35=0|34=246|49=FOLEOTRADER|52=20260608-21:52:39.135|56=FOLEOAPI|10=028|8=FIXT.1.1|9=64|35=0|34=247|49=FOLEOTRADER|52=20260608-21:52:59.305|56=FOLEOAPI|10=030|8=FIXT.1.1|9=64|35=0|34=248|49=FOLEOTRADER|52=20260608-21:53:19.472|56=FOLEOAPI|10=033|8=FIXT.1.1|9=64|35=0|34=249|49=FOLEOTRADER|52=20260608-21:53:39.625|56=FOLEOAPI|10=036|8=FIXT.1.1|9=64|35=0|34=250|49=FOLEOTRADER|52=20260608-21:53:59.827|56=FOLEOAPI|10=034|8=FIXT.1.1|9=64|35=0|34=251|49=FOLEOTRADER|52=20260608-21:54:19.986|56=FOLEOAPI|10=038|8=FIXT.1.1|9=64|35=0|34=252|49=FOLEOTRADER|52=20260608-21:54:40.164|56=FOLEOAPI|10=021|8=FIXT.1.1|9=64|35=0|34=253|49=FOLEOTRADER|52=20260608-21:55:00.383|56=FOLEOAPI|10=022|8=FIXT.1.1|9=64|35=0|34=254|49=FOLEOTRADER|52=20260608-21:55:20.554|56=FOLEOAPI|10=025|8=FIXT.1.1|9=64|35=0|34=255|49=FOLEOTRADER|52=20260608-21:55:40.744|56=FOLEOAPI|10=029|8=FIXT.1.1|9=64|35=0|34=256|49=FOLEOTRADER|52=20260608-21:56:00.948|56=FOLEOAPI|10=033|8=FIXT.1.1|9=64|35=0|34=257|49=FOLEOTRADER|52=20260608-21:56:21.122|56=FOLEOAPI|10=021|8=FIXT.1.1|9=64|35=0|34=258|49=FOLEOTRADER|52=20260608-21:56:41.267|56=FOLEOAPI|10=034|8=FIXT.1.1|9=64|35=0|34=259|49=FOLEOTRADER|52=20260608-21:57:01.456|56=FOLEOAPI|10=032|8=FIXT.1.1|9=64|35=0|34=260|49=FOLEOTRADER|52=20260608-21:57:21.663|56=FOLEOAPI|10=026|8=FIXT.1.1|9=64|35=0|34=261|49=FOLEOTRADER|52=20260608-21:57:41.854|56=FOLEOAPI|10=031|8=FIXT.1.1|9=64|35=0|34=262|49=FOLEOTRADER|52=20260608-21:58:02.063|56=FOLEOAPI|10=022|8=FIXT.1.1|9=64|35=0|34=263|49=FOLEOTRADER|52=20260608-21:58:22.270|56=FOLEOAPI|10=025|8=FIXT.1.1|9=64|35=0|34=264|49=FOLEOTRADER|52=20260608-21:58:42.463|56=FOLEOAPI|10=032|8=FIXT.1.1|9=64|35=0|34=265|49=FOLEOTRADER|52=20260608-21:59:02.631|56=FOLEOAPI|10=027|8=FIXT.1.1|9=64|35=0|34=266|49=FOLEOTRADER|52=20260608-21:59:22.798|56=FOLEOAPI|10=044|8=FIXT.1.1|9=64|35=0|34=267|49=FOLEOTRADER|52=20260608-21:59:42.958|56=FOLEOAPI|10=045|8=FIXT.1.1|9=64|35=0|34=268|49=FOLEOTRADER|52=20260608-22:00:03.116|56=FOLEOAPI|10=016|8=FIXT.1.1|9=64|35=0|34=269|49=FOLEOTRADER|52=20260608-22:00:23.285|56=FOLEOAPI|10=026|8=FIXT.1.1|9=64|35=0|34=270|49=FOLEOTRADER|52=20260608-22:00:43.448|56=FOLEOAPI|10=021|8=FIXT.1.1|9=64|35=0|34=271|49=FOLEOTRADER|52=20260608-22:01:03.668|56=FOLEOAPI|10=023|8=FIXT.1.1|9=64|35=0|34=272|49=FOLEOTRADER|52=20260608-22:01:23.883|56=FOLEOAPI|10=025|8=FIXT.1.1|9=64|35=0|34=273|49=FOLEOTRADER|52=20260608-22:01:44.073|56=FOLEOAPI|10=020|8=FIXT.1.1|9=64|35=0|34=274|49=FOLEOTRADER|52=20260608-22:02:04.229|56=FOLEOAPI|10=021|8=FIXT.1.1|9=64|35=0|34=275|49=FOLEOTRADER|52=20260608-22:02:24.428|56=FOLEOAPI|10=025|8=FIXT.1.1|9=64|35=0|34=276|49=FOLEOTRADER|52=20260608-22:02:44.613|56=FOLEOAPI|10=024|8=FIXT.1.1|9=64|35=0|34=277|49=FOLEOTRADER|52=20260608-22:03:04.808|56=FOLEOAPI|10=028|8=FIXT.1.1|9=64|35=0|34=278|49=FOLEOTRADER|52=20260608-22:03:24.998|56=FOLEOAPI|10=041|8=FIXT.1.1|9=64|35=0|34=279|49=FOLEOTRADER|52=20260608-22:03:45.173|56=FOLEOAPI|10=030|8=FIXT.1.1|9=64|35=0|34=280|49=FOLEOTRADER|52=20260608-22:04:05.339|56=FOLEOAPI|10=023|8=FIXT.1.1|9=64|35=0|34=281|49=FOLEOTRADER|52=20260608-22:04:25.527|56=FOLEOAPI|10=025|8=FIXT.1.1|9=64|35=0|34=282|49=FOLEOTRADER|52=20260608-22:04:45.712|56=FOLEOAPI|10=024|8=FIXT.1.1|9=64|35=0|34=283|49=FOLEOTRADER|52=20260608-22:05:05.877|56=FOLEOAPI|10=034|8=FIXT.1.1|9=64|35=0|34=284|49=FOLEOTRADER|52=20260608-22:05:26.090|56=FOLEOAPI|10=025|8=FIXT.1.1|9=64|35=0|34=285|49=FOLEOTRADER|52=20260608-22:05:46.219|56=FOLEOAPI|10=031|8=FIXT.1.1|9=64|35=0|34=286|49=FOLEOTRADER|52=20260608-22:06:06.367|56=FOLEOAPI|10=033|8=FIXT.1.1|9=64|35=0|34=287|49=FOLEOTRADER|52=20260608-22:06:26.552|56=FOLEOAPI|10=032|8=FIXT.1.1|9=64|35=0|34=288|49=FOLEOTRADER|52=20260608-22:06:46.757|56=FOLEOAPI|10=042|8=FIXT.1.1|9=64|35=0|34=289|49=FOLEOTRADER|52=20260608-22:07:06.956|56=FOLEOAPI|10=041|8=FIXT.1.1|9=64|35=0|34=290|49=FOLEOTRADER|52=20260608-22:07:27.145|56=FOLEOAPI|10=026|8=FIXT.1.1|9=64|35=0|34=291|49=FOLEOTRADER|52=20260608-22:07:47.331|56=FOLEOAPI|10=026|8=FIXT.1.1|9=64|35=0|34=292|49=FOLEOTRADER|52=20260608-22:08:07.521|56=FOLEOAPI|10=025|8=FIXT.1.1|9=64|35=0|34=293|49=FOLEOTRADER|52=20260608-22:08:27.703|56=FOLEOAPI|10=030|8=FIXT.1.1|9=64|35=0|34=294|49=FOLEOTRADER|52=20260608-22:08:47.912|56=FOLEOAPI|10=035|8=FIXT.1.1|9=64|35=0|34=295|49=FOLEOTRADER|52=20260608-22:09:08.104|56=FOLEOAPI|10=027|8=FIXT.1.1|9=64|35=0|34=296|49=FOLEOTRADER|52=20260608-22:09:28.263|56=FOLEOAPI|10=036|8=FIXT.1.1|9=64|35=0|34=297|49=FOLEOTRADER|52=20260608-22:09:48.473|56=FOLEOAPI|10=042|8=FIXT.1.1|9=64|35=0|34=298|49=FOLEOTRADER|52=20260608-22:10:08.673|56=FOLEOAPI|10=033|8=FIXT.1.1|9=64|35=0|34=299|49=FOLEOTRADER|52=20260608-22:10:28.876|56=FOLEOAPI|10=041|8=FIXT.1.1|9=64|35=0|34=300|49=FOLEOTRADER|52=20260608-22:10:49.036|56=FOLEOAPI|10=015|8=FIXT.1.1|9=64|35=0|34=301|49=FOLEOTRADER|52=20260608-22:11:09.238|56=FOLEOAPI|10=017|8=FIXT.1.1|9=64|35=0|34=302|49=FOLEOTRADER|52=20260608-22:11:29.413|56=FOLEOAPI|10=015|8=FIXT.1.1|9=64|35=0|34=303|49=FOLEOTRADER|52=20260608-22:11:49.579|56=FOLEOAPI|10=031|8=FIXT.1.1|9=64|35=0|34=304|49=FOLEOTRADER|52=20260608-22:12:09.761|56=FOLEOAPI|10=022|8=FIXT.1.1|9=64|35=0|34=305|49=FOLEOTRADER|52=20260608-22:12:29.918|56=FOLEOAPI|10=029|8=FIXT.1.1|9=64|35=0|34=306|49=FOLEOTRADER|52=20260608-22:12:50.098|56=FOLEOAPI|10=023|8=FIXT.1.1|9=64|35=0|34=307|49=FOLEOTRADER|52=20260608-22:13:10.302|56=FOLEOAPI|10=009|8=FIXT.1.1|9=64|35=0|34=308|49=FOLEOTRADER|52=20260608-22:13:30.534|56=FOLEOAPI|10=019|8=FIXT.1.1|9=64|35=0|34=309|49=FOLEOTRADER|52=20260608-22:13:50.724|56=FOLEOAPI|10=023|8=FIXT.1.1|9=64|35=0|34=310|49=FOLEOTRADER|52=20260608-22:14:10.901|56=FOLEOAPI|10=009|8=FIXT.1.1|9=64|35=0|34=311|49=FOLEOTRADER|52=20260608-22:14:31.093|56=FOLEOAPI|10=015|8=FIXT.1.1|9=64|35=0|34=312|49=FOLEOTRADER|52=20260608-22:14:51.265|56=FOLEOAPI|10=019|8=FIXT.1.1|9=64|35=0|34=313|49=FOLEOTRADER|52=20260608-22:15:11.462|56=FOLEOAPI|10=016|8=FIXT.1.1|9=64|35=0|34=314|49=FOLEOTRADER|52=20260608-22:15:31.671|56=FOLEOAPI|10=021|8=FIXT.1.1|9=64|35=0|34=315|49=FOLEOTRADER|52=20260608-22:15:51.842|56=FOLEOAPI|10=024|8=FIXT.1.1|9=64|35=0|34=316|49=FOLEOTRADER|52=20260608-22:16:12.008|56=FOLEOAPI|10=017|8=FIXT.1.1|9=64|35=0|34=317|49=FOLEOTRADER|52=20260608-22:16:32.193|56=FOLEOAPI|10=025|8=FIXT.1.1|9=64|35=0|34=318|49=FOLEOTRADER|52=20260608-22:16:52.372|56=FOLEOAPI|10=027|8=FIXT.1.1|9=64|35=0|34=319|49=FOLEOTRADER|52=20260608-22:17:12.532|56=FOLEOAPI|10=023|8=FIXT.1.1|9=64|35=0|34=320|49=FOLEOTRADER|52=20260608-22:17:32.691|56=FOLEOAPI|10=023|8=FIXT.1.1|9=64|35=0|34=321|49=FOLEOTRADER|52=20260608-22:17:52.865|56=FOLEOAPI|10=029|8=FIXT.1.1|9=64|35=0|34=322|49=FOLEOTRADER|52=20260608-22:18:13.055|56=FOLEOAPI|10=019|8=FIXT.1.1|9=64|35=0|34=323|49=FOLEOTRADER|52=20260608-22:18:33.241|56=FOLEOAPI|10=019|8=FIXT.1.1|9=64|35=0|34=324|49=FOLEOTRADER|52=20260608-22:18:53.424|56=FOLEOAPI|10=025|8=FIXT.1.1|9=64|35=0|34=325|49=FOLEOTRADER|52=20260608-22:19:13.613|56=FOLEOAPI|10=023|8=FIXT.1.1|9=64|35=0|34=326|49=FOLEOTRADER|52=20260608-22:19:33.787|56=FOLEOAPI|10=038|8=FIXT.1.1|9=64|35=0|34=327|49=FOLEOTRADER|52=20260608-22:19:54.011|56=FOLEOAPI|10=022|8=FIXT.1.1|9=64|35=0|34=328|49=FOLEOTRADER|52=20260608-22:20:14.232|56=FOLEOAPI|10=016|8=FIXT.1.1|9=64|35=0|34=329|49=FOLEOTRADER|52=20260608-22:20:34.391|56=FOLEOAPI|10=025|8=FIXT.1.1|9=64|35=0|34=330|49=FOLEOTRADER|52=20260608-22:20:54.536|56=FOLEOAPI|10=020|8=FIXT.1.1|9=64|35=0|34=331|49=FOLEOTRADER|52=20260608-22:21:14.761|56=FOLEOAPI|10=018|8=FIXT.1.1|9=64|35=0|34=332|49=FOLEOTRADER|52=20260608-22:21:34.943|56=FOLEOAPI|10=023|8=FIXT.1.1|9=64|35=0|34=333|49=FOLEOTRADER|52=20260608-22:21:55.106|56=FOLEOAPI|10=018|8=FIXT.1.1|9=64|35=0|34=334|49=FOLEOTRADER|52=20260608-22:22:15.288|56=FOLEOAPI|10=027|8=FIXT.1.1|9=64|35=0|34=335|49=FOLEOTRADER|52=20260608-22:22:35.503|56=FOLEOAPI|10=020|8=FIXT.1.1|9=64|35=0|34=336|49=FOLEOTRADER|52=20260608-22:22:55.684|56=FOLEOAPI|10=033|8=FIXT.1.1|9=64|35=0|34=337|49=FOLEOTRADER|52=20260608-22:23:15.851|56=FOLEOAPI|10=027|8=FIXT.1.1|9=64|35=0|34=338|49=FOLEOTRADER|52=20260608-22:23:36.237|56=FOLEOAPI|10=029|8=FIXT.1.1|9=64|35=0|34=339|49=FOLEOTRADER|52=20260608-22:23:56.369|56=FOLEOAPI|10=038|8=FIXT.1.1|9=64|35=0|34=340|49=FOLEOTRADER|52=20260608-22:24:16.497|56=FOLEOAPI|10=029|8=FIXT.1.1|9=64|35=0|34=341|49=FOLEOTRADER|52=20260608-22:24:36.629|56=FOLEOAPI|10=029|8=FIXT.1.1|9=64|35=0|34=342|49=FOLEOTRADER|52=20260608-22:24:56.779|56=FOLEOAPI|10=038|8=FIXT.1.1|9=64|35=0|34=343|49=FOLEOTRADER|52=20260608-22:25:16.947|56=FOLEOAPI|10=033|8=FIXT.1.1|9=64|35=0|34=344|49=FOLEOTRADER|52=20260608-22:25:37.101|56=FOLEOAPI|10=019|8=FIXT.1.1|9=64|35=0|34=345|49=FOLEOTRADER|52=20260608-22:25:57.235|56=FOLEOAPI|10=030|8=FIXT.1.1|9=64|35=0|34=346|49=FOLEOTRADER|52=20260608-22:26:17.351|56=FOLEOAPI|10=027|8=FIXT.1.1|9=64|35=0|34=347|49=FOLEOTRADER|52=20260608-22:26:37.470|56=FOLEOAPI|10=032|8=FIXT.1.1|9=64|35=0|34=348|49=FOLEOTRADER|52=20260608-22:26:57.644|56=FOLEOAPI|10=038|8=FIXT.1.1|9=64|35=0|34=349|49=FOLEOTRADER|52=20260608-22:27:17.805|56=FOLEOAPI|10=035|8=FIXT.1.1|9=64|35=0|34=350|49=FOLEOTRADER|52=20260608-22:27:37.980|56=FOLEOAPI|10=033|8=FIXT.1.1|9=64|35=0|34=351|49=FOLEOTRADER|52=20260608-22:27:58.139|56=FOLEOAPI|10=033|8=FIXT.1.1|9=64|35=0|34=352|49=FOLEOTRADER|52=20260608-22:28:18.247|56=FOLEOAPI|10=031|8=FIXT.1.1|9=64|35=0|34=353|49=FOLEOTRADER|52=20260608-22:28:38.377|56=FOLEOAPI|10=038|8=FIXT.1.1|9=64|35=0|34=354|49=FOLEOTRADER|52=20260608-22:28:58.488|56=FOLEOAPI|10=044|8=FIXT.1.1|9=64|35=0|34=355|49=FOLEOTRADER|52=20260608-22:29:18.625|56=FOLEOAPI|10=035|8=FIXT.1.1|9=64|35=0|34=356|49=FOLEOTRADER|52=20260608-22:29:38.698|56=FOLEOAPI|10=048|8=FIXT.1.1|9=64|35=0|34=357|49=FOLEOTRADER|52=20260608-22:29:58.834|56=FOLEOAPI|10=043|8=FIXT.1.1|9=64|35=0|34=358|49=FOLEOTRADER|52=20260608-22:30:19.120|56=FOLEOAPI|10=021|8=FIXT.1.1|9=64|35=0|34=359|49=FOLEOTRADER|52=20260608-22:30:39.244|56=FOLEOAPI|10=031|8=FIXT.1.1|9=64|35=0|34=360|49=FOLEOTRADER|52=20260608-22:30:59.514|56=FOLEOAPI|10=025|8=FIXT.1.1|9=64|35=0|34=361|49=FOLEOTRADER|52=20260608-22:31:19.666|56=FOLEOAPI|10=031|8=FIXT.1.1|9=64|35=0|34=362|49=FOLEOTRADER|52=20260608-22:31:40.557|56=FOLEOAPI|10=025|8=FIXT.1.1|9=64|35=0|34=363|49=FOLEOTRADER|52=20260608-22:32:00.754|56=FOLEOAPI|10=022|8=FIXT.1.1|9=64|35=0|34=364|49=FOLEOTRADER|52=20260608-22:32:20.958|56=FOLEOAPI|10=031|8=FIXT.1.1|9=64|35=0|34=365|49=FOLEOTRADER|52=20260608-22:32:41.105|56=FOLEOAPI|10=019|8=FIXT.1.1|9=64|35=0|34=366|49=FOLEOTRADER|52=20260608-22:33:01.242|56=FOLEOAPI|10=019|8=FIXT.1.1|9=64|35=0|34=367|49=FOLEOTRADER|52=20260608-22:33:21.379|56=FOLEOAPI|10=033|8=FIXT.1.1|9=64|35=0|34=368|49=FOLEOTRADER|52=20260608-22:33:41.535|56=FOLEOAPI|10=030|8=FIXT.1.1|9=64|35=0|34=369|49=FOLEOTRADER|52=20260608-22:34:01.744|56=FOLEOAPI|10=030|8=FIXT.1.1|9=64|35=0|34=370|49=FOLEOTRADER|52=20260608-22:34:21.909|56=FOLEOAPI|10=027|8=FIXT.1.1|9=64|35=0|34=371|49=FOLEOTRADER|52=20260608-22:34:42.086|56=FOLEOAPI|10=027|8=FIXT.1.1|9=64|35=0|34=372|49=FOLEOTRADER|52=20260608-22:35:02.220|56=FOLEOAPI|10=015|8=FIXT.1.1|9=64|35=0|34=373|49=FOLEOTRADER|52=20260608-22:35:22.364|56=FOLEOAPI|10=027|8=FIXT.1.1|9=64|35=0|34=374|49=FOLEOTRADER|52=20260608-22:35:42.578|56=FOLEOAPI|10=037|8=FIXT.1.1|9=64|35=0|34=375|49=FOLEOTRADER|52=20260608-22:36:02.815|56=FOLEOAPI|10=029|8=FIXT.1.1|9=64|35=0|34=376|49=FOLEOTRADER|52=20260608-22:36:23.018|56=FOLEOAPI|10=028|8=FIXT.1.1|9=64|35=0|34=377|49=FOLEOTRADER|52=20260608-22:36:43.128|56=FOLEOAPI|10=033|8=FIXT.1.1|9=64|35=0|34=378|49=FOLEOTRADER|52=20260608-22:37:03.270|56=FOLEOAPI|10=029|8=FIXT.1.1|9=64|35=0|34=379|49=FOLEOTRADER|52=20260608-22:37:23.407|56=FOLEOAPI|10=034|8=FIXT.1.1|9=64|35=0|34=380|49=FOLEOTRADER|52=20260608-22:37:43.592|56=FOLEOAPI|10=033|8=FIXT.1.1|9=64|35=0|34=381|49=FOLEOTRADER|52=20260608-22:38:03.809|56=FOLEOAPI|10=032|8=FIXT.1.1|9=64|35=0|34=382|49=FOLEOTRADER|52=20260608-22:38:24.127|56=FOLEOAPI|10=029|8=FIXT.1.1|9=64|35=0|34=383|49=FOLEOTRADER|52=20260608-22:38:44.536|56=FOLEOAPI|10=036|8=FIXT.1.1|9=64|35=0|34=384|49=FOLEOTRADER|52=20260608-22:39:04.928|56=FOLEOAPI|10=039|8=FIXT.1.1|9=64|35=0|34=385|49=FOLEOTRADER|52=20260608-22:39:25.132|56=FOLEOAPI|10=030|8=FIXT.1.1|9=64|35=0|34=386|49=FOLEOTRADER|52=20260608-22:39:45.584|56=FOLEOAPI|10=044|8=FIXT.1.1|9=64|35=0|34=387|49=FOLEOTRADER|52=20260608-22:40:05.740|56=FOLEOAPI|10=027|8=FIXT.1.1|9=64|35=0|34=388|49=FOLEOTRADER|52=20260608-22:40:25.859|56=FOLEOAPI|10=041|8=FIXT.1.1|9=64|35=0|34=389|49=FOLEOTRADER|52=20260608-22:40:46.016|56=FOLEOAPI|10=030|8=FIXT.1.1|9=64|35=0|34=390|49=FOLEOTRADER|52=20260608-22:41:06.218|56=FOLEOAPI|10=023|8=FIXT.1.1|9=64|35=0|34=391|49=FOLEOTRADER|52=20260608-22:41:26.376|56=FOLEOAPI|10=031|8=FIXT.1.1|9=64|35=0|34=392|49=FOLEOTRADER|52=20260608-22:41:46.547|56=FOLEOAPI|10=034|8=FIXT.1.1|9=64|35=0|34=393|49=FOLEOTRADER|52=20260608-22:42:06.724|56=FOLEOAPI|10=029|8=FIXT.1.1|9=64|35=0|34=394|49=FOLEOTRADER|52=20260608-22:42:26.888|56=FOLEOAPI|10=043|8=FIXT.1.1|9=64|35=0|34=395|49=FOLEOTRADER|52=20260608-22:42:47.131|56=FOLEOAPI|10=028|8=FIXT.1.1|9=64|35=0|34=396|49=FOLEOTRADER|52=20260608-22:43:07.312|56=FOLEOAPI|10=027|8=FIXT.1.1|9=64|35=0|34=397|49=FOLEOTRADER|52=20260608-22:43:27.484|56=FOLEOAPI|10=040|8=FIXT.1.1|9=64|35=0|34=398|49=FOLEOTRADER|52=20260608-22:43:47.587|56=FOLEOAPI|10=047|8=FIXT.1.1|9=64|35=0|34=399|49=FOLEOTRADER|52=20260608-22:44:07.775|56=FOLEOAPI|10=044|8=FIXT.1.1|9=64|35=0|34=400|49=FOLEOTRADER|52=20260608-22:44:27.920|56=FOLEOAPI|10=021|8=FIXT.1.1|9=64|35=0|34=401|49=FOLEOTRADER|52=20260608-22:44:48.088|56=FOLEOAPI|10=030|8=FIXT.1.1|9=64|35=0|34=402|49=FOLEOTRADER|52=20260608-22:45:08.358|56=FOLEOAPI|10=028|