8=FIXT.1.1|9=81|35=A|34=1|49=FOLEOTRADER|52=20260701-01:06:09.481|56=FOLEOAPI|98=0|108=20|1137=9|10=020|8=FIXT.1.1|9=315|35=8|34=2|49=FOLEOTRADER|52=20260701-01:06:14.555|56=FOLEOAPI|6=173.394432|11=FT-6-019f1b3643cf74e997e4d03e3f5d3dc8|14=94|15=USD|17=EXEC-019f1b36599372858baf069aece4cfbf|22=8|31=173.394432|32=94|37=FOLEOTRADER-019f1b3645fc746ab5608ad2b57f0ebb|38=187|39=1|44=173.568|48=PEP|54=1|55=PEP|150=F|151=93|381=16299.076608|10=218|8=FIXT.1.1|9=318|35=8|34=3|49=FOLEOTRADER|52=20260701-01:06:16.558|56=FOLEOAPI|6=173.5332864|11=FT-6-019f1b3643cf74e997e4d03e3f5d3dc8|14=133|15=USD|17=EXEC-019f1b36616e7fbdb90ebdabef8faf6f|22=8|31=173.5332864|32=39|37=FOLEOTRADER-019f1b3645fc746ab5608ad2b57f0ebb|38=187|39=1|44=173.568|48=PEP|54=1|55=PEP|150=F|151=54|381=6767.7981696|10=110|8=FIXT.1.1|9=317|35=8|34=4|49=FOLEOTRADER|52=20260701-01:06:17.570|56=FOLEOAPI|6=173.4812160|11=FT-6-019f1b3643cf74e997e4d03e3f5d3dc8|14=187|15=USD|17=EXEC-019f1b3665627c7fbedf6298bf1e272d|22=8|31=173.4812160|32=54|37=FOLEOTRADER-019f1b3645fc746ab5608ad2b57f0ebb|38=187|39=2|44=173.568|48=PEP|54=1|55=PEP|150=F|151=0|381=9367.9856640|10=003|8=FIXT.1.1|9=62|35=0|34=5|49=FOLEOTRADER|52=20260701-01:06:37.780|56=FOLEOAPI|10=174|8=FIXT.1.1|9=62|35=0|34=6|49=FOLEOTRADER|52=20260701-01:06:58.019|56=FOLEOAPI|10=173|8=FIXT.1.1|9=62|35=0|34=7|49=FOLEOTRADER|52=20260701-01:07:18.235|56=FOLEOAPI|10=171|8=FIXT.1.1|9=62|35=0|34=8|49=FOLEOTRADER|52=20260701-01:07:38.450|56=FOLEOAPI|10=173|8=FIXT.1.1|9=62|35=0|34=9|49=FOLEOTRADER|52=20260701-01:07:58.671|56=FOLEOAPI|10=181|8=FIXT.1.1|9=63|35=0|34=10|49=FOLEOTRADER|52=20260701-01:08:18.942|56=FOLEOAPI|10=220|8=FIXT.1.1|9=63|35=0|34=11|49=FOLEOTRADER|52=20260701-01:08:39.129|56=FOLEOAPI|10=221|8=FIXT.1.1|9=63|35=0|34=12|49=FOLEOTRADER|52=20260701-01:08:59.337|56=FOLEOAPI|10=225|8=FIXT.1.1|9=63|35=0|34=13|49=FOLEOTRADER|52=20260701-01:09:19.668|56=FOLEOAPI|10=230|8=FIXT.1.1|9=63|35=0|34=14|49=FOLEOTRADER|52=20260701-01:09:39.968|56=FOLEOAPI|10=236|8=FIXT.1.1|9=63|35=0|34=15|49=FOLEOTRADER|52=20260701-01:10:00.174|56=FOLEOAPI|10=206|8=FIXT.1.1|9=63|35=0|34=16|49=FOLEOTRADER|52=20260701-01:10:20.385|56=FOLEOAPI|10=213|8=FIXT.1.1|9=63|35=0|34=17|49=FOLEOTRADER|52=20260701-01:10:40.586|56=FOLEOAPI|10=219|8=FIXT.1.1|9=63|35=0|34=18|49=FOLEOTRADER|52=20260701-01:11:00.779|56=FOLEOAPI|10=221|8=FIXT.1.1|9=63|35=0|34=19|49=FOLEOTRADER|52=20260701-01:11:21.011|56=FOLEOAPI|10=204|8=FIXT.1.1|9=63|35=0|34=20|49=FOLEOTRADER|52=20260701-01:11:41.246|56=FOLEOAPI|10=208|8=FIXT.1.1|9=63|35=0|34=21|49=FOLEOTRADER|52=20260701-01:12:01.458|56=FOLEOAPI|10=211|8=FIXT.1.1|9=63|35=0|34=22|49=FOLEOTRADER|52=20260701-01:12:21.674|56=FOLEOAPI|10=214|8=FIXT.1.1|9=63|35=0|34=23|49=FOLEOTRADER|52=20260701-01:12:41.914|56=FOLEOAPI|10=214|8=FIXT.1.1|9=63|35=0|34=24|49=FOLEOTRADER|52=20260701-01:13:02.151|56=FOLEOAPI|10=206|8=FIXT.1.1|9=63|35=0|34=25|49=FOLEOTRADER|52=20260701-01:13:22.364|56=FOLEOAPI|10=215|8=FIXT.1.1|9=63|35=0|34=26|49=FOLEOTRADER|52=20260701-01:13:42.578|56=FOLEOAPI|10=225|8=FIXT.1.1|9=63|35=0|34=27|49=FOLEOTRADER|52=20260701-01:14:02.780|56=FOLEOAPI|10=218|8=FIXT.1.1|9=63|35=0|34=28|49=FOLEOTRADER|52=20260701-01:14:22.979|56=FOLEOAPI|10=231|8=FIXT.1.1|9=63|35=0|34=29|49=FOLEOTRADER|52=20260701-01:14:43.186|56=FOLEOAPI|10=225|8=FIXT.1.1|9=63|35=0|34=30|49=FOLEOTRADER|52=20260701-01:15:03.357|56=FOLEOAPI|10=214|8=FIXT.1.1|9=63|35=0|34=31|49=FOLEOTRADER|52=20260701-01:15:23.522|56=FOLEOAPI|10=211|8=FIXT.1.1|9=63|35=0|34=32|49=FOLEOTRADER|52=20260701-01:15:43.785|56=FOLEOAPI|10=225|8=FIXT.1.1|9=63|35=0|34=33|49=FOLEOTRADER|52=20260701-01:16:03.933|56=FOLEOAPI|10=218|8=FIXT.1.1|9=63|35=0|34=34|49=FOLEOTRADER|52=20260701-01:16:24.192|56=FOLEOAPI|10=219|8=FIXT.1.1|9=63|35=0|34=35|49=FOLEOTRADER|52=20260701-01:16:44.443|56=FOLEOAPI|10=221|8=FIXT.1.1|9=63|35=0|34=36|49=FOLEOTRADER|52=20260701-01:17:04.707|56=FOLEOAPI|10=222|8=FIXT.1.1|9=63|35=0|34=37|49=FOLEOTRADER|52=20260701-01:17:24.919|56=FOLEOAPI|10=230|8=FIXT.1.1|9=63|35=0|34=38|49=FOLEOTRADER|52=20260701-01:17:45.214|56=FOLEOAPI|10=222|8=FIXT.1.1|9=63|35=0|34=39|49=FOLEOTRADER|52=20260701-01:18:05.417|56=FOLEOAPI|10=225|8=FIXT.1.1|9=63|35=0|34=40|49=FOLEOTRADER|52=20260701-01:18:25.634|56=FOLEOAPI|10=220|8=FIXT.1.1|9=63|35=0|34=41|49=FOLEOTRADER|52=20260701-01:18:45.866|56=FOLEOAPI|10=230|8=FIXT.1.1|9=63|35=0|34=42|49=FOLEOTRADER|52=20260701-01:19:06.069|56=FOLEOAPI|10=224|8=FIXT.1.1|9=63|35=0|34=43|49=FOLEOTRADER|52=20260701-01:19:26.299|56=FOLEOAPI|10=232|8=FIXT.1.1|9=63|35=0|34=44|49=FOLEOTRADER|52=20260701-01:19:46.536|56=FOLEOAPI|10=229|8=FIXT.1.1|9=63|35=0|34=45|49=FOLEOTRADER|52=20260701-01:20:06.738|56=FOLEOAPI|10=222|8=FIXT.1.1|9=63|35=0|34=46|49=FOLEOTRADER|52=20260701-01:20:27.065|56=FOLEOAPI|10=219|8=FIXT.1.1|9=63|35=0|34=47|49=FOLEOTRADER|52=20260701-01:20:47.389|56=FOLEOAPI|10=231|8=FIXT.1.1|9=63|35=0|34=48|49=FOLEOTRADER|52=20260701-01:21:07.655|56=FOLEOAPI|10=225|8=FIXT.1.1|9=63|35=0|34=49|49=FOLEOTRADER|52=20260701-01:21:27.867|56=FOLEOAPI|10=233|8=FIXT.1.1|9=63|35=0|34=50|49=FOLEOTRADER|52=20260701-01:21:48.125|56=FOLEOAPI|10=215|8=FIXT.1.1|9=63|35=0|34=51|49=FOLEOTRADER|52=20260701-01:22:08.378|56=FOLEOAPI|10=223|8=FIXT.1.1|9=63|35=0|34=52|49=FOLEOTRADER|52=20260701-01:22:28.625|56=FOLEOAPI|10=221|8=FIXT.1.1|9=63|35=0|34=53|49=FOLEOTRADER|52=20260701-01:22:48.844|56=FOLEOAPI|10=227|8=FIXT.1.1|9=63|35=0|34=54|49=FOLEOTRADER|52=20260701-01:23:09.030|56=FOLEOAPI|10=213|8=FIXT.1.1|9=63|35=0|34=55|49=FOLEOTRADER|52=20260701-01:23:29.245|56=FOLEOAPI|10=224|8=FIXT.1.1|9=63|35=0|34=56|49=FOLEOTRADER|52=20260701-01:23:49.455|56=FOLEOAPI|10=230|8=FIXT.1.1|9=63|35=0|34=57|49=FOLEOTRADER|52=20260701-01:24:10.303|56=FOLEOAPI|10=212|8=FIXT.1.1|9=303|35=8|34=58|49=FOLEOTRADER|52=20260701-01:24:29.701|56=FOLEOAPI|6=172.9481|11=FT-8-019f1b47079a72efaeb665fc883428dd|14=14|15=USD|17=EXEC-019f1b470f857009b6167b8e12190879|22=8|31=172.9481|32=14|37=FOLEOTRADER-019f1b4707ad72929b214fc1a4d6e8b5|38=20|39=1|44=173|48=PEP|54=2|55=PEP|150=F|151=6|381=2421.2734|10=154|8=FIXT.1.1|9=302|35=8|34=59|49=FOLEOTRADER|52=20260701-01:24:32.707|56=FOLEOAPI|6=172.9481|11=FT-8-019f1b47079a72efaeb665fc883428dd|14=20|15=USD|17=EXEC-019f1b471b437e29810b3a7943b3763f|22=8|31=172.9481|32=6|37=FOLEOTRADER-019f1b4707ad72929b214fc1a4d6e8b5|38=20|39=2|44=173|48=PEP|54=2|55=PEP|150=F|151=0|381=1037.6886|10=198|8=FIXT.1.1|9=63|35=0|34=60|49=FOLEOTRADER|52=20260701-01:24:52.910|56=FOLEOAPI|10=216|8=FIXT.1.1|9=63|35=0|34=61|49=FOLEOTRADER|52=20260701-01:25:13.544|56=FOLEOAPI|10=218|8=FIXT.1.1|9=63|35=0|34=62|49=FOLEOTRADER|52=20260701-01:25:33.783|56=FOLEOAPI|10=226|8=FIXT.1.1|9=63|35=0|34=63|49=FOLEOTRADER|52=20260701-01:25:53.957|56=FOLEOAPI|10=232|8=FIXT.1.1|9=63|35=0|34=64|49=FOLEOTRADER|52=20260701-01:26:14.222|56=FOLEOAPI|10=216|8=FIXT.1.1|9=63|35=0|34=65|49=FOLEOTRADER|52=20260701-01:26:34.433|56=FOLEOAPI|10=223|8=FIXT.1.1|9=63|35=0|34=66|49=FOLEOTRADER|52=20260701-01:26:54.661|56=FOLEOAPI|10=229|8=FIXT.1.1|9=63|35=0|34=67|49=FOLEOTRADER|52=20260701-01:27:14.856|56=FOLEOAPI|10=233|8=FIXT.1.1|9=63|35=0|34=68|49=FOLEOTRADER|52=20260701-01:27:35.082|56=FOLEOAPI|10=228|8=FIXT.1.1|9=63|35=0|34=69|49=FOLEOTRADER|52=20260701-01:27:55.436|56=FOLEOAPI|10=234|8=FIXT.1.1|9=63|35=0|34=70|49=FOLEOTRADER|52=20260701-01:28:15.597|56=FOLEOAPI|10=231|8=FIXT.1.1|9=63|35=0|34=71|49=FOLEOTRADER|52=20260701-01:28:35.865|56=FOLEOAPI|10=232|8=FIXT.1.1|9=63|35=0|34=72|49=FOLEOTRADER|52=20260701-01:28:56.170|56=FOLEOAPI|10=225|8=FIXT.1.1|9=63|35=0|34=73|49=FOLEOTRADER|52=20260701-01:29:16.625|56=FOLEOAPI|10=228|8=FIXT.1.1|9=63|35=0|34=74|49=FOLEOTRADER|52=20260701-01:29:37.293|56=FOLEOAPI|10=233|8=FIXT.1.1|9=63|35=0|34=75|49=FOLEOTRADER|52=20260701-01:29:57.793|56=FOLEOAPI|10=241|8=FIXT.1.1|9=63|35=0|34=76|49=FOLEOTRADER|52=20260701-01:30:18.476|56=FOLEOAPI|10=229|8=FIXT.1.1|9=63|35=0|34=77|49=FOLEOTRADER|52=20260701-01:30:38.895|56=FOLEOAPI|10=237|8=FIXT.1.1|9=63|35=0|34=78|49=FOLEOTRADER|52=20260701-01:30:59.435|56=FOLEOAPI|10=231|8=FIXT.1.1|9=63|35=0|34=79|49=FOLEOTRADER|52=20260701-01:31:20.280|56=FOLEOAPI|10=219|8=FIXT.1.1|9=63|35=0|34=80|49=FOLEOTRADER|52=20260701-01:31:40.528|56=FOLEOAPI|10=218|8=FIXT.1.1|9=63|35=0|34=81|49=FOLEOTRADER|52=20260701-01:32:00.662|56=FOLEOAPI|10=215|8=FIXT.1.1|9=63|35=0|34=82|49=FOLEOTRADER|52=20260701-01:32:20.837|56=FOLEOAPI|10=222|8=FIXT.1.1|9=63|35=0|34=83|49=FOLEOTRADER|52=20260701-01:32:41.062|56=FOLEOAPI|10=216|8=FIXT.1.1|9=63|35=0|34=84|49=FOLEOTRADER|52=20260701-01:33:01.260|56=FOLEOAPI|10=214|8=FIXT.1.1|9=63|35=0|34=85|49=FOLEOTRADER|52=20260701-01:33:21.452|56=FOLEOAPI|10=220|8=FIXT.1.1|9=63|35=0|34=86|49=FOLEOTRADER|52=20260701-01:33:41.734|56=FOLEOAPI|10=226|8=FIXT.1.1|9=63|35=0|34=87|49=FOLEOTRADER|52=20260701-01:34:01.986|56=FOLEOAPI|10=233|8=FIXT.1.1|9=63|35=0|34=88|49=FOLEOTRADER|52=20260701-01:34:22.197|56=FOLEOAPI|10=231|8=FIXT.1.1|9=63|35=0|34=89|49=FOLEOTRADER|52=20260701-01:34:42.487|56=FOLEOAPI|10=236|8=FIXT.1.1|9=63|35=0|34=90|49=FOLEOTRADER|52=20260701-01:35:02.650|56=FOLEOAPI|10=217|8=FIXT.1.1|9=63|35=0|34=91|49=FOLEOTRADER|52=20260701-01:35:22.858|56=FOLEOAPI|10=230|8=FIXT.1.1|9=63|35=0|34=92|49=FOLEOTRADER|52=20260701-01:35:43.047|56=FOLEOAPI|10=224|8=FIXT.1.1|9=63|35=0|34=93|49=FOLEOTRADER|52=20260701-01:36:03.261|56=FOLEOAPI|10=220|8=FIXT.1.1|9=63|35=0|34=94|49=FOLEOTRADER|52=20260701-01:36:23.500|56=FOLEOAPI|10=219|8=FIXT.1.1|9=63|35=0|34=95|49=FOLEOTRADER|52=20260701-01:36:43.665|56=FOLEOAPI|10=234|8=FIXT.1.1|9=63|35=0|34=96|49=FOLEOTRADER|52=20260701-01:37:03.870|56=FOLEOAPI|10=230|8=FIXT.1.1|9=63|35=0|34=97|49=FOLEOTRADER|52=20260701-01:37:24.021|56=FOLEOAPI|10=222|8=FIXT.1.1|9=63|35=0|34=98|49=FOLEOTRADER|52=20260701-01:37:44.244|56=FOLEOAPI|10=232|8=FIXT.1.1|9=63|35=0|34=99|49=FOLEOTRADER|52=20260701-01:38:04.436|56=FOLEOAPI|10=233|8=FIXT.1.1|9=64|35=0|34=100|49=FOLEOTRADER|52=20260701-01:38:24.614|56=FOLEOAPI|10=009|8=FIXT.1.1|9=64|35=0|34=101|49=FOLEOTRADER|52=20260701-01:38:44.857|56=FOLEOAPI|10=021|8=FIXT.1.1|9=64|35=0|34=102|49=FOLEOTRADER|52=20260701-01:39:05.060|56=FOLEOAPI|10=006|8=FIXT.1.1|9=64|35=0|34=103|49=FOLEOTRADER|52=20260701-01:39:25.481|56=FOLEOAPI|10=016|8=FIXT.1.1|9=64|35=0|34=104|49=FOLEOTRADER|52=20260701-01:39:45.695|56=FOLEOAPI|10=026|8=FIXT.1.1|9=64|35=0|34=105|49=FOLEOTRADER|52=20260701-01:40:05.917|56=FOLEOAPI|10=012|8=FIXT.1.1|9=64|35=0|34=106|49=FOLEOTRADER|52=20260701-01:40:26.072|56=FOLEOAPI|10=008|8=FIXT.1.1|9=64|35=0|34=107|49=FOLEOTRADER|52=20260701-01:40:46.324|56=FOLEOAPI|10=011|8=FIXT.1.1|9=64|35=0|34=108|49=FOLEOTRADER|52=20260701-01:41:06.621|56=FOLEOAPI|10=009|8=FIXT.1.1|9=64|35=0|34=109|49=FOLEOTRADER|52=20260701-01:41:26.819|56=FOLEOAPI|10=021|8=FIXT.1.1|9=64|35=0|34=110|49=FOLEOTRADER|52=20260701-01:41:47.023|56=FOLEOAPI|10=003|8=FIXT.1.1|9=64|35=0|34=111|49=FOLEOTRADER|52=20260701-01:42:07.246|56=FOLEOAPI|10=008|8=FIXT.1.1|9=64|35=0|34=112|49=FOLEOTRADER|52=20260701-01:42:27.443|56=FOLEOAPI|10=010|8=FIXT.1.1|9=64|35=0|34=113|49=FOLEOTRADER|52=20260701-01:42:47.660|56=FOLEOAPI|10=014|8=FIXT.1.1|9=64|35=0|34=114|49=FOLEOTRADER|52=20260701-01:43:07.826|56=FOLEOAPI|10=016|8=FIXT.1.1|9=64|35=0|34=115|49=FOLEOTRADER|52=20260701-01:43:28.052|56=FOLEOAPI|10=011|8=FIXT.1.1|9=64|35=0|34=116|49=FOLEOTRADER|52=20260701-01:43:48.245|56=FOLEOAPI|10=018|8=FIXT.1.1|9=64|35=0|34=117|49=FOLEOTRADER|52=20260701-01:44:08.457|56=FOLEOAPI|10=021|8=FIXT.1.1|9=64|35=0|34=118|49=FOLEOTRADER|52=20260701-01:44:28.633|56=FOLEOAPI|10=020|8=FIXT.1.1|9=64|35=0|34=119|49=FOLEOTRADER|52=20260701-01:44:48.893|56=FOLEOAPI|10=031|8=FIXT.1.1|9=64|35=0|34=120|49=FOLEOTRADER|52=20260701-01:45:09.120|56=FOLEOAPI|10=004|8=FIXT.1.1|9=64|35=0|34=121|49=FOLEOTRADER|52=20260701-01:45:29.333|56=FOLEOAPI|10=013|8=FIXT.1.1|9=64|35=0|34=122|49=FOLEOTRADER|52=20260701-01:45:49.594|56=FOLEOAPI|10=025|8=FIXT.1.1|9=64|35=0|34=123|49=FOLEOTRADER|52=20260701-01:46:10.112|56=FOLEOAPI|10=001|8=FIXT.1.1|9=64|35=0|34=124|49=FOLEOTRADER|52=20260701-01:46:30.307|56=FOLEOAPI|10=010|8=FIXT.1.1|9=64|35=0|34=125|49=FOLEOTRADER|52=20260701-01:46:50.537|56=FOLEOAPI|10=018|8=FIXT.1.1|9=64|35=0|34=126|49=FOLEOTRADER|52=20260701-01:47:10.729|56=FOLEOAPI|10=019|8=FIXT.1.1|9=64|35=0|34=127|49=FOLEOTRADER|52=20260701-01:47:30.917|56=FOLEOAPI|10=021|8=FIXT.1.1|9=64|35=0|34=128|49=FOLEOTRADER|52=20260701-01:47:51.071|56=FOLEOAPI|10=016|8=FIXT.1.1|9=64|35=0|34=129|49=FOLEOTRADER|52=20260701-01:48:11.249|56=FOLEOAPI|10=021|8=FIXT.1.1|9=64|35=0|34=130|49=FOLEOTRADER|52=20260701-01:48:31.459|56=FOLEOAPI|10=018|8=FIXT.1.1|9=64|35=0|34=131|49=FOLEOTRADER|52=20260701-01:48:51.637|56=FOLEOAPI|10=019|8=FIXT.1.1|9=64|35=0|34=132|49=FOLEOTRADER|52=20260701-01:49:11.949|56=FOLEOAPI|10=023|8=FIXT.1.1|9=64|35=0|34=133|49=FOLEOTRADER|52=20260701-01:49:32.253|56=FOLEOAPI|10=015|8=FIXT.1.1|9=64|35=0|34=134|49=FOLEOTRADER|52=20260701-01:49:52.507|56=FOLEOAPI|10=020|8=FIXT.1.1|9=64|35=0|34=135|49=FOLEOTRADER|52=20260701-01:50:12.712|56=FOLEOAPI|10=007|8=FIXT.1.1|9=64|35=0|34=136|49=FOLEOTRADER|52=20260701-01:50:32.940|56=FOLEOAPI|10=013|8=FIXT.1.1|9=64|35=0|34=137|49=FOLEOTRADER|52=20260701-01:50:53.183|56=FOLEOAPI|10=016|8=FIXT.1.1|9=64|35=0|34=138|49=FOLEOTRADER|52=20260701-01:51:13.384|56=FOLEOAPI|10=017|8=FIXT.1.1|9=64|35=0|34=139|49=FOLEOTRADER|52=20260701-01:51:33.621|56=FOLEOAPI|10=014|8=FIXT.1.1|9=64|35=0|34=140|49=FOLEOTRADER|52=20260701-01:51:53.810|56=FOLEOAPI|10=008|8=FIXT.1.1|9=64|35=0|34=141|49=FOLEOTRADER|52=20260701-01:52:13.996|56=FOLEOAPI|10=021|8=FIXT.1.1|9=64|35=0|34=142|49=FOLEOTRADER|52=20260701-01:52:34.198|56=FOLEOAPI|10=019|8=FIXT.1.1|9=64|35=0|34=143|49=FOLEOTRADER|52=20260701-01:52:54.409|56=FOLEOAPI|10=017|8=FIXT.1.1|9=64|35=0|34=144|49=FOLEOTRADER|52=20260701-01:53:14.662|56=FOLEOAPI|10=016|8=FIXT.1.1|9=64|35=0|34=145|49=FOLEOTRADER|52=20260701-01:53:34.859|56=FOLEOAPI|10=027|8=FIXT.1.1|9=64|35=0|34=146|49=FOLEOTRADER|52=20260701-01:53:55.054|56=FOLEOAPI|10=018|8=FIXT.1.1|9=64|35=0|34=147|49=FOLEOTRADER|52=20260701-01:54:15.260|56=FOLEOAPI|10=015|8=FIXT.1.1|9=64|35=0|34=148|49=FOLEOTRADER|52=20260701-01:54:35.460|56=FOLEOAPI|10=020|8=FIXT.1.1|9=64|35=0|34=149|49=FOLEOTRADER|52=20260701-01:54:55.675|56=FOLEOAPI|10=031|8=FIXT.1.1|9=64|35=0|34=150|49=FOLEOTRADER|52=20260701-01:55:15.872|56=FOLEOAPI|10=019|8=FIXT.1.1|9=64|35=0|34=151|49=FOLEOTRADER|52=20260701-01:55:36.125|56=FOLEOAPI|10=014|8=FIXT.1.1|9=64|35=0|34=152|49=FOLEOTRADER|52=20260701-01:55:56.318|56=FOLEOAPI|10=021|8=FIXT.1.1|9=64|35=0|34=153|49=FOLEOTRADER|52=20260701-01:56:16.563|56=FOLEOAPI|10=021|8=FIXT.1.1|9=64|35=0|34=154|49=FOLEOTRADER|52=20260701-01:56:36.749|56=FOLEOAPI|10=030|8=FIXT.1.1|9=64|35=0|34=155|49=FOLEOTRADER|52=20260701-01:56:57.003|56=FOLEOAPI|10=017|8=FIXT.1.1|9=64|35=0|34=156|49=FOLEOTRADER|52=20260701-01:57:17.142|56=FOLEOAPI|10=019|8=FIXT.1.1|9=64|35=0|34=157|49=FOLEOTRADER|52=20260701-01:57:37.373|56=FOLEOAPI|10=028|8=FIXT.1.1|9=64|35=0|34=158|49=FOLEOTRADER|52=20260701-01:57:57.623|56=FOLEOAPI|10=029|8=FIXT.1.1|9=64|35=0|34=159|49=FOLEOTRADER|52=20260701-01:58:17.792|56=FOLEOAPI|10=034|8=FIXT.1.1|9=64|35=0|34=160|49=FOLEOTRADER|52=20260701-01:58:38.144|56=FOLEOAPI|10=020|8=FIXT.1.1|9=64|35=0|34=161|49=FOLEOTRADER|52=20260701-01:58:58.381|56=FOLEOAPI|10=026|8=FIXT.1.1|9=64|35=0|34=162|49=FOLEOTRADER|52=20260701-01:59:18.576|56=FOLEOAPI|10=030|8=FIXT.1.1|9=64|35=0|34=163|49=FOLEOTRADER|52=20260701-01:59:38.785|56=FOLEOAPI|10=035|8=FIXT.1.1|9=64|35=0|34=164|49=FOLEOTRADER|52=20260701-01:59:58.951|56=FOLEOAPI|10=033|8=FIXT.1.1|9=64|35=0|34=165|49=FOLEOTRADER|52=20260701-02:00:19.173|56=FOLEOAPI|10=014|8=FIXT.1.1|9=64|35=0|34=166|49=FOLEOTRADER|52=20260701-02:00:39.378|56=FOLEOAPI|10=024|8=FIXT.1.1|9=64|35=0|34=167|49=FOLEOTRADER|52=20260701-02:00:59.618|56=FOLEOAPI|10=024|8=FIXT.1.1|9=64|35=0|34=168|49=FOLEOTRADER|52=20260701-02:01:19.847|56=FOLEOAPI|10=026|8=FIXT.1.1|9=64|35=0|34=169|49=FOLEOTRADER|52=20260701-02:01:40.066|56=FOLEOAPI|10=014|8=FIXT.1.1|9=64|35=0|34=170|49=FOLEOTRADER|52=20260701-02:02:00.268|56=FOLEOAPI|10=007|8=FIXT.1.1|9=64|35=0|34=171|49=FOLEOTRADER|52=20260701-02:02:20.500|56=FOLEOAPI|10=255|8=FIXT.1.1|9=64|35=0|34=172|49=FOLEOTRADER|52=20260701-02:02:40.669|56=FOLEOAPI|10=018|8=FIXT.1.1|9=64|35=0|34=173|49=FOLEOTRADER|52=20260701-02:03:00.856|56=FOLEOAPI|10=014|8=FIXT.1.1|9=64|35=0|34=174|49=FOLEOTRADER|52=20260701-02:03:21.024|56=FOLEOAPI|10=005|8=FIXT.1.1|9=64|35=0|34=175|49=FOLEOTRADER|52=20260701-02:03:41.196|56=FOLEOAPI|10=018|8=FIXT.1.1|9=64|35=0|34=176|49=FOLEOTRADER|52=20260701-02:04:01.402|56=FOLEOAPI|10=006|8=FIXT.1.1|9=64|35=0|34=177|49=FOLEOTRADER|52=20260701-02:04:21.619|56=FOLEOAPI|10=019|8=FIXT.1.1|9=64|35=0|34=178|49=FOLEOTRADER|52=20260701-02:04:41.866|56=FOLEOAPI|10=026|8=FIXT.1.1|9=64|35=0|34=179|49=FOLEOTRADER|52=20260701-02:05:02.067|56=FOLEOAPI|10=018|8=FIXT.1.1|9=64|35=0|34=180|49=FOLEOTRADER|52=20260701-02:05:22.317|56=FOLEOAPI|10=010|8=FIXT.1.1|9=64|35=0|34=181|49=FOLEOTRADER|52=20260701-02:05:42.560|56=FOLEOAPI|10=013|8=FIXT.1.1|9=64|35=0|34=182|49=FOLEOTRADER|52=20260701-02:06:02.821|56=FOLEOAPI|10=011|8=FIXT.1.1|9=64|35=0|34=183|49=FOLEOTRADER|52=20260701-02:06:23.019|56=FOLEOAPI|10=014|8=FIXT.1.1|9=64|35=0|34=184|49=FOLEOTRADER|52=20260701-02:06:43.365|56=FOLEOAPI|10=021|8=FIXT.1.1|9=64|35=0|34=185|49=FOLEOTRADER|52=20260701-02:07:03.828|56=FOLEOAPI|10=023|8=FIXT.1.1|9=64|35=0|34=186|49=FOLEOTRADER|52=20260701-02:07:24.075|56=FOLEOAPI|10=021|8=FIXT.1.1|9=64|35=0|34=187|49=FOLEOTRADER|52=20260701-02:07:44.306|56=FOLEOAPI|10=021|8=FIXT.1.1|9=64|35=0|34=188|49=FOLEOTRADER|52=20260701-02:08:04.534|56=FOLEOAPI|10=022|8=FIXT.1.1|9=64|35=0|34=189|49=FOLEOTRADER|52=20260701-02:08:24.768|56=FOLEOAPI|10=034|8=FIXT.1.1|9=64|35=0|34=190|49=FOLEOTRADER|52=20260701-02:08:44.916|56=FOLEOAPI|10=023|8=FIXT.1.1|9=64|35=0|34=191|49=FOLEOTRADER|52=20260701-02:09:05.198|56=FOLEOAPI|10=024|8=FIXT.1.1|9=64|35=0|34=192|49=FOLEOTRADER|52=20260701-02:09:25.383|56=FOLEOAPI|10=023|8=FIXT.1.1|9=64|35=0|34=193|49=FOLEOTRADER|52=20260701-02:09:45.529|56=FOLEOAPI|10=028|8=FIXT.1.1|9=64|35=0|34=194|49=FOLEOTRADER|52=20260701-02:10:05.710|56=FOLEOAPI|10=009|8=FIXT.1.1|9=64|35=0|34=195|49=FOLEOTRADER|52=20260701-02:10:25.933|56=FOLEOAPI|10=019|8=FIXT.1.1|9=64|35=0|34=196|49=FOLEOTRADER|52=20260701-02:10:46.133|56=FOLEOAPI|10=015|8=FIXT.1.1|9=64|35=0|34=197|49=FOLEOTRADER|52=20260701-02:11:06.392|56=FOLEOAPI|10=020|8=FIXT.1.1|9=64|35=0|34=198|49=FOLEOTRADER|52=20260701-02:11:26.609|56=FOLEOAPI|10=024|8=FIXT.1.1|9=64|35=0|34=199|49=FOLEOTRADER|52=20260701-02:11:46.767|56=FOLEOAPI|10=032|8=FIXT.1.1|9=64|35=0|34=200|49=FOLEOTRADER|52=20260701-02:12:06.996|56=FOLEOAPI|10=016|8=FIXT.1.1|9=64|35=5|34=201|49=FOLEOTRADER|52=20260701-02:12:22.189|56=FOLEOAPI|10=014|