20260608-19:55:37.168 : 8=FIXT.1.1|9=87|35=A|34=1|49=FOLEOAPI|52=20260608-19:55:37.123|56=FOLEOTRADER|98=0|108=20|141=Y|1137=9|10=084|
20260608-19:55:37.250 : 8=FIXT.1.1|9=81|35=A|34=1|49=FOLEOTRADER|52=20260608-19:55:37.242|56=FOLEOAPI|98=0|108=20|1137=9|10=035|
20260608-19:55:57.391 : 8=FIXT.1.1|9=62|35=0|34=2|49=FOLEOTRADER|52=20260608-19:55:57.389|56=FOLEOAPI|10=197|
20260608-19:55:57.394 : 8=FIXT.1.1|9=62|35=0|34=2|49=FOLEOAPI|52=20260608-19:55:57.393|56=FOLEOTRADER|10=192|
20260608-19:56:17.576 : 8=FIXT.1.1|9=62|35=0|34=3|49=FOLEOTRADER|52=20260608-19:56:17.574|56=FOLEOAPI|10=191|
20260608-19:56:17.580 : 8=FIXT.1.1|9=62|35=0|34=3|49=FOLEOAPI|52=20260608-19:56:17.578|56=FOLEOTRADER|10=195|
20260608-19:56:37.776 : 8=FIXT.1.1|9=62|35=0|34=4|49=FOLEOTRADER|52=20260608-19:56:37.774|56=FOLEOAPI|10=196|
20260608-19:56:37.778 : 8=FIXT.1.1|9=62|35=0|34=4|49=FOLEOAPI|52=20260608-19:56:37.774|56=FOLEOTRADER|10=196|
20260608-19:56:57.930 : 8=FIXT.1.1|9=62|35=0|34=5|49=FOLEOTRADER|52=20260608-19:56:57.929|56=FOLEOAPI|10=201|
20260608-19:56:57.933 : 8=FIXT.1.1|9=62|35=0|34=5|49=FOLEOAPI|52=20260608-19:56:57.929|56=FOLEOTRADER|10=201|
20260608-19:57:18.089 : 8=FIXT.1.1|9=62|35=0|34=6|49=FOLEOTRADER|52=20260608-19:57:18.087|56=FOLEOAPI|10=195|
20260608-19:57:18.092 : 8=FIXT.1.1|9=62|35=0|34=6|49=FOLEOAPI|52=20260608-19:57:18.091|56=FOLEOTRADER|10=190|
20260608-19:57:38.283 : 8=FIXT.1.1|9=62|35=0|34=7|49=FOLEOTRADER|52=20260608-19:57:38.282|56=FOLEOAPI|10=195|
20260608-19:57:38.283 : 8=FIXT.1.1|9=62|35=0|34=7|49=FOLEOAPI|52=20260608-19:57:38.282|56=FOLEOTRADER|10=195|
20260608-19:57:58.469 : 8=FIXT.1.1|9=62|35=0|34=8|49=FOLEOTRADER|52=20260608-19:57:58.463|56=FOLEOAPI|10=199|
20260608-19:57:58.470 : 8=FIXT.1.1|9=62|35=0|34=8|49=FOLEOAPI|52=20260608-19:57:58.463|56=FOLEOTRADER|10=199|
20260608-19:58:18.622 : 8=FIXT.1.1|9=62|35=0|34=9|49=FOLEOTRADER|52=20260608-19:58:18.618|56=FOLEOAPI|10=199|
20260608-19:58:18.640 : 8=FIXT.1.1|9=62|35=0|34=9|49=FOLEOAPI|52=20260608-19:58:18.620|56=FOLEOTRADER|10=192|
20260608-19:58:38.810 : 8=FIXT.1.1|9=63|35=0|34=10|49=FOLEOTRADER|52=20260608-19:58:38.808|56=FOLEOAPI|10=243|
20260608-19:58:38.811 : 8=FIXT.1.1|9=63|35=0|34=10|49=FOLEOAPI|52=20260608-19:58:38.808|56=FOLEOTRADER|10=243|
20260608-19:58:58.914 : 8=FIXT.1.1|9=63|35=0|34=11|49=FOLEOTRADER|52=20260608-19:58:58.912|56=FOLEOAPI|10=242|
20260608-19:58:58.918 : 8=FIXT.1.1|9=63|35=0|34=11|49=FOLEOAPI|52=20260608-19:58:58.917|56=FOLEOTRADER|10=247|
20260608-19:59:19.112 : 8=FIXT.1.1|9=63|35=0|34=12|49=FOLEOTRADER|52=20260608-19:59:19.110|56=FOLEOAPI|10=231|
20260608-19:59:19.116 : 8=FIXT.1.1|9=63|35=0|34=12|49=FOLEOAPI|52=20260608-19:59:19.110|56=FOLEOTRADER|10=231|
20260608-19:59:39.281 : 8=FIXT.1.1|9=63|35=0|34=13|49=FOLEOTRADER|52=20260608-19:59:39.279|56=FOLEOAPI|10=250|
20260608-19:59:39.292 : 8=FIXT.1.1|9=63|35=0|34=13|49=FOLEOAPI|52=20260608-19:59:39.279|56=FOLEOTRADER|10=250|
20260608-19:59:59.446 : 8=FIXT.1.1|9=63|35=0|34=14|49=FOLEOAPI|52=20260608-19:59:59.445|56=FOLEOTRADER|10=248|
20260608-19:59:59.448 : 8=FIXT.1.1|9=63|35=0|34=14|49=FOLEOTRADER|52=20260608-19:59:59.447|56=FOLEOAPI|10=250|
20260608-20:00:19.597 : 8=FIXT.1.1|9=63|35=0|34=15|49=FOLEOTRADER|52=20260608-20:00:19.594|56=FOLEOAPI|10=228|
20260608-20:00:19.598 : 8=FIXT.1.1|9=63|35=0|34=15|49=FOLEOAPI|52=20260608-20:00:19.596|56=FOLEOTRADER|10=230|
20260608-20:00:39.762 : 8=FIXT.1.1|9=63|35=0|34=16|49=FOLEOTRADER|52=20260608-20:00:39.761|56=FOLEOAPI|10=227|
20260608-20:00:39.762 : 8=FIXT.1.1|9=63|35=0|34=16|49=FOLEOAPI|52=20260608-20:00:39.760|56=FOLEOTRADER|10=226|
20260608-20:00:59.932 : 8=FIXT.1.1|9=63|35=0|34=17|49=FOLEOTRADER|52=20260608-20:00:59.931|56=FOLEOAPI|10=229|
20260608-20:00:59.932 : 8=FIXT.1.1|9=63|35=0|34=17|49=FOLEOAPI|52=20260608-20:00:59.931|56=FOLEOTRADER|10=229|
20260608-20:01:20.095 : 8=FIXT.1.1|9=63|35=0|34=18|49=FOLEOTRADER|52=20260608-20:01:20.094|56=FOLEOAPI|10=219|
20260608-20:01:20.096 : 8=FIXT.1.1|9=63|35=0|34=18|49=FOLEOAPI|52=20260608-20:01:20.094|56=FOLEOTRADER|10=219|
20260608-20:01:40.300 : 8=FIXT.1.1|9=63|35=0|34=19|49=FOLEOTRADER|52=20260608-20:01:40.299|56=FOLEOAPI|10=229|
20260608-20:01:40.301 : 8=FIXT.1.1|9=63|35=0|34=19|49=FOLEOAPI|52=20260608-20:01:40.299|56=FOLEOTRADER|10=229|
20260608-20:02:00.490 : 8=FIXT.1.1|9=63|35=0|34=20|49=FOLEOTRADER|52=20260608-20:02:00.489|56=FOLEOAPI|10=219|
20260608-20:02:00.491 : 8=FIXT.1.1|9=63|35=0|34=20|49=FOLEOAPI|52=20260608-20:02:00.489|56=FOLEOTRADER|10=219|
20260608-20:02:20.692 : 8=FIXT.1.1|9=63|35=0|34=21|49=FOLEOTRADER|52=20260608-20:02:20.689|56=FOLEOAPI|10=224|
20260608-20:02:20.693 : 8=FIXT.1.1|9=63|35=0|34=21|49=FOLEOAPI|52=20260608-20:02:20.689|56=FOLEOTRADER|10=224|
20260608-20:02:40.870 : 8=FIXT.1.1|9=63|35=0|34=22|49=FOLEOTRADER|52=20260608-20:02:40.864|56=FOLEOAPI|10=222|
20260608-20:02:40.873 : 8=FIXT.1.1|9=63|35=0|34=22|49=FOLEOAPI|52=20260608-20:02:40.864|56=FOLEOTRADER|10=222|
20260608-20:03:01.056 : 8=FIXT.1.1|9=63|35=0|34=23|49=FOLEOTRADER|52=20260608-20:03:01.054|56=FOLEOAPI|10=212|
20260608-20:03:01.056 : 8=FIXT.1.1|9=63|35=0|34=23|49=FOLEOAPI|52=20260608-20:03:01.054|56=FOLEOTRADER|10=212|
20260608-20:03:21.225 : 8=FIXT.1.1|9=63|35=0|34=24|49=FOLEOTRADER|52=20260608-20:03:21.222|56=FOLEOAPI|10=212|
20260608-20:03:21.227 : 8=FIXT.1.1|9=63|35=0|34=24|49=FOLEOAPI|52=20260608-20:03:21.221|56=FOLEOTRADER|10=211|
20260608-20:03:41.378 : 8=FIXT.1.1|9=63|35=0|34=25|49=FOLEOTRADER|52=20260608-20:03:41.377|56=FOLEOAPI|10=226|
20260608-20:03:41.382 : 8=FIXT.1.1|9=63|35=0|34=25|49=FOLEOAPI|52=20260608-20:03:41.377|56=FOLEOTRADER|10=226|
20260608-20:04:01.555 : 8=FIXT.1.1|9=63|35=0|34=26|49=FOLEOTRADER|52=20260608-20:04:01.553|56=FOLEOAPI|10=220|
20260608-20:04:01.556 : 8=FIXT.1.1|9=63|35=0|34=26|49=FOLEOAPI|52=20260608-20:04:01.553|56=FOLEOTRADER|10=220|
20260608-20:04:21.738 : 8=FIXT.1.1|9=63|35=0|34=27|49=FOLEOTRADER|52=20260608-20:04:21.734|56=FOLEOAPI|10=224|
20260608-20:04:21.751 : 8=FIXT.1.1|9=63|35=0|34=27|49=FOLEOAPI|52=20260608-20:04:21.730|56=FOLEOTRADER|10=220|
20260608-20:04:41.943 : 8=FIXT.1.1|9=63|35=0|34=28|49=FOLEOTRADER|52=20260608-20:04:41.941|56=FOLEOAPI|10=227|
20260608-20:04:41.943 : 8=FIXT.1.1|9=63|35=0|34=28|49=FOLEOAPI|52=20260608-20:04:41.941|56=FOLEOTRADER|10=227|
20260608-20:05:02.100 : 8=FIXT.1.1|9=63|35=0|34=29|49=FOLEOTRADER|52=20260608-20:05:02.099|56=FOLEOAPI|10=230|
20260608-20:05:02.100 : 8=FIXT.1.1|9=63|35=0|34=29|49=FOLEOAPI|52=20260608-20:05:02.099|56=FOLEOTRADER|10=230|
20260608-20:05:22.265 : 8=FIXT.1.1|9=63|35=0|34=30|49=FOLEOTRADER|52=20260608-20:05:22.262|56=FOLEOAPI|10=216|
20260608-20:05:22.265 : 8=FIXT.1.1|9=63|35=0|34=30|49=FOLEOAPI|52=20260608-20:05:22.262|56=FOLEOTRADER|10=216|
20260608-20:05:42.414 : 8=FIXT.1.1|9=63|35=0|34=31|49=FOLEOTRADER|52=20260608-20:05:42.413|56=FOLEOAPI|10=217|
20260608-20:05:42.415 : 8=FIXT.1.1|9=63|35=0|34=31|49=FOLEOAPI|52=20260608-20:05:42.413|56=FOLEOTRADER|10=217|
20260608-20:06:02.560 : 8=FIXT.1.1|9=63|35=0|34=32|49=FOLEOTRADER|52=20260608-20:06:02.557|56=FOLEOAPI|10=224|
20260608-20:06:02.563 : 8=FIXT.1.1|9=63|35=0|34=32|49=FOLEOAPI|52=20260608-20:06:02.561|56=FOLEOTRADER|10=219|
20260608-20:06:22.731 : 8=FIXT.1.1|9=63|35=0|34=33|49=FOLEOTRADER|52=20260608-20:06:22.730|56=FOLEOAPI|10=220|
20260608-20:06:22.732 : 8=FIXT.1.1|9=63|35=0|34=33|49=FOLEOAPI|52=20260608-20:06:22.730|56=FOLEOTRADER|10=220|
20260608-20:06:42.868 : 8=FIXT.1.1|9=63|35=0|34=34|49=FOLEOTRADER|52=20260608-20:06:42.866|56=FOLEOAPI|10=233|
20260608-20:06:42.869 : 8=FIXT.1.1|9=63|35=0|34=34|49=FOLEOAPI|52=20260608-20:06:42.867|56=FOLEOTRADER|10=234|
20260608-20:07:03.008 : 8=FIXT.1.1|9=63|35=0|34=35|49=FOLEOTRADER|52=20260608-20:07:03.003|56=FOLEOAPI|10=215|
20260608-20:07:03.010 : 8=FIXT.1.1|9=63|35=0|34=35|49=FOLEOAPI|52=20260608-20:07:03.010|56=FOLEOTRADER|10=213|
20260608-20:07:23.162 : 8=FIXT.1.1|9=63|35=0|34=36|49=FOLEOTRADER|52=20260608-20:07:23.161|56=FOLEOAPI|10=223|
20260608-20:07:23.164 : 8=FIXT.1.1|9=63|35=0|34=36|49=FOLEOAPI|52=20260608-20:07:23.163|56=FOLEOTRADER|10=225|
20260608-20:07:43.300 : 8=FIXT.1.1|9=63|35=5|34=37|49=FOLEOTRADER|52=20260608-20:07:43.299|56=FOLEOAPI|10=243|
20260608-20:07:43.303 : 8=FIXT.1.1|9=63|35=5|34=37|49=FOLEOAPI|52=20260608-20:07:43.303|56=FOLEOTRADER|10=229|
20260608-20:17:13.846 : 8=FIXT.1.1|9=87|35=A|34=1|49=FOLEOAPI|52=20260608-20:17:13.767|56=FOLEOTRADER|98=0|108=20|141=Y|1137=9|10=082|
20260608-20:17:13.974 : 8=FIXT.1.1|9=81|35=A|34=1|49=FOLEOTRADER|52=20260608-20:17:13.962|56=FOLEOAPI|98=0|108=20|1137=9|10=028|
20260608-20:17:14.005 : 8=FIXT.1.1|9=180|35=D|34=2|49=FOLEOAPI|52=20260608-20:17:14.002|56=FOLEOTRADER|11=FT-4-019ea8e1d6527ed89aba022c7b5019f7|15=JPY|22=8|38=12|40=2|44=1000|48=6861|54=1|55=6861|60=20260608-20:17:13.993|10=217|
20260608-20:17:16.048 : 8=FIXT.1.1|9=314|35=8|34=2|49=FOLEOTRADER|52=20260608-20:17:16.042|56=FOLEOAPI|6=999.6000|11=FT-4-019ea8e1d6527ed89aba022c7b5019f7|14=5.28|15=JPY|17=EXEC-019ea8e1e10176d0bea63e4a3cfc68b9|22=8|31=999.6000|32=5.28|37=FOLEOTRADER-019ea8e1d9257e39804dd55601b1f7cf|38=12|39=1|44=1000|48=6861|54=1|55=6861|150=F|151=6.72|381=5277.888000|10=181|
20260608-20:17:21.060 : 8=FIXT.1.1|9=318|35=8|34=3|49=FOLEOTRADER|52=20260608-20:17:21.054|56=FOLEOAPI|6=999.3000|11=FT-4-019ea8e1d6527ed89aba022c7b5019f7|14=8.976|15=JPY|17=EXEC-019ea8e1f49d7233a8090bd01c9791d7|22=8|31=999.3000|32=3.696|37=FOLEOTRADER-019ea8e1d9257e39804dd55601b1f7cf|38=12|39=1|44=1000|48=6861|54=1|55=6861|150=F|151=3.024|381=3693.4128000|10=200|
20260608-20:17:24.068 : 8=FIXT.1.1|9=328|35=8|34=4|49=FOLEOTRADER|52=20260608-20:17:24.067|56=FOLEOAPI|6=1000.4000|11=FT-4-019ea8e1d6527ed89aba022c7b5019f7|14=11.03232|15=JPY|17=EXEC-019ea8e2006371a89396b3b4d0c710b4|22=8|31=1000.4000|32=2.05632|37=FOLEOTRADER-019ea8e1d9257e39804dd55601b1f7cf|38=12|39=1|44=1000|48=6861|54=1|55=6861|150=F|151=0.96768|381=2057.14252800|10=065|
20260608-20:17:28.078 : 8=FIXT.1.1|9=317|35=8|34=5|49=FOLEOTRADER|52=20260608-20:17:28.075|56=FOLEOAPI|6=999.000|11=FT-4-019ea8e1d6527ed89aba022c7b5019f7|14=12.00000|15=JPY|17=EXEC-019ea8e2100b7f3b91cd4fdc35568b1e|22=8|31=999.000|32=0.96768|37=FOLEOTRADER-019ea8e1d9257e39804dd55601b1f7cf|38=12|39=2|44=1000|48=6861|54=1|55=6861|150=F|151=0|381=966.71232000|10=012|
20260608-20:17:34.180 : 8=FIXT.1.1|9=62|35=0|34=3|49=FOLEOAPI|52=20260608-20:17:34.160|56=FOLEOTRADER|10=170|
20260608-20:17:48.325 : 8=FIXT.1.1|9=62|35=0|34=6|49=FOLEOTRADER|52=20260608-20:17:48.324|56=FOLEOAPI|10=180|
20260608-20:17:54.452 : 8=FIXT.1.1|9=62|35=0|34=4|49=FOLEOAPI|52=20260608-20:17:54.451|56=FOLEOTRADER|10=176|
20260608-20:18:08.629 : 8=FIXT.1.1|9=62|35=0|34=7|49=FOLEOTRADER|52=20260608-20:18:08.627|56=FOLEOAPI|10=184|
20260608-20:18:14.677 : 8=FIXT.1.1|9=62|35=0|34=5|49=FOLEOAPI|52=20260608-20:18:14.676|56=FOLEOTRADER|10=183|
20260608-20:18:28.845 : 8=FIXT.1.1|9=62|35=0|34=8|49=FOLEOTRADER|52=20260608-20:18:28.843|56=FOLEOAPI|10=187|
20260608-20:18:34.891 : 8=FIXT.1.1|9=62|35=0|34=6|49=FOLEOAPI|52=20260608-20:18:34.890|56=FOLEOTRADER|10=184|
20260608-20:18:49.224 : 8=FIXT.1.1|9=62|35=0|34=9|49=FOLEOTRADER|52=20260608-20:18:49.222|56=FOLEOAPI|10=182|
20260608-20:18:55.358 : 8=FIXT.1.1|9=62|35=0|34=7|49=FOLEOAPI|52=20260608-20:18:55.348|56=FOLEOTRADER|10=186|
20260608-20:19:09.513 : 8=FIXT.1.1|9=63|35=0|34=10|49=FOLEOTRADER|52=20260608-20:19:09.512|56=FOLEOAPI|10=222|
20260608-20:19:15.669 : 8=FIXT.1.1|9=62|35=0|34=8|49=FOLEOAPI|52=20260608-20:19:15.650|56=FOLEOTRADER|10=180|
20260608-20:19:29.832 : 8=FIXT.1.1|9=63|35=0|34=11|49=FOLEOTRADER|52=20260608-20:19:29.800|56=FOLEOAPI|10=225|
20260608-20:19:35.870 : 8=FIXT.1.1|9=62|35=0|34=9|49=FOLEOAPI|52=20260608-20:19:35.868|56=FOLEOTRADER|10=194|
20260608-20:19:42.314 : 8=FIXT.1.1|9=179|35=D|34=10|49=FOLEOAPI|52=20260608-20:19:42.314|56=FOLEOTRADER|11=FT-5-019ea8e41c6479b58cc1ba216f04b78b|15=JPY|22=8|38=15|40=2|44=14|48=7203|54=1|55=7203|60=20260608-20:19:42.313|10=163|
20260608-20:19:43.328 : 8=FIXT.1.1|9=296|35=8|34=12|49=FOLEOTRADER|52=20260608-20:19:43.327|56=FOLEOAPI|6=13.986|11=FT-5-019ea8e41c6479b58cc1ba216f04b78b|14=3|15=JPY|17=EXEC-019ea8e4205f7c239a42c8b9277f4c12|22=8|31=13.986|32=3|37=FOLEOTRADER-019ea8e41c6c74d6b76c4f8a3f886c13|38=15|39=1|44=14|48=7203|54=1|55=7203|150=F|151=12|381=41.958|10=159|
20260608-20:19:45.334 : 8=FIXT.1.1|9=309|35=8|34=13|49=FOLEOTRADER|52=20260608-20:19:45.332|56=FOLEOAPI|6=13.9902|11=FT-5-019ea8e41c6479b58cc1ba216f04b78b|14=5.76|15=JPY|17=EXEC-019ea8e42834728c88b8ecfb73cbb867|22=8|31=13.9902|32=2.76|37=FOLEOTRADER-019ea8e41c6c74d6b76c4f8a3f886c13|38=15|39=1|44=14|48=7203|54=1|55=7203|150=F|151=9.24|381=38.612952|10=160|
20260608-20:19:47.345 : 8=FIXT.1.1|9=305|35=8|34=14|49=FOLEOTRADER|52=20260608-20:19:47.344|56=FOLEOAPI|6=14.014|11=FT-5-019ea8e41c6479b58cc1ba216f04b78b|14=15.00|15=JPY|17=EXEC-019ea8e430107f9289fcffe19eb61c63|22=8|31=14.014|32=9.24|37=FOLEOTRADER-019ea8e41c6c74d6b76c4f8a3f886c13|38=15|39=2|44=14|48=7203|54=1|55=7203|150=F|151=0|381=129.48936|10=170|
20260608-20:20:02.433 : 8=FIXT.1.1|9=63|35=0|34=11|49=FOLEOAPI|52=20260608-20:20:02.432|56=FOLEOTRADER|10=209|
20260608-20:20:07.608 : 8=FIXT.1.1|9=63|35=0|34=15|49=FOLEOTRADER|52=20260608-20:20:07.607|56=FOLEOAPI|10=222|
20260608-20:20:22.779 : 8=FIXT.1.1|9=63|35=0|34=12|49=FOLEOAPI|52=20260608-20:20:22.760|56=FOLEOTRADER|10=216|
20260608-20:20:27.852 : 8=FIXT.1.1|9=63|35=0|34=16|49=FOLEOTRADER|52=20260608-20:20:27.849|56=FOLEOAPI|10=233|
20260608-20:20:42.986 : 8=FIXT.1.1|9=63|35=0|34=13|49=FOLEOAPI|52=20260608-20:20:42.983|56=FOLEOTRADER|10=226|
20260608-20:20:48.047 : 8=FIXT.1.1|9=63|35=0|34=17|49=FOLEOTRADER|52=20260608-20:20:48.046|56=FOLEOAPI|10=226|
20260608-20:21:03.157 : 8=FIXT.1.1|9=63|35=0|34=14|49=FOLEOAPI|52=20260608-20:21:03.156|56=FOLEOTRADER|10=217|
20260608-20:21:08.214 : 8=FIXT.1.1|9=63|35=0|34=18|49=FOLEOTRADER|52=20260608-20:21:08.213|56=FOLEOAPI|10=220|
20260608-20:21:23.367 : 8=FIXT.1.1|9=63|35=0|34=15|49=FOLEOAPI|52=20260608-20:21:23.366|56=FOLEOTRADER|10=223|
20260608-20:21:28.415 : 8=FIXT.1.1|9=63|35=0|34=19|49=FOLEOTRADER|52=20260608-20:21:28.411|56=FOLEOAPI|10=223|
20260608-20:21:43.568 : 8=FIXT.1.1|9=63|35=0|34=16|49=FOLEOAPI|52=20260608-20:21:43.568|56=FOLEOTRADER|10=230|
20260608-20:21:48.605 : 8=FIXT.1.1|9=63|35=0|34=20|49=FOLEOTRADER|52=20260608-20:21:48.600|56=FOLEOAPI|10=217|
20260608-20:22:03.737 : 8=FIXT.1.1|9=63|35=0|34=17|49=FOLEOAPI|52=20260608-20:22:03.736|56=FOLEOTRADER|10=225|
20260608-20:22:08.783 : 8=FIXT.1.1|9=63|35=0|34=21|49=FOLEOTRADER|52=20260608-20:22:08.781|56=FOLEOAPI|10=225|
20260608-20:22:23.895 : 8=FIXT.1.1|9=63|35=0|34=18|49=FOLEOAPI|52=20260608-20:22:23.893|56=FOLEOTRADER|10=232|
20260608-20:22:28.957 : 8=FIXT.1.1|9=63|35=0|34=22|49=FOLEOTRADER|52=20260608-20:22:28.955|56=FOLEOAPI|10=231|
20260608-20:22:44.080 : 8=FIXT.1.1|9=63|35=0|34=19|49=FOLEOAPI|52=20260608-20:22:44.079|56=FOLEOTRADER|10=232|
20260608-20:22:49.123 : 8=FIXT.1.1|9=63|35=0|34=23|49=FOLEOTRADER|52=20260608-20:22:49.122|56=FOLEOAPI|10=221|
20260608-20:23:04.256 : 8=FIXT.1.1|9=63|35=0|34=20|49=FOLEOAPI|52=20260608-20:23:04.255|56=FOLEOTRADER|10=217|
20260608-20:23:09.306 : 8=FIXT.1.1|9=63|35=0|34=24|49=FOLEOTRADER|52=20260608-20:23:09.300|56=FOLEOAPI|10=217|
20260608-20:23:24.456 : 8=FIXT.1.1|9=63|35=0|34=21|49=FOLEOAPI|52=20260608-20:23:24.453|56=FOLEOTRADER|10=220|
20260608-20:31:00.987 : 8=FIXT.1.1|9=87|35=A|34=1|49=FOLEOAPI|52=20260608-20:31:00.966|56=FOLEOTRADER|98=0|108=20|141=Y|1137=9|10=075|
20260608-20:31:01.003 : 8=FIXT.1.1|9=81|35=A|34=1|49=FOLEOTRADER|52=20260608-20:31:01.002|56=FOLEOAPI|98=0|108=20|1137=9|10=006|
20260608-20:31:01.026 : 8=FIXT.1.1|9=178|35=D|34=2|49=FOLEOAPI|52=20260608-20:31:01.024|56=FOLEOTRADER|11=FT-6-019ea8ee76b57453b8fa42f313098497|15=JPY|22=8|38=34|40=2|44=22|48=8306|54=1|55=8306|60=20260608-20:31:01.020|10=229|
20260608-20:31:04.042 : 8=FIXT.1.1|9=310|35=8|34=2|49=FOLEOTRADER|52=20260608-20:31:04.041|56=FOLEOAPI|6=21.9846|11=FT-6-019ea8ee76b57453b8fa42f313098497|14=8.16|15=JPY|17=EXEC-019ea8ee836972a9b64c1148e9dcec62|22=8|31=21.9846|32=8.16|37=FOLEOTRADER-019ea8ee77a3738c99aa0611a4dec529|38=34|39=1|44=22|48=8306|54=1|55=8306|150=F|151=25.84|381=179.394336|10=080|
20260608-20:31:09.059 : 8=FIXT.1.1|9=308|35=8|34=3|49=FOLEOTRADER|52=20260608-20:31:09.056|56=FOLEOAPI|6=21.9934|11=FT-6-019ea8ee76b57453b8fa42f313098497|14=34.00|15=JPY|17=EXEC-019ea8ee97007b638a890cadf5ccda32|22=8|31=21.9934|32=25.84|37=FOLEOTRADER-019ea8ee77a3738c99aa0611a4dec529|38=34|39=2|44=22|48=8306|54=1|55=8306|150=F|151=0|381=568.309456|10=060|
20260608-20:31:21.153 : 8=FIXT.1.1|9=62|35=0|34=3|49=FOLEOAPI|52=20260608-20:31:21.153|56=FOLEOTRADER|10=164|
20260608-20:31:29.183 : 8=FIXT.1.1|9=62|35=0|34=4|49=FOLEOTRADER|52=20260608-20:31:29.181|56=FOLEOAPI|10=174|
20260608-20:31:41.269 : 8=FIXT.1.1|9=62|35=0|34=4|49=FOLEOAPI|52=20260608-20:31:41.268|56=FOLEOTRADER|10=174|
20260608-20:31:49.324 : 8=FIXT.1.1|9=62|35=0|34=5|49=FOLEOTRADER|52=20260608-20:31:49.322|56=FOLEOAPI|10=174|
20260608-20:32:01.400 : 8=FIXT.1.1|9=62|35=0|34=5|49=FOLEOAPI|52=20260608-20:32:01.399|56=FOLEOTRADER|10=177|
20260608-20:32:09.492 : 8=FIXT.1.1|9=62|35=0|34=6|49=FOLEOTRADER|52=20260608-20:32:09.491|56=FOLEOAPI|10=179|
20260608-20:32:21.596 : 8=FIXT.1.1|9=62|35=0|34=6|49=FOLEOAPI|52=20260608-20:32:21.596|56=FOLEOTRADER|10=179|
20260608-20:32:29.669 : 8=FIXT.1.1|9=62|35=0|34=7|49=FOLEOTRADER|52=20260608-20:32:29.667|56=FOLEOAPI|10=187|
20260608-20:32:41.782 : 8=FIXT.1.1|9=62|35=0|34=7|49=FOLEOAPI|52=20260608-20:32:41.779|56=FOLEOTRADER|10=185|
20260608-20:32:49.851 : 8=FIXT.1.1|9=62|35=0|34=8|49=FOLEOTRADER|52=20260608-20:32:49.851|56=FOLEOAPI|10=185|
20260608-20:33:01.937 : 8=FIXT.1.1|9=62|35=0|34=8|49=FOLEOAPI|52=20260608-20:33:01.936|56=FOLEOTRADER|10=178|
20260608-20:33:10.022 : 8=FIXT.1.1|9=62|35=0|34=9|49=FOLEOTRADER|52=20260608-20:33:10.021|56=FOLEOAPI|10=164|
20260608-20:33:22.124 : 8=FIXT.1.1|9=62|35=0|34=9|49=FOLEOAPI|52=20260608-20:33:22.123|56=FOLEOTRADER|10=170|
20260608-20:33:30.139 : 8=FIXT.1.1|9=63|35=0|34=10|49=FOLEOTRADER|52=20260608-20:33:30.137|56=FOLEOAPI|10=215|
20260608-20:33:42.272 : 8=FIXT.1.1|9=63|35=0|34=10|49=FOLEOAPI|52=20260608-20:33:42.271|56=FOLEOTRADER|10=217|
20260608-20:33:50.306 : 8=FIXT.1.1|9=63|35=0|34=11|49=FOLEOTRADER|52=20260608-20:33:50.305|56=FOLEOAPI|10=215|
20260608-20:34:02.388 : 8=FIXT.1.1|9=63|35=0|34=11|49=FOLEOAPI|52=20260608-20:34:02.387|56=FOLEOTRADER|10=223|
20260608-20:34:10.427 : 8=FIXT.1.1|9=63|35=0|34=12|49=FOLEOTRADER|52=20260608-20:34:10.426|56=FOLEOAPI|10=217|
20260608-20:34:22.511 : 8=FIXT.1.1|9=63|35=0|34=12|49=FOLEOAPI|52=20260608-20:34:22.510|56=FOLEOTRADER|10=214|
20260608-20:34:30.556 : 8=FIXT.1.1|9=63|35=0|34=13|49=FOLEOTRADER|52=20260608-20:34:30.555|56=FOLEOAPI|10=223|
20260608-20:34:35.830 : 8=FIXT.1.1|9=178|35=D|34=13|49=FOLEOAPI|52=20260608-20:34:35.829|56=FOLEOTRADER|11=FT-7-019ea8f1beb07aeb8c0674299aa53dfe|15=GBP|22=8|38=200|40=2|44=50|48=MKS|54=1|55=MKS|60=20260608-20:34:35.829|10=158|
20260608-20:34:40.819 : 8=FIXT.1.1|9=289|35=8|34=14|49=FOLEOTRADER|52=20260608-20:34:40.818|56=FOLEOAPI|6=50|11=FT-7-019ea8f1beb07aeb8c0674299aa53dfe|14=200|15=GBP|17=EXEC-019ea8f1d2327f5b86abba815c5b2196|22=8|31=50|32=200|37=FOLEOTRADER-019ea8f1beb779829c4143429084e711|38=200|39=2|44=50|48=MKS|54=1|55=MKS|150=F|151=0|381=10000|10=183|
20260608-20:34:55.942 : 8=FIXT.1.1|9=63|35=0|34=14|49=FOLEOAPI|52=20260608-20:34:55.942|56=FOLEOTRADER|10=231|
20260608-20:35:00.965 : 8=FIXT.1.1|9=63|35=0|34=15|49=FOLEOTRADER|52=20260608-20:35:00.964|56=FOLEOAPI|10=227|
20260608-20:35:16.086 : 8=FIXT.1.1|9=63|35=0|34=15|49=FOLEOAPI|52=20260608-20:35:16.086|56=FOLEOTRADER|10=229|
20260608-20:35:21.117 : 8=FIXT.1.1|9=63|35=0|34=16|49=FOLEOTRADER|52=20260608-20:35:21.116|56=FOLEOAPI|10=220|
20260608-20:35:36.236 : 8=FIXT.1.1|9=63|35=0|34=16|49=FOLEOAPI|52=20260608-20:35:36.235|56=FOLEOTRADER|10=228|
20260608-20:35:41.277 : 8=FIXT.1.1|9=63|35=0|34=17|49=FOLEOTRADER|52=20260608-20:35:41.276|56=FOLEOAPI|10=230|
20260608-20:35:56.382 : 8=FIXT.1.1|9=63|35=0|34=17|49=FOLEOAPI|52=20260608-20:35:56.381|56=FOLEOTRADER|10=233|
20260608-20:36:01.431 : 8=FIXT.1.1|9=63|35=0|34=18|49=FOLEOTRADER|52=20260608-20:36:01.430|56=FOLEOAPI|10=220|
20260608-20:36:16.534 : 8=FIXT.1.1|9=63|35=0|34=18|49=FOLEOAPI|52=20260608-20:36:16.534|56=FOLEOTRADER|10=231|
20260608-20:36:21.582 : 8=FIXT.1.1|9=63|35=0|34=19|49=FOLEOTRADER|52=20260608-20:36:21.581|56=FOLEOAPI|10=230|
20260608-20:36:36.699 : 8=FIXT.1.1|9=63|35=0|34=19|49=FOLEOAPI|52=20260608-20:36:36.699|56=FOLEOTRADER|10=246|
20260608-20:36:41.733 : 8=FIXT.1.1|9=63|35=0|34=20|49=FOLEOTRADER|52=20260608-20:36:41.732|56=FOLEOAPI|10=222|
20260608-20:36:56.863 : 8=FIXT.1.1|9=63|35=0|34=20|49=FOLEOAPI|52=20260608-20:36:56.862|56=FOLEOTRADER|10=232|
20260608-20:37:01.899 : 8=FIXT.1.1|9=63|35=0|34=21|49=FOLEOTRADER|52=20260608-20:37:01.897|56=FOLEOAPI|10=232|
20260608-20:37:17.018 : 8=FIXT.1.1|9=63|35=0|34=21|49=FOLEOAPI|52=20260608-20:37:17.018|56=FOLEOTRADER|10=224|
20260608-20:37:22.040 : 8=FIXT.1.1|9=63|35=0|34=22|49=FOLEOTRADER|52=20260608-20:37:22.038|56=FOLEOAPI|10=223|
20260608-20:37:37.170 : 8=FIXT.1.1|9=63|35=0|34=22|49=FOLEOAPI|52=20260608-20:37:37.170|56=FOLEOTRADER|10=226|
20260608-20:37:42.206 : 8=FIXT.1.1|9=63|35=0|34=23|49=FOLEOTRADER|52=20260608-20:37:42.204|56=FOLEOAPI|10=221|
20260608-20:37:57.318 : 8=FIXT.1.1|9=63|35=0|34=23|49=FOLEOAPI|52=20260608-20:37:57.317|56=FOLEOTRADER|10=232|
20260608-20:38:02.363 : 8=FIXT.1.1|9=63|35=0|34=24|49=FOLEOTRADER|52=20260608-20:38:02.362|56=FOLEOAPI|10=224|
20260608-20:38:17.495 : 8=FIXT.1.1|9=63|35=0|34=24|49=FOLEOAPI|52=20260608-20:38:17.494|56=FOLEOTRADER|10=236|
20260608-20:38:22.532 : 8=FIXT.1.1|9=63|35=0|34=25|49=FOLEOTRADER|52=20260608-20:38:22.530|56=FOLEOAPI|10=224|
20260608-20:38:37.663 : 8=FIXT.1.1|9=63|35=0|34=25|49=FOLEOAPI|52=20260608-20:38:37.662|56=FOLEOTRADER|10=236|
20260608-20:38:42.696 : 8=FIXT.1.1|9=63|35=0|34=26|49=FOLEOTRADER|52=20260608-20:38:42.695|56=FOLEOAPI|10=239|
20260608-20:38:57.821 : 8=FIXT.1.1|9=63|35=0|34=26|49=FOLEOAPI|52=20260608-20:38:57.821|56=FOLEOTRADER|10=236|
20260608-20:39:02.854 : 8=FIXT.1.1|9=63|35=0|34=27|49=FOLEOTRADER|52=20260608-20:39:02.852|56=FOLEOAPI|10=232|
20260608-20:39:17.981 : 8=FIXT.1.1|9=63|35=0|34=27|49=FOLEOAPI|52=20260608-20:39:17.981|56=FOLEOTRADER|10=241|
20260608-20:39:23.026 : 8=FIXT.1.1|9=63|35=0|34=28|49=FOLEOTRADER|52=20260608-20:39:23.024|56=FOLEOAPI|10=227|
20260608-20:39:38.141 : 8=FIXT.1.1|9=63|35=0|34=28|49=FOLEOAPI|52=20260608-20:39:38.141|56=FOLEOTRADER|10=233|
20260608-20:39:43.175 : 8=FIXT.1.1|9=63|35=0|34=29|49=FOLEOTRADER|52=20260608-20:39:43.174|56=FOLEOAPI|10=236|
20260608-20:39:58.303 : 8=FIXT.1.1|9=63|35=0|34=29|49=FOLEOAPI|52=20260608-20:39:58.303|56=FOLEOTRADER|10=236|
20260608-20:40:03.330 : 8=FIXT.1.1|9=63|35=0|34=30|49=FOLEOTRADER|52=20260608-20:40:03.329|56=FOLEOAPI|10=218|
20260608-20:40:18.427 : 8=FIXT.1.1|9=63|35=0|34=30|49=FOLEOAPI|52=20260608-20:40:18.427|56=FOLEOTRADER|10=223|
20260608-20:40:23.456 : 8=FIXT.1.1|9=63|35=0|34=31|49=FOLEOTRADER|52=20260608-20:40:23.455|56=FOLEOAPI|10=221|
20260608-20:40:38.561 : 8=FIXT.1.1|9=63|35=0|34=31|49=FOLEOAPI|52=20260608-20:40:38.560|56=FOLEOTRADER|10=224|
20260608-20:40:43.599 : 8=FIXT.1.1|9=63|35=0|34=32|49=FOLEOTRADER|52=20260608-20:40:43.598|56=FOLEOAPI|10=232|
20260608-20:40:58.715 : 8=FIXT.1.1|9=63|35=0|34=32|49=FOLEOAPI|52=20260608-20:40:58.714|56=FOLEOTRADER|10=228|
20260608-20:41:03.744 : 8=FIXT.1.1|9=63|35=0|34=33|49=FOLEOTRADER|52=20260608-20:41:03.743|56=FOLEOAPI|10=222|
20260608-20:41:18.856 : 8=FIXT.1.1|9=63|35=0|34=33|49=FOLEOAPI|52=20260608-20:41:18.855|56=FOLEOTRADER|10=232|
20260608-20:41:23.896 : 8=FIXT.1.1|9=63|35=0|34=34|49=FOLEOTRADER|52=20260608-20:41:23.895|56=FOLEOAPI|10=233|
20260608-20:41:39.021 : 8=FIXT.1.1|9=63|35=0|34=34|49=FOLEOAPI|52=20260608-20:41:39.020|56=FOLEOTRADER|10=220|
20260608-20:41:44.060 : 8=FIXT.1.1|9=63|35=0|34=35|49=FOLEOTRADER|52=20260608-20:41:44.059|56=FOLEOAPI|10=229|
20260608-20:41:59.178 : 8=FIXT.1.1|9=63|35=0|34=35|49=FOLEOAPI|52=20260608-20:41:59.177|56=FOLEOTRADER|10=236|
20260608-20:42:04.222 : 8=FIXT.1.1|9=63|35=0|34=36|49=FOLEOTRADER|52=20260608-20:42:04.221|56=FOLEOAPI|10=218|
20260608-20:42:19.330 : 8=FIXT.1.1|9=63|35=0|34=36|49=FOLEOAPI|52=20260608-20:42:19.330|56=FOLEOTRADER|10=225|
20260608-20:42:24.359 : 8=FIXT.1.1|9=63|35=0|34=37|49=FOLEOTRADER|52=20260608-20:42:24.358|56=FOLEOAPI|10=232|
20260608-20:42:39.476 : 8=FIXT.1.1|9=63|35=0|34=37|49=FOLEOAPI|52=20260608-20:42:39.476|56=FOLEOTRADER|10=239|
20260608-20:42:44.516 : 8=FIXT.1.1|9=63|35=0|34=38|49=FOLEOTRADER|52=20260608-20:42:44.514|56=FOLEOAPI|10=229|
20260608-20:42:59.618 : 8=FIXT.1.1|9=63|35=0|34=38|49=FOLEOAPI|52=20260608-20:42:59.617|56=FOLEOTRADER|10=239|
20260608-20:43:04.663 : 8=FIXT.1.1|9=63|35=0|34=39|49=FOLEOTRADER|52=20260608-20:43:04.661|56=FOLEOAPI|10=230|
20260608-20:43:19.779 : 8=FIXT.1.1|9=63|35=0|34=39|49=FOLEOAPI|52=20260608-20:43:19.778|56=FOLEOTRADER|10=245|
20260608-20:43:24.829 : 8=FIXT.1.1|9=63|35=0|34=40|49=FOLEOTRADER|52=20260608-20:43:24.827|56=FOLEOAPI|10=228|
20260608-20:43:39.947 : 8=FIXT.1.1|9=63|35=0|34=40|49=FOLEOAPI|52=20260608-20:43:39.946|56=FOLEOTRADER|10=236|
20260608-20:43:44.997 : 8=FIXT.1.1|9=63|35=0|34=41|49=FOLEOTRADER|52=20260608-20:43:44.997|56=FOLEOAPI|10=239|
20260608-20:44:00.125 : 8=FIXT.1.1|9=63|35=0|34=41|49=FOLEOAPI|52=20260608-20:44:00.124|56=FOLEOTRADER|10=214|
20260608-20:44:05.166 : 8=FIXT.1.1|9=63|35=0|34=42|49=FOLEOTRADER|52=20260608-20:44:05.165|56=FOLEOAPI|10=225|
20260608-20:44:20.296 : 8=FIXT.1.1|9=63|35=0|34=42|49=FOLEOAPI|52=20260608-20:44:20.295|56=FOLEOTRADER|10=226|
20260608-20:44:25.346 : 8=FIXT.1.1|9=63|35=0|34=43|49=FOLEOTRADER|52=20260608-20:44:25.327|56=FOLEOAPI|10=228|
20260608-20:44:40.471 : 8=FIXT.1.1|9=63|35=0|34=43|49=FOLEOAPI|52=20260608-20:44:40.471|56=FOLEOTRADER|10=225|
20260608-20:44:45.501 : 8=FIXT.1.1|9=63|35=0|34=44|49=FOLEOTRADER|52=20260608-20:44:45.499|56=FOLEOAPI|10=241|
20260608-20:45:00.600 : 8=FIXT.1.1|9=63|35=0|34=44|49=FOLEOAPI|52=20260608-20:45:00.600|56=FOLEOTRADER|10=217|
20260608-20:45:05.645 : 8=FIXT.1.1|9=63|35=0|34=45|49=FOLEOTRADER|52=20260608-20:45:05.644|56=FOLEOAPI|10=231|
20260608-20:45:20.753 : 8=FIXT.1.1|9=63|35=0|34=45|49=FOLEOAPI|52=20260608-20:45:20.752|56=FOLEOTRADER|10=228|
20260608-20:45:25.789 : 8=FIXT.1.1|9=63|35=0|34=46|49=FOLEOTRADER|52=20260608-20:45:25.788|56=FOLEOAPI|10=243|
20260608-20:45:40.930 : 8=FIXT.1.1|9=63|35=0|34=46|49=FOLEOAPI|52=20260608-20:45:40.929|56=FOLEOTRADER|10=237|
20260608-20:45:45.988 : 8=FIXT.1.1|9=63|35=0|34=47|49=FOLEOTRADER|52=20260608-20:45:45.987|56=FOLEOAPI|10=247|
20260608-20:46:01.082 : 8=FIXT.1.1|9=63|35=0|34=47|49=FOLEOAPI|52=20260608-20:46:01.081|56=FOLEOTRADER|10=225|
20260608-20:46:06.135 : 8=FIXT.1.1|9=63|35=0|34=48|49=FOLEOTRADER|52=20260608-20:46:06.134|56=FOLEOAPI|10=230|
20260608-20:46:21.219 : 8=FIXT.1.1|9=63|35=0|34=48|49=FOLEOAPI|52=20260608-20:46:21.219|56=FOLEOTRADER|10=231|
20260608-20:46:26.265 : 8=FIXT.1.1|9=63|35=0|34=49|49=FOLEOTRADER|52=20260608-20:46:26.264|56=FOLEOAPI|10=237|
20260608-20:46:41.382 : 8=FIXT.1.1|9=63|35=0|34=49|49=FOLEOAPI|52=20260608-20:46:41.381|56=FOLEOTRADER|10=234|
20260608-20:46:46.417 : 8=FIXT.1.1|9=63|35=0|34=50|49=FOLEOTRADER|52=20260608-20:46:46.416|56=FOLEOAPI|10=230|
20260608-20:47:01.502 : 8=FIXT.1.1|9=63|35=0|34=50|49=FOLEOAPI|52=20260608-20:47:01.501|56=FOLEOTRADER|10=217|
20260608-20:47:06.560 : 8=FIXT.1.1|9=63|35=0|34=51|49=FOLEOTRADER|52=20260608-20:47:06.559|56=FOLEOAPI|10=236|
20260608-20:47:21.660 : 8=FIXT.1.1|9=63|35=0|34=51|49=FOLEOAPI|52=20260608-20:47:21.659|56=FOLEOTRADER|10=234|
20260608-20:47:26.711 : 8=FIXT.1.1|9=63|35=0|34=52|49=FOLEOTRADER|52=20260608-20:47:26.710|56=FOLEOAPI|10=228|
20260608-20:47:41.830 : 8=FIXT.1.1|9=63|35=0|34=52|49=FOLEOAPI|52=20260608-20:47:41.829|56=FOLEOTRADER|10=236|
20260608-20:47:46.860 : 8=FIXT.1.1|9=63|35=0|34=53|49=FOLEOTRADER|52=20260608-20:47:46.859|56=FOLEOAPI|10=245|
20260608-20:48:01.979 : 8=FIXT.1.1|9=63|35=0|34=53|49=FOLEOAPI|52=20260608-20:48:01.979|56=FOLEOTRADER|10=240|
20260608-20:48:07.027 : 8=FIXT.1.1|9=63|35=0|34=54|49=FOLEOTRADER|52=20260608-20:48:07.025|56=FOLEOAPI|10=229|
20260608-20:48:22.150 : 8=FIXT.1.1|9=63|35=0|34=54|49=FOLEOAPI|52=20260608-20:48:22.150|56=FOLEOTRADER|10=225|
20260608-20:48:27.189 : 8=FIXT.1.1|9=63|35=0|34=55|49=FOLEOTRADER|52=20260608-20:48:27.188|56=FOLEOAPI|10=242|
20260608-20:48:42.338 : 8=FIXT.1.1|9=63|35=0|34=55|49=FOLEOAPI|52=20260608-20:48:42.337|56=FOLEOTRADER|10=235|
20260608-20:48:47.375 : 8=FIXT.1.1|9=63|35=0|34=56|49=FOLEOTRADER|52=20260608-20:48:47.374|56=FOLEOAPI|10=242|
20260608-20:49:02.479 : 8=FIXT.1.1|9=63|35=0|34=56|49=FOLEOAPI|52=20260608-20:49:02.479|56=FOLEOTRADER|10=240|
20260608-20:49:07.525 : 8=FIXT.1.1|9=63|35=0|34=57|49=FOLEOTRADER|52=20260608-20:49:07.524|56=FOLEOAPI|10=237|
20260608-20:49:22.641 : 8=FIXT.1.1|9=63|35=0|34=57|49=FOLEOAPI|52=20260608-20:49:22.640|56=FOLEOTRADER|10=233|
20260608-20:49:27.680 : 8=FIXT.1.1|9=63|35=0|34=58|49=FOLEOTRADER|52=20260608-20:49:27.677|56=FOLEOAPI|10=249|
20260608-20:49:42.782 : 8=FIXT.1.1|9=63|35=0|34=58|49=FOLEOAPI|52=20260608-20:49:42.779|56=FOLEOTRADER|10=249|
20260608-20:49:47.843 : 8=FIXT.1.1|9=63|35=0|34=59|49=FOLEOTRADER|52=20260608-20:49:47.842|56=FOLEOAPI|10=246|
20260608-20:50:02.977 : 8=FIXT.1.1|9=63|35=0|34=59|49=FOLEOAPI|52=20260608-20:50:02.977|56=FOLEOTRADER|10=238|
20260608-20:50:08.009 : 8=FIXT.1.1|9=63|35=0|34=60|49=FOLEOTRADER|52=20260608-20:50:08.008|56=FOLEOAPI|10=221|
20260608-20:50:23.116 : 8=FIXT.1.1|9=63|35=0|34=60|49=FOLEOAPI|52=20260608-20:50:23.116|56=FOLEOTRADER|10=218|
20260608-20:50:28.157 : 8=FIXT.1.1|9=63|35=0|34=61|49=FOLEOTRADER|52=20260608-20:50:28.156|56=FOLEOAPI|10=228|
20260608-20:50:43.277 : 8=FIXT.1.1|9=63|35=0|34=61|49=FOLEOAPI|52=20260608-20:50:43.276|56=FOLEOTRADER|10=228|
20260608-20:50:48.326 : 8=FIXT.1.1|9=63|35=0|34=62|49=FOLEOTRADER|52=20260608-20:50:48.324|56=FOLEOAPI|10=228|
20260608-20:51:03.447 : 8=FIXT.1.1|9=63|35=0|34=62|49=FOLEOAPI|52=20260608-20:51:03.446|56=FOLEOTRADER|10=225|
20260608-20:51:08.474 : 8=FIXT.1.1|9=63|35=0|34=63|49=FOLEOTRADER|52=20260608-20:51:08.473|56=FOLEOAPI|10=231|
20260608-20:51:23.584 : 8=FIXT.1.1|9=63|35=0|34=63|49=FOLEOAPI|52=20260608-20:51:23.584|56=FOLEOTRADER|10=231|
20260608-20:51:28.618 : 8=FIXT.1.1|9=63|35=0|34=64|49=FOLEOTRADER|52=20260608-20:51:28.617|56=FOLEOAPI|10=234|
20260608-20:51:43.756 : 8=FIXT.1.1|9=63|35=0|34=64|49=FOLEOAPI|52=20260608-20:51:43.755|56=FOLEOTRADER|10=234|
20260608-20:51:48.804 : 8=FIXT.1.1|9=63|35=0|34=65|49=FOLEOTRADER|52=20260608-20:51:48.803|56=FOLEOAPI|10=234|
20260608-20:52:03.923 : 8=FIXT.1.1|9=63|35=0|34=65|49=FOLEOAPI|52=20260608-20:52:03.923|56=FOLEOTRADER|10=229|
20260608-20:52:08.957 : 8=FIXT.1.1|9=63|35=0|34=66|49=FOLEOTRADER|52=20260608-20:52:08.956|56=FOLEOAPI|10=241|
20260608-20:52:24.082 : 8=FIXT.1.1|9=63|35=0|34=66|49=FOLEOAPI|52=20260608-20:52:24.082|56=FOLEOTRADER|10=229|
20260608-20:52:29.131 : 8=FIXT.1.1|9=63|35=0|34=67|49=FOLEOTRADER|52=20260608-20:52:29.130|56=FOLEOAPI|10=229|
20260608-20:52:44.254 : 8=FIXT.1.1|9=63|35=0|34=67|49=FOLEOAPI|52=20260608-20:52:44.253|56=FOLEOTRADER|10=232|
20260608-20:52:49.291 : 8=FIXT.1.1|9=63|35=0|34=68|49=FOLEOTRADER|52=20260608-20:52:49.290|56=FOLEOAPI|10=239|
20260608-20:53:04.419 : 8=FIXT.1.1|9=63|35=0|34=68|49=FOLEOAPI|52=20260608-20:53:04.418|56=FOLEOTRADER|10=233|
20260608-20:53:09.464 : 8=FIXT.1.1|9=63|35=0|34=69|49=FOLEOTRADER|52=20260608-20:53:09.463|56=FOLEOAPI|10=239|
20260608-20:53:24.557 : 8=FIXT.1.1|9=63|35=0|34=69|49=FOLEOAPI|52=20260608-20:53:24.556|56=FOLEOTRADER|10=239|
20260608-20:53:29.592 : 8=FIXT.1.1|9=63|35=0|34=70|49=FOLEOTRADER|52=20260608-20:53:29.590|56=FOLEOAPI|10=234|
20260608-20:53:44.719 : 8=FIXT.1.1|9=63|35=0|34=70|49=FOLEOAPI|52=20260608-20:53:44.718|56=FOLEOTRADER|10=233|
20260608-20:53:49.757 : 8=FIXT.1.1|9=63|35=0|34=71|49=FOLEOTRADER|52=20260608-20:53:49.756|56=FOLEOAPI|10=241|
20260608-20:54:04.906 : 8=FIXT.1.1|9=63|35=0|34=71|49=FOLEOAPI|52=20260608-20:54:04.906|56=FOLEOTRADER|10=230|
20260608-20:54:09.949 : 8=FIXT.1.1|9=63|35=0|34=72|49=FOLEOTRADER|52=20260608-20:54:09.948|56=FOLEOAPI|10=242|
20260608-20:54:25.079 : 8=FIXT.1.1|9=63|35=0|34=72|49=FOLEOAPI|52=20260608-20:54:25.078|56=FOLEOTRADER|10=234|
20260608-20:54:30.123 : 8=FIXT.1.1|9=63|35=0|34=73|49=FOLEOTRADER|52=20260608-20:54:30.122|56=FOLEOAPI|10=221|
20260608-20:54:45.242 : 8=FIXT.1.1|9=63|35=0|34=73|49=FOLEOAPI|52=20260608-20:54:45.241|56=FOLEOTRADER|10=229|
20260608-20:54:50.285 : 8=FIXT.1.1|9=63|35=0|34=74|49=FOLEOTRADER|52=20260608-20:54:50.284|56=FOLEOAPI|10=233|
20260608-20:55:05.389 : 8=FIXT.1.1|9=63|35=0|34=74|49=FOLEOAPI|52=20260608-20:55:05.389|56=FOLEOTRADER|10=240|
20260608-20:55:10.429 : 8=FIXT.1.1|9=63|35=0|34=75|49=FOLEOTRADER|52=20260608-20:55:10.428|56=FOLEOAPI|10=231|
20260608-20:55:25.541 : 8=FIXT.1.1|9=63|35=0|34=75|49=FOLEOAPI|52=20260608-20:55:25.540|56=FOLEOTRADER|10=232|
20260608-20:55:30.580 : 8=FIXT.1.1|9=63|35=0|34=76|49=FOLEOTRADER|52=20260608-20:55:30.579|56=FOLEOAPI|10=241|
20260608-20:55:45.657 : 8=FIXT.1.1|9=63|35=0|34=76|49=FOLEOAPI|52=20260608-20:55:45.657|56=FOLEOTRADER|10=244|
20260608-20:55:50.695 : 8=FIXT.1.1|9=63|35=0|34=77|49=FOLEOTRADER|52=20260608-20:55:50.694|56=FOLEOAPI|10=242|
20260608-20:56:05.820 : 8=FIXT.1.1|9=63|35=0|34=77|49=FOLEOAPI|52=20260608-20:56:05.820|56=FOLEOTRADER|10=234|
20260608-20:56:10.861 : 8=FIXT.1.1|9=63|35=0|34=78|49=FOLEOTRADER|52=20260608-20:56:10.860|56=FOLEOAPI|10=235|
20260608-20:56:26.020 : 8=FIXT.1.1|9=63|35=0|34=78|49=FOLEOAPI|52=20260608-20:56:26.019|56=FOLEOTRADER|10=238|
20260608-20:56:31.061 : 8=FIXT.1.1|9=63|35=0|34=79|49=FOLEOTRADER|52=20260608-20:56:31.060|56=FOLEOAPI|10=231|
20260608-20:56:46.166 : 8=FIXT.1.1|9=63|35=0|34=79|49=FOLEOAPI|52=20260608-20:56:46.166|56=FOLEOTRADER|10=244|
20260608-20:56:51.184 : 8=FIXT.1.1|9=63|35=0|34=80|49=FOLEOTRADER|52=20260608-20:56:51.183|56=FOLEOAPI|10=231|
20260608-20:57:06.312 : 8=FIXT.1.1|9=63|35=0|34=80|49=FOLEOAPI|52=20260608-20:57:06.311|56=FOLEOTRADER|10=225|
20260608-20:57:11.362 : 8=FIXT.1.1|9=63|35=0|34=81|49=FOLEOTRADER|52=20260608-20:57:11.361|56=FOLEOAPI|10=227|
20260608-20:57:26.472 : 8=FIXT.1.1|9=63|35=0|34=81|49=FOLEOAPI|52=20260608-20:57:26.472|56=FOLEOTRADER|10=236|
20260608-20:57:31.520 : 8=FIXT.1.1|9=63|35=0|34=82|49=FOLEOTRADER|52=20260608-20:57:31.519|56=FOLEOAPI|10=235|
20260608-20:57:46.644 : 8=FIXT.1.1|9=63|35=0|34=82|49=FOLEOAPI|52=20260608-20:57:46.643|56=FOLEOTRADER|10=239|
20260608-20:57:51.677 : 8=FIXT.1.1|9=63|35=0|34=83|49=FOLEOTRADER|52=20260608-20:57:51.676|56=FOLEOAPI|10=242|
20260608-20:58:06.784 : 8=FIXT.1.1|9=63|35=0|34=83|49=FOLEOAPI|52=20260608-20:58:06.783|56=FOLEOTRADER|10=242|
20260608-20:58:11.822 : 8=FIXT.1.1|9=63|35=0|34=84|49=FOLEOTRADER|52=20260608-20:58:11.821|56=FOLEOAPI|10=232|
20260608-20:58:26.951 : 8=FIXT.1.1|9=63|35=0|34=84|49=FOLEOAPI|52=20260608-20:58:26.951|56=FOLEOTRADER|10=242|
20260608-20:58:32.000 : 8=FIXT.1.1|9=63|35=0|34=85|49=FOLEOTRADER|52=20260608-20:58:31.999|56=FOLEOAPI|10=251|
20260608-20:58:47.117 : 8=FIXT.1.1|9=63|35=0|34=85|49=FOLEOAPI|52=20260608-20:58:47.117|56=FOLEOTRADER|10=240|
20260608-20:58:52.161 : 8=FIXT.1.1|9=63|35=0|34=86|49=FOLEOTRADER|52=20260608-20:58:52.160|56=FOLEOAPI|10=235|
20260608-20:59:07.265 : 8=FIXT.1.1|9=63|35=0|34=86|49=FOLEOAPI|52=20260608-20:59:07.265|56=FOLEOTRADER|10=242|
20260608-20:59:12.304 : 8=FIXT.1.1|9=63|35=0|34=87|49=FOLEOTRADER|52=20260608-20:59:12.303|56=FOLEOAPI|10=232|
20260608-20:59:27.444 : 8=FIXT.1.1|9=63|35=0|34=87|49=FOLEOAPI|52=20260608-20:59:27.444|56=FOLEOTRADER|10=244|
20260608-20:59:32.491 : 8=FIXT.1.1|9=63|35=0|34=88|49=FOLEOTRADER|52=20260608-20:59:32.491|56=FOLEOAPI|10=243|
20260608-20:59:47.587 : 8=FIXT.1.1|9=63|35=0|34=88|49=FOLEOAPI|52=20260608-20:59:47.587|56=FOLEOTRADER|10=255|
20260608-20:59:52.627 : 8=FIXT.1.1|9=63|35=0|34=89|49=FOLEOTRADER|52=20260608-20:59:52.626|56=FOLEOAPI|10=246|
20260608-21:00:08.455 : 8=FIXT.1.1|9=63|35=0|34=89|49=FOLEOAPI|52=20260608-21:00:07.733|56=FOLEOTRADER|10=232|
20260608-21:00:13.509 : 8=FIXT.1.1|9=63|35=0|34=90|49=FOLEOTRADER|52=20260608-21:00:13.508|56=FOLEOAPI|10=221|
20260608-21:00:28.616 : 8=FIXT.1.1|9=63|35=0|34=90|49=FOLEOAPI|52=20260608-21:00:28.615|56=FOLEOTRADER|10=226|
20260608-21:00:33.653 : 8=FIXT.1.1|9=63|35=0|34=91|49=FOLEOTRADER|52=20260608-21:00:33.652|56=FOLEOAPI|10=224|
20260608-21:00:48.773 : 8=FIXT.1.1|9=63|35=0|34=91|49=FOLEOAPI|52=20260608-21:00:48.773|56=FOLEOTRADER|10=234|
20260608-21:00:53.818 : 8=FIXT.1.1|9=63|35=0|34=92|49=FOLEOTRADER|52=20260608-21:00:53.817|56=FOLEOAPI|10=230|
20260608-21:01:08.916 : 8=FIXT.1.1|9=63|35=0|34=92|49=FOLEOAPI|52=20260608-21:01:08.915|56=FOLEOTRADER|10=230|
20260608-21:01:13.955 : 8=FIXT.1.1|9=63|35=0|34=93|49=FOLEOTRADER|52=20260608-21:01:13.954|56=FOLEOAPI|10=230|
20260608-21:01:29.084 : 8=FIXT.1.1|9=63|35=0|34=93|49=FOLEOAPI|52=20260608-21:01:29.084|56=FOLEOTRADER|10=231|
20260608-21:01:34.122 : 8=FIXT.1.1|9=63|35=0|34=94|49=FOLEOTRADER|52=20260608-21:01:34.120|56=FOLEOAPI|10=219|
20260608-21:01:49.230 : 8=FIXT.1.1|9=63|35=0|34=94|49=FOLEOAPI|52=20260608-21:01:49.229|56=FOLEOTRADER|10=235|
20260608-21:01:54.281 : 8=FIXT.1.1|9=63|35=0|34=95|49=FOLEOTRADER|52=20260608-21:01:54.280|56=FOLEOAPI|10=229|
20260608-21:02:09.427 : 8=FIXT.1.1|9=63|35=0|34=95|49=FOLEOAPI|52=20260608-21:02:09.426|56=FOLEOTRADER|10=232|
20260608-21:02:14.468 : 8=FIXT.1.1|9=63|35=0|34=96|49=FOLEOTRADER|52=20260608-21:02:14.466|56=FOLEOAPI|10=233|
20260608-21:02:29.584 : 8=FIXT.1.1|9=63|35=0|34=96|49=FOLEOAPI|52=20260608-21:02:29.584|56=FOLEOTRADER|10=240|
20260608-21:02:34.632 : 8=FIXT.1.1|9=63|35=0|34=97|49=FOLEOTRADER|52=20260608-21:02:34.631|56=FOLEOAPI|10=230|
20260608-21:02:49.766 : 8=FIXT.1.1|9=63|35=0|34=97|49=FOLEOAPI|52=20260608-21:02:49.766|56=FOLEOTRADER|10=245|
20260608-21:02:54.793 : 8=FIXT.1.1|9=63|35=0|34=98|49=FOLEOTRADER|52=20260608-21:02:54.792|56=FOLEOAPI|10=241|
20260608-21:03:09.935 : 8=FIXT.1.1|9=63|35=0|34=98|49=FOLEOAPI|52=20260608-21:03:09.935|56=FOLEOTRADER|10=241|
20260608-21:03:14.983 : 8=FIXT.1.1|9=63|35=0|34=99|49=FOLEOTRADER|52=20260608-21:03:14.982|56=FOLEOAPI|10=240|
20260608-21:03:30.138 : 8=FIXT.1.1|9=63|35=0|34=99|49=FOLEOAPI|52=20260608-21:03:30.138|56=FOLEOTRADER|10=231|
20260608-21:03:35.184 : 8=FIXT.1.1|9=64|35=0|34=100|49=FOLEOTRADER|52=20260608-21:03:35.183|56=FOLEOAPI|10=012|
20260608-21:03:50.283 : 8=FIXT.1.1|9=64|35=0|34=100|49=FOLEOAPI|52=20260608-21:03:50.283|56=FOLEOTRADER|10=010|
20260608-21:03:55.339 : 8=FIXT.1.1|9=64|35=0|34=101|49=FOLEOTRADER|52=20260608-21:03:55.338|56=FOLEOAPI|10=017|
20260608-21:04:10.474 : 8=FIXT.1.1|9=64|35=0|34=101|49=FOLEOAPI|52=20260608-21:04:10.473|56=FOLEOTRADER|10=009|
20260608-21:04:15.511 : 8=FIXT.1.1|9=64|35=0|34=102|49=FOLEOTRADER|52=20260608-21:04:15.510|56=FOLEOAPI|10=007|
20260608-21:04:30.659 : 8=FIXT.1.1|9=64|35=0|34=102|49=FOLEOAPI|52=20260608-21:04:30.658|56=FOLEOTRADER|10=017|
20260608-21:04:35.704 : 8=FIXT.1.1|9=64|35=0|34=103|49=FOLEOTRADER|52=20260608-21:04:35.703|56=FOLEOAPI|10=014|
20260608-21:04:50.845 : 8=FIXT.1.1|9=64|35=0|34=103|49=FOLEOAPI|52=20260608-21:04:50.845|56=FOLEOTRADER|10=018|
20260608-21:04:55.861 : 8=FIXT.1.1|9=64|35=0|34=104|49=FOLEOTRADER|52=20260608-21:04:55.860|56=FOLEOAPI|10=021|
20260608-21:05:10.992 : 8=FIXT.1.1|9=64|35=0|34=104|49=FOLEOAPI|52=20260608-21:05:10.992|56=FOLEOTRADER|10=019|
20260608-21:05:16.040 : 8=FIXT.1.1|9=64|35=0|34=105|49=FOLEOTRADER|52=20260608-21:05:16.039|56=FOLEOAPI|10=018|
20260608-21:05:31.147 : 8=FIXT.1.1|9=64|35=0|34=105|49=FOLEOAPI|52=20260608-21:05:31.146|56=FOLEOTRADER|10=014|
20260608-21:05:36.191 : 8=FIXT.1.1|9=64|35=0|34=106|49=FOLEOTRADER|52=20260608-21:05:36.189|56=FOLEOAPI|10=027|
20260608-21:05:51.303 : 8=FIXT.1.1|9=64|35=0|34=106|49=FOLEOAPI|52=20260608-21:05:51.302|56=FOLEOTRADER|10=011|
20260608-21:05:56.339 : 8=FIXT.1.1|9=64|35=0|34=107|49=FOLEOTRADER|52=20260608-21:05:56.338|56=FOLEOAPI|10=026|
20260608-21:06:11.457 : 8=FIXT.1.1|9=64|35=0|34=107|49=FOLEOAPI|52=20260608-21:06:11.456|56=FOLEOTRADER|10=019|
20260608-21:06:16.514 : 8=FIXT.1.1|9=64|35=0|34=108|49=FOLEOTRADER|52=20260608-21:06:16.513|56=FOLEOAPI|10=019|
20260608-21:06:31.630 : 8=FIXT.1.1|9=64|35=0|34=108|49=FOLEOAPI|52=20260608-21:06:31.629|56=FOLEOTRADER|10=024|
20260608-21:06:36.679 : 8=FIXT.1.1|9=64|35=0|34=109|49=FOLEOTRADER|52=20260608-21:06:36.679|56=FOLEOAPI|10=035|
20260608-21:06:51.779 : 8=FIXT.1.1|9=64|35=0|34=109|49=FOLEOAPI|52=20260608-21:06:51.778|56=FOLEOTRADER|10=032|
20260608-21:06:56.820 : 8=FIXT.1.1|9=64|35=0|34=110|49=FOLEOTRADER|52=20260608-21:06:56.819|56=FOLEOAPI|10=025|
20260608-21:07:11.965 : 8=FIXT.1.1|9=64|35=0|34=110|49=FOLEOAPI|52=20260608-21:07:11.964|56=FOLEOTRADER|10=018|
20260608-21:07:17.000 : 8=FIXT.1.1|9=64|35=0|34=111|49=FOLEOTRADER|52=20260608-21:07:16.999|56=FOLEOAPI|10=032|
20260608-21:07:32.111 : 8=FIXT.1.1|9=64|35=0|34=111|49=FOLEOAPI|52=20260608-21:07:32.111|56=FOLEOTRADER|10=006|
20260608-21:07:37.171 : 8=FIXT.1.1|9=64|35=0|34=112|49=FOLEOTRADER|52=20260608-21:07:37.170|56=FOLEOAPI|10=017|
20260608-21:07:52.302 : 8=FIXT.1.1|9=64|35=0|34=112|49=FOLEOAPI|52=20260608-21:07:52.302|56=FOLEOTRADER|10=011|
20260608-21:07:57.350 : 8=FIXT.1.1|9=64|35=0|34=113|49=FOLEOTRADER|52=20260608-21:07:57.349|56=FOLEOAPI|10=028|
20260608-21:08:12.434 : 8=FIXT.1.1|9=64|35=0|34=113|49=FOLEOAPI|52=20260608-21:08:12.433|56=FOLEOTRADER|10=014|
20260608-21:08:17.469 : 8=FIXT.1.1|9=64|35=0|34=114|49=FOLEOTRADER|52=20260608-21:08:17.467|56=FOLEOAPI|10=027|
20260608-21:08:32.601 : 8=FIXT.1.1|9=64|35=0|34=114|49=FOLEOAPI|52=20260608-21:08:32.601|56=FOLEOTRADER|10=014|
20260608-21:08:37.629 : 8=FIXT.1.1|9=64|35=0|34=115|49=FOLEOTRADER|52=20260608-21:08:37.628|56=FOLEOAPI|10=029|
20260608-21:08:52.775 : 8=FIXT.1.1|9=64|35=0|34=115|49=FOLEOAPI|52=20260608-21:08:52.775|56=FOLEOTRADER|10=029|
20260608-21:08:57.819 : 8=FIXT.1.1|9=64|35=0|34=116|49=FOLEOTRADER|52=20260608-21:08:57.818|56=FOLEOAPI|10=033|
20260608-21:09:12.908 : 8=FIXT.1.1|9=64|35=0|34=116|49=FOLEOAPI|52=20260608-21:09:12.907|56=FOLEOTRADER|10=024|
20260608-21:09:17.957 : 8=FIXT.1.1|9=64|35=0|34=117|49=FOLEOTRADER|52=20260608-21:09:17.956|56=FOLEOAPI|10=034|
20260608-21:09:33.095 : 8=FIXT.1.1|9=64|35=0|34=117|49=FOLEOAPI|52=20260608-21:09:33.095|56=FOLEOTRADER|10=026|
20260608-21:09:38.140 : 8=FIXT.1.1|9=64|35=0|34=118|49=FOLEOTRADER|52=20260608-21:09:38.139|56=FOLEOAPI|10=031|
20260608-21:09:53.253 : 8=FIXT.1.1|9=64|35=0|34=118|49=FOLEOAPI|52=20260608-21:09:53.253|56=FOLEOTRADER|10=025|
20260608-21:09:58.283 : 8=FIXT.1.1|9=64|35=0|34=119|49=FOLEOTRADER|52=20260608-21:09:58.282|56=FOLEOAPI|10=033|
20260608-21:10:13.389 : 8=FIXT.1.1|9=64|35=0|34=119|49=FOLEOAPI|52=20260608-21:10:13.389|56=FOLEOTRADER|10=024|
20260608-21:10:18.409 : 8=FIXT.1.1|9=64|35=0|34=120|49=FOLEOTRADER|52=20260608-21:10:18.408|56=FOLEOAPI|10=013|
20260608-21:10:33.543 : 8=FIXT.1.1|9=64|35=0|34=120|49=FOLEOAPI|52=20260608-21:10:33.543|56=FOLEOTRADER|10=010|
20260608-21:10:38.593 : 8=FIXT.1.1|9=64|35=0|34=121|49=FOLEOTRADER|52=20260608-21:10:38.592|56=FOLEOAPI|10=020|
20260608-21:10:53.722 : 8=FIXT.1.1|9=64|35=0|34=121|49=FOLEOAPI|52=20260608-21:10:53.722|56=FOLEOTRADER|10=012|
20260608-21:10:58.762 : 8=FIXT.1.1|9=64|35=0|34=122|49=FOLEOTRADER|52=20260608-21:10:58.761|56=FOLEOAPI|10=021|
20260608-21:11:13.861 : 8=FIXT.1.1|9=64|35=0|34=122|49=FOLEOAPI|52=20260608-21:11:13.860|56=FOLEOTRADER|10=013|
20260608-21:11:18.893 : 8=FIXT.1.1|9=64|35=0|34=123|49=FOLEOTRADER|52=20260608-21:11:18.892|56=FOLEOAPI|10=024|
20260608-21:11:34.013 : 8=FIXT.1.1|9=64|35=0|34=123|49=FOLEOAPI|52=20260608-21:11:34.013|56=FOLEOTRADER|10=007|
20260608-21:11:39.054 : 8=FIXT.1.1|9=64|35=0|34=124|49=FOLEOTRADER|52=20260608-21:11:39.054|56=FOLEOAPI|10=018|
20260608-21:11:54.165 : 8=FIXT.1.1|9=64|35=0|34=124|49=FOLEOAPI|52=20260608-21:11:54.164|56=FOLEOTRADER|10=017|
20260608-21:11:59.195 : 8=FIXT.1.1|9=64|35=0|34=125|49=FOLEOTRADER|52=20260608-21:11:59.193|56=FOLEOAPI|10=025|
20260608-21:12:14.298 : 8=FIXT.1.1|9=64|35=0|34=125|49=FOLEOAPI|52=20260608-21:12:14.298|56=FOLEOTRADER|10=023|
20260608-21:12:19.333 : 8=FIXT.1.1|9=64|35=0|34=126|49=FOLEOTRADER|52=20260608-21:12:19.332|56=FOLEOAPI|10=018|
20260608-21:12:34.444 : 8=FIXT.1.1|9=64|35=0|34=126|49=FOLEOAPI|52=20260608-21:12:34.443|56=FOLEOTRADER|10=018|
20260608-21:12:39.494 : 8=FIXT.1.1|9=64|35=0|34=127|49=FOLEOTRADER|52=20260608-21:12:39.493|56=FOLEOAPI|10=029|
20260608-21:12:54.615 : 8=FIXT.1.1|9=64|35=0|34=127|49=FOLEOAPI|52=20260608-21:12:54.614|56=FOLEOTRADER|10=021|
20260608-21:12:59.674 : 8=FIXT.1.1|9=64|35=0|34=128|49=FOLEOTRADER|52=20260608-21:12:59.673|56=FOLEOAPI|10=032|
20260608-21:13:14.813 : 8=FIXT.1.1|9=64|35=0|34=128|49=FOLEOAPI|52=20260608-21:13:14.813|56=FOLEOTRADER|10=020|
20260608-21:13:19.842 : 8=FIXT.1.1|9=64|35=0|34=129|49=FOLEOTRADER|52=20260608-21:13:19.841|56=FOLEOAPI|10=027|
20260608-21:13:34.951 : 8=FIXT.1.1|9=64|35=0|34=129|49=FOLEOAPI|52=20260608-21:13:34.950|56=FOLEOTRADER|10=025|
20260608-21:13:39.990 : 8=FIXT.1.1|9=64|35=0|34=130|49=FOLEOTRADER|52=20260608-21:13:39.989|56=FOLEOAPI|10=034|
20260608-21:13:55.143 : 8=FIXT.1.1|9=64|35=0|34=130|49=FOLEOAPI|52=20260608-21:13:55.143|56=FOLEOTRADER|10=014|
20260608-21:14:00.201 : 8=FIXT.1.1|9=64|35=0|34=131|49=FOLEOTRADER|52=20260608-21:14:00.201|56=FOLEOAPI|10=001|
20260608-21:14:15.341 : 8=FIXT.1.1|9=64|35=0|34=131|49=FOLEOAPI|52=20260608-21:14:15.340|56=FOLEOTRADER|10=011|
20260608-21:14:20.374 : 8=FIXT.1.1|9=64|35=0|34=132|49=FOLEOTRADER|52=20260608-21:14:20.373|56=FOLEOAPI|10=014|
20260608-21:14:35.492 : 8=FIXT.1.1|9=64|35=0|34=132|49=FOLEOAPI|52=20260608-21:14:35.492|56=FOLEOTRADER|10=022|
20260608-21:14:40.548 : 8=FIXT.1.1|9=64|35=0|34=133|49=FOLEOTRADER|52=20260608-21:14:40.547|56=FOLEOAPI|10=020|
20260608-21:14:55.665 : 8=FIXT.1.1|9=64|35=0|34=133|49=FOLEOAPI|52=20260608-21:14:55.664|56=FOLEOTRADER|10=026|
20260608-21:15:00.707 : 8=FIXT.1.1|9=64|35=0|34=134|49=FOLEOTRADER|52=20260608-21:15:00.706|56=FOLEOAPI|10=015|
20260608-21:15:15.843 : 8=FIXT.1.1|9=64|35=0|34=134|49=FOLEOAPI|52=20260608-21:15:15.842|56=FOLEOTRADER|10=022|
20260608-21:15:20.882 : 8=FIXT.1.1|9=64|35=0|34=135|49=FOLEOTRADER|52=20260608-21:15:20.881|56=FOLEOAPI|10=022|
20260608-21:15:35.994 : 8=FIXT.1.1|9=64|35=0|34=135|49=FOLEOAPI|52=20260608-21:15:35.994|56=FOLEOTRADER|10=033|
20260608-21:15:41.024 : 8=FIXT.1.1|9=64|35=0|34=136|49=FOLEOTRADER|52=20260608-21:15:41.023|56=FOLEOAPI|10=014|
20260608-21:15:56.146 : 8=FIXT.1.1|9=64|35=0|34=136|49=FOLEOAPI|52=20260608-21:15:56.146|56=FOLEOTRADER|10=026|
20260608-21:16:01.193 : 8=FIXT.1.1|9=64|35=0|34=137|49=FOLEOTRADER|52=20260608-21:16:01.192|56=FOLEOAPI|10=019|
20260608-21:16:16.316 : 8=FIXT.1.1|9=64|35=0|34=137|49=FOLEOAPI|52=20260608-21:16:16.316|56=FOLEOTRADER|10=023|
20260608-21:16:21.369 : 8=FIXT.1.1|9=64|35=0|34=138|49=FOLEOTRADER|52=20260608-21:16:21.367|56=FOLEOAPI|10=026|
20260608-21:16:36.492 : 8=FIXT.1.1|9=64|35=0|34=138|49=FOLEOAPI|52=20260608-21:16:36.492|56=FOLEOTRADER|10=031|
20260608-21:16:41.519 : 8=FIXT.1.1|9=64|35=0|34=139|49=FOLEOTRADER|52=20260608-21:16:41.518|56=FOLEOAPI|10=027|
20260608-21:16:56.661 : 8=FIXT.1.1|9=64|35=0|34=139|49=FOLEOAPI|52=20260608-21:16:56.661|56=FOLEOTRADER|10=032|
20260608-21:17:01.701 : 8=FIXT.1.1|9=64|35=0|34=140|49=FOLEOTRADER|52=20260608-21:17:01.700|56=FOLEOAPI|10=009|
20260608-21:17:16.822 : 8=FIXT.1.1|9=64|35=0|34=140|49=FOLEOAPI|52=20260608-21:17:16.822|56=FOLEOTRADER|10=020|
20260608-21:17:21.875 : 8=FIXT.1.1|9=64|35=0|34=141|49=FOLEOTRADER|52=20260608-21:17:21.874|56=FOLEOAPI|10=024|
20260608-21:17:36.968 : 8=FIXT.1.1|9=64|35=0|34=141|49=FOLEOAPI|52=20260608-21:17:36.967|56=FOLEOTRADER|10=033|
20260608-21:17:41.997 : 8=FIXT.1.1|9=64|35=0|34=142|49=FOLEOTRADER|52=20260608-21:17:41.996|56=FOLEOAPI|10=032|
20260608-21:17:57.123 : 8=FIXT.1.1|9=64|35=0|34=142|49=FOLEOAPI|52=20260608-21:17:57.123|56=FOLEOTRADER|10=021|
20260608-21:18:02.149 : 8=FIXT.1.1|9=64|35=0|34=143|49=FOLEOTRADER|52=20260608-21:18:02.148|56=FOLEOAPI|10=020|
20260608-21:18:17.260 : 8=FIXT.1.1|9=64|35=0|34=143|49=FOLEOAPI|52=20260608-21:18:17.260|56=FOLEOTRADER|10=021|
20260608-21:18:22.314 : 8=FIXT.1.1|9=64|35=0|34=144|49=FOLEOTRADER|52=20260608-21:18:22.313|56=FOLEOAPI|10=017|
20260608-21:18:37.427 : 8=FIXT.1.1|9=64|35=0|34=144|49=FOLEOAPI|52=20260608-21:18:37.426|56=FOLEOTRADER|10=028|
20260608-21:18:42.449 : 8=FIXT.1.1|9=64|35=0|34=145|49=FOLEOTRADER|52=20260608-21:18:42.448|56=FOLEOAPI|10=029|
20260608-21:18:57.547 : 8=FIXT.1.1|9=64|35=0|34=145|49=FOLEOAPI|52=20260608-21:18:57.547|56=FOLEOTRADER|10=035|
20260608-21:19:02.593 : 8=FIXT.1.1|9=64|35=0|34=146|49=FOLEOTRADER|52=20260608-21:19:02.592|56=FOLEOAPI|10=027|
20260608-21:19:17.734 : 8=FIXT.1.1|9=64|35=0|34=146|49=FOLEOAPI|52=20260608-21:19:17.734|56=FOLEOTRADER|10=031|
20260608-21:19:22.777 : 8=FIXT.1.1|9=64|35=0|34=147|49=FOLEOTRADER|52=20260608-21:19:22.776|56=FOLEOAPI|10=034|
20260608-21:19:37.902 : 8=FIXT.1.1|9=64|35=0|34=147|49=FOLEOAPI|52=20260608-21:19:37.902|56=FOLEOTRADER|10=031|
20260608-21:19:42.950 : 8=FIXT.1.1|9=64|35=0|34=148|49=FOLEOTRADER|52=20260608-21:19:42.949|56=FOLEOAPI|10=039|
20260608-21:19:58.104 : 8=FIXT.1.1|9=64|35=0|34=148|49=FOLEOAPI|52=20260608-21:19:58.103|56=FOLEOTRADER|10=028|
20260608-21:20:03.144 : 8=FIXT.1.1|9=64|35=0|34=149|49=FOLEOTRADER|52=20260608-21:20:03.143|56=FOLEOAPI|10=015|
20260608-21:20:18.250 : 8=FIXT.1.1|9=64|35=0|34=149|49=FOLEOAPI|52=20260608-21:20:18.249|56=FOLEOTRADER|10=028|
20260608-21:20:23.300 : 8=FIXT.1.1|9=64|35=0|34=150|49=FOLEOTRADER|52=20260608-21:20:23.299|56=FOLEOAPI|10=021|
20260608-21:20:38.427 : 8=FIXT.1.1|9=64|35=0|34=150|49=FOLEOAPI|52=20260608-21:20:38.426|56=FOLEOTRADER|10=019|
20260608-21:20:43.482 : 8=FIXT.1.1|9=64|35=0|34=151|49=FOLEOTRADER|52=20260608-21:20:43.481|56=FOLEOAPI|10=017|
20260608-21:20:58.579 : 8=FIXT.1.1|9=64|35=0|34=151|49=FOLEOAPI|52=20260608-21:20:58.578|56=FOLEOTRADER|10=030|
20260608-21:21:03.630 : 8=FIXT.1.1|9=64|35=0|34=152|49=FOLEOTRADER|52=20260608-21:21:03.629|56=FOLEOAPI|10=019|
20260608-21:21:18.749 : 8=FIXT.1.1|9=64|35=0|34=152|49=FOLEOAPI|52=20260608-21:21:18.748|56=FOLEOTRADER|10=027|
20260608-21:21:23.780 : 8=FIXT.1.1|9=64|35=0|34=153|49=FOLEOTRADER|52=20260608-21:21:23.779|56=FOLEOAPI|10=028|
20260608-21:21:38.895 : 8=FIXT.1.1|9=64|35=0|34=153|49=FOLEOAPI|52=20260608-21:21:38.895|56=FOLEOTRADER|10=033|
20260608-21:21:43.932 : 8=FIXT.1.1|9=64|35=0|34=154|49=FOLEOTRADER|52=20260608-21:21:43.931|56=FOLEOAPI|10=021|
20260608-21:21:59.073 : 8=FIXT.1.1|9=64|35=0|34=154|49=FOLEOAPI|52=20260608-21:21:59.073|56=FOLEOTRADER|10=025|
20260608-21:22:04.100 : 8=FIXT.1.1|9=64|35=0|34=155|49=FOLEOTRADER|52=20260608-21:22:04.099|56=FOLEOAPI|10=025|
20260608-21:22:19.235 : 8=FIXT.1.1|9=64|35=0|34=155|49=FOLEOAPI|52=20260608-21:22:19.234|56=FOLEOTRADER|10=022|
20260608-21:22:24.280 : 8=FIXT.1.1|9=64|35=0|34=156|49=FOLEOTRADER|52=20260608-21:22:24.279|56=FOLEOAPI|10=028|
20260608-21:22:39.395 : 8=FIXT.1.1|9=64|35=0|34=156|49=FOLEOAPI|52=20260608-21:22:39.394|56=FOLEOTRADER|10=032|
20260608-21:22:44.412 : 8=FIXT.1.1|9=64|35=0|34=157|49=FOLEOTRADER|52=20260608-21:22:44.411|56=FOLEOAPI|10=019|
20260608-21:22:59.531 : 8=FIXT.1.1|9=64|35=0|34=157|49=FOLEOAPI|52=20260608-21:22:59.530|56=FOLEOTRADER|10=027|
20260608-21:23:04.572 : 8=FIXT.1.1|9=64|35=0|34=158|49=FOLEOTRADER|52=20260608-21:23:04.570|56=FOLEOAPI|10=023|
20260608-21:23:19.710 : 8=FIXT.1.1|9=64|35=0|34=158|49=FOLEOAPI|52=20260608-21:23:19.710|56=FOLEOTRADER|10=025|
20260608-21:23:24.766 : 8=FIXT.1.1|9=64|35=0|34=159|49=FOLEOTRADER|52=20260608-21:23:24.765|56=FOLEOAPI|10=032|
20260608-21:23:39.872 : 8=FIXT.1.1|9=64|35=0|34=159|49=FOLEOAPI|52=20260608-21:23:39.872|56=FOLEOTRADER|10=037|
20260608-21:23:44.911 : 8=FIXT.1.1|9=64|35=0|34=160|49=FOLEOTRADER|52=20260608-21:23:44.911|56=FOLEOAPI|10=019|
20260608-21:24:00.002 : 8=FIXT.1.1|9=64|35=0|34=160|49=FOLEOAPI|52=20260608-21:24:00.001|56=FOLEOTRADER|10=002|
20260608-21:24:05.038 : 8=FIXT.1.1|9=64|35=0|34=161|49=FOLEOTRADER|52=20260608-21:24:05.037|56=FOLEOAPI|10=017|
20260608-21:24:20.171 : 8=FIXT.1.1|9=64|35=0|34=161|49=FOLEOAPI|52=20260608-21:24:20.171|56=FOLEOTRADER|10=013|
20260608-21:24:25.211 : 8=FIXT.1.1|9=64|35=0|34=162|49=FOLEOTRADER|52=20260608-21:24:25.210|56=FOLEOAPI|10=013|
20260608-21:24:40.304 : 8=FIXT.1.1|9=64|35=0|34=162|49=FOLEOAPI|52=20260608-21:24:40.303|56=FOLEOTRADER|10=013|
20260608-21:24:45.336 : 8=FIXT.1.1|9=64|35=0|34=163|49=FOLEOTRADER|52=20260608-21:24:45.335|56=FOLEOAPI|10=024|
20260608-21:25:00.471 : 8=FIXT.1.1|9=64|35=0|34=163|49=FOLEOAPI|52=20260608-21:25:00.470|56=FOLEOTRADER|10=016|
20260608-21:25:05.506 : 8=FIXT.1.1|9=64|35=0|34=164|49=FOLEOTRADER|52=20260608-21:25:05.505|56=FOLEOAPI|10=021|
20260608-21:25:20.601 : 8=FIXT.1.1|9=64|35=0|34=164|49=FOLEOAPI|52=20260608-21:25:20.601|56=FOLEOTRADER|10=015|
20260608-21:25:25.646 : 8=FIXT.1.1|9=64|35=0|34=165|49=FOLEOTRADER|52=20260608-21:25:25.644|56=FOLEOAPI|10=028|
20260608-21:25:40.778 : 8=FIXT.1.1|9=64|35=0|34=165|49=FOLEOAPI|52=20260608-21:25:40.778|56=FOLEOTRADER|10=033|
20260608-21:25:45.826 : 8=FIXT.1.1|9=64|35=0|34=166|49=FOLEOTRADER|52=20260608-21:25:45.826|56=FOLEOAPI|10=033|
20260608-21:26:00.898 : 8=FIXT.1.1|9=64|35=0|34=166|49=FOLEOAPI|52=20260608-21:26:00.898|56=FOLEOTRADER|10=034|
20260608-21:26:05.934 : 8=FIXT.1.1|9=64|35=0|34=167|49=FOLEOTRADER|52=20260608-21:26:05.933|56=FOLEOAPI|10=030|
20260608-21:26:21.067 : 8=FIXT.1.1|9=64|35=0|34=167|49=FOLEOAPI|52=20260608-21:26:21.067|56=FOLEOTRADER|10=026|
20260608-21:26:26.103 : 8=FIXT.1.1|9=64|35=0|34=168|49=FOLEOTRADER|52=20260608-21:26:26.102|56=FOLEOAPI|10=022|
20260608-21:26:41.243 : 8=FIXT.1.1|9=64|35=0|34=168|49=FOLEOAPI|52=20260608-21:26:41.243|56=FOLEOTRADER|10=025|
20260608-21:26:46.277 : 8=FIXT.1.1|9=64|35=0|34=169|49=FOLEOTRADER|52=20260608-21:26:46.276|56=FOLEOAPI|10=037|
20260608-21:27:01.428 : 8=FIXT.1.1|9=64|35=0|34=169|49=FOLEOAPI|52=20260608-21:27:01.428|56=FOLEOTRADER|10=028|
20260608-21:27:06.467 : 8=FIXT.1.1|9=64|35=0|34=170|49=FOLEOTRADER|52=20260608-21:27:06.466|56=FOLEOAPI|10=027|
20260608-21:27:21.612 : 8=FIXT.1.1|9=64|35=0|34=170|49=FOLEOAPI|52=20260608-21:27:21.612|56=FOLEOTRADER|10=017|
20260608-21:27:26.666 : 8=FIXT.1.1|9=64|35=0|34=171|49=FOLEOTRADER|52=20260608-21:27:26.665|56=FOLEOAPI|10=031|
20260608-21:27:41.807 : 8=FIXT.1.1|9=64|35=0|34=171|49=FOLEOAPI|52=20260608-21:27:41.807|56=FOLEOTRADER|10=026|
20260608-21:27:46.830 : 8=FIXT.1.1|9=64|35=0|34=172|49=FOLEOTRADER|52=20260608-21:27:46.829|56=FOLEOAPI|10=036|
20260608-21:28:01.950 : 8=FIXT.1.1|9=64|35=0|34=172|49=FOLEOAPI|52=20260608-21:28:01.950|56=FOLEOTRADER|10=023|
20260608-21:28:07.004 : 8=FIXT.1.1|9=64|35=0|34=173|49=FOLEOTRADER|52=20260608-21:28:07.003|56=FOLEOAPI|10=019|
20260608-21:28:22.146 : 8=FIXT.1.1|9=64|35=0|34=173|49=FOLEOAPI|52=20260608-21:28:22.146|56=FOLEOTRADER|10=024|
20260608-21:28:27.200 : 8=FIXT.1.1|9=64|35=0|34=174|49=FOLEOTRADER|52=20260608-21:28:27.198|56=FOLEOAPI|10=037|
20260608-21:28:42.310 : 8=FIXT.1.1|9=64|35=0|34=174|49=FOLEOAPI|52=20260608-21:28:42.310|56=FOLEOTRADER|10=020|
20260608-21:28:47.356 : 8=FIXT.1.1|9=64|35=0|34=175|49=FOLEOTRADER|52=20260608-21:28:47.355|56=FOLEOAPI|10=035|
20260608-21:29:02.482 : 8=FIXT.1.1|9=64|35=0|34=175|49=FOLEOAPI|52=20260608-21:29:02.482|56=FOLEOTRADER|10=028|
20260608-21:29:07.538 : 8=FIXT.1.1|9=64|35=0|34=176|49=FOLEOTRADER|52=20260608-21:29:07.537|56=FOLEOAPI|10=035|
20260608-21:29:22.659 : 8=FIXT.1.1|9=64|35=0|34=176|49=FOLEOAPI|52=20260608-21:29:22.659|56=FOLEOTRADER|10=037|
20260608-21:29:27.688 : 8=FIXT.1.1|9=64|35=0|34=177|49=FOLEOTRADER|52=20260608-21:29:27.688|56=FOLEOAPI|10=045|
20260608-21:29:42.787 : 8=FIXT.1.1|9=64|35=0|34=177|49=FOLEOAPI|52=20260608-21:29:42.787|56=FOLEOTRADER|10=042|
20260608-21:29:47.844 : 8=FIXT.1.1|9=64|35=0|34=178|49=FOLEOTRADER|52=20260608-21:29:47.843|56=FOLEOAPI|10=041|
20260608-21:30:02.972 : 8=FIXT.1.1|9=64|35=0|34=178|49=FOLEOAPI|52=20260608-21:30:02.972|56=FOLEOTRADER|10=027|
20260608-21:30:08.014 : 8=FIXT.1.1|9=64|35=0|34=179|49=FOLEOTRADER|52=20260608-21:30:08.013|56=FOLEOAPI|10=020|
20260608-21:30:23.137 : 8=FIXT.1.1|9=64|35=0|34=179|49=FOLEOAPI|52=20260608-21:30:23.137|56=FOLEOTRADER|10=024|
20260608-21:30:28.157 : 8=FIXT.1.1|9=64|35=0|34=180|49=FOLEOTRADER|52=20260608-21:30:28.156|56=FOLEOAPI|10=022|
20260608-21:30:43.278 : 8=FIXT.1.1|9=64|35=0|34=180|49=FOLEOAPI|52=20260608-21:30:43.278|56=FOLEOTRADER|10=024|
20260608-21:30:48.325 : 8=FIXT.1.1|9=64|35=0|34=181|49=FOLEOTRADER|52=20260608-21:30:48.324|56=FOLEOAPI|10=022|
20260608-21:31:03.549 : 8=FIXT.1.1|9=64|35=0|34=181|49=FOLEOAPI|52=20260608-21:31:03.549|56=FOLEOTRADER|10=023|
20260608-21:31:08.622 : 8=FIXT.1.1|9=64|35=0|34=182|49=FOLEOTRADER|52=20260608-21:31:08.621|56=FOLEOAPI|10=020|
20260608-21:31:23.719 : 8=FIXT.1.1|9=64|35=0|34=182|49=FOLEOAPI|52=20260608-21:31:23.719|56=FOLEOTRADER|10=025|
20260608-21:31:28.751 : 8=FIXT.1.1|9=64|35=0|34=183|49=FOLEOTRADER|52=20260608-21:31:28.750|56=FOLEOAPI|10=026|
20260608-21:31:43.914 : 8=FIXT.1.1|9=64|35=0|34=183|49=FOLEOAPI|52=20260608-21:31:43.914|56=FOLEOTRADER|10=025|
20260608-21:31:48.947 : 8=FIXT.1.1|9=64|35=0|34=184|49=FOLEOTRADER|52=20260608-21:31:48.946|56=FOLEOAPI|10=036|
20260608-21:32:04.049 : 8=FIXT.1.1|9=64|35=0|34=184|49=FOLEOAPI|52=20260608-21:32:04.048|56=FOLEOTRADER|10=022|
20260608-21:32:09.090 : 8=FIXT.1.1|9=64|35=0|34=185|49=FOLEOTRADER|52=20260608-21:32:09.089|56=FOLEOAPI|10=033|
20260608-21:32:24.236 : 8=FIXT.1.1|9=64|35=0|34=185|49=FOLEOAPI|52=20260608-21:32:24.235|56=FOLEOTRADER|10=023|
20260608-21:32:29.289 : 8=FIXT.1.1|9=64|35=0|34=186|49=FOLEOTRADER|52=20260608-21:32:29.288|56=FOLEOAPI|10=037|
20260608-21:32:44.377 : 8=FIXT.1.1|9=64|35=0|34=186|49=FOLEOAPI|52=20260608-21:32:44.376|56=FOLEOTRADER|10=032|
20260608-21:32:49.429 : 8=FIXT.1.1|9=64|35=0|34=187|49=FOLEOTRADER|52=20260608-21:32:49.428|56=FOLEOAPI|10=036|
20260608-21:33:04.546 : 8=FIXT.1.1|9=64|35=0|34=187|49=FOLEOAPI|52=20260608-21:33:04.545|56=FOLEOTRADER|10=028|
20260608-21:33:09.592 : 8=FIXT.1.1|9=64|35=0|34=188|49=FOLEOTRADER|52=20260608-21:33:09.592|56=FOLEOAPI|10=036|
20260608-21:33:24.705 : 8=FIXT.1.1|9=64|35=0|34=188|49=FOLEOAPI|52=20260608-21:33:24.705|56=FOLEOTRADER|10=029|
20260608-21:33:29.769 : 8=FIXT.1.1|9=64|35=0|34=189|49=FOLEOTRADER|52=20260608-21:33:29.768|56=FOLEOAPI|10=044|
20260608-21:33:44.917 : 8=FIXT.1.1|9=64|35=0|34=189|49=FOLEOAPI|52=20260608-21:33:44.916|56=FOLEOTRADER|10=036|
20260608-21:33:49.956 : 8=FIXT.1.1|9=64|35=0|34=190|49=FOLEOTRADER|52=20260608-21:33:49.955|56=FOLEOAPI|10=036|
20260608-21:34:05.052 : 8=FIXT.1.1|9=64|35=0|34=190|49=FOLEOAPI|52=20260608-21:34:05.052|56=FOLEOTRADER|10=017|
20260608-21:34:10.097 : 8=FIXT.1.1|9=64|35=0|34=191|49=FOLEOTRADER|52=20260608-21:34:10.096|56=FOLEOAPI|10=022|
20260608-21:34:25.233 : 8=FIXT.1.1|9=64|35=0|34=191|49=FOLEOAPI|52=20260608-21:34:25.233|56=FOLEOTRADER|10=021|
20260608-21:34:30.270 : 8=FIXT.1.1|9=64|35=0|34=192|49=FOLEOTRADER|52=20260608-21:34:30.270|56=FOLEOAPI|10=019|
20260608-21:34:45.390 : 8=FIXT.1.1|9=64|35=0|34=192|49=FOLEOAPI|52=20260608-21:34:45.389|56=FOLEOTRADER|10=036|
20260608-21:34:50.433 : 8=FIXT.1.1|9=64|35=0|34=193|49=FOLEOTRADER|52=20260608-21:34:50.432|56=FOLEOAPI|10=022|
20260608-21:35:05.550 : 8=FIXT.1.1|9=64|35=0|34=193|49=FOLEOAPI|52=20260608-21:35:05.549|56=FOLEOTRADER|10=032|
20260608-21:35:10.573 : 8=FIXT.1.1|9=64|35=0|34=194|49=FOLEOTRADER|52=20260608-21:35:10.572|56=FOLEOAPI|10=025|
20260608-21:35:25.698 : 8=FIXT.1.1|9=64|35=0|34=194|49=FOLEOAPI|52=20260608-21:35:25.697|56=FOLEOTRADER|10=039|
20260608-21:35:30.730 : 8=FIXT.1.1|9=64|35=0|34=195|49=FOLEOTRADER|52=20260608-21:35:30.729|56=FOLEOAPI|10=032|
20260608-21:35:45.860 : 8=FIXT.1.1|9=64|35=0|34=195|49=FOLEOAPI|52=20260608-21:35:45.859|56=FOLEOTRADER|10=042|
20260608-21:35:50.912 : 8=FIXT.1.1|9=64|35=0|34=196|49=FOLEOTRADER|52=20260608-21:35:50.911|56=FOLEOAPI|10=028|
20260608-21:36:06.027 : 8=FIXT.1.1|9=64|35=0|34=196|49=FOLEOAPI|52=20260608-21:36:06.027|56=FOLEOTRADER|10=028|
20260608-21:36:11.083 : 8=FIXT.1.1|9=64|35=0|34=197|49=FOLEOTRADER|52=20260608-21:36:11.082|56=FOLEOAPI|10=026|
20260608-21:36:26.196 : 8=FIXT.1.1|9=64|35=0|34=197|49=FOLEOAPI|52=20260608-21:36:26.196|56=FOLEOTRADER|10=038|
20260608-21:36:31.244 : 8=FIXT.1.1|9=64|35=0|34=198|49=FOLEOTRADER|52=20260608-21:36:31.243|56=FOLEOAPI|10=028|
20260608-21:36:46.379 : 8=FIXT.1.1|9=64|35=0|34=198|49=FOLEOAPI|52=20260608-21:36:46.379|56=FOLEOTRADER|10=044|
20260608-21:36:51.429 : 8=FIXT.1.1|9=64|35=0|34=199|49=FOLEOTRADER|52=20260608-21:36:51.428|56=FOLEOAPI|10=036|
20260608-21:37:06.537 : 8=FIXT.1.1|9=64|35=0|34=199|49=FOLEOAPI|52=20260608-21:37:06.537|56=FOLEOTRADER|10=038|
20260608-21:37:11.565 : 8=FIXT.1.1|9=64|35=0|34=200|49=FOLEOTRADER|52=20260608-21:37:11.564|56=FOLEOAPI|10=017|
20260608-21:37:26.699 : 8=FIXT.1.1|9=64|35=0|34=200|49=FOLEOAPI|52=20260608-21:37:26.699|56=FOLEOTRADER|10=032|
20260608-21:37:31.749 : 8=FIXT.1.1|9=64|35=0|34=201|49=FOLEOTRADER|52=20260608-21:37:31.748|56=FOLEOAPI|10=024|
20260608-21:37:46.864 : 8=FIXT.1.1|9=64|35=0|34=201|49=FOLEOAPI|52=20260608-21:37:46.863|56=FOLEOTRADER|10=028|
20260608-21:37:51.897 : 8=FIXT.1.1|9=64|35=0|34=202|49=FOLEOTRADER|52=20260608-21:37:51.896|56=FOLEOAPI|10=031|
20260608-21:38:07.039 : 8=FIXT.1.1|9=64|35=0|34=202|49=FOLEOAPI|52=20260608-21:38:07.038|56=FOLEOTRADER|10=021|
20260608-21:38:12.077 : 8=FIXT.1.1|9=64|35=0|34=203|49=FOLEOTRADER|52=20260608-21:38:12.076|56=FOLEOAPI|10=020|
20260608-21:38:27.190 : 8=FIXT.1.1|9=64|35=0|34=203|49=FOLEOAPI|52=20260608-21:38:27.189|56=FOLEOTRADER|10=031|
20260608-21:38:32.243 : 8=FIXT.1.1|9=64|35=0|34=204|49=FOLEOTRADER|52=20260608-21:38:32.242|56=FOLEOAPI|10=018|
20260608-21:38:47.353 : 8=FIXT.1.1|9=64|35=0|34=204|49=FOLEOAPI|52=20260608-21:38:47.353|56=FOLEOTRADER|10=027|
20260608-21:38:52.416 : 8=FIXT.1.1|9=64|35=0|34=205|49=FOLEOTRADER|52=20260608-21:38:52.415|56=FOLEOAPI|10=023|
20260608-21:39:07.526 : 8=FIXT.1.1|9=64|35=0|34=205|49=FOLEOAPI|52=20260608-21:39:07.526|56=FOLEOTRADER|10=027|
20260608-21:39:12.546 : 8=FIXT.1.1|9=64|35=0|34=206|49=FOLEOTRADER|52=20260608-21:39:12.545|56=FOLEOAPI|10=025|
20260608-21:39:27.686 : 8=FIXT.1.1|9=64|35=0|34=206|49=FOLEOAPI|52=20260608-21:39:27.686|56=FOLEOTRADER|10=037|
20260608-21:39:32.733 : 8=FIXT.1.1|9=64|35=0|34=207|49=FOLEOTRADER|52=20260608-21:39:32.732|56=FOLEOAPI|10=026|
20260608-21:39:47.853 : 8=FIXT.1.1|9=64|35=0|34=207|49=FOLEOAPI|52=20260608-21:39:47.853|56=FOLEOTRADER|10=036|
20260608-21:39:52.882 : 8=FIXT.1.1|9=64|35=0|34=208|49=FOLEOTRADER|52=20260608-21:39:52.881|56=FOLEOAPI|10=034|
20260608-21:40:07.974 : 8=FIXT.1.1|9=64|35=0|34=208|49=FOLEOAPI|52=20260608-21:40:07.973|56=FOLEOTRADER|10=028|
20260608-21:40:13.004 : 8=FIXT.1.1|9=64|35=0|34=209|49=FOLEOTRADER|52=20260608-21:40:13.003|56=FOLEOAPI|10=010|
20260608-21:40:28.134 : 8=FIXT.1.1|9=64|35=0|34=209|49=FOLEOAPI|52=20260608-21:40:28.133|56=FOLEOTRADER|10=020|
20260608-21:40:33.184 : 8=FIXT.1.1|9=64|35=0|34=210|49=FOLEOTRADER|52=20260608-21:40:33.183|56=FOLEOAPI|10=013|
20260608-21:40:48.328 : 8=FIXT.1.1|9=64|35=0|34=210|49=FOLEOAPI|52=20260608-21:40:48.327|56=FOLEOTRADER|10=019|
20260608-21:40:53.373 : 8=FIXT.1.1|9=64|35=0|34=211|49=FOLEOTRADER|52=20260608-21:40:53.372|56=FOLEOAPI|10=016|
20260608-21:41:08.496 : 8=FIXT.1.1|9=64|35=0|34=211|49=FOLEOAPI|52=20260608-21:41:08.496|56=FOLEOTRADER|10=024|
20260608-21:41:13.526 : 8=FIXT.1.1|9=64|35=0|34=212|49=FOLEOTRADER|52=20260608-21:41:13.525|56=FOLEOAPI|10=014|
20260608-21:41:28.636 : 8=FIXT.1.1|9=64|35=0|34=212|49=FOLEOAPI|52=20260608-21:41:28.635|56=FOLEOTRADER|10=022|
20260608-21:41:33.667 : 8=FIXT.1.1|9=64|35=0|34=213|49=FOLEOTRADER|52=20260608-21:41:33.665|56=FOLEOAPI|10=022|
20260608-21:41:48.796 : 8=FIXT.1.1|9=64|35=0|34=213|49=FOLEOAPI|52=20260608-21:41:48.795|56=FOLEOTRADER|10=032|
20260608-21:41:53.840 : 8=FIXT.1.1|9=64|35=0|34=214|49=FOLEOTRADER|52=20260608-21:41:53.839|56=FOLEOAPI|10=028|
20260608-21:42:08.952 : 8=FIXT.1.1|9=64|35=0|34=214|49=FOLEOAPI|52=20260608-21:42:08.952|56=FOLEOTRADER|10=025|
20260608-21:42:13.983 : 8=FIXT.1.1|9=64|35=0|34=215|49=FOLEOTRADER|52=20260608-21:42:13.982|56=FOLEOAPI|10=025|
20260608-21:42:29.105 : 8=FIXT.1.1|9=64|35=0|34=215|49=FOLEOAPI|52=20260608-21:42:29.104|56=FOLEOTRADER|10=018|
20260608-21:42:34.133 : 8=FIXT.1.1|9=64|35=0|34=216|49=FOLEOTRADER|52=20260608-21:42:34.131|56=FOLEOAPI|10=015|
20260608-21:42:49.245 : 8=FIXT.1.1|9=64|35=0|34=216|49=FOLEOAPI|52=20260608-21:42:49.245|56=FOLEOTRADER|10=027|
20260608-21:42:54.291 : 8=FIXT.1.1|9=64|35=0|34=217|49=FOLEOTRADER|52=20260608-21:42:54.290|56=FOLEOAPI|10=024|
20260608-21:43:09.444 : 8=FIXT.1.1|9=64|35=0|34=217|49=FOLEOAPI|52=20260608-21:43:09.444|56=FOLEOTRADER|10=026|
20260608-21:43:14.499 : 8=FIXT.1.1|9=64|35=0|34=218|49=FOLEOTRADER|52=20260608-21:43:14.498|56=FOLEOAPI|10=032|
20260608-21:43:29.598 : 8=FIXT.1.1|9=64|35=0|34=218|49=FOLEOAPI|52=20260608-21:43:29.598|56=FOLEOTRADER|10=039|
20260608-21:43:34.633 : 8=FIXT.1.1|9=64|35=0|34=219|49=FOLEOTRADER|52=20260608-21:43:34.632|56=FOLEOAPI|10=025|
20260608-21:43:49.745 : 8=FIXT.1.1|9=64|35=0|34=219|49=FOLEOAPI|52=20260608-21:43:49.745|56=FOLEOTRADER|10=036|
20260608-21:43:54.780 : 8=FIXT.1.1|9=64|35=0|34=220|49=FOLEOTRADER|52=20260608-21:43:54.779|56=FOLEOAPI|10=031|
20260608-21:44:09.895 : 8=FIXT.1.1|9=64|35=0|34=220|49=FOLEOAPI|52=20260608-21:44:09.895|56=FOLEOTRADER|10=031|
20260608-21:44:14.939 : 8=FIXT.1.1|9=64|35=0|34=221|49=FOLEOTRADER|52=20260608-21:44:14.938|56=FOLEOAPI|10=026|
20260608-21:44:30.069 : 8=FIXT.1.1|9=64|35=0|34=221|49=FOLEOAPI|52=20260608-21:44:30.069|56=FOLEOTRADER|10=019|
20260608-21:44:35.125 : 8=FIXT.1.1|9=64|35=0|34=222|49=FOLEOTRADER|52=20260608-21:44:35.124|56=FOLEOAPI|10=017|
20260608-21:44:50.235 : 8=FIXT.1.1|9=64|35=0|34=222|49=FOLEOAPI|52=20260608-21:44:50.235|56=FOLEOTRADER|10=017|
20260608-21:44:55.263 : 8=FIXT.1.1|9=64|35=0|34=223|49=FOLEOTRADER|52=20260608-21:44:55.262|56=FOLEOAPI|10=023|
20260608-21:45:10.392 : 8=FIXT.1.1|9=64|35=0|34=223|49=FOLEOAPI|52=20260608-21:45:10.392|56=FOLEOTRADER|10=019|
20260608-21:45:15.437 : 8=FIXT.1.1|9=64|35=0|34=224|49=FOLEOTRADER|52=20260608-21:45:15.436|56=FOLEOAPI|10=024|
20260608-21:45:30.566 : 8=FIXT.1.1|9=64|35=0|34=224|49=FOLEOAPI|52=20260608-21:45:30.566|56=FOLEOTRADER|10=025|
20260608-21:45:35.610 : 8=FIXT.1.1|9=64|35=0|34=225|49=FOLEOTRADER|52=20260608-21:45:35.609|56=FOLEOAPI|10=029|
20260608-21:45:50.733 : 8=FIXT.1.1|9=64|35=0|34=225|49=FOLEOAPI|52=20260608-21:45:50.733|56=FOLEOTRADER|10=024|
20260608-21:45:55.759 : 8=FIXT.1.1|9=64|35=0|34=226|49=FOLEOTRADER|52=20260608-21:45:55.758|56=FOLEOAPI|10=037|
20260608-21:46:10.882 : 8=FIXT.1.1|9=64|35=0|34=226|49=FOLEOAPI|52=20260608-21:46:10.881|56=FOLEOTRADER|10=026|
20260608-21:46:15.930 : 8=FIXT.1.1|9=64|35=0|34=227|49=FOLEOTRADER|52=20260608-21:46:15.929|56=FOLEOAPI|10=035|
20260608-21:46:31.031 : 8=FIXT.1.1|9=64|35=0|34=227|49=FOLEOAPI|52=20260608-21:46:31.031|56=FOLEOTRADER|10=017|
20260608-21:46:36.058 : 8=FIXT.1.1|9=64|35=0|34=228|49=FOLEOTRADER|52=20260608-21:46:36.057|56=FOLEOAPI|10=031|
20260608-21:46:51.167 : 8=FIXT.1.1|9=64|35=0|34=228|49=FOLEOAPI|52=20260608-21:46:51.167|56=FOLEOTRADER|10=030|
20260608-21:46:56.225 : 8=FIXT.1.1|9=64|35=0|34=229|49=FOLEOTRADER|52=20260608-21:46:56.224|56=FOLEOAPI|10=030|
20260608-21:47:11.337 : 8=FIXT.1.1|9=64|35=0|34=229|49=FOLEOAPI|52=20260608-21:47:11.337|56=FOLEOTRADER|10=027|
20260608-21:47:16.396 : 8=FIXT.1.1|9=64|35=0|34=230|49=FOLEOTRADER|52=20260608-21:47:16.395|56=FOLEOAPI|10=028|
20260608-21:47:31.511 : 8=FIXT.1.1|9=64|35=0|34=230|49=FOLEOAPI|52=20260608-21:47:31.511|56=FOLEOTRADER|10=015|
20260608-21:47:36.571 : 8=FIXT.1.1|9=64|35=0|34=231|49=FOLEOTRADER|52=20260608-21:47:36.570|56=FOLEOAPI|10=026|
20260608-21:47:51.702 : 8=FIXT.1.1|9=64|35=0|34=231|49=FOLEOAPI|52=20260608-21:47:51.702|56=FOLEOTRADER|10=020|
20260608-21:47:56.740 : 8=FIXT.1.1|9=64|35=0|34=232|49=FOLEOTRADER|52=20260608-21:47:56.739|56=FOLEOAPI|10=036|
20260608-21:48:11.864 : 8=FIXT.1.1|9=64|35=0|34=232|49=FOLEOAPI|52=20260608-21:48:11.864|56=FOLEOTRADER|10=027|
20260608-21:48:16.903 : 8=FIXT.1.1|9=64|35=0|34=233|49=FOLEOTRADER|52=20260608-21:48:16.902|56=FOLEOAPI|10=026|
20260608-21:48:32.052 : 8=FIXT.1.1|9=64|35=0|34=233|49=FOLEOAPI|52=20260608-21:48:32.052|56=FOLEOTRADER|10=020|
20260608-21:48:37.095 : 8=FIXT.1.1|9=64|35=0|34=234|49=FOLEOTRADER|52=20260608-21:48:37.094|56=FOLEOAPI|10=032|
20260608-21:48:52.225 : 8=FIXT.1.1|9=64|35=0|34=234|49=FOLEOAPI|52=20260608-21:48:52.224|56=FOLEOTRADER|10=024|
20260608-21:48:57.268 : 8=FIXT.1.1|9=64|35=0|34=235|49=FOLEOTRADER|52=20260608-21:48:57.267|56=FOLEOAPI|10=037|
20260608-21:49:12.396 : 8=FIXT.1.1|9=64|35=0|34=235|49=FOLEOAPI|52=20260608-21:49:12.396|56=FOLEOTRADER|10=032|
20260608-21:49:17.445 : 8=FIXT.1.1|9=64|35=0|34=236|49=FOLEOTRADER|52=20260608-21:49:17.444|56=FOLEOAPI|10=032|
20260608-21:49:32.588 : 8=FIXT.1.1|9=64|35=0|34=236|49=FOLEOAPI|52=20260608-21:49:32.588|56=FOLEOTRADER|10=038|
20260608-21:49:37.632 : 8=FIXT.1.1|9=64|35=0|34=237|49=FOLEOTRADER|52=20260608-21:49:37.631|56=FOLEOAPI|10=033|
20260608-21:49:52.762 : 8=FIXT.1.1|9=64|35=0|34=237|49=FOLEOAPI|52=20260608-21:49:52.761|56=FOLEOTRADER|10=034|
20260608-21:49:57.789 : 8=FIXT.1.1|9=64|35=0|34=238|49=FOLEOTRADER|52=20260608-21:49:57.788|56=FOLEOAPI|10=049|
20260608-21:50:12.870 : 8=FIXT.1.1|9=64|35=0|34=238|49=FOLEOAPI|52=20260608-21:50:12.869|56=FOLEOTRADER|10=032|
20260608-21:50:17.909 : 8=FIXT.1.1|9=64|35=0|34=239|49=FOLEOTRADER|52=20260608-21:50:17.908|56=FOLEOAPI|10=032|
20260608-21:50:33.050 : 8=FIXT.1.1|9=64|35=0|34=239|49=FOLEOAPI|52=20260608-21:50:33.050|56=FOLEOTRADER|10=018|
20260608-21:50:38.108 : 8=FIXT.1.1|9=64|35=0|34=240|49=FOLEOTRADER|52=20260608-21:50:38.107|56=FOLEOAPI|10=018|
20260608-21:50:53.248 : 8=FIXT.1.1|9=64|35=0|34=240|49=FOLEOAPI|52=20260608-21:50:53.247|56=FOLEOTRADER|10=020|
20260608-21:50:58.294 : 8=FIXT.1.1|9=64|35=0|34=241|49=FOLEOTRADER|52=20260608-21:50:58.293|56=FOLEOAPI|10=027|
20260608-21:51:13.418 : 8=FIXT.1.1|9=64|35=0|34=241|49=FOLEOAPI|52=20260608-21:51:13.418|56=FOLEOTRADER|10=018|
20260608-21:51:18.471 : 8=FIXT.1.1|9=64|35=0|34=242|49=FOLEOTRADER|52=20260608-21:51:18.469|56=FOLEOAPI|10=030|
20260608-21:51:33.573 : 8=FIXT.1.1|9=64|35=0|34=242|49=FOLEOAPI|52=20260608-21:51:33.573|56=FOLEOTRADER|10=023|
20260608-21:51:38.622 : 8=FIXT.1.1|9=64|35=0|34=243|49=FOLEOTRADER|52=20260608-21:51:38.621|56=FOLEOAPI|10=023|
20260608-21:51:53.765 : 8=FIXT.1.1|9=64|35=0|34=243|49=FOLEOAPI|52=20260608-21:51:53.764|56=FOLEOTRADER|10=028|
20260608-21:51:58.807 : 8=FIXT.1.1|9=64|35=0|34=244|49=FOLEOTRADER|52=20260608-21:51:58.806|56=FOLEOAPI|10=031|
20260608-21:52:13.947 : 8=FIXT.1.1|9=64|35=0|34=244|49=FOLEOAPI|52=20260608-21:52:13.946|56=FOLEOTRADER|10=028|
20260608-21:52:18.981 : 8=FIXT.1.1|9=64|35=0|34=245|49=FOLEOTRADER|52=20260608-21:52:18.980|56=FOLEOAPI|10=032|
20260608-21:52:34.105 : 8=FIXT.1.1|9=64|35=0|34=245|49=FOLEOAPI|52=20260608-21:52:34.105|56=FOLEOTRADER|10=019|
20260608-21:52:39.136 : 8=FIXT.1.1|9=64|35=0|34=246|49=FOLEOTRADER|52=20260608-21:52:39.135|56=FOLEOAPI|10=028|
20260608-21:52:54.249 : 8=FIXT.1.1|9=64|35=0|34=246|49=FOLEOAPI|52=20260608-21:52:54.249|56=FOLEOTRADER|10=031|
20260608-21:52:59.306 : 8=FIXT.1.1|9=64|35=0|34=247|49=FOLEOTRADER|52=20260608-21:52:59.305|56=FOLEOAPI|10=030|
20260608-21:53:14.430 : 8=FIXT.1.1|9=64|35=0|34=247|49=FOLEOAPI|52=20260608-21:53:14.430|56=FOLEOTRADER|10=021|
20260608-21:53:19.473 : 8=FIXT.1.1|9=64|35=0|34=248|49=FOLEOTRADER|52=20260608-21:53:19.472|56=FOLEOAPI|10=033|
20260608-21:53:34.577 : 8=FIXT.1.1|9=64|35=0|34=248|49=FOLEOAPI|52=20260608-21:53:34.576|56=FOLEOTRADER|10=035|
20260608-21:53:39.626 : 8=FIXT.1.1|9=64|35=0|34=249|49=FOLEOTRADER|52=20260608-21:53:39.625|56=FOLEOAPI|10=036|
20260608-21:53:54.767 : 8=FIXT.1.1|9=64|35=0|34=249|49=FOLEOAPI|52=20260608-21:53:54.767|56=FOLEOTRADER|10=040|
20260608-21:53:59.828 : 8=FIXT.1.1|9=64|35=0|34=250|49=FOLEOTRADER|52=20260608-21:53:59.827|56=FOLEOAPI|10=034|
20260608-21:54:14.942 : 8=FIXT.1.1|9=64|35=0|34=250|49=FOLEOAPI|52=20260608-21:54:14.941|56=FOLEOTRADER|10=023|
20260608-21:54:19.987 : 8=FIXT.1.1|9=64|35=0|34=251|49=FOLEOTRADER|52=20260608-21:54:19.986|56=FOLEOAPI|10=038|
20260608-21:54:35.121 : 8=FIXT.1.1|9=64|35=0|34=251|49=FOLEOAPI|52=20260608-21:54:35.120|56=FOLEOTRADER|10=016|
20260608-21:54:40.165 : 8=FIXT.1.1|9=64|35=0|34=252|49=FOLEOTRADER|52=20260608-21:54:40.164|56=FOLEOAPI|10=021|
20260608-21:54:55.342 : 8=FIXT.1.1|9=64|35=0|34=252|49=FOLEOAPI|52=20260608-21:54:55.342|56=FOLEOTRADER|10=025|
20260608-21:55:00.384 : 8=FIXT.1.1|9=64|35=0|34=253|49=FOLEOTRADER|52=20260608-21:55:00.383|56=FOLEOAPI|10=022|
20260608-21:55:15.520 : 8=FIXT.1.1|9=64|35=0|34=253|49=FOLEOAPI|52=20260608-21:55:15.519|56=FOLEOTRADER|10=029|
20260608-21:55:20.555 : 8=FIXT.1.1|9=64|35=0|34=254|49=FOLEOTRADER|52=20260608-21:55:20.554|56=FOLEOAPI|10=025|
20260608-21:55:35.700 : 8=FIXT.1.1|9=64|35=0|34=254|49=FOLEOAPI|52=20260608-21:55:35.699|56=FOLEOTRADER|10=041|
20260608-21:55:40.745 : 8=FIXT.1.1|9=64|35=0|34=255|49=FOLEOTRADER|52=20260608-21:55:40.744|56=FOLEOAPI|10=029|
20260608-21:55:55.917 : 8=FIXT.1.1|9=64|35=0|34=255|49=FOLEOAPI|52=20260608-21:55:55.917|56=FOLEOTRADER|10=037|
20260608-21:56:00.949 : 8=FIXT.1.1|9=64|35=0|34=256|49=FOLEOTRADER|52=20260608-21:56:00.948|56=FOLEOAPI|10=033|
20260608-21:56:16.072 : 8=FIXT.1.1|9=64|35=0|34=256|49=FOLEOAPI|52=20260608-21:56:16.072|56=FOLEOTRADER|10=028|
20260608-21:56:21.123 : 8=FIXT.1.1|9=64|35=0|34=257|49=FOLEOTRADER|52=20260608-21:56:21.122|56=FOLEOAPI|10=021|
20260608-21:56:36.209 : 8=FIXT.1.1|9=64|35=0|34=257|49=FOLEOAPI|52=20260608-21:56:36.208|56=FOLEOTRADER|10=032|
20260608-21:56:41.268 : 8=FIXT.1.1|9=64|35=0|34=258|49=FOLEOTRADER|52=20260608-21:56:41.267|56=FOLEOAPI|10=034|
20260608-21:56:56.409 : 8=FIXT.1.1|9=64|35=0|34=258|49=FOLEOAPI|52=20260608-21:56:56.409|56=FOLEOTRADER|10=038|
20260608-21:57:01.457 : 8=FIXT.1.1|9=64|35=0|34=259|49=FOLEOTRADER|52=20260608-21:57:01.456|56=FOLEOAPI|10=032|
20260608-21:57:16.608 : 8=FIXT.1.1|9=64|35=0|34=259|49=FOLEOAPI|52=20260608-21:57:16.608|56=FOLEOTRADER|10=037|
20260608-21:57:21.664 : 8=FIXT.1.1|9=64|35=0|34=260|49=FOLEOTRADER|52=20260608-21:57:21.663|56=FOLEOAPI|10=026|
20260608-21:57:36.798 : 8=FIXT.1.1|9=64|35=0|34=260|49=FOLEOAPI|52=20260608-21:57:36.798|56=FOLEOTRADER|10=041|
20260608-21:57:41.855 : 8=FIXT.1.1|9=64|35=0|34=261|49=FOLEOTRADER|52=20260608-21:57:41.854|56=FOLEOAPI|10=031|
20260608-21:57:57.020 : 8=FIXT.1.1|9=64|35=0|34=261|49=FOLEOAPI|52=20260608-21:57:57.020|56=FOLEOTRADER|10=023|
20260608-21:58:02.064 : 8=FIXT.1.1|9=64|35=0|34=262|49=FOLEOTRADER|52=20260608-21:58:02.063|56=FOLEOAPI|10=022|
20260608-21:58:17.226 : 8=FIXT.1.1|9=64|35=0|34=262|49=FOLEOAPI|52=20260608-21:58:17.226|56=FOLEOTRADER|10=029|
20260608-21:58:22.271 : 8=FIXT.1.1|9=64|35=0|34=263|49=FOLEOTRADER|52=20260608-21:58:22.270|56=FOLEOAPI|10=025|
20260608-21:58:37.415 : 8=FIXT.1.1|9=64|35=0|34=263|49=FOLEOAPI|52=20260608-21:58:37.414|56=FOLEOTRADER|10=031|
20260608-21:58:42.464 : 8=FIXT.1.1|9=64|35=0|34=264|49=FOLEOTRADER|52=20260608-21:58:42.463|56=FOLEOAPI|10=032|
20260608-21:58:57.590 : 8=FIXT.1.1|9=64|35=0|34=264|49=FOLEOAPI|52=20260608-21:58:57.590|56=FOLEOTRADER|10=039|
20260608-21:59:02.632 : 8=FIXT.1.1|9=64|35=0|34=265|49=FOLEOTRADER|52=20260608-21:59:02.631|56=FOLEOAPI|10=027|
20260608-21:59:17.764 : 8=FIXT.1.1|9=64|35=0|34=265|49=FOLEOAPI|52=20260608-21:59:17.763|56=FOLEOTRADER|10=039|
20260608-21:59:22.800 : 8=FIXT.1.1|9=64|35=0|34=266|49=FOLEOTRADER|52=20260608-21:59:22.798|56=FOLEOAPI|10=044|
20260608-21:59:37.894 : 8=FIXT.1.1|9=64|35=0|34=266|49=FOLEOAPI|52=20260608-21:59:37.894|56=FOLEOTRADER|10=047|
20260608-21:59:42.959 : 8=FIXT.1.1|9=64|35=0|34=267|49=FOLEOTRADER|52=20260608-21:59:42.958|56=FOLEOAPI|10=045|
20260608-21:59:58.067 : 8=FIXT.1.1|9=64|35=0|34=267|49=FOLEOAPI|52=20260608-21:59:58.066|56=FOLEOTRADER|10=042|
20260608-22:00:03.117 : 8=FIXT.1.1|9=64|35=0|34=268|49=FOLEOTRADER|52=20260608-22:00:03.116|56=FOLEOAPI|10=016|
20260608-22:00:18.251 : 8=FIXT.1.1|9=64|35=0|34=268|49=FOLEOAPI|52=20260608-22:00:18.251|56=FOLEOTRADER|10=022|
20260608-22:00:23.286 : 8=FIXT.1.1|9=64|35=0|34=269|49=FOLEOTRADER|52=20260608-22:00:23.285|56=FOLEOAPI|10=026|
20260608-22:00:38.409 : 8=FIXT.1.1|9=64|35=0|34=269|49=FOLEOAPI|52=20260608-22:00:38.408|56=FOLEOTRADER|10=029|
20260608-22:00:43.449 : 8=FIXT.1.1|9=64|35=0|34=270|49=FOLEOTRADER|52=20260608-22:00:43.448|56=FOLEOAPI|10=021|
20260608-22:00:58.606 : 8=FIXT.1.1|9=64|35=0|34=270|49=FOLEOAPI|52=20260608-22:00:58.606|56=FOLEOTRADER|10=023|
20260608-22:01:03.669 : 8=FIXT.1.1|9=64|35=0|34=271|49=FOLEOTRADER|52=20260608-22:01:03.668|56=FOLEOAPI|10=023|
20260608-22:01:18.824 : 8=FIXT.1.1|9=64|35=0|34=271|49=FOLEOAPI|52=20260608-22:01:18.823|56=FOLEOTRADER|10=022|
20260608-22:01:23.884 : 8=FIXT.1.1|9=64|35=0|34=272|49=FOLEOTRADER|52=20260608-22:01:23.883|56=FOLEOAPI|10=025|
20260608-22:01:39.011 : 8=FIXT.1.1|9=64|35=0|34=272|49=FOLEOAPI|52=20260608-22:01:39.011|56=FOLEOTRADER|10=015|
20260608-22:01:44.074 : 8=FIXT.1.1|9=64|35=0|34=273|49=FOLEOTRADER|52=20260608-22:01:44.073|56=FOLEOAPI|10=020|
20260608-22:01:59.196 : 8=FIXT.1.1|9=64|35=0|34=273|49=FOLEOAPI|52=20260608-22:01:59.196|56=FOLEOTRADER|10=032|
20260608-22:02:04.230 : 8=FIXT.1.1|9=64|35=0|34=274|49=FOLEOTRADER|52=20260608-22:02:04.229|56=FOLEOAPI|10=021|
20260608-22:02:19.363 : 8=FIXT.1.1|9=64|35=0|34=274|49=FOLEOAPI|52=20260608-22:02:19.362|56=FOLEOTRADER|10=025|
20260608-22:02:24.429 : 8=FIXT.1.1|9=64|35=0|34=275|49=FOLEOTRADER|52=20260608-22:02:24.428|56=FOLEOAPI|10=025|
20260608-22:02:39.569 : 8=FIXT.1.1|9=64|35=0|34=275|49=FOLEOAPI|52=20260608-22:02:39.568|56=FOLEOTRADER|10=036|
20260608-22:02:44.614 : 8=FIXT.1.1|9=64|35=0|34=276|49=FOLEOTRADER|52=20260608-22:02:44.613|56=FOLEOAPI|10=024|
20260608-22:02:59.765 : 8=FIXT.1.1|9=64|35=0|34=276|49=FOLEOAPI|52=20260608-22:02:59.765|56=FOLEOTRADER|10=038|
20260608-22:03:04.809 : 8=FIXT.1.1|9=64|35=0|34=277|49=FOLEOTRADER|52=20260608-22:03:04.808|56=FOLEOAPI|10=028|
20260608-22:03:19.948 : 8=FIXT.1.1|9=64|35=0|34=277|49=FOLEOAPI|52=20260608-22:03:19.948|56=FOLEOTRADER|10=039|
20260608-22:03:25.000 : 8=FIXT.1.1|9=64|35=0|34=278|49=FOLEOTRADER|52=20260608-22:03:24.998|56=FOLEOAPI|10=041|
20260608-22:03:40.136 : 8=FIXT.1.1|9=64|35=0|34=278|49=FOLEOAPI|52=20260608-22:03:40.135|56=FOLEOTRADER|10=022|
20260608-22:03:45.174 : 8=FIXT.1.1|9=64|35=0|34=279|49=FOLEOTRADER|52=20260608-22:03:45.173|56=FOLEOAPI|10=030|
20260608-22:04:00.297 : 8=FIXT.1.1|9=64|35=0|34=279|49=FOLEOAPI|52=20260608-22:04:00.296|56=FOLEOTRADER|10=028|
20260608-22:04:05.340 : 8=FIXT.1.1|9=64|35=0|34=280|49=FOLEOTRADER|52=20260608-22:04:05.339|56=FOLEOAPI|10=023|
20260608-22:04:20.499 : 8=FIXT.1.1|9=64|35=0|34=280|49=FOLEOAPI|52=20260608-22:04:20.499|56=FOLEOTRADER|10=027|
20260608-22:04:25.528 : 8=FIXT.1.1|9=64|35=0|34=281|49=FOLEOTRADER|52=20260608-22:04:25.527|56=FOLEOAPI|10=025|
20260608-22:04:40.681 : 8=FIXT.1.1|9=64|35=0|34=281|49=FOLEOAPI|52=20260608-22:04:40.680|56=FOLEOTRADER|10=022|
20260608-22:04:45.713 : 8=FIXT.1.1|9=64|35=0|34=282|49=FOLEOTRADER|52=20260608-22:04:45.712|56=FOLEOAPI|10=024|
20260608-22:05:00.845 : 8=FIXT.1.1|9=64|35=0|34=282|49=FOLEOAPI|52=20260608-22:05:00.844|56=FOLEOTRADER|10=022|
20260608-22:05:05.878 : 8=FIXT.1.1|9=64|35=0|34=283|49=FOLEOTRADER|52=20260608-22:05:05.877|56=FOLEOAPI|10=034|
20260608-22:05:21.049 : 8=FIXT.1.1|9=64|35=0|34=283|49=FOLEOAPI|52=20260608-22:05:21.048|56=FOLEOTRADER|10=022|
20260608-22:05:26.091 : 8=FIXT.1.1|9=64|35=0|34=284|49=FOLEOTRADER|52=20260608-22:05:26.090|56=FOLEOAPI|10=025|
20260608-22:05:41.179 : 8=FIXT.1.1|9=64|35=0|34=284|49=FOLEOAPI|52=20260608-22:05:41.178|56=FOLEOTRADER|10=029|
20260608-22:05:46.220 : 8=FIXT.1.1|9=64|35=0|34=285|49=FOLEOTRADER|52=20260608-22:05:46.219|56=FOLEOAPI|10=031|
20260608-22:06:01.325 : 8=FIXT.1.1|9=64|35=0|34=285|49=FOLEOAPI|52=20260608-22:06:01.324|56=FOLEOTRADER|10=020|
20260608-22:06:06.368 : 8=FIXT.1.1|9=64|35=0|34=286|49=FOLEOTRADER|52=20260608-22:06:06.367|56=FOLEOAPI|10=033|
20260608-22:06:21.491 : 8=FIXT.1.1|9=64|35=0|34=286|49=FOLEOAPI|52=20260608-22:06:21.491|56=FOLEOTRADER|10=028|
20260608-22:06:26.553 : 8=FIXT.1.1|9=64|35=0|34=287|49=FOLEOTRADER|52=20260608-22:06:26.552|56=FOLEOAPI|10=032|
20260608-22:06:41.716 : 8=FIXT.1.1|9=64|35=0|34=287|49=FOLEOAPI|52=20260608-22:06:41.716|56=FOLEOTRADER|10=031|
20260608-22:06:46.758 : 8=FIXT.1.1|9=64|35=0|34=288|49=FOLEOTRADER|52=20260608-22:06:46.757|56=FOLEOAPI|10=042|
20260608-22:07:01.907 : 8=FIXT.1.1|9=64|35=0|34=288|49=FOLEOAPI|52=20260608-22:07:01.907|56=FOLEOTRADER|10=031|
20260608-22:07:06.957 : 8=FIXT.1.1|9=64|35=0|34=289|49=FOLEOTRADER|52=20260608-22:07:06.956|56=FOLEOAPI|10=041|
20260608-22:07:22.080 : 8=FIXT.1.1|9=64|35=0|34=289|49=FOLEOAPI|52=20260608-22:07:22.080|56=FOLEOTRADER|10=027|
20260608-22:07:27.146 : 8=FIXT.1.1|9=64|35=0|34=290|49=FOLEOTRADER|52=20260608-22:07:27.145|56=FOLEOAPI|10=026|
20260608-22:07:42.292 : 8=FIXT.1.1|9=64|35=0|34=290|49=FOLEOAPI|52=20260608-22:07:42.292|56=FOLEOTRADER|10=026|
20260608-22:07:47.332 : 8=FIXT.1.1|9=64|35=0|34=291|49=FOLEOTRADER|52=20260608-22:07:47.331|56=FOLEOAPI|10=026|
20260608-22:08:02.470 : 8=FIXT.1.1|9=64|35=0|34=291|49=FOLEOAPI|52=20260608-22:08:02.470|56=FOLEOTRADER|10=022|
20260608-22:08:07.522 : 8=FIXT.1.1|9=64|35=0|34=292|49=FOLEOTRADER|52=20260608-22:08:07.521|56=FOLEOAPI|10=025|
20260608-22:08:22.648 : 8=FIXT.1.1|9=64|35=0|34=292|49=FOLEOAPI|52=20260608-22:08:22.648|56=FOLEOTRADER|10=032|
20260608-22:08:27.704 : 8=FIXT.1.1|9=64|35=0|34=293|49=FOLEOTRADER|52=20260608-22:08:27.703|56=FOLEOAPI|10=030|
20260608-22:08:42.869 : 8=FIXT.1.1|9=64|35=0|34=293|49=FOLEOAPI|52=20260608-22:08:42.868|56=FOLEOTRADER|10=039|
20260608-22:08:47.914 : 8=FIXT.1.1|9=64|35=0|34=294|49=FOLEOTRADER|52=20260608-22:08:47.912|56=FOLEOAPI|10=035|
20260608-22:09:03.058 : 8=FIXT.1.1|9=64|35=0|34=294|49=FOLEOAPI|52=20260608-22:09:03.057|56=FOLEOTRADER|10=028|
20260608-22:09:08.106 : 8=FIXT.1.1|9=64|35=0|34=295|49=FOLEOTRADER|52=20260608-22:09:08.104|56=FOLEOAPI|10=027|
20260608-22:09:23.219 : 8=FIXT.1.1|9=64|35=0|34=295|49=FOLEOAPI|52=20260608-22:09:23.218|56=FOLEOTRADER|10=030|
20260608-22:09:28.264 : 8=FIXT.1.1|9=64|35=0|34=296|49=FOLEOTRADER|52=20260608-22:09:28.263|56=FOLEOAPI|10=036|
20260608-22:09:43.410 : 8=FIXT.1.1|9=64|35=0|34=296|49=FOLEOAPI|52=20260608-22:09:43.409|56=FOLEOTRADER|10=035|
20260608-22:09:48.474 : 8=FIXT.1.1|9=64|35=0|34=297|49=FOLEOTRADER|52=20260608-22:09:48.473|56=FOLEOAPI|10=042|
20260608-22:10:03.622 : 8=FIXT.1.1|9=64|35=0|34=297|49=FOLEOAPI|52=20260608-22:10:03.622|56=FOLEOTRADER|10=021|
20260608-22:10:08.674 : 8=FIXT.1.1|9=64|35=0|34=298|49=FOLEOTRADER|52=20260608-22:10:08.673|56=FOLEOAPI|10=033|
20260608-22:10:23.817 : 8=FIXT.1.1|9=64|35=0|34=298|49=FOLEOAPI|52=20260608-22:10:23.817|56=FOLEOTRADER|10=030|
20260608-22:10:28.877 : 8=FIXT.1.1|9=64|35=0|34=299|49=FOLEOTRADER|52=20260608-22:10:28.876|56=FOLEOAPI|10=041|
20260608-22:10:43.999 : 8=FIXT.1.1|9=64|35=0|34=299|49=FOLEOAPI|52=20260608-22:10:43.999|56=FOLEOTRADER|10=044|
20260608-22:10:49.037 : 8=FIXT.1.1|9=64|35=0|34=300|49=FOLEOTRADER|52=20260608-22:10:49.036|56=FOLEOAPI|10=015|
20260608-22:11:04.172 : 8=FIXT.1.1|9=64|35=0|34=300|49=FOLEOAPI|52=20260608-22:11:04.171|56=FOLEOTRADER|10=007|
20260608-22:11:09.239 : 8=FIXT.1.1|9=64|35=0|34=301|49=FOLEOTRADER|52=20260608-22:11:09.238|56=FOLEOAPI|10=017|
20260608-22:11:24.376 : 8=FIXT.1.1|9=64|35=0|34=301|49=FOLEOAPI|52=20260608-22:11:24.376|56=FOLEOTRADER|10=017|
20260608-22:11:29.414 : 8=FIXT.1.1|9=64|35=0|34=302|49=FOLEOTRADER|52=20260608-22:11:29.413|56=FOLEOAPI|10=015|
20260608-22:11:44.535 : 8=FIXT.1.1|9=64|35=0|34=302|49=FOLEOAPI|52=20260608-22:11:44.535|56=FOLEOTRADER|10=017|
20260608-22:11:49.580 : 8=FIXT.1.1|9=64|35=0|34=303|49=FOLEOTRADER|52=20260608-22:11:49.579|56=FOLEOAPI|10=031|
20260608-22:12:04.705 : 8=FIXT.1.1|9=64|35=0|34=303|49=FOLEOAPI|52=20260608-22:12:04.704|56=FOLEOTRADER|10=013|
20260608-22:12:09.762 : 8=FIXT.1.1|9=64|35=0|34=304|49=FOLEOTRADER|52=20260608-22:12:09.761|56=FOLEOAPI|10=022|
20260608-22:12:24.884 : 8=FIXT.1.1|9=64|35=0|34=304|49=FOLEOAPI|52=20260608-22:12:24.883|56=FOLEOTRADER|10=024|
20260608-22:12:29.919 : 8=FIXT.1.1|9=64|35=0|34=305|49=FOLEOTRADER|52=20260608-22:12:29.918|56=FOLEOAPI|10=029|
20260608-22:12:45.058 : 8=FIXT.1.1|9=64|35=0|34=305|49=FOLEOAPI|52=20260608-22:12:45.058|56=FOLEOTRADER|10=022|
20260608-22:12:50.099 : 8=FIXT.1.1|9=64|35=0|34=306|49=FOLEOTRADER|52=20260608-22:12:50.098|56=FOLEOAPI|10=023|
20260608-22:13:05.258 : 8=FIXT.1.1|9=64|35=0|34=306|49=FOLEOAPI|52=20260608-22:13:05.257|56=FOLEOTRADER|10=021|
20260608-22:13:10.303 : 8=FIXT.1.1|9=64|35=0|34=307|49=FOLEOTRADER|52=20260608-22:13:10.302|56=FOLEOAPI|10=009|
20260608-22:13:25.481 : 8=FIXT.1.1|9=64|35=0|34=307|49=FOLEOAPI|52=20260608-22:13:25.480|56=FOLEOTRADER|10=022|
20260608-22:13:30.535 : 8=FIXT.1.1|9=64|35=0|34=308|49=FOLEOTRADER|52=20260608-22:13:30.534|56=FOLEOAPI|10=019|
20260608-22:13:45.684 : 8=FIXT.1.1|9=64|35=0|34=308|49=FOLEOAPI|52=20260608-22:13:45.684|56=FOLEOTRADER|10=031|
20260608-22:13:50.725 : 8=FIXT.1.1|9=64|35=0|34=309|49=FOLEOTRADER|52=20260608-22:13:50.724|56=FOLEOAPI|10=023|
20260608-22:14:05.852 : 8=FIXT.1.1|9=64|35=0|34=309|49=FOLEOAPI|52=20260608-22:14:05.851|56=FOLEOTRADER|10=025|
20260608-22:14:10.903 : 8=FIXT.1.1|9=64|35=0|34=310|49=FOLEOTRADER|52=20260608-22:14:10.901|56=FOLEOAPI|10=009|
20260608-22:14:26.051 : 8=FIXT.1.1|9=64|35=0|34=310|49=FOLEOAPI|52=20260608-22:14:26.050|56=FOLEOTRADER|10=011|
20260608-22:14:31.094 : 8=FIXT.1.1|9=64|35=0|34=311|49=FOLEOTRADER|52=20260608-22:14:31.093|56=FOLEOAPI|10=015|
20260608-22:14:46.227 : 8=FIXT.1.1|9=64|35=0|34=311|49=FOLEOAPI|52=20260608-22:14:46.226|56=FOLEOTRADER|10=019|
20260608-22:14:51.267 : 8=FIXT.1.1|9=64|35=0|34=312|49=FOLEOTRADER|52=20260608-22:14:51.265|56=FOLEOAPI|10=019|
20260608-22:15:06.421 : 8=FIXT.1.1|9=64|35=0|34=312|49=FOLEOAPI|52=20260608-22:15:06.420|56=FOLEOTRADER|10=013|
20260608-22:15:11.462 : 8=FIXT.1.1|9=64|35=0|34=313|49=FOLEOTRADER|52=20260608-22:15:11.462|56=FOLEOAPI|10=016|
20260608-22:15:26.624 : 8=FIXT.1.1|9=64|35=0|34=313|49=FOLEOAPI|52=20260608-22:15:26.623|56=FOLEOTRADER|10=021|
20260608-22:15:31.672 : 8=FIXT.1.1|9=64|35=0|34=314|49=FOLEOTRADER|52=20260608-22:15:31.671|56=FOLEOAPI|10=021|
20260608-22:15:46.789 : 8=FIXT.1.1|9=64|35=0|34=314|49=FOLEOAPI|52=20260608-22:15:46.788|56=FOLEOTRADER|10=036|
20260608-22:15:51.843 : 8=FIXT.1.1|9=64|35=0|34=315|49=FOLEOTRADER|52=20260608-22:15:51.842|56=FOLEOAPI|10=024|
20260608-22:16:06.958 : 8=FIXT.1.1|9=64|35=0|34=315|49=FOLEOAPI|52=20260608-22:16:06.958|56=FOLEOTRADER|10=033|
20260608-22:16:12.009 : 8=FIXT.1.1|9=64|35=0|34=316|49=FOLEOTRADER|52=20260608-22:16:12.008|56=FOLEOAPI|10=017|
20260608-22:16:27.155 : 8=FIXT.1.1|9=64|35=0|34=316|49=FOLEOAPI|52=20260608-22:16:27.155|56=FOLEOTRADER|10=026|
20260608-22:16:32.194 : 8=FIXT.1.1|9=64|35=0|34=317|49=FOLEOTRADER|52=20260608-22:16:32.193|56=FOLEOAPI|10=025|
20260608-22:16:47.313 : 8=FIXT.1.1|9=64|35=0|34=317|49=FOLEOAPI|52=20260608-22:16:47.313|56=FOLEOTRADER|10=025|
20260608-22:16:52.373 : 8=FIXT.1.1|9=64|35=0|34=318|49=FOLEOTRADER|52=20260608-22:16:52.372|56=FOLEOAPI|10=027|
20260608-22:17:07.496 : 8=FIXT.1.1|9=64|35=0|34=318|49=FOLEOAPI|52=20260608-22:17:07.495|56=FOLEOTRADER|10=034|
20260608-22:17:12.533 : 8=FIXT.1.1|9=64|35=0|34=319|49=FOLEOTRADER|52=20260608-22:17:12.532|56=FOLEOAPI|10=023|
20260608-22:17:27.636 : 8=FIXT.1.1|9=64|35=0|34=319|49=FOLEOAPI|52=20260608-22:17:27.636|56=FOLEOTRADER|10=034|
20260608-22:17:32.693 : 8=FIXT.1.1|9=64|35=0|34=320|49=FOLEOTRADER|52=20260608-22:17:32.691|56=FOLEOAPI|10=023|
20260608-22:17:47.815 : 8=FIXT.1.1|9=64|35=0|34=320|49=FOLEOAPI|52=20260608-22:17:47.814|56=FOLEOTRADER|10=026|
20260608-22:17:52.866 : 8=FIXT.1.1|9=64|35=0|34=321|49=FOLEOTRADER|52=20260608-22:17:52.865|56=FOLEOAPI|10=029|
20260608-22:18:07.990 : 8=FIXT.1.1|9=64|35=0|34=321|49=FOLEOAPI|52=20260608-22:18:07.989|56=FOLEOTRADER|10=037|
20260608-22:18:13.056 : 8=FIXT.1.1|9=64|35=0|34=322|49=FOLEOTRADER|52=20260608-22:18:13.055|56=FOLEOAPI|10=019|
20260608-22:18:28.208 : 8=FIXT.1.1|9=64|35=0|34=322|49=FOLEOAPI|52=20260608-22:18:28.207|56=FOLEOTRADER|10=024|
20260608-22:18:33.242 : 8=FIXT.1.1|9=64|35=0|34=323|49=FOLEOTRADER|52=20260608-22:18:33.241|56=FOLEOAPI|10=019|
20260608-22:18:48.393 : 8=FIXT.1.1|9=64|35=0|34=323|49=FOLEOAPI|52=20260608-22:18:48.393|56=FOLEOTRADER|10=033|
20260608-22:18:53.425 : 8=FIXT.1.1|9=64|35=0|34=324|49=FOLEOTRADER|52=20260608-22:18:53.424|56=FOLEOAPI|10=025|
20260608-22:19:08.572 : 8=FIXT.1.1|9=64|35=0|34=324|49=FOLEOAPI|52=20260608-22:19:08.571|56=FOLEOTRADER|10=029|
20260608-22:19:13.614 : 8=FIXT.1.1|9=64|35=0|34=325|49=FOLEOTRADER|52=20260608-22:19:13.613|56=FOLEOAPI|10=023|
20260608-22:19:28.750 : 8=FIXT.1.1|9=64|35=0|34=325|49=FOLEOAPI|52=20260608-22:19:28.750|56=FOLEOTRADER|10=031|
20260608-22:19:33.788 : 8=FIXT.1.1|9=64|35=0|34=326|49=FOLEOTRADER|52=20260608-22:19:33.787|56=FOLEOAPI|10=038|
20260608-22:19:48.947 : 8=FIXT.1.1|9=64|35=0|34=326|49=FOLEOAPI|52=20260608-22:19:48.946|56=FOLEOTRADER|10=041|
20260608-22:19:54.012 : 8=FIXT.1.1|9=64|35=0|34=327|49=FOLEOTRADER|52=20260608-22:19:54.011|56=FOLEOAPI|10=022|
20260608-22:20:09.175 : 8=FIXT.1.1|9=64|35=0|34=327|49=FOLEOAPI|52=20260608-22:20:09.175|56=FOLEOTRADER|10=025|
20260608-22:20:14.233 : 8=FIXT.1.1|9=64|35=0|34=328|49=FOLEOTRADER|52=20260608-22:20:14.232|56=FOLEOAPI|10=016|
20260608-22:20:29.356 : 8=FIXT.1.1|9=64|35=0|34=328|49=FOLEOAPI|52=20260608-22:20:29.356|56=FOLEOTRADER|10=029|
20260608-22:20:34.392 : 8=FIXT.1.1|9=64|35=0|34=329|49=FOLEOTRADER|52=20260608-22:20:34.391|56=FOLEOAPI|10=025|
20260608-22:20:49.488 : 8=FIXT.1.1|9=64|35=0|34=329|49=FOLEOAPI|52=20260608-22:20:49.488|56=FOLEOTRADER|10=038|
20260608-22:20:54.537 : 8=FIXT.1.1|9=64|35=0|34=330|49=FOLEOTRADER|52=20260608-22:20:54.536|56=FOLEOAPI|10=020|
20260608-22:21:09.701 : 8=FIXT.1.1|9=64|35=0|34=330|49=FOLEOAPI|52=20260608-22:21:09.701|56=FOLEOTRADER|10=015|
20260608-22:21:14.762 : 8=FIXT.1.1|9=64|35=0|34=331|49=FOLEOTRADER|52=20260608-22:21:14.761|56=FOLEOAPI|10=018|
20260608-22:21:29.902 : 8=FIXT.1.1|9=64|35=0|34=331|49=FOLEOAPI|52=20260608-22:21:29.902|56=FOLEOTRADER|10=021|
20260608-22:21:34.944 : 8=FIXT.1.1|9=64|35=0|34=332|49=FOLEOTRADER|52=20260608-22:21:34.943|56=FOLEOAPI|10=023|
20260608-22:21:50.038 : 8=FIXT.1.1|9=64|35=0|34=332|49=FOLEOAPI|52=20260608-22:21:50.038|56=FOLEOTRADER|10=016|
20260608-22:21:55.107 : 8=FIXT.1.1|9=64|35=0|34=333|49=FOLEOTRADER|52=20260608-22:21:55.106|56=FOLEOAPI|10=018|
20260608-22:22:10.251 : 8=FIXT.1.1|9=64|35=0|34=333|49=FOLEOAPI|52=20260608-22:22:10.251|56=FOLEOTRADER|10=011|
20260608-22:22:15.290 : 8=FIXT.1.1|9=64|35=0|34=334|49=FOLEOTRADER|52=20260608-22:22:15.288|56=FOLEOAPI|10=027|
20260608-22:22:30.449 : 8=FIXT.1.1|9=64|35=0|34=334|49=FOLEOAPI|52=20260608-22:22:30.449|56=FOLEOTRADER|10=023|
20260608-22:22:35.504 : 8=FIXT.1.1|9=64|35=0|34=335|49=FOLEOTRADER|52=20260608-22:22:35.503|56=FOLEOAPI|10=020|
20260608-22:22:50.640 : 8=FIXT.1.1|9=64|35=0|34=335|49=FOLEOAPI|52=20260608-22:22:50.640|56=FOLEOTRADER|10=019|
20260608-22:22:55.685 : 8=FIXT.1.1|9=64|35=0|34=336|49=FOLEOTRADER|52=20260608-22:22:55.684|56=FOLEOAPI|10=033|
20260608-22:23:10.815 : 8=FIXT.1.1|9=64|35=0|34=336|49=FOLEOAPI|52=20260608-22:23:10.814|56=FOLEOTRADER|10=020|
20260608-22:23:15.852 : 8=FIXT.1.1|9=64|35=0|34=337|49=FOLEOTRADER|52=20260608-22:23:15.851|56=FOLEOAPI|10=027|
20260608-22:23:31.194 : 8=FIXT.1.1|9=64|35=0|34=337|49=FOLEOAPI|52=20260608-22:23:31.193|56=FOLEOTRADER|10=024|
20260608-22:23:36.238 : 8=FIXT.1.1|9=64|35=0|34=338|49=FOLEOTRADER|52=20260608-22:23:36.237|56=FOLEOAPI|10=029|
20260608-22:23:51.337 : 8=FIXT.1.1|9=64|35=0|34=338|49=FOLEOAPI|52=20260608-22:23:51.336|56=FOLEOTRADER|10=026|
20260608-22:23:56.370 : 8=FIXT.1.1|9=64|35=0|34=339|49=FOLEOTRADER|52=20260608-22:23:56.369|56=FOLEOAPI|10=038|
20260608-22:24:11.483 : 8=FIXT.1.1|9=64|35=0|34=339|49=FOLEOAPI|52=20260608-22:24:11.483|56=FOLEOTRADER|10=027|
20260608-22:24:16.498 : 8=FIXT.1.1|9=64|35=0|34=340|49=FOLEOTRADER|52=20260608-22:24:16.497|56=FOLEOAPI|10=029|
20260608-22:24:31.595 : 8=FIXT.1.1|9=64|35=0|34=340|49=FOLEOAPI|52=20260608-22:24:31.595|56=FOLEOTRADER|10=025|
20260608-22:24:36.630 : 8=FIXT.1.1|9=64|35=0|34=341|49=FOLEOTRADER|52=20260608-22:24:36.629|56=FOLEOAPI|10=029|
20260608-22:24:51.743 : 8=FIXT.1.1|9=64|35=0|34=341|49=FOLEOAPI|52=20260608-22:24:51.742|56=FOLEOTRADER|10=022|
20260608-22:24:56.780 : 8=FIXT.1.1|9=64|35=0|34=342|49=FOLEOTRADER|52=20260608-22:24:56.779|56=FOLEOAPI|10=038|
20260608-22:25:11.899 : 8=FIXT.1.1|9=64|35=0|34=342|49=FOLEOAPI|52=20260608-22:25:11.899|56=FOLEOTRADER|10=033|
20260608-22:25:16.948 : 8=FIXT.1.1|9=64|35=0|34=343|49=FOLEOTRADER|52=20260608-22:25:16.947|56=FOLEOAPI|10=033|
20260608-22:25:32.043 : 8=FIXT.1.1|9=64|35=0|34=343|49=FOLEOAPI|52=20260608-22:25:32.043|56=FOLEOTRADER|10=018|
20260608-22:25:37.103 : 8=FIXT.1.1|9=64|35=0|34=344|49=FOLEOTRADER|52=20260608-22:25:37.101|56=FOLEOAPI|10=019|
20260608-22:25:52.205 : 8=FIXT.1.1|9=64|35=0|34=344|49=FOLEOAPI|52=20260608-22:25:52.205|56=FOLEOTRADER|10=021|
20260608-22:25:57.237 : 8=FIXT.1.1|9=64|35=0|34=345|49=FOLEOTRADER|52=20260608-22:25:57.235|56=FOLEOAPI|10=030|
20260608-22:26:12.332 : 8=FIXT.1.1|9=64|35=0|34=345|49=FOLEOAPI|52=20260608-22:26:12.331|56=FOLEOTRADER|10=019|
20260608-22:26:17.352 : 8=FIXT.1.1|9=64|35=0|34=346|49=FOLEOTRADER|52=20260608-22:26:17.351|56=FOLEOAPI|10=027|
20260608-22:26:32.438 : 8=FIXT.1.1|9=64|35=0|34=346|49=FOLEOAPI|52=20260608-22:26:32.438|56=FOLEOTRADER|10=030|
20260608-22:26:37.471 : 8=FIXT.1.1|9=64|35=0|34=347|49=FOLEOTRADER|52=20260608-22:26:37.470|56=FOLEOAPI|10=032|
20260608-22:26:52.599 : 8=FIXT.1.1|9=64|35=0|34=347|49=FOLEOAPI|52=20260608-22:26:52.598|56=FOLEOTRADER|10=040|
20260608-22:26:57.646 : 8=FIXT.1.1|9=64|35=0|34=348|49=FOLEOTRADER|52=20260608-22:26:57.644|56=FOLEOAPI|10=038|
20260608-22:27:12.789 : 8=FIXT.1.1|9=64|35=0|34=348|49=FOLEOAPI|52=20260608-22:27:12.789|56=FOLEOTRADER|10=040|
20260608-22:27:17.806 : 8=FIXT.1.1|9=64|35=0|34=349|49=FOLEOTRADER|52=20260608-22:27:17.805|56=FOLEOAPI|10=035|
20260608-22:27:32.945 : 8=FIXT.1.1|9=64|35=0|34=349|49=FOLEOAPI|52=20260608-22:27:32.945|56=FOLEOTRADER|10=037|
20260608-22:27:37.981 : 8=FIXT.1.1|9=64|35=0|34=350|49=FOLEOTRADER|52=20260608-22:27:37.980|56=FOLEOAPI|10=033|
20260608-22:27:53.087 : 8=FIXT.1.1|9=64|35=0|34=350|49=FOLEOAPI|52=20260608-22:27:53.087|56=FOLEOTRADER|10=029|
20260608-22:27:58.140 : 8=FIXT.1.1|9=64|35=0|34=351|49=FOLEOTRADER|52=20260608-22:27:58.139|56=FOLEOAPI|10=033|
20260608-22:28:13.220 : 8=FIXT.1.1|9=64|35=0|34=351|49=FOLEOAPI|52=20260608-22:28:13.220|56=FOLEOTRADER|10=016|
20260608-22:28:18.248 : 8=FIXT.1.1|9=64|35=0|34=352|49=FOLEOTRADER|52=20260608-22:28:18.247|56=FOLEOAPI|10=031|
20260608-22:28:33.332 : 8=FIXT.1.1|9=64|35=0|34=352|49=FOLEOAPI|52=20260608-22:28:33.331|56=FOLEOTRADER|10=022|
20260608-22:28:38.378 : 8=FIXT.1.1|9=64|35=0|34=353|49=FOLEOTRADER|52=20260608-22:28:38.377|56=FOLEOAPI|10=038|
20260608-22:28:53.465 : 8=FIXT.1.1|9=64|35=0|34=353|49=FOLEOAPI|52=20260608-22:28:53.465|56=FOLEOTRADER|10=033|
20260608-22:28:58.490 : 8=FIXT.1.1|9=64|35=0|34=354|49=FOLEOTRADER|52=20260608-22:28:58.488|56=FOLEOAPI|10=044|
20260608-22:29:13.587 : 8=FIXT.1.1|9=64|35=0|34=354|49=FOLEOAPI|52=20260608-22:29:13.587|56=FOLEOTRADER|10=036|
20260608-22:29:18.626 : 8=FIXT.1.1|9=64|35=0|34=355|49=FOLEOTRADER|52=20260608-22:29:18.625|56=FOLEOAPI|10=035|
20260608-22:29:33.676 : 8=FIXT.1.1|9=64|35=0|34=355|49=FOLEOAPI|52=20260608-22:29:33.676|56=FOLEOTRADER|10=038|
20260608-22:29:38.700 : 8=FIXT.1.1|9=64|35=0|34=356|49=FOLEOTRADER|52=20260608-22:29:38.698|56=FOLEOAPI|10=048|
20260608-22:29:53.813 : 8=FIXT.1.1|9=64|35=0|34=356|49=FOLEOAPI|52=20260608-22:29:53.812|56=FOLEOTRADER|10=033|
20260608-22:29:58.834 : 8=FIXT.1.1|9=64|35=0|34=357|49=FOLEOTRADER|52=20260608-22:29:58.834|56=FOLEOAPI|10=043|
20260608-22:30:14.079 : 8=FIXT.1.1|9=64|35=0|34=357|49=FOLEOAPI|52=20260608-22:30:14.067|56=FOLEOTRADER|10=025|
20260608-22:30:19.121 : 8=FIXT.1.1|9=64|35=0|34=358|49=FOLEOTRADER|52=20260608-22:30:19.120|56=FOLEOAPI|10=021|
20260608-22:30:34.223 : 8=FIXT.1.1|9=64|35=0|34=358|49=FOLEOAPI|52=20260608-22:30:34.223|56=FOLEOTRADER|10=022|
20260608-22:30:39.246 : 8=FIXT.1.1|9=64|35=0|34=359|49=FOLEOTRADER|52=20260608-22:30:39.244|56=FOLEOAPI|10=031|
20260608-22:30:54.465 : 8=FIXT.1.1|9=64|35=0|34=359|49=FOLEOAPI|52=20260608-22:30:54.465|56=FOLEOTRADER|10=033|
20260608-22:30:59.515 : 8=FIXT.1.1|9=64|35=0|34=360|49=FOLEOTRADER|52=20260608-22:30:59.514|56=FOLEOAPI|10=025|
20260608-22:31:14.623 : 8=FIXT.1.1|9=64|35=0|34=360|49=FOLEOAPI|52=20260608-22:31:14.622|56=FOLEOTRADER|10=017|
20260608-22:31:19.667 : 8=FIXT.1.1|9=64|35=0|34=361|49=FOLEOTRADER|52=20260608-22:31:19.666|56=FOLEOAPI|10=031|
20260608-22:31:35.515 : 8=FIXT.1.1|9=64|35=0|34=361|49=FOLEOAPI|52=20260608-22:31:35.514|56=FOLEOTRADER|10=021|
20260608-22:31:40.558 : 8=FIXT.1.1|9=64|35=0|34=362|49=FOLEOTRADER|52=20260608-22:31:40.557|56=FOLEOAPI|10=025|
20260608-22:31:55.700 : 8=FIXT.1.1|9=64|35=0|34=362|49=FOLEOAPI|52=20260608-22:31:55.695|56=FOLEOTRADER|10=034|
20260608-22:32:00.756 : 8=FIXT.1.1|9=64|35=0|34=363|49=FOLEOTRADER|52=20260608-22:32:00.754|56=FOLEOAPI|10=022|
20260608-22:32:15.913 : 8=FIXT.1.1|9=64|35=0|34=363|49=FOLEOAPI|52=20260608-22:32:15.912|56=FOLEOTRADER|10=024|
20260608-22:32:20.961 : 8=FIXT.1.1|9=64|35=0|34=364|49=FOLEOTRADER|52=20260608-22:32:20.958|56=FOLEOAPI|10=031|
20260608-22:32:36.077 : 8=FIXT.1.1|9=64|35=0|34=364|49=FOLEOAPI|52=20260608-22:32:36.076|56=FOLEOTRADER|10=029|
20260608-22:32:41.111 : 8=FIXT.1.1|9=64|35=0|34=365|49=FOLEOTRADER|52=20260608-22:32:41.105|56=FOLEOAPI|10=019|
20260608-22:32:56.202 : 8=FIXT.1.1|9=64|35=0|34=365|49=FOLEOAPI|52=20260608-22:32:56.202|56=FOLEOTRADER|10=023|
20260608-22:33:01.244 : 8=FIXT.1.1|9=64|35=0|34=366|49=FOLEOTRADER|52=20260608-22:33:01.242|56=FOLEOAPI|10=019|
20260608-22:33:16.341 : 8=FIXT.1.1|9=64|35=0|34=366|49=FOLEOAPI|52=20260608-22:33:16.340|56=FOLEOTRADER|10=024|
20260608-22:33:21.380 : 8=FIXT.1.1|9=64|35=0|34=367|49=FOLEOTRADER|52=20260608-22:33:21.379|56=FOLEOAPI|10=033|
20260608-22:33:36.510 : 8=FIXT.1.1|9=64|35=0|34=367|49=FOLEOAPI|52=20260608-22:33:36.509|56=FOLEOTRADER|10=034|
20260608-22:33:41.536 : 8=FIXT.1.1|9=64|35=0|34=368|49=FOLEOTRADER|52=20260608-22:33:41.535|56=FOLEOAPI|10=030|
20260608-22:33:56.693 : 8=FIXT.1.1|9=64|35=0|34=368|49=FOLEOAPI|52=20260608-22:33:56.693|56=FOLEOTRADER|10=041|
20260608-22:34:01.745 : 8=FIXT.1.1|9=64|35=0|34=369|49=FOLEOTRADER|52=20260608-22:34:01.744|56=FOLEOAPI|10=030|
20260608-22:34:16.869 : 8=FIXT.1.1|9=64|35=0|34=369|49=FOLEOAPI|52=20260608-22:34:16.868|56=FOLEOTRADER|10=043|
20260608-22:34:21.910 : 8=FIXT.1.1|9=64|35=0|34=370|49=FOLEOTRADER|52=20260608-22:34:21.909|56=FOLEOAPI|10=027|
20260608-22:34:37.049 : 8=FIXT.1.1|9=64|35=0|34=370|49=FOLEOAPI|52=20260608-22:34:37.047|56=FOLEOTRADER|10=027|
20260608-22:34:42.087 : 8=FIXT.1.1|9=64|35=0|34=371|49=FOLEOTRADER|52=20260608-22:34:42.086|56=FOLEOAPI|10=027|
