8=FIXT.1.1|9=87|35=A|34=1|49=FOLEOAPI|52=20260619-00:00:07.921|56=FOLEOTRADER|98=0|108=20|141=Y|1137=9|10=069|8=FIXT.1.1|9=62|35=0|34=2|49=FOLEOAPI|52=20260619-00:00:28.116|56=FOLEOTRADER|10=165|8=FIXT.1.1|9=62|35=0|34=3|49=FOLEOAPI|52=20260619-00:00:48.275|56=FOLEOTRADER|10=174|8=FIXT.1.1|9=62|35=0|34=4|49=FOLEOAPI|52=20260619-00:01:08.405|56=FOLEOTRADER|10=167|8=FIXT.1.1|9=62|35=0|34=5|49=FOLEOAPI|52=20260619-00:01:28.572|56=FOLEOTRADER|10=175|8=FIXT.1.1|9=62|35=0|34=6|49=FOLEOAPI|52=20260619-00:01:48.722|56=FOLEOTRADER|10=175|8=FIXT.1.1|9=62|35=0|34=7|49=FOLEOAPI|52=20260619-00:02:08.887|56=FOLEOTRADER|10=185|8=FIXT.1.1|9=62|35=0|34=8|49=FOLEOAPI|52=20260619-00:02:29.053|56=FOLEOTRADER|10=174|8=FIXT.1.1|9=62|35=0|34=9|49=FOLEOAPI|52=20260619-00:02:49.169|56=FOLEOTRADER|10=185|8=FIXT.1.1|9=63|35=0|34=10|49=FOLEOAPI|52=20260619-00:03:09.279|56=FOLEOTRADER|10=225|8=FIXT.1.1|9=63|35=0|34=11|49=FOLEOAPI|52=20260619-00:03:29.404|56=FOLEOTRADER|10=218|8=FIXT.1.1|9=63|35=0|34=12|49=FOLEOAPI|52=20260619-00:03:49.539|56=FOLEOTRADER|10=230|8=FIXT.1.1|9=63|35=0|34=13|49=FOLEOAPI|52=20260619-00:04:09.658|56=FOLEOTRADER|10=230|8=FIXT.1.1|9=63|35=0|34=14|49=FOLEOAPI|52=20260619-00:04:29.821|56=FOLEOTRADER|10=225|8=FIXT.1.1|9=63|35=0|34=15|49=FOLEOAPI|52=20260619-00:04:49.954|56=FOLEOTRADER|10=235|8=FIXT.1.1|9=63|35=0|34=16|49=FOLEOAPI|52=20260619-00:05:10.077|56=FOLEOTRADER|10=221|8=FIXT.1.1|9=63|35=0|34=17|49=FOLEOAPI|52=20260619-00:05:30.211|56=FOLEOTRADER|10=214|8=FIXT.1.1|9=63|35=0|34=18|49=FOLEOAPI|52=20260619-00:05:50.345|56=FOLEOTRADER|10=225|8=FIXT.1.1|9=63|35=0|34=19|49=FOLEOAPI|52=20260619-00:06:10.468|56=FOLEOTRADER|10=229|8=FIXT.1.1|9=63|35=0|34=20|49=FOLEOAPI|52=20260619-00:06:30.589|56=FOLEOTRADER|10=227|8=FIXT.1.1|9=63|35=0|34=21|49=FOLEOAPI|52=20260619-00:06:50.714|56=FOLEOTRADER|10=220|8=FIXT.1.1|9=63|35=0|34=22|49=FOLEOAPI|52=20260619-00:07:10.828|56=FOLEOTRADER|10=224|8=FIXT.1.1|9=63|35=0|34=23|49=FOLEOAPI|52=20260619-00:07:30.966|56=FOLEOTRADER|10=230|8=FIXT.1.1|9=63|35=0|34=24|49=FOLEOAPI|52=20260619-00:07:51.091|56=FOLEOTRADER|10=223|8=FIXT.1.1|9=63|35=0|34=25|49=FOLEOAPI|52=20260619-00:08:11.247|56=FOLEOTRADER|10=224|8=FIXT.1.1|9=63|35=0|34=26|49=FOLEOAPI|52=20260619-00:08:31.399|56=FOLEOTRADER|10=235|8=FIXT.1.1|9=63|35=0|34=27|49=FOLEOAPI|52=20260619-00:08:51.555|56=FOLEOTRADER|10=232|8=FIXT.1.1|9=63|35=0|34=28|49=FOLEOAPI|52=20260619-00:09:11.744|56=FOLEOTRADER|10=230|8=FIXT.1.1|9=63|35=0|34=29|49=FOLEOAPI|52=20260619-00:09:31.904|56=FOLEOTRADER|10=231|8=FIXT.1.1|9=63|35=0|34=30|49=FOLEOAPI|52=20260619-00:09:52.070|56=FOLEOTRADER|10=220|8=FIXT.1.1|9=63|35=0|34=31|49=FOLEOAPI|52=20260619-00:10:12.238|56=FOLEOTRADER|10=215|8=FIXT.1.1|9=63|35=0|34=32|49=FOLEOAPI|52=20260619-00:10:32.336|56=FOLEOTRADER|10=217|8=FIXT.1.1|9=63|35=0|34=33|49=FOLEOAPI|52=20260619-00:10:52.478|56=FOLEOTRADER|10=227|8=FIXT.1.1|9=63|35=0|34=34|49=FOLEOAPI|52=20260619-00:11:12.604|56=FOLEOTRADER|10=216|8=FIXT.1.1|9=63|35=0|34=35|49=FOLEOAPI|52=20260619-00:11:32.784|56=FOLEOTRADER|10=228|8=FIXT.1.1|9=63|35=0|34=36|49=FOLEOAPI|52=20260619-00:11:52.931|56=FOLEOTRADER|10=225|8=FIXT.1.1|9=63|35=0|34=37|49=FOLEOAPI|52=20260619-00:12:13.064|56=FOLEOTRADER|10=221|8=FIXT.1.1|9=63|35=0|34=38|49=FOLEOAPI|52=20260619-00:12:33.209|56=FOLEOTRADER|10=225|8=FIXT.1.1|9=63|35=0|34=39|49=FOLEOAPI|52=20260619-00:12:53.331|56=FOLEOTRADER|10=224|8=FIXT.1.1|9=63|35=0|34=40|49=FOLEOAPI|52=20260619-00:13:13.483|56=FOLEOTRADER|10=221|8=FIXT.1.1|9=63|35=0|34=41|49=FOLEOAPI|52=20260619-00:13:33.600|56=FOLEOTRADER|10=215|8=FIXT.1.1|9=63|35=0|34=42|49=FOLEOAPI|52=20260619-00:13:53.737|56=FOLEOTRADER|10=229|8=FIXT.1.1|9=63|35=0|34=43|49=FOLEOAPI|52=20260619-00:14:13.911|56=FOLEOTRADER|10=221|8=FIXT.1.1|9=63|35=0|34=44|49=FOLEOAPI|52=20260619-00:14:34.022|56=FOLEOTRADER|10=218|8=FIXT.1.1|9=63|35=0|34=45|49=FOLEOAPI|52=20260619-00:14:54.111|56=FOLEOTRADER|10=220|8=FIXT.1.1|9=63|35=0|34=46|49=FOLEOAPI|52=20260619-00:15:14.227|56=FOLEOTRADER|10=226|8=FIXT.1.1|9=63|35=0|34=47|49=FOLEOAPI|52=20260619-00:15:34.382|56=FOLEOTRADER|10=231|8=FIXT.1.1|9=63|35=0|34=48|49=FOLEOAPI|52=20260619-00:15:54.478|56=FOLEOTRADER|10=240|8=FIXT.1.1|9=63|35=0|34=49|49=FOLEOAPI|52=20260619-00:16:14.614|56=FOLEOTRADER|10=230|8=FIXT.1.1|9=63|35=0|34=50|49=FOLEOAPI|52=20260619-00:16:34.759|56=FOLEOTRADER|10=234|8=FIXT.1.1|9=63|35=0|34=51|49=FOLEOAPI|52=20260619-00:16:54.925|56=FOLEOTRADER|10=232|8=FIXT.1.1|9=63|35=0|34=52|49=FOLEOAPI|52=20260619-00:17:15.068|56=FOLEOTRADER|10=229|8=FIXT.1.1|9=63|35=0|34=53|49=FOLEOAPI|52=20260619-00:17:35.214|56=FOLEOTRADER|10=225|8=FIXT.1.1|9=63|35=0|34=54|49=FOLEOAPI|52=20260619-00:17:55.302|56=FOLEOTRADER|10=226|8=FIXT.1.1|9=63|35=0|34=55|49=FOLEOAPI|52=20260619-00:18:15.426|56=FOLEOTRADER|10=231|8=FIXT.1.1|9=63|35=0|34=56|49=FOLEOAPI|52=20260619-00:18:35.524|56=FOLEOTRADER|10=233|8=FIXT.1.1|9=63|35=0|34=57|49=FOLEOAPI|52=20260619-00:18:55.663|56=FOLEOTRADER|10=240|8=FIXT.1.1|9=63|35=0|34=58|49=FOLEOAPI|52=20260619-00:19:15.794|56=FOLEOTRADER|10=243|8=FIXT.1.1|9=63|35=0|34=59|49=FOLEOAPI|52=20260619-00:19:35.979|56=FOLEOTRADER|10=251|8=FIXT.1.1|9=63|35=0|34=60|49=FOLEOAPI|52=20260619-00:19:56.129|56=FOLEOTRADER|10=233|8=FIXT.1.1|9=63|35=0|34=61|49=FOLEOAPI|52=20260619-00:20:16.277|56=FOLEOTRADER|10=226|8=FIXT.1.1|9=63|35=0|34=62|49=FOLEOAPI|52=20260619-00:20:36.395|56=FOLEOTRADER|10=230|8=FIXT.1.1|9=63|35=0|34=63|49=FOLEOAPI|52=20260619-00:20:56.534|56=FOLEOTRADER|10=228|8=FIXT.1.1|9=63|35=0|34=64|49=FOLEOAPI|52=20260619-00:21:16.698|56=FOLEOTRADER|10=237|8=FIXT.1.1|9=63|35=0|34=65|49=FOLEOAPI|52=20260619-00:21:36.821|56=FOLEOTRADER|10=228|8=FIXT.1.1|9=63|35=0|34=66|49=FOLEOAPI|52=20260619-00:21:56.969|56=FOLEOTRADER|10=244|8=FIXT.1.1|9=63|35=0|34=67|49=FOLEOAPI|52=20260619-00:22:17.094|56=FOLEOTRADER|10=232|8=FIXT.1.1|9=63|35=0|34=68|49=FOLEOAPI|52=20260619-00:22:37.241|56=FOLEOTRADER|10=229|8=FIXT.1.1|9=63|35=0|34=69|49=FOLEOAPI|52=20260619-00:22:57.407|56=FOLEOTRADER|10=236|8=FIXT.1.1|9=63|35=0|34=70|49=FOLEOAPI|52=20260619-00:23:17.528|56=FOLEOTRADER|10=229|8=FIXT.1.1|9=63|35=0|34=71|49=FOLEOAPI|52=20260619-00:23:37.695|56=FOLEOTRADER|10=237|8=FIXT.1.1|9=63|35=0|34=72|49=FOLEOAPI|52=20260619-00:23:57.886|56=FOLEOTRADER|10=242|8=FIXT.1.1|9=63|35=0|34=73|49=FOLEOAPI|52=20260619-00:24:18.058|56=FOLEOTRADER|10=232|8=FIXT.1.1|9=63|35=0|34=74|49=FOLEOAPI|52=20260619-00:24:38.224|56=FOLEOTRADER|10=230|8=FIXT.1.1|9=63|35=0|34=75|49=FOLEOAPI|52=20260619-00:24:58.357|56=FOLEOTRADER|10=240|8=FIXT.1.1|9=63|35=0|34=76|49=FOLEOAPI|52=20260619-00:25:18.521|56=FOLEOTRADER|10=231|8=FIXT.1.1|9=63|35=0|34=77|49=FOLEOAPI|52=20260619-00:25:38.653|56=FOLEOTRADER|10=240|8=FIXT.1.1|9=63|35=0|34=78|49=FOLEOAPI|52=20260619-00:25:58.793|56=FOLEOTRADER|10=248|8=FIXT.1.1|9=63|35=0|34=79|49=FOLEOAPI|52=20260619-00:26:18.959|56=FOLEOTRADER|10=250|8=FIXT.1.1|9=63|35=0|34=80|49=FOLEOAPI|52=20260619-00:26:39.087|56=FOLEOTRADER|10=237|8=FIXT.1.1|9=63|35=0|34=81|49=FOLEOAPI|52=20260619-00:26:59.225|56=FOLEOTRADER|10=234|8=FIXT.1.1|9=63|35=0|34=82|49=FOLEOAPI|52=20260619-00:27:19.373|56=FOLEOTRADER|10=236|8=FIXT.1.1|9=63|35=0|34=83|49=FOLEOAPI|52=20260619-00:27:39.521|56=FOLEOTRADER|10=234|8=FIXT.1.1|9=63|35=0|34=84|49=FOLEOAPI|52=20260619-00:27:59.682|56=FOLEOTRADER|10=245|8=FIXT.1.1|9=63|35=0|34=85|49=FOLEOAPI|52=20260619-00:28:19.807|56=FOLEOTRADER|10=242|8=FIXT.1.1|9=63|35=0|34=86|49=FOLEOAPI|52=20260619-00:28:39.989|56=FOLEOTRADER|10=000|8=FIXT.1.1|9=63|35=0|34=87|49=FOLEOAPI|52=20260619-00:29:00.146|56=FOLEOTRADER|10=231|8=FIXT.1.1|9=63|35=0|34=88|49=FOLEOAPI|52=20260619-00:29:20.295|56=FOLEOTRADER|10=239|8=FIXT.1.1|9=63|35=0|34=89|49=FOLEOAPI|52=20260619-00:29:40.410|56=FOLEOTRADER|10=231|8=FIXT.1.1|9=63|35=0|34=90|49=FOLEOAPI|52=20260619-00:30:00.537|56=FOLEOTRADER|10=221|8=FIXT.1.1|9=63|35=0|34=91|49=FOLEOAPI|52=20260619-00:30:20.688|56=FOLEOTRADER|10=231|8=FIXT.1.1|9=63|35=0|34=92|49=FOLEOAPI|52=20260619-00:30:40.824|56=FOLEOTRADER|10=226|8=FIXT.1.1|9=63|35=0|34=93|49=FOLEOAPI|52=20260619-00:31:00.957|56=FOLEOTRADER|10=231|8=FIXT.1.1|9=63|35=0|34=94|49=FOLEOAPI|52=20260619-00:31:21.088|56=FOLEOTRADER|10=230|8=FIXT.1.1|9=63|35=0|34=95|49=FOLEOAPI|52=20260619-00:31:41.287|56=FOLEOTRADER|10=234|8=FIXT.1.1|9=63|35=0|34=96|49=FOLEOAPI|52=20260619-00:32:01.445|56=FOLEOTRADER|10=228|8=FIXT.1.1|9=63|35=0|34=97|49=FOLEOAPI|52=20260619-00:32:21.598|56=FOLEOTRADER|10=240|8=FIXT.1.1|9=63|35=0|34=98|49=FOLEOAPI|52=20260619-00:32:41.756|56=FOLEOTRADER|10=239|8=FIXT.1.1|9=63|35=0|34=99|49=FOLEOAPI|52=20260619-00:33:01.915|56=FOLEOTRADER|10=234|8=FIXT.1.1|9=64|35=0|34=100|49=FOLEOAPI|52=20260619-00:33:22.092|56=FOLEOTRADER|10=009|8=FIXT.1.1|9=64|35=0|34=101|49=FOLEOAPI|52=20260619-00:33:42.241|56=FOLEOTRADER|10=008|8=FIXT.1.1|9=64|35=0|34=102|49=FOLEOAPI|52=20260619-00:34:02.372|56=FOLEOTRADER|10=011|8=FIXT.1.1|9=64|35=0|34=103|49=FOLEOAPI|52=20260619-00:34:22.523|56=FOLEOTRADER|10=012|8=FIXT.1.1|9=64|35=0|34=104|49=FOLEOAPI|52=20260619-00:34:42.643|56=FOLEOTRADER|10=018|8=FIXT.1.1|9=64|35=0|34=105|49=FOLEOAPI|52=20260619-00:35:02.793|56=FOLEOTRADER|10=022|8=FIXT.1.1|9=64|35=0|34=106|49=FOLEOAPI|52=20260619-00:35:22.936|56=FOLEOTRADER|10=024|8=FIXT.1.1|9=64|35=0|34=107|49=FOLEOAPI|52=20260619-00:35:43.081|56=FOLEOTRADER|10=019|8=FIXT.1.1|9=64|35=0|34=108|49=FOLEOAPI|52=20260619-00:36:03.210|56=FOLEOTRADER|10=011|8=FIXT.1.1|9=64|35=0|34=109|49=FOLEOAPI|52=20260619-00:36:23.361|56=FOLEOTRADER|10=021|8=FIXT.1.1|9=64|35=0|34=110|49=FOLEOAPI|52=20260619-00:36:43.496|56=FOLEOTRADER|10=024|8=FIXT.1.1|9=64|35=0|34=111|49=FOLEOAPI|52=20260619-00:37:03.646|56=FOLEOTRADER|10=019|8=FIXT.1.1|9=64|35=0|34=112|49=FOLEOAPI|52=20260619-00:37:23.777|56=FOLEOTRADER|10=027|8=FIXT.1.1|9=64|35=0|34=113|49=FOLEOAPI|52=20260619-00:37:43.900|56=FOLEOTRADER|10=018|8=FIXT.1.1|9=64|35=0|34=114|49=FOLEOAPI|52=20260619-00:38:04.068|56=FOLEOTRADER|10=022|8=FIXT.1.1|9=64|35=0|34=115|49=FOLEOAPI|52=20260619-00:38:24.168|56=FOLEOTRADER|10=026|8=FIXT.1.1|9=64|35=0|34=116|49=FOLEOAPI|52=20260619-00:38:44.346|56=FOLEOTRADER|10=027|8=FIXT.1.1|9=64|35=0|34=117|49=FOLEOAPI|52=20260619-00:39:04.447|56=FOLEOTRADER|10=027|8=FIXT.1.1|9=64|35=0|34=118|49=FOLEOAPI|52=20260619-00:39:24.628|56=FOLEOTRADER|10=031|8=FIXT.1.1|9=64|35=0|34=119|49=FOLEOAPI|52=20260619-00:39:44.773|56=FOLEOTRADER|10=035|8=FIXT.1.1|9=64|35=0|34=120|49=FOLEOAPI|52=20260619-00:40:04.912|56=FOLEOTRADER|10=010|8=FIXT.1.1|9=64|35=0|34=121|49=FOLEOAPI|52=20260619-00:40:25.057|56=FOLEOTRADER|10=014|8=FIXT.1.1|9=64|35=0|34=122|49=FOLEOAPI|52=20260619-00:40:45.230|56=FOLEOTRADER|10=010|8=FIXT.1.1|9=64|35=0|34=123|49=FOLEOAPI|52=20260619-00:41:05.382|56=FOLEOTRADER|10=016|8=FIXT.1.1|9=64|35=0|34=124|49=FOLEOAPI|52=20260619-00:41:25.511|56=FOLEOTRADER|10=013|8=FIXT.1.1|9=64|35=0|34=125|49=FOLEOAPI|52=20260619-00:41:45.682|56=FOLEOTRADER|10=025|8=FIXT.1.1|9=64|35=0|34=126|49=FOLEOAPI|52=20260619-00:42:05.823|56=FOLEOTRADER|10=020|8=FIXT.1.1|9=64|35=0|34=127|49=FOLEOAPI|52=20260619-00:42:25.941|56=FOLEOTRADER|10=024|8=FIXT.1.1|9=64|35=0|34=128|49=FOLEOAPI|52=20260619-00:42:46.086|56=FOLEOTRADER|10=028|8=FIXT.1.1|9=64|35=0|34=129|49=FOLEOAPI|52=20260619-00:43:06.248|56=FOLEOTRADER|10=026|8=FIXT.1.1|9=64|35=0|34=130|49=FOLEOAPI|52=20260619-00:43:26.400|56=FOLEOTRADER|10=010|8=FIXT.1.1|9=64|35=0|34=131|49=FOLEOAPI|52=20260619-00:43:46.568|56=FOLEOTRADER|10=028|8=FIXT.1.1|9=64|35=0|34=132|49=FOLEOAPI|52=20260619-00:44:06.679|56=FOLEOTRADER|10=029|8=FIXT.1.1|9=64|35=0|34=133|49=FOLEOAPI|52=20260619-00:44:26.837|56=FOLEOTRADER|10=028|8=FIXT.1.1|9=64|35=0|34=134|49=FOLEOAPI|52=20260619-00:44:46.982|56=FOLEOTRADER|10=032|8=FIXT.1.1|9=64|35=0|34=135|49=FOLEOAPI|52=20260619-00:45:07.126|56=FOLEOTRADER|10=021|8=FIXT.1.1|9=64|35=0|34=136|49=FOLEOAPI|52=20260619-00:45:27.277|56=FOLEOTRADER|10=031|8=FIXT.1.1|9=64|35=0|34=137|49=FOLEOAPI|52=20260619-00:45:47.449|56=FOLEOTRADER|10=035|8=FIXT.1.1|9=64|35=0|34=138|49=FOLEOAPI|52=20260619-00:46:07.598|56=FOLEOTRADER|10=038|8=FIXT.1.1|9=64|35=0|34=139|49=FOLEOAPI|52=20260619-00:46:27.736|56=FOLEOTRADER|10=035|8=FIXT.1.1|9=64|35=0|34=140|49=FOLEOAPI|52=20260619-00:46:47.864|56=FOLEOTRADER|10=031|8=FIXT.1.1|9=64|35=0|34=141|49=FOLEOAPI|52=20260619-00:47:08.006|56=FOLEOTRADER|10=018|8=FIXT.1.1|9=64|35=0|34=142|49=FOLEOAPI|52=20260619-00:47:28.166|56=FOLEOTRADER|10=028|8=FIXT.1.1|9=64|35=0|34=143|49=FOLEOAPI|52=20260619-00:47:48.326|56=FOLEOTRADER|10=029|8=FIXT.1.1|9=64|35=0|34=144|49=FOLEOAPI|52=20260619-00:48:08.481|56=FOLEOTRADER|10=029|8=FIXT.1.1|9=64|35=0|34=145|49=FOLEOAPI|52=20260619-00:48:28.610|56=FOLEOTRADER|10=026|8=FIXT.1.1|9=64|35=0|34=146|49=FOLEOAPI|52=20260619-00:48:48.771|56=FOLEOTRADER|10=037|8=FIXT.1.1|9=64|35=0|34=147|49=FOLEOAPI|52=20260619-00:49:08.969|56=FOLEOTRADER|10=044|8=FIXT.1.1|9=64|35=0|34=148|49=FOLEOAPI|52=20260619-00:49:29.103|56=FOLEOTRADER|10=028|8=FIXT.1.1|9=64|35=0|34=149|49=FOLEOAPI|52=20260619-00:49:49.252|56=FOLEOTRADER|10=036|8=FIXT.1.1|9=64|35=0|34=150|49=FOLEOAPI|52=20260619-00:50:09.394|56=FOLEOTRADER|10=023|8=FIXT.1.1|9=64|35=0|34=151|49=FOLEOAPI|52=20260619-00:50:29.496|56=FOLEOTRADER|10=029|8=FIXT.1.1|9=64|35=0|34=152|49=FOLEOAPI|52=20260619-00:50:49.639|56=FOLEOTRADER|10=031|8=FIXT.1.1|9=64|35=0|34=153|49=FOLEOAPI|52=20260619-00:51:09.807|56=FOLEOTRADER|10=026|8=FIXT.1.1|9=64|35=0|34=154|49=FOLEOAPI|52=20260619-00:51:29.971|56=FOLEOTRADER|10=031|8=FIXT.1.1|9=64|35=0|34=155|49=FOLEOAPI|52=20260619-00:51:50.109|56=FOLEOTRADER|10=019|8=FIXT.1.1|9=64|35=0|34=156|49=FOLEOAPI|52=20260619-00:52:10.244|56=FOLEOTRADER|10=017|8=FIXT.1.1|9=64|35=0|34=157|49=FOLEOAPI|52=20260619-00:52:30.366|56=FOLEOTRADER|10=025|8=FIXT.1.1|9=64|35=0|34=158|49=FOLEOAPI|52=20260619-00:52:50.514|56=FOLEOTRADER|10=023|8=FIXT.1.1|9=64|35=0|34=159|49=FOLEOAPI|52=20260619-00:53:10.645|56=FOLEOTRADER|10=026|8=FIXT.1.1|9=64|35=0|34=160|49=FOLEOAPI|52=20260619-00:53:30.823|56=FOLEOTRADER|10=018|8=FIXT.1.1|9=64|35=0|34=161|49=FOLEOAPI|52=20260619-00:53:50.958|56=FOLEOTRADER|10=030|8=FIXT.1.1|9=64|35=0|34=162|49=FOLEOAPI|52=20260619-00:54:11.146|56=FOLEOTRADER|10=018|8=FIXT.1.1|9=64|35=0|34=163|49=FOLEOAPI|52=20260619-00:54:31.257|56=FOLEOTRADER|10=024|8=FIXT.1.1|9=64|35=0|34=164|49=FOLEOAPI|52=20260619-00:54:51.416|56=FOLEOTRADER|10=024|8=FIXT.1.1|9=64|35=0|34=165|49=FOLEOAPI|52=20260619-00:55:11.556|56=FOLEOTRADER|10=027|8=FIXT.1.1|9=64|35=0|34=166|49=FOLEOAPI|52=20260619-00:55:31.706|56=FOLEOTRADER|10=027|8=FIXT.1.1|9=64|35=0|34=167|49=FOLEOAPI|52=20260619-00:55:51.843|56=FOLEOTRADER|10=032|8=FIXT.1.1|9=64|35=0|34=168|49=FOLEOAPI|52=20260619-00:56:11.985|56=FOLEOTRADER|10=037|8=FIXT.1.1|9=64|35=0|34=169|49=FOLEOAPI|52=20260619-00:56:32.142|56=FOLEOTRADER|10=026|8=FIXT.1.1|9=64|35=0|34=170|49=FOLEOAPI|52=20260619-00:56:52.286|56=FOLEOTRADER|10=029|8=FIXT.1.1|9=64|35=0|34=171|49=FOLEOAPI|52=20260619-00:57:12.408|56=FOLEOTRADER|10=023|8=FIXT.1.1|9=64|35=0|34=172|49=FOLEOAPI|52=20260619-00:57:32.545|56=FOLEOTRADER|10=028|8=FIXT.1.1|9=64|35=0|34=173|49=FOLEOAPI|52=20260619-00:57:52.707|56=FOLEOTRADER|10=031|8=FIXT.1.1|9=64|35=0|34=174|49=FOLEOAPI|52=20260619-00:58:12.833|56=FOLEOTRADER|10=029|8=FIXT.1.1|9=64|35=0|34=175|49=FOLEOAPI|52=20260619-00:58:32.958|56=FOLEOTRADER|10=040|8=FIXT.1.1|9=64|35=0|34=176|49=FOLEOAPI|52=20260619-00:58:53.094|56=FOLEOTRADER|10=035|8=FIXT.1.1|9=64|35=0|34=177|49=FOLEOAPI|52=20260619-00:59:13.215|56=FOLEOTRADER|10=028|8=FIXT.1.1|9=64|35=0|34=178|49=FOLEOAPI|52=20260619-00:59:33.389|56=FOLEOTRADER|10=043|8=FIXT.1.1|9=64|35=0|34=179|49=FOLEOAPI|52=20260619-00:59:53.543|56=FOLEOTRADER|10=038|8=FIXT.1.1|9=64|35=0|34=180|49=FOLEOAPI|52=20260619-01:00:13.696|56=FOLEOTRADER|10=022|8=FIXT.1.1|9=64|35=0|34=181|49=FOLEOAPI|52=20260619-01:00:33.837|56=FOLEOTRADER|10=022|8=FIXT.1.1|9=64|35=0|34=182|49=FOLEOAPI|52=20260619-01:00:53.996|56=FOLEOTRADER|10=031|8=FIXT.1.1|9=64|35=0|34=183|49=FOLEOAPI|52=20260619-01:01:14.131|56=FOLEOTRADER|10=011|8=FIXT.1.1|9=64|35=0|34=184|49=FOLEOAPI|52=20260619-01:01:34.272|56=FOLEOTRADER|10=020|8=FIXT.1.1|9=64|35=0|34=185|49=FOLEOAPI|52=20260619-01:01:54.395|56=FOLEOTRADER|10=029|8=FIXT.1.1|9=64|35=0|34=186|49=FOLEOAPI|52=20260619-01:02:14.522|56=FOLEOTRADER|10=019|8=FIXT.1.1|9=64|35=0|34=187|49=FOLEOAPI|52=20260619-01:02:34.693|56=FOLEOTRADER|10=031|8=FIXT.1.1|9=64|35=0|34=188|49=FOLEOAPI|52=20260619-01:02:54.797|56=FOLEOTRADER|10=039|8=FIXT.1.1|9=64|35=0|34=189|49=FOLEOAPI|52=20260619-01:03:14.905|56=FOLEOTRADER|10=028|8=FIXT.1.1|9=64|35=0|34=190|49=FOLEOAPI|52=20260619-01:03:35.007|56=FOLEOTRADER|10=016|8=FIXT.1.1|9=64|35=0|34=191|49=FOLEOAPI|52=20260619-01:03:55.187|56=FOLEOTRADER|10=028|8=FIXT.1.1|9=64|35=0|34=192|49=FOLEOAPI|52=20260619-01:04:15.331|56=FOLEOTRADER|10=017|8=FIXT.1.1|9=64|35=0|34=193|49=FOLEOAPI|52=20260619-01:04:35.487|56=FOLEOTRADER|10=032|8=FIXT.1.1|9=64|35=0|34=194|49=FOLEOAPI|52=20260619-01:04:55.633|56=FOLEOTRADER|10=028|8=FIXT.1.1|9=64|35=0|34=195|49=FOLEOAPI|52=20260619-01:05:15.746|56=FOLEOTRADER|10=031|8=FIXT.1.1|9=64|35=0|34=196|49=FOLEOAPI|52=20260619-01:05:35.932|56=FOLEOTRADER|10=031|8=FIXT.1.1|9=64|35=0|34=197|49=FOLEOAPI|52=20260619-01:05:56.057|56=FOLEOTRADER|10=033|8=FIXT.1.1|9=64|35=0|34=198|49=FOLEOAPI|52=20260619-01:06:16.192|56=FOLEOTRADER|10=031|8=FIXT.1.1|9=64|35=0|34=199|49=FOLEOAPI|52=20260619-01:06:36.297|56=FOLEOTRADER|10=040|8=FIXT.1.1|9=64|35=0|34=200|49=FOLEOAPI|52=20260619-01:06:56.422|56=FOLEOTRADER|10=015|8=FIXT.1.1|9=64|35=0|34=201|49=FOLEOAPI|52=20260619-01:07:16.541|56=FOLEOTRADER|10=015|8=FIXT.1.1|9=64|35=0|34=202|49=FOLEOAPI|52=20260619-01:07:36.691|56=FOLEOTRADER|10=024|8=FIXT.1.1|9=64|35=0|34=203|49=FOLEOAPI|52=20260619-01:07:56.857|56=FOLEOTRADER|10=031|8=FIXT.1.1|9=64|35=0|34=204|49=FOLEOAPI|52=20260619-01:08:17.023|56=FOLEOTRADER|10=015|8=FIXT.1.1|9=64|35=0|34=205|49=FOLEOAPI|52=20260619-01:08:37.185|56=FOLEOTRADER|10=027|8=FIXT.1.1|9=64|35=0|34=206|49=FOLEOAPI|52=20260619-01:08:57.332|56=FOLEOTRADER|10=024|8=FIXT.1.1|9=64|35=0|34=207|49=FOLEOAPI|52=20260619-01:09:17.480|56=FOLEOTRADER|10=026|8=FIXT.1.1|9=64|35=0|34=208|49=FOLEOAPI|52=20260619-01:09:37.655|56=FOLEOTRADER|10=033|8=FIXT.1.1|9=64|35=0|34=209|49=FOLEOAPI|52=20260619-01:09:57.805|56=FOLEOTRADER|10=033|8=FIXT.1.1|9=64|35=0|34=210|49=FOLEOAPI|52=20260619-01:10:17.920|56=FOLEOTRADER|10=011|8=FIXT.1.1|9=64|35=0|34=211|49=FOLEOAPI|52=20260619-01:10:38.040|56=FOLEOTRADER|10=008|8=FIXT.1.1|9=64|35=0|34=212|49=FOLEOAPI|52=20260619-01:10:58.148|56=FOLEOTRADER|10=020|8=FIXT.1.1|9=64|35=0|34=213|49=FOLEOAPI|52=20260619-01:11:18.302|56=FOLEOTRADER|10=010|8=FIXT.1.1|9=64|35=0|34=214|49=FOLEOAPI|52=20260619-01:11:38.440|56=FOLEOTRADER|10=016|8=FIXT.1.1|9=64|35=0|34=215|49=FOLEOAPI|52=20260619-01:11:58.560|56=FOLEOTRADER|10=022|8=FIXT.1.1|9=64|35=0|34=216|49=FOLEOAPI|52=20260619-01:12:18.726|56=FOLEOTRADER|10=024|8=FIXT.1.1|9=64|35=0|34=217|49=FOLEOAPI|52=20260619-01:12:38.872|56=FOLEOTRADER|10=029|8=FIXT.1.1|9=64|35=0|34=218|49=FOLEOAPI|52=20260619-01:12:59.004|56=FOLEOTRADER|10=020|8=FIXT.1.1|9=64|35=0|34=219|49=FOLEOAPI|52=20260619-01:13:19.126|56=FOLEOTRADER|10=023|8=FIXT.1.1|9=64|35=0|34=220|49=FOLEOAPI|52=20260619-01:13:39.243|56=FOLEOTRADER|10=017|8=FIXT.1.1|9=64|35=0|34=221|49=FOLEOAPI|52=20260619-01:13:59.409|56=FOLEOTRADER|10=024|8=FIXT.1.1|9=64|35=0|34=222|49=FOLEOAPI|52=20260619-01:14:19.532|56=FOLEOTRADER|10=019|8=FIXT.1.1|9=64|35=0|34=223|49=FOLEOAPI|52=20260619-01:14:39.678|56=FOLEOTRADER|10=033|8=FIXT.1.1|9=64|35=0|34=224|49=FOLEOAPI|52=20260619-01:14:59.832|56=FOLEOTRADER|10=028|8=FIXT.1.1|9=64|35=0|34=225|49=FOLEOAPI|52=20260619-01:15:19.990|56=FOLEOTRADER|10=031|8=FIXT.1.1|9=64|35=0|34=226|49=FOLEOAPI|52=20260619-01:15:40.142|56=FOLEOTRADER|10=015|8=FIXT.1.1|9=64|35=0|34=227|49=FOLEOAPI|52=20260619-01:16:00.247|56=FOLEOTRADER|10=019|8=FIXT.1.1|9=64|35=0|34=228|49=FOLEOAPI|52=20260619-01:16:20.386|56=FOLEOTRADER|10=026|8=FIXT.1.1|9=64|35=0|34=229|49=FOLEOAPI|52=20260619-01:16:40.526|56=FOLEOTRADER|10=025|8=FIXT.1.1|9=64|35=0|34=230|49=FOLEOAPI|52=20260619-01:17:00.650|56=FOLEOTRADER|10=012|8=FIXT.1.1|9=64|35=0|34=231|49=FOLEOAPI|52=20260619-01:17:20.804|56=FOLEOTRADER|10=016|8=FIXT.1.1|9=64|35=0|34=232|49=FOLEOAPI|52=20260619-01:17:40.910|56=FOLEOTRADER|10=017|8=FIXT.1.1|9=64|35=0|34=233|49=FOLEOAPI|52=20260619-01:18:01.044|56=FOLEOTRADER|10=014|8=FIXT.1.1|9=64|35=0|34=234|49=FOLEOAPI|52=20260619-01:18:21.194|56=FOLEOTRADER|10=023|8=FIXT.1.1|9=64|35=0|34=235|49=FOLEOAPI|52=20260619-01:18:41.313|56=FOLEOTRADER|10=019|8=FIXT.1.1|9=64|35=0|34=236|49=FOLEOAPI|52=20260619-01:19:01.407|56=FOLEOTRADER|10=021|8=FIXT.1.1|9=64|35=0|34=237|49=FOLEOAPI|52=20260619-01:19:21.533|56=FOLEOTRADER|10=024|8=FIXT.1.1|9=64|35=0|34=238|49=FOLEOAPI|52=20260619-01:19:41.674|56=FOLEOTRADER|10=033|8=FIXT.1.1|9=64|35=0|34=239|49=FOLEOAPI|52=20260619-01:20:01.798|56=FOLEOTRADER|10=029|8=FIXT.1.1|9=64|35=0|34=240|49=FOLEOAPI|52=20260619-01:20:21.924|56=FOLEOTRADER|10=014|8=FIXT.1.1|9=64|35=0|34=241|49=FOLEOAPI|52=20260619-01:20:42.081|56=FOLEOTRADER|10=012|8=FIXT.1.1|9=64|35=0|34=242|49=FOLEOAPI|52=20260619-01:21:02.195|56=FOLEOTRADER|10=016|8=FIXT.1.1|9=64|35=0|34=243|49=FOLEOAPI|52=20260619-01:21:22.314|56=FOLEOTRADER|10=012|8=FIXT.1.1|9=64|35=0|34=244|49=FOLEOAPI|52=20260619-01:21:42.479|56=FOLEOTRADER|10=027|8=FIXT.1.1|9=64|35=0|34=245|49=FOLEOAPI|52=20260619-01:22:02.607|56=FOLEOTRADER|10=018|8=FIXT.1.1|9=64|35=0|34=246|49=FOLEOAPI|52=20260619-01:22:22.758|56=FOLEOTRADER|10=028|8=FIXT.1.1|9=64|35=0|34=247|49=FOLEOAPI|52=20260619-01:22:42.900|56=FOLEOTRADER|10=020|8=FIXT.1.1|9=64|35=0|34=248|49=FOLEOAPI|52=20260619-01:23:03.046|56=FOLEOTRADER|10=020|8=FIXT.1.1|9=64|35=0|34=249|49=FOLEOAPI|52=20260619-01:23:23.199|56=FOLEOTRADER|10=032|8=FIXT.1.1|9=64|35=0|34=250|49=FOLEOAPI|52=20260619-01:23:43.348|56=FOLEOTRADER|10=022|8=FIXT.1.1|9=64|35=0|34=251|49=FOLEOAPI|52=20260619-01:24:03.490|56=FOLEOTRADER|10=018|8=FIXT.1.1|9=64|35=0|34=252|49=FOLEOAPI|52=20260619-01:24:23.655|56=FOLEOTRADER|10=024|8=FIXT.1.1|9=64|35=0|34=253|49=FOLEOAPI|52=20260619-01:24:43.811|56=FOLEOTRADER|10=021|8=FIXT.1.1|9=64|35=0|34=254|49=FOLEOAPI|52=20260619-01:25:03.942|56=FOLEOTRADER|10=024|8=FIXT.1.1|9=64|35=0|34=255|49=FOLEOAPI|52=20260619-01:25:24.077|56=FOLEOTRADER|10=027|8=FIXT.1.1|9=64|35=0|34=256|49=FOLEOAPI|52=20260619-01:25:44.197|56=FOLEOTRADER|10=033|8=FIXT.1.1|9=64|35=0|34=257|49=FOLEOAPI|52=20260619-01:26:04.356|56=FOLEOTRADER|10=028|8=FIXT.1.1|9=64|35=0|34=258|49=FOLEOAPI|52=20260619-01:26:24.480|56=FOLEOTRADER|10=029|8=FIXT.1.1|9=64|35=0|34=259|49=FOLEOAPI|52=20260619-01:26:44.639|56=FOLEOTRADER|10=038|8=FIXT.1.1|9=64|35=0|34=260|49=FOLEOAPI|52=20260619-01:27:04.768|56=FOLEOTRADER|10=030|8=FIXT.1.1|9=64|35=0|34=261|49=FOLEOAPI|52=20260619-01:27:24.934|56=FOLEOTRADER|10=028|8=FIXT.1.1|9=64|35=0|34=262|49=FOLEOAPI|52=20260619-01:27:45.088|56=FOLEOTRADER|10=032|8=FIXT.1.1|9=64|35=0|34=263|49=FOLEOAPI|52=20260619-01:28:05.220|56=FOLEOTRADER|10=018|8=FIXT.1.1|9=64|35=0|34=264|49=FOLEOAPI|52=20260619-01:28:25.402|56=FOLEOTRADER|10=023|8=FIXT.1.1|9=64|35=0|34=265|49=FOLEOAPI|52=20260619-01:28:45.533|56=FOLEOTRADER|10=031|8=FIXT.1.1|9=64|35=0|34=266|49=FOLEOAPI|52=20260619-01:29:05.630|56=FOLEOTRADER|10=027|8=FIXT.1.1|9=64|35=0|34=267|49=FOLEOAPI|52=20260619-01:29:25.788|56=FOLEOTRADER|10=044|8=FIXT.1.1|9=64|35=0|34=268|49=FOLEOAPI|52=20260619-01:29:45.935|56=FOLEOTRADER|10=041|8=FIXT.1.1|9=64|35=0|34=269|49=FOLEOAPI|52=20260619-01:30:06.058|56=FOLEOTRADER|10=027|8=FIXT.1.1|9=64|35=0|34=270|49=FOLEOAPI|52=20260619-01:30:26.231|56=FOLEOTRADER|10=014|8=FIXT.1.1|9=64|35=0|34=271|49=FOLEOAPI|52=20260619-01:30:46.383|56=FOLEOTRADER|10=025|8=FIXT.1.1|9=64|35=0|34=272|49=FOLEOAPI|52=20260619-01:31:06.513|56=FOLEOTRADER|10=018|8=FIXT.1.1|9=64|35=0|34=273|49=FOLEOAPI|52=20260619-01:31:26.653|56=FOLEOTRADER|10=026|8=FIXT.1.1|9=64|35=0|34=274|49=FOLEOAPI|52=20260619-01:31:46.837|56=FOLEOTRADER|10=033|8=FIXT.1.1|9=64|35=0|34=275|49=FOLEOAPI|52=20260619-01:32:07.017|56=FOLEOTRADER|10=022|8=FIXT.1.1|9=64|35=0|34=276|49=FOLEOAPI|52=20260619-01:32:27.194|56=FOLEOTRADER|10=031|8=FIXT.1.1|9=64|35=0|34=277|49=FOLEOAPI|52=20260619-01:32:47.337|56=FOLEOTRADER|10=033|8=FIXT.1.1|9=64|35=0|34=278|49=FOLEOAPI|52=20260619-01:33:07.482|56=FOLEOTRADER|10=032|8=FIXT.1.1|9=64|35=0|34=279|49=FOLEOAPI|52=20260619-01:33:27.639|56=FOLEOTRADER|10=039|8=FIXT.1.1|9=64|35=0|34=280|49=FOLEOAPI|52=20260619-01:33:47.788|56=FOLEOTRADER|10=038|8=FIXT.1.1|9=64|35=0|34=281|49=FOLEOAPI|52=20260619-01:34:07.925|56=FOLEOTRADER|10=029|8=FIXT.1.1|9=64|35=0|34=282|49=FOLEOAPI|52=20260619-01:34:28.114|56=FOLEOTRADER|10=023|8=FIXT.1.1|9=64|35=0|34=283|49=FOLEOAPI|52=20260619-01:34:48.275|56=FOLEOTRADER|10=034|8=FIXT.1.1|9=64|35=0|34=284|49=FOLEOAPI|52=20260619-01:35:08.403|56=FOLEOTRADER|10=025|8=FIXT.1.1|9=64|35=0|34=285|49=FOLEOAPI|52=20260619-01:35:28.547|56=FOLEOTRADER|10=037|8=FIXT.1.1|9=64|35=0|34=286|49=FOLEOAPI|52=20260619-01:35:48.691|56=FOLEOTRADER|10=040|8=FIXT.1.1|9=64|35=0|34=287|49=FOLEOAPI|52=20260619-01:36:08.850|56=FOLEOTRADER|10=035|8=FIXT.1.1|9=64|35=0|34=288|49=FOLEOAPI|52=20260619-01:36:28.998|56=FOLEOTRADER|10=051|8=FIXT.1.1|9=64|35=0|34=289|49=FOLEOAPI|52=20260619-01:36:49.098|56=FOLEOTRADER|10=046|8=FIXT.1.1|9=64|35=0|34=290|49=FOLEOAPI|52=20260619-01:37:09.224|56=FOLEOTRADER|10=026|8=FIXT.1.1|9=64|35=0|34=291|49=FOLEOAPI|52=20260619-01:37:29.338|56=FOLEOTRADER|10=035|8=FIXT.1.1|9=64|35=0|34=292|49=FOLEOAPI|52=20260619-01:37:49.490|56=FOLEOTRADER|10=037|8=FIXT.1.1|9=64|35=0|34=293|49=FOLEOAPI|52=20260619-01:38:09.640|56=FOLEOTRADER|10=032|8=FIXT.1.1|9=64|35=0|34=294|49=FOLEOAPI|52=20260619-01:38:29.770|56=FOLEOTRADER|10=039|8=FIXT.1.1|9=64|35=0|34=295|49=FOLEOAPI|52=20260619-01:38:49.923|56=FOLEOTRADER|10=042|8=FIXT.1.1|9=64|35=0|34=296|49=FOLEOAPI|52=20260619-01:39:10.075|56=FOLEOTRADER|10=030|8=FIXT.1.1|9=64|35=0|34=297|49=FOLEOAPI|52=20260619-01:39:30.213|56=FOLEOTRADER|10=027|8=FIXT.1.1|9=64|35=0|34=298|49=FOLEOAPI|52=20260619-01:39:50.354|56=FOLEOTRADER|10=036|8=FIXT.1.1|9=64|35=0|34=299|49=FOLEOAPI|52=20260619-01:40:10.522|56=FOLEOTRADER|10=022|8=FIXT.1.1|9=64|35=0|34=300|49=FOLEOAPI|52=20260619-01:40:30.685|56=FOLEOTRADER|10=017|8=FIXT.1.1|9=64|35=0|34=301|49=FOLEOAPI|52=20260619-01:40:50.777|56=FOLEOTRADER|10=022|8=FIXT.1.1|9=64|35=0|34=302|49=FOLEOAPI|52=20260619-01:41:10.923|56=FOLEOTRADER|10=013|8=FIXT.1.1|9=64|35=0|34=303|49=FOLEOAPI|52=20260619-01:41:31.044|56=FOLEOTRADER|10=011|8=FIXT.1.1|9=64|35=0|34=304|49=FOLEOAPI|52=20260619-01:41:51.182|56=FOLEOTRADER|10=017|8=FIXT.1.1|9=64|35=0|34=305|49=FOLEOAPI|52=20260619-01:42:11.295|56=FOLEOTRADER|10=020|8=FIXT.1.1|9=64|35=0|34=306|49=FOLEOAPI|52=20260619-01:42:31.446|56=FOLEOTRADER|10=021|8=FIXT.1.1|9=64|35=0|34=307|49=FOLEOAPI|52=20260619-01:42:51.586|56=FOLEOTRADER|10=029|8=FIXT.1.1|9=64|35=0|34=308|49=FOLEOAPI|52=20260619-01:43:11.752|56=FOLEOTRADER|10=022|8=FIXT.1.1|9=64|35=0|34=309|49=FOLEOAPI|52=20260619-01:43:31.928|56=FOLEOTRADER|10=030|8=FIXT.1.1|9=64|35=0|34=310|49=FOLEOAPI|52=20260619-01:43:52.101|56=FOLEOTRADER|10=008|8=FIXT.1.1|9=64|35=0|34=311|49=FOLEOAPI|52=20260619-01:44:12.272|56=FOLEOTRADER|10=015|8=FIXT.1.1|9=64|35=0|34=312|49=FOLEOAPI|52=20260619-01:44:32.404|56=FOLEOTRADER|10=015|8=FIXT.1.1|9=64|35=0|34=313|49=FOLEOAPI|52=20260619-01:44:52.545|56=FOLEOTRADER|10=024|8=FIXT.1.1|9=64|35=0|34=314|49=FOLEOAPI|52=20260619-01:45:12.646|56=FOLEOTRADER|10=024|8=FIXT.1.1|9=64|35=0|34=315|49=FOLEOAPI|52=20260619-01:45:32.765|56=FOLEOTRADER|10=029|8=FIXT.1.1|9=64|35=0|34=316|49=FOLEOAPI|52=20260619-01:45:52.914|56=FOLEOTRADER|10=028|8=FIXT.1.1|9=64|35=0|34=317|49=FOLEOAPI|52=20260619-01:46:13.056|56=FOLEOTRADER|10=024|8=FIXT.1.1|9=64|35=0|34=318|49=FOLEOAPI|52=20260619-01:46:33.200|56=FOLEOTRADER|10=018|8=FIXT.1.1|9=64|35=0|34=319|49=FOLEOAPI|52=20260619-01:46:53.346|56=FOLEOTRADER|10=032|8=FIXT.1.1|9=64|35=0|34=320|49=FOLEOAPI|52=20260619-01:47:13.486|56=FOLEOTRADER|10=026|8=FIXT.1.1|9=64|35=0|34=321|49=FOLEOAPI|52=20260619-01:47:33.615|56=FOLEOTRADER|10=023|8=FIXT.1.1|9=64|35=0|34=322|49=FOLEOAPI|52=20260619-01:47:53.799|56=FOLEOTRADER|10=039|8=FIXT.1.1|9=64|35=0|34=323|49=FOLEOAPI|52=20260619-01:48:13.961|56=FOLEOTRADER|10=028|8=FIXT.1.1|9=64|35=0|34=324|49=FOLEOAPI|52=20260619-01:48:34.093|56=FOLEOTRADER|10=028|8=FIXT.1.1|9=64|35=0|34=325|49=FOLEOAPI|52=20260619-01:48:54.225|56=FOLEOTRADER|10=028|8=FIXT.1.1|9=64|35=0|34=326|49=FOLEOAPI|52=20260619-01:49:14.395|56=FOLEOTRADER|10=034|8=FIXT.1.1|9=64|35=0|34=327|49=FOLEOAPI|52=20260619-01:49:34.507|56=FOLEOTRADER|10=032|8=FIXT.1.1|9=64|35=0|34=328|49=FOLEOAPI|52=20260619-01:49:54.675|56=FOLEOTRADER|10=041|8=FIXT.1.1|9=64|35=0|34=329|49=FOLEOAPI|52=20260619-01:50:14.797|56=FOLEOTRADER|10=035|8=FIXT.1.1|9=64|35=0|34=330|49=FOLEOAPI|52=20260619-01:50:34.932|56=FOLEOTRADER|10=020|8=FIXT.1.1|9=64|35=0|34=331|49=FOLEOAPI|52=20260619-01:50:55.071|56=FOLEOTRADER|10=018|8=FIXT.1.1|9=64|35=0|34=332|49=FOLEOAPI|52=20260619-01:51:15.229|56=FOLEOTRADER|10=021|8=FIXT.1.1|9=64|35=0|34=333|49=FOLEOAPI|52=20260619-01:51:35.352|56=FOLEOTRADER|10=021|8=FIXT.1.1|9=64|35=0|34=334|49=FOLEOAPI|52=20260619-01:51:55.480|56=FOLEOTRADER|10=026|8=FIXT.1.1|9=64|35=0|34=335|49=FOLEOAPI|52=20260619-01:52:15.612|56=FOLEOTRADER|10=021|8=FIXT.1.1|9=64|35=0|34=336|49=FOLEOAPI|52=20260619-01:52:35.747|56=FOLEOTRADER|10=033|8=FIXT.1.1|9=64|35=0|34=337|49=FOLEOAPI|52=20260619-01:52:55.894|56=FOLEOTRADER|10=039|8=FIXT.1.1|9=64|35=0|34=338|49=FOLEOAPI|52=20260619-01:53:16.038|56=FOLEOTRADER|10=028|8=FIXT.1.1|9=64|35=0|34=339|49=FOLEOAPI|52=20260619-01:53:36.189|56=FOLEOTRADER|10=038|8=FIXT.1.1|9=64|35=0|34=340|49=FOLEOAPI|52=20260619-01:53:56.330|56=FOLEOTRADER|10=020|8=FIXT.1.1|9=64|35=0|34=341|49=FOLEOAPI|52=20260619-01:54:16.502|56=FOLEOTRADER|10=019|8=FIXT.1.1|9=64|35=0|34=342|49=FOLEOAPI|52=20260619-01:54:36.630|56=FOLEOTRADER|10=024|8=FIXT.1.1|9=64|35=0|34=343|49=FOLEOAPI|52=20260619-01:54:56.772|56=FOLEOTRADER|10=034|8=FIXT.1.1|9=64|35=0|34=344|49=FOLEOAPI|52=20260619-01:55:16.907|56=FOLEOTRADER|10=032|8=FIXT.1.1|9=64|35=0|34=345|49=FOLEOAPI|52=20260619-01:55:37.068|56=FOLEOTRADER|10=034|8=FIXT.1.1|9=64|35=0|34=346|49=FOLEOAPI|52=20260619-01:55:57.211|56=FOLEOTRADER|10=027|8=FIXT.1.1|9=64|35=0|34=347|49=FOLEOAPI|52=20260619-01:56:17.370|56=FOLEOTRADER|10=031|8=FIXT.1.1|9=64|35=0|34=348|49=FOLEOAPI|52=20260619-01:56:37.517|56=FOLEOTRADER|10=037|8=FIXT.1.1|9=64|35=0|34=349|49=FOLEOAPI|52=20260619-01:56:57.612|56=FOLEOTRADER|10=036|8=FIXT.1.1|9=64|35=0|34=350|49=FOLEOAPI|52=20260619-01:57:17.692|56=FOLEOTRADER|10=033|8=FIXT.1.1|9=64|35=0|34=351|49=FOLEOAPI|52=20260619-01:57:37.876|56=FOLEOTRADER|10=040|8=FIXT.1.1|9=64|35=0|34=352|49=FOLEOAPI|52=20260619-01:57:58.012|56=FOLEOTRADER|10=026|8=FIXT.1.1|9=64|35=0|34=353|49=FOLEOAPI|52=20260619-01:58:18.131|56=FOLEOTRADER|10=026|8=FIXT.1.1|9=64|35=0|34=354|49=FOLEOAPI|52=20260619-01:58:38.280|56=FOLEOTRADER|10=034|8=FIXT.1.1|9=64|35=0|34=355|49=FOLEOAPI|52=20260619-01:58:58.465|56=FOLEOTRADER|10=042|8=FIXT.1.1|9=64|35=0|34=356|49=FOLEOAPI|52=20260619-01:59:18.576|56=FOLEOTRADER|10=043|8=FIXT.1.1|9=64|35=0|34=357|49=FOLEOAPI|52=20260619-01:59:38.727|56=FOLEOTRADER|10=044|8=FIXT.1.1|9=64|35=0|34=358|49=FOLEOAPI|52=20260619-01:59:58.887|56=FOLEOTRADER|10=054|8=FIXT.1.1|9=64|35=0|34=359|49=FOLEOAPI|52=20260619-02:00:19.015|56=FOLEOTRADER|10=022|8=FIXT.1.1|9=64|35=0|34=360|49=FOLEOAPI|52=20260619-02:00:39.161|56=FOLEOTRADER|10=018|8=FIXT.1.1|9=64|35=0|34=361|49=FOLEOAPI|52=20260619-02:00:59.307|56=FOLEOTRADER|10=023|8=FIXT.1.1|9=64|35=0|34=362|49=FOLEOAPI|52=20260619-02:01:19.427|56=FOLEOTRADER|10=024|8=FIXT.1.1|9=64|35=0|34=363|49=FOLEOAPI|52=20260619-02:01:39.569|56=FOLEOTRADER|10=034|8=FIXT.1.1|9=64|35=0|34=364|49=FOLEOAPI|52=20260619-02:01:59.705|56=FOLEOTRADER|10=029|8=FIXT.1.1|9=64|35=0|34=365|49=FOLEOAPI|52=20260619-02:02:19.823|56=FOLEOTRADER|10=028|8=FIXT.1.1|9=64|35=0|34=366|49=FOLEOAPI|52=20260619-02:02:39.958|56=FOLEOTRADER|10=040|8=FIXT.1.1|9=64|35=0|34=367|49=FOLEOAPI|52=20260619-02:03:00.099|56=FOLEOTRADER|10=026|8=FIXT.1.1|9=64|35=0|34=368|49=FOLEOAPI|52=20260619-02:03:20.222|56=FOLEOTRADER|10=017|8=FIXT.1.1|9=64|35=0|34=369|49=FOLEOAPI|52=20260619-02:03:40.347|56=FOLEOTRADER|10=028|8=FIXT.1.1|9=64|35=0|34=370|49=FOLEOAPI|52=20260619-02:04:00.492|56=FOLEOTRADER|10=018|8=FIXT.1.1|9=64|35=0|34=371|49=FOLEOAPI|52=20260619-02:04:20.659|56=FOLEOTRADER|10=026|8=FIXT.1.1|9=64|35=0|34=372|49=FOLEOAPI|52=20260619-02:04:40.813|56=FOLEOTRADER|10=021|8=FIXT.1.1|9=64|35=0|34=373|49=FOLEOAPI|52=20260619-02:05:00.963|56=FOLEOTRADER|10=025|8=FIXT.1.1|9=64|35=0|34=374|49=FOLEOAPI|52=20260619-02:05:21.114|56=FOLEOTRADER|10=017|8=FIXT.1.1|9=64|35=0|34=375|49=FOLEOAPI|52=20260619-02:05:41.247|56=FOLEOTRADER|10=027|8=FIXT.1.1|9=64|35=0|34=376|49=FOLEOAPI|52=20260619-02:06:01.382|56=FOLEOTRADER|10=025|8=FIXT.1.1|9=64|35=0|34=377|49=FOLEOAPI|52=20260619-02:06:21.529|56=FOLEOTRADER|10=031|8=FIXT.1.1|9=64|35=0|34=378|49=FOLEOAPI|52=20260619-02:06:41.691|56=FOLEOTRADER|10=034|8=FIXT.1.1|9=64|35=0|34=379|49=FOLEOAPI|52=20260619-02:07:01.835|56=FOLEOTRADER|10=032|8=FIXT.1.1|9=64|35=0|34=380|49=FOLEOAPI|52=20260619-02:07:21.970|56=FOLEOTRADER|10=026|8=FIXT.1.1|9=64|35=0|34=381|49=FOLEOAPI|52=20260619-02:07:42.096|56=FOLEOTRADER|10=029|8=FIXT.1.1|9=64|35=0|34=382|49=FOLEOAPI|52=20260619-02:08:02.249|56=FOLEOTRADER|10=027|8=FIXT.1.1|9=64|35=0|34=383|49=FOLEOAPI|52=20260619-02:08:22.391|56=FOLEOTRADER|10=028|8=FIXT.1.1|9=64|35=0|34=384|49=FOLEOAPI|52=20260619-02:08:42.550|56=FOLEOTRADER|10=028|8=FIXT.1.1|9=64|35=0|34=385|49=FOLEOAPI|52=20260619-02:09:02.696|56=FOLEOTRADER|10=037|8=FIXT.1.1|9=64|35=0|34=386|49=FOLEOAPI|52=20260619-02:09:22.937|56=FOLEOTRADER|10=038|8=FIXT.1.1|9=64|35=0|34=387|49=FOLEOAPI|52=20260619-02:09:43.088|56=FOLEOTRADER|10=039|8=FIXT.1.1|9=64|35=0|34=388|49=FOLEOAPI|52=20260619-02:10:03.205|56=FOLEOTRADER|10=019|8=FIXT.1.1|9=64|35=0|34=389|49=FOLEOAPI|52=20260619-02:10:23.309|56=FOLEOTRADER|10=027|8=FIXT.1.1|9=64|35=0|34=390|49=FOLEOAPI|52=20260619-02:10:43.444|56=FOLEOTRADER|10=021|8=FIXT.1.1|9=64|35=0|34=391|49=FOLEOAPI|52=20260619-02:11:03.566|56=FOLEOTRADER|10=024|8=FIXT.1.1|9=64|35=0|34=392|49=FOLEOAPI|52=20260619-02:11:23.714|56=FOLEOTRADER|10=022|8=FIXT.1.1|9=64|35=0|34=393|49=FOLEOAPI|52=20260619-02:11:43.828|56=FOLEOTRADER|10=031|8=FIXT.1.1|9=64|35=0|34=394|49=FOLEOAPI|52=20260619-02:12:04.010|56=FOLEOTRADER|10=013|8=FIXT.1.1|9=64|35=0|34=395|49=FOLEOAPI|52=20260619-02:12:24.166|56=FOLEOTRADER|10=028|8=FIXT.1.1|9=64|35=0|34=396|49=FOLEOAPI|52=20260619-02:12:44.325|56=FOLEOTRADER|10=028|8=FIXT.1.1|9=64|35=0|34=397|49=FOLEOAPI|52=20260619-02:13:04.510|56=FOLEOTRADER|10=022|8=FIXT.1.1|9=64|35=0|34=398|49=FOLEOAPI|52=20260619-02:13:24.658|56=FOLEOTRADER|10=038|8=FIXT.1.1|9=64|35=0|34=399|49=FOLEOAPI|52=20260619-02:13:44.782|56=FOLEOTRADER|10=039|8=FIXT.1.1|9=64|35=0|34=400|49=FOLEOAPI|52=20260619-02:14:04.931|56=FOLEOTRADER|10=015|8=FIXT.1.1|9=64|35=0|34=401|49=FOLEOAPI|52=20260619-02:14:25.078|56=FOLEOTRADER|10=021|8=FIXT.1.1|9=64|35=0|34=402|49=FOLEOAPI|52=20260619-02:14:45.202|56=FOLEOTRADER|10=013|8=FIXT.1.1|9=64|35=0|34=403|49=FOLEOAPI|52=20260619-02:15:05.336|56=FOLEOTRADER|10=019|8=FIXT.1.1|9=64|35=0|34=404|49=FOLEOAPI|52=20260619-02:15:25.470|56=FOLEOTRADER|10=021|8=FIXT.1.1|9=64|35=0|34=405|49=FOLEOAPI|52=20260619-02:15:45.584|56=FOLEOTRADER|10=030|8=FIXT.1.1|9=64|35=0|34=406|49=FOLEOAPI|52=20260619-02:16:05.782|56=FOLEOTRADER|10=028|8=FIXT.1.1|9=64|35=0|34=407|49=FOLEOAPI|52=20260619-02:16:25.933|56=FOLEOTRADER|10=029|8=FIXT.1.1|9=64|35=0|34=408|49=FOLEOAPI|52=20260619-02:16:46.080|56=FOLEOTRADER|10=026|8=FIXT.1.1|9=64|35=0|34=409|49=FOLEOAPI|52=20260619-02:17:06.228|56=FOLEOTRADER|10=028|8=FIXT.1.1|9=64|35=0|34=410|49=FOLEOAPI|52=20260619-02:17:26.373|56=FOLEOTRADER|10=023|8=FIXT.1.1|9=64|35=0|34=411|49=FOLEOAPI|52=20260619-02:17:46.518|56=FOLEOTRADER|10=027|8=FIXT.1.1|9=64|35=0|34=412|49=FOLEOAPI|52=20260619-02:18:06.649|56=FOLEOTRADER|10=030|8=FIXT.1.1|9=64|35=0|34=413|49=FOLEOAPI|52=20260619-02:18:26.804|56=FOLEOTRADER|10=026|8=FIXT.1.1|9=64|35=0|34=414|49=FOLEOAPI|52=20260619-02:18:46.968|56=FOLEOTRADER|10=040|8=FIXT.1.1|9=64|35=0|34=415|49=FOLEOAPI|52=20260619-02:19:07.123|56=FOLEOTRADER|10=022|8=FIXT.1.1|9=64|35=0|34=416|49=FOLEOAPI|52=20260619-02:19:27.351|56=FOLEOTRADER|10=028|8=FIXT.1.1|9=64|35=0|34=417|49=FOLEOAPI|52=20260619-02:19:47.511|56=FOLEOTRADER|10=029|8=FIXT.1.1|9=64|35=0|34=418|49=FOLEOAPI|52=20260619-02:20:07.649|56=FOLEOTRADER|10=030|8=FIXT.1.1|9=64|35=0|34=419|49=FOLEOAPI|52=20260619-02:20:27.794|56=FOLEOTRADER|10=034|8=FIXT.1.1|9=64|35=0|34=420|49=FOLEOAPI|52=20260619-02:20:47.949|56=FOLEOTRADER|10=030|8=FIXT.1.1|9=64|35=0|34=421|49=FOLEOAPI|52=20260619-02:21:08.109|56=FOLEOTRADER|10=017|8=FIXT.1.1|9=64|35=0|34=422|49=FOLEOAPI|52=20260619-02:21:28.214|56=FOLEOTRADER|10=017|8=FIXT.1.1|9=64|35=0|34=423|49=FOLEOAPI|52=20260619-02:21:48.358|56=FOLEOTRADER|10=029|8=FIXT.1.1|9=64|35=0|34=424|49=FOLEOAPI|52=20260619-02:22:08.536|56=FOLEOTRADER|10=025|8=FIXT.1.1|9=64|35=0|34=425|49=FOLEOAPI|52=20260619-02:22:28.704|56=FOLEOTRADER|10=025|8=FIXT.1.1|9=64|35=0|34=426|49=FOLEOAPI|52=20260619-02:22:48.844|56=FOLEOTRADER|10=033|8=FIXT.1.1|9=64|35=0|34=427|49=FOLEOAPI|52=20260619-02:23:09.007|56=FOLEOTRADER|10=023|8=FIXT.1.1|9=64|35=0|34=428|49=FOLEOAPI|52=20260619-02:23:29.143|56=FOLEOTRADER|10=027|8=FIXT.1.1|9=64|35=0|34=429|49=FOLEOAPI|52=20260619-02:23:49.270|56=FOLEOTRADER|10=031|8=FIXT.1.1|9=64|35=0|34=430|49=FOLEOAPI|52=20260619-02:24:09.418|56=FOLEOTRADER|10=024|8=FIXT.1.1|9=64|35=0|34=431|49=FOLEOAPI|52=20260619-02:24:29.527|56=FOLEOTRADER|10=028|8=FIXT.1.1|9=64|35=0|34=432|49=FOLEOAPI|52=20260619-02:24:49.691|56=FOLEOTRADER|10=033|8=FIXT.1.1|9=64|35=0|34=433|49=FOLEOAPI|52=20260619-02:25:09.823|56=FOLEOTRADER|10=028|8=FIXT.1.1|9=64|35=0|34=434|49=FOLEOAPI|52=20260619-02:25:29.921|56=FOLEOTRADER|10=030|8=FIXT.1.1|9=64|35=0|34=435|49=FOLEOAPI|52=20260619-02:25:50.045|56=FOLEOTRADER|10=022|8=FIXT.1.1|9=64|35=0|34=436|49=FOLEOAPI|52=20260619-02:26:10.183|56=FOLEOTRADER|10=023|8=FIXT.1.1|9=64|35=0|34=437|49=FOLEOAPI|52=20260619-02:26:30.342|56=FOLEOTRADER|10=023|8=FIXT.1.1|9=64|35=0|34=438|49=FOLEOAPI|52=20260619-02:26:50.498|56=FOLEOTRADER|10=038|8=FIXT.1.1|9=64|35=0|34=439|49=FOLEOAPI|52=20260619-02:27:10.660|56=FOLEOTRADER|10=027|8=FIXT.1.1|9=64|35=0|34=440|49=FOLEOAPI|52=20260619-02:27:30.810|56=FOLEOTRADER|10=018|8=FIXT.1.1|9=64|35=0|34=441|49=FOLEOAPI|52=20260619-02:27:50.937|56=FOLEOTRADER|10=031|8=FIXT.1.1|9=64|35=0|34=442|49=FOLEOAPI|52=20260619-02:28:11.058|56=FOLEOTRADER|10=024|8=FIXT.1.1|9=64|35=0|34=443|49=FOLEOAPI|52=20260619-02:28:31.228|56=FOLEOTRADER|10=026|8=FIXT.1.1|9=64|35=0|34=444|49=FOLEOAPI|52=20260619-02:28:51.382|56=FOLEOTRADER|10=030|8=FIXT.1.1|9=64|35=0|34=445|49=FOLEOAPI|52=20260619-02:29:11.546|56=FOLEOTRADER|10=030|8=FIXT.1.1|9=64|35=0|34=446|49=FOLEOAPI|52=20260619-02:29:31.698|56=FOLEOTRADER|10=041|8=FIXT.1.1|9=64|35=0|34=447|49=FOLEOAPI|52=20260619-02:29:51.841|56=FOLEOTRADER|10=034|8=FIXT.1.1|9=64|35=0|34=448|49=FOLEOAPI|52=20260619-02:30:11.973|56=FOLEOTRADER|10=029|8=FIXT.1.1|9=64|35=0|34=449|49=FOLEOAPI|52=20260619-02:30:32.133|56=FOLEOTRADER|10=021|8=FIXT.1.1|9=64|35=0|34=450|49=FOLEOAPI|52=20260619-02:30:52.270|56=FOLEOTRADER|10=017|8=FIXT.1.1|9=64|35=0|34=451|49=FOLEOAPI|52=20260619-02:31:12.414|56=FOLEOTRADER|10=015|8=FIXT.1.1|9=64|35=0|34=452|49=FOLEOAPI|52=20260619-02:31:32.550|56=FOLEOTRADER|10=019|8=FIXT.1.1|9=64|35=0|34=453|49=FOLEOAPI|52=20260619-02:31:52.704|56=FOLEOTRADER|10=023|8=FIXT.1.1|9=64|35=0|34=454|49=FOLEOAPI|52=20260619-02:32:12.865|56=FOLEOTRADER|10=029|8=FIXT.1.1|9=64|35=0|34=455|49=FOLEOAPI|52=20260619-02:32:33.020|56=FOLEOTRADER|10=016|8=FIXT.1.1|9=64|35=0|34=456|49=FOLEOAPI|52=20260619-02:32:53.138|56=FOLEOTRADER|10=029|8=FIXT.1.1|9=64|35=0|34=457|49=FOLEOAPI|52=20260619-02:33:13.273|56=FOLEOTRADER|10=027|8=FIXT.1.1|9=64|35=0|34=458|49=FOLEOAPI|52=20260619-02:33:33.426|56=FOLEOTRADER|10=030|8=FIXT.1.1|9=64|35=0|34=459|49=FOLEOAPI|52=20260619-02:33:53.567|56=FOLEOTRADER|10=039|8=FIXT.1.1|9=64|35=0|34=460|49=FOLEOAPI|52=20260619-02:34:13.703|56=FOLEOTRADER|10=020|8=FIXT.1.1|9=64|35=0|34=461|49=FOLEOAPI|52=20260619-02:34:33.824|56=FOLEOTRADER|10=027|8=FIXT.1.1|9=64|35=0|34=462|49=FOLEOAPI|52=20260619-02:34:54.023|56=FOLEOTRADER|10=022|8=FIXT.1.1|9=64|35=0|34=463|49=FOLEOAPI|52=20260619-02:35:14.161|56=FOLEOTRADER|10=023|8=FIXT.1.1|9=64|35=0|34=464|49=FOLEOAPI|52=20260619-02:35:34.298|56=FOLEOTRADER|10=037|8=FIXT.1.1|9=64|35=0|34=465|49=FOLEOAPI|52=20260619-02:35:54.477|56=FOLEOTRADER|10=039|8=FIXT.1.1|9=64|35=0|34=466|49=FOLEOAPI|52=20260619-02:36:14.604|56=FOLEOTRADER|10=029|8=FIXT.1.1|9=64|35=0|34=467|49=FOLEOAPI|52=20260619-02:36:34.715|56=FOLEOTRADER|10=035|8=FIXT.1.1|9=64|35=0|34=468|49=FOLEOAPI|52=20260619-02:36:54.865|56=FOLEOTRADER|10=044|8=FIXT.1.1|9=64|35=0|34=469|49=FOLEOAPI|52=20260619-02:37:14.975|56=FOLEOTRADER|10=044|8=FIXT.1.1|9=64|35=0|34=470|49=FOLEOAPI|52=20260619-02:37:35.116|56=FOLEOTRADER|10=026|8=FIXT.1.1|9=64|35=0|34=471|49=FOLEOAPI|52=20260619-02:37:55.244|56=FOLEOTRADER|10=031|8=FIXT.1.1|9=64|35=0|34=472|49=FOLEOAPI|52=20260619-02:38:15.407|56=FOLEOTRADER|10=030|8=FIXT.1.1|9=64|35=0|34=473|49=FOLEOAPI|52=20260619-02:38:35.574|56=FOLEOTRADER|10=038|8=FIXT.1.1|9=64|35=0|34=474|49=FOLEOAPI|52=20260619-02:38:55.755|56=FOLEOTRADER|10=042|8=FIXT.1.1|9=64|35=0|34=475|49=FOLEOAPI|52=20260619-02:39:15.935|56=FOLEOTRADER|10=040|8=FIXT.1.1|9=64|35=0|34=476|49=FOLEOAPI|52=20260619-02:39:36.088|56=FOLEOTRADER|10=043|8=FIXT.1.1|9=64|35=0|34=477|49=FOLEOAPI|52=20260619-02:39:56.218|56=FOLEOTRADER|10=041|8=FIXT.1.1|9=64|35=0|34=478|49=FOLEOAPI|52=20260619-02:40:16.363|56=FOLEOTRADER|10=031|8=FIXT.1.1|9=64|35=0|34=479|49=FOLEOAPI|52=20260619-02:40:36.523|56=FOLEOTRADER|10=032|8=FIXT.1.1|9=64|35=0|34=480|49=FOLEOAPI|52=20260619-02:40:56.646|56=FOLEOTRADER|10=032|8=FIXT.1.1|9=64|35=0|34=481|49=FOLEOAPI|52=20260619-02:41:16.780|56=FOLEOTRADER|10=029|8=FIXT.1.1|9=64|35=0|34=482|49=FOLEOAPI|52=20260619-02:41:36.905|56=FOLEOTRADER|10=031|8=FIXT.1.1|9=64|35=0|34=483|49=FOLEOAPI|52=20260619-02:41:57.052|56=FOLEOTRADER|10=028|8=FIXT.1.1|9=64|35=0|34=484|49=FOLEOAPI|52=20260619-02:42:17.272|56=FOLEOTRADER|10=030|8=FIXT.1.1|9=64|35=0|34=485|49=FOLEOAPI|52=20260619-02:42:37.433|56=FOLEOTRADER|10=032|8=FIXT.1.1|9=64|35=0|34=486|49=FOLEOAPI|52=20260619-02:42:57.567|56=FOLEOTRADER|10=043|8=FIXT.1.1|9=64|35=0|34=487|49=FOLEOAPI|52=20260619-02:43:17.697|56=FOLEOTRADER|10=045|8=FIXT.1.1|9=64|35=0|34=488|49=FOLEOAPI|52=20260619-02:43:37.876|56=FOLEOTRADER|10=047|8=FIXT.1.1|9=64|35=0|34=489|49=FOLEOAPI|52=20260619-02:43:58.014|56=FOLEOTRADER|10=035|8=FIXT.1.1|9=64|35=0|34=490|49=FOLEOAPI|52=20260619-02:44:18.123|56=FOLEOTRADER|10=025|8=FIXT.1.1|9=64|35=0|34=491|49=FOLEOAPI|52=20260619-02:44:38.299|56=FOLEOTRADER|10=042|8=FIXT.1.1|9=64|35=0|34=492|49=FOLEOAPI|52=20260619-02:44:58.456|56=FOLEOTRADER|10=040|8=FIXT.1.1|9=64|35=0|34=493|49=FOLEOAPI|52=20260619-02:45:18.594|56=FOLEOTRADER|10=041|8=FIXT.1.1|9=64|35=0|34=494|49=FOLEOAPI|52=20260619-02:45:38.746|56=FOLEOTRADER|10=043|8=FIXT.1.1|9=64|35=0|34=495|49=FOLEOAPI|52=20260619-02:45:58.875|56=FOLEOTRADER|10=049|8=FIXT.1.1|9=64|35=0|34=496|49=FOLEOAPI|52=20260619-02:46:19.044|56=FOLEOTRADER|10=036|8=FIXT.1.1|9=64|35=0|34=497|49=FOLEOAPI|52=20260619-02:46:39.211|56=FOLEOTRADER|10=035|8=FIXT.1.1|9=64|35=0|34=498|49=FOLEOAPI|52=20260619-02:46:59.359|56=FOLEOTRADER|10=051|8=FIXT.1.1|9=64|35=0|34=499|49=FOLEOAPI|52=20260619-02:47:19.512|56=FOLEOTRADER|10=040|8=FIXT.1.1|9=64|35=0|34=500|49=FOLEOAPI|52=20260619-02:47:39.674|56=FOLEOTRADER|10=034|8=FIXT.1.1|9=64|35=0|34=501|49=FOLEOAPI|52=20260619-02:47:59.823|56=FOLEOTRADER|10=033|8=FIXT.1.1|9=64|35=0|34=502|49=FOLEOAPI|52=20260619-02:48:19.942|56=FOLEOTRADER|10=033|8=FIXT.1.1|9=64|35=0|34=503|49=FOLEOAPI|52=20260619-02:48:40.074|56=FOLEOTRADER|10=024|8=FIXT.1.1|9=64|35=0|34=504|49=FOLEOAPI|52=20260619-02:49:00.225|56=FOLEOTRADER|10=020|8=FIXT.1.1|9=64|35=0|34=505|49=FOLEOAPI|52=20260619-02:49:20.379|56=FOLEOTRADER|10=033|8=FIXT.1.1|9=64|35=0|34=506|49=FOLEOAPI|52=20260619-02:49:40.527|56=FOLEOTRADER|10=031|8=FIXT.1.1|9=64|35=0|34=507|49=FOLEOAPI|52=20260619-02:50:00.680|56=FOLEOTRADER|10=020|8=FIXT.1.1|9=64|35=0|34=508|49=FOLEOAPI|52=20260619-02:50:20.839|56=FOLEOTRADER|10=029|8=FIXT.1.1|9=64|35=0|34=509|49=FOLEOAPI|52=20260619-02:50:40.998|56=FOLEOTRADER|10=038|8=FIXT.1.1|9=64|35=0|34=510|49=FOLEOAPI|52=20260619-02:51:01.157|56=FOLEOTRADER|10=015|8=FIXT.1.1|9=64|35=0|34=511|49=FOLEOAPI|52=20260619-02:51:21.314|56=FOLEOTRADER|10=013|8=FIXT.1.1|9=64|35=0|34=512|49=FOLEOAPI|52=20260619-02:51:41.448|56=FOLEOTRADER|10=024|8=FIXT.1.1|9=64|35=0|34=513|49=FOLEOAPI|52=20260619-02:52:01.544|56=FOLEOTRADER|10=019|8=FIXT.1.1|9=64|35=0|34=514|49=FOLEOAPI|52=20260619-02:52:21.686|56=FOLEOTRADER|10=029|8=FIXT.1.1|9=64|35=0|34=515|49=FOLEOAPI|52=20260619-02:52:41.825|56=FOLEOTRADER|10=027|8=FIXT.1.1|9=64|35=0|34=516|49=FOLEOAPI|52=20260619-02:53:01.949|56=FOLEOTRADER|10=032|8=FIXT.1.1|9=64|35=0|34=517|49=FOLEOAPI|52=20260619-02:53:22.074|56=FOLEOTRADER|10=025|8=FIXT.1.1|9=64|35=0|34=518|49=FOLEOAPI|52=20260619-02:53:42.203|56=FOLEOTRADER|10=022|8=FIXT.1.1|9=64|35=0|34=519|49=FOLEOAPI|52=20260619-02:54:02.369|56=FOLEOTRADER|10=033|8=FIXT.1.1|9=64|35=0|34=520|49=FOLEOAPI|52=20260619-02:54:22.485|56=FOLEOTRADER|10=026|8=FIXT.1.1|9=64|35=0|34=521|49=FOLEOAPI|52=20260619-02:54:42.632|56=FOLEOTRADER|10=023|8=FIXT.1.1|9=64|35=0|34=522|49=FOLEOAPI|52=20260619-02:55:02.770|56=FOLEOTRADER|10=024|8=FIXT.1.1|9=64|35=0|34=523|49=FOLEOAPI|52=20260619-02:55:22.927|56=FOLEOTRADER|10=031|8=FIXT.1.1|9=64|35=0|34=524|49=FOLEOAPI|52=20260619-02:55:43.072|56=FOLEOTRADER|10=026|8=FIXT.1.1|9=64|35=0|34=525|49=FOLEOAPI|52=20260619-02:56:03.200|56=FOLEOTRADER|10=017|8=FIXT.1.1|9=64|35=0|34=526|49=FOLEOAPI|52=20260619-02:56:23.348|56=FOLEOTRADER|10=033|8=FIXT.1.1|9=64|35=0|34=527|49=FOLEOAPI|52=20260619-02:56:43.485|56=FOLEOTRADER|10=038|8=FIXT.1.1|9=64|35=0|34=528|49=FOLEOAPI|52=20260619-02:57:03.637|56=FOLEOTRADER|10=035|8=FIXT.1.1|9=64|35=0|34=529|49=FOLEOAPI|52=20260619-02:57:23.764|56=FOLEOTRADER|10=039|8=FIXT.1.1|9=64|35=0|34=530|49=FOLEOAPI|52=20260619-02:57:43.915|56=FOLEOTRADER|10=031|8=FIXT.1.1|9=64|35=0|34=531|49=FOLEOAPI|52=20260619-02:58:04.080|56=FOLEOTRADER|10=023|8=FIXT.1.1|9=64|35=0|34=532|49=FOLEOAPI|52=20260619-02:58:24.208|56=FOLEOTRADER|10=028|8=FIXT.1.1|9=64|35=0|34=533|49=FOLEOAPI|52=20260619-02:58:44.369|56=FOLEOTRADER|10=039|8=FIXT.1.1|9=64|35=0|34=534|49=FOLEOAPI|52=20260619-02:59:04.514|56=FOLEOTRADER|10=029|8=FIXT.1.1|9=64|35=0|34=535|49=FOLEOAPI|52=20260619-02:59:24.713|56=FOLEOTRADER|10=033|8=FIXT.1.1|9=64|35=0|34=536|49=FOLEOAPI|52=20260619-02:59:44.860|56=FOLEOTRADER|10=039|8=FIXT.1.1|9=64|35=0|34=537|49=FOLEOAPI|52=20260619-03:00:05.001|56=FOLEOTRADER|10=011|8=FIXT.1.1|9=64|35=0|34=538|49=FOLEOAPI|52=20260619-03:00:25.155|56=FOLEOTRADER|10=024|8=FIXT.1.1|9=64|35=0|34=539|49=FOLEOAPI|52=20260619-03:00:45.281|56=FOLEOTRADER|10=027|8=FIXT.1.1|9=64|35=0|34=540|49=FOLEOAPI|52=20260619-03:01:05.443|56=FOLEOTRADER|10=016|8=FIXT.1.1|9=64|35=0|34=541|49=FOLEOAPI|52=20260619-03:01:25.602|56=FOLEOTRADER|10=016|8=FIXT.1.1|9=64|35=0|34=542|49=FOLEOAPI|52=20260619-03:01:45.729|56=FOLEOTRADER|10=029|8=FIXT.1.1|9=64|35=0|34=543|49=FOLEOAPI|52=20260619-03:02:05.880|56=FOLEOTRADER|10=025|8=FIXT.1.1|9=64|35=0|34=544|49=FOLEOAPI|52=20260619-03:02:25.997|56=FOLEOTRADER|10=037|8=FIXT.1.1|9=64|35=0|34=545|49=FOLEOAPI|52=20260619-03:02:46.149|56=FOLEOTRADER|10=030|8=FIXT.1.1|9=64|35=0|34=546|49=FOLEOAPI|52=20260619-03:03:06.291|56=FOLEOTRADER|10=026|8=FIXT.1.1|9=64|35=0|34=547|49=FOLEOAPI|52=20260619-03:03:26.440|56=FOLEOTRADER|10=025|8=FIXT.1.1|9=64|35=0|34=548|49=FOLEOAPI|52=20260619-03:03:46.577|56=FOLEOTRADER|10=039|8=FIXT.1.1|9=64|35=0|34=549|49=FOLEOAPI|52=20260619-03:04:06.697|56=FOLEOTRADER|10=040|8=FIXT.1.1|9=64|35=0|34=550|49=FOLEOAPI|52=20260619-03:04:26.859|56=FOLEOTRADER|10=034|8=FIXT.1.1|9=64|35=0|34=551|49=FOLEOAPI|52=20260619-03:04:47.022|56=FOLEOTRADER|10=020|8=FIXT.1.1|9=64|35=0|34=552|49=FOLEOAPI|52=20260619-03:05:07.163|56=FOLEOTRADER|10=024|8=FIXT.1.1|9=64|35=0|34=553|49=FOLEOAPI|52=20260619-03:05:27.335|56=FOLEOTRADER|10=028|8=FIXT.1.1|9=64|35=0|34=554|49=FOLEOAPI|52=20260619-03:05:47.473|56=FOLEOTRADER|10=034|8=FIXT.1.1|9=64|35=0|34=555|49=FOLEOAPI|52=20260619-03:06:07.631|56=FOLEOTRADER|10=028|8=FIXT.1.1|9=64|35=0|34=556|49=FOLEOAPI|52=20260619-03:06:27.763|56=FOLEOTRADER|10=037|8=FIXT.1.1|9=64|35=0|34=557|49=FOLEOAPI|52=20260619-03:06:47.904|56=FOLEOTRADER|10=037|8=FIXT.1.1|9=64|35=0|34=558|49=FOLEOAPI|52=20260619-03:07:08.053|56=FOLEOTRADER|10=031|8=FIXT.1.1|9=64|35=0|34=559|49=FOLEOAPI|52=20260619-03:07:28.209|56=FOLEOTRADER|10=037|8=FIXT.1.1|9=64|35=0|34=560|49=FOLEOAPI|52=20260619-03:07:48.348|56=FOLEOTRADER|10=035|8=FIXT.1.1|9=64|35=0|34=561|49=FOLEOAPI|52=20260619-03:08:08.517|56=FOLEOTRADER|10=031|8=FIXT.1.1|9=64|35=0|34=562|49=FOLEOAPI|52=20260619-03:08:28.653|56=FOLEOTRADER|10=035|8=FIXT.1.1|9=64|35=0|34=563|49=FOLEOAPI|52=20260619-03:08:48.833|56=FOLEOTRADER|10=038|8=FIXT.1.1|9=64|35=0|34=564|49=FOLEOAPI|52=20260619-03:09:08.988|56=FOLEOTRADER|10=047|8=FIXT.1.1|9=64|35=0|34=565|49=FOLEOAPI|52=20260619-03:09:29.197|56=FOLEOTRADER|10=043|8=FIXT.1.1|9=64|35=0|34=566|49=FOLEOAPI|52=20260619-03:09:49.308|56=FOLEOTRADER|10=040|8=FIXT.1.1|9=64|35=0|34=567|49=FOLEOAPI|52=20260619-03:10:09.407|56=FOLEOTRADER|10=029|8=FIXT.1.1|9=64|35=0|34=568|49=FOLEOAPI|52=20260619-03:10:29.524|56=FOLEOTRADER|10=032|8=FIXT.1.1|9=64|35=0|34=569|49=FOLEOAPI|52=20260619-03:10:49.645|56=FOLEOTRADER|10=039|8=FIXT.1.1|9=64|35=0|34=570|49=FOLEOAPI|52=20260619-03:11:09.782|56=FOLEOTRADER|10=030|8=FIXT.1.1|9=64|35=0|34=571|49=FOLEOAPI|52=20260619-03:11:29.887|56=FOLEOTRADER|10=039|8=FIXT.1.1|9=64|35=0|34=572|49=FOLEOAPI|52=20260619-03:11:49.999|56=FOLEOTRADER|10=046|8=FIXT.1.1|9=64|35=0|34=573|49=FOLEOAPI|52=20260619-03:12:10.165|56=FOLEOTRADER|10=021|8=FIXT.1.1|9=64|35=0|34=574|49=FOLEOAPI|52=20260619-03:12:30.303|56=FOLEOTRADER|10=018|8=FIXT.1.1|9=64|35=0|34=575|49=FOLEOAPI|52=20260619-03:12:50.432|56=FOLEOTRADER|10=024|8=FIXT.1.1|9=64|35=0|34=576|49=FOLEOAPI|52=20260619-03:13:10.562|56=FOLEOTRADER|10=026|8=FIXT.1.1|9=64|35=0|34=577|49=FOLEOAPI|52=20260619-03:13:30.682|56=FOLEOTRADER|10=032|8=FIXT.1.1|9=64|35=0|34=578|49=FOLEOAPI|52=20260619-03:13:50.811|56=FOLEOTRADER|10=029|8=FIXT.1.1|9=64|35=0|34=579|49=FOLEOAPI|52=20260619-03:14:10.936|56=FOLEOTRADER|10=035|8=FIXT.1.1|9=64|35=0|34=580|49=FOLEOAPI|52=20260619-03:14:31.080|56=FOLEOTRADER|10=020|8=FIXT.1.1|9=64|35=0|34=581|49=FOLEOAPI|52=20260619-03:14:51.189|56=FOLEOTRADER|10=033|8=FIXT.1.1|9=64|35=0|34=582|49=FOLEOAPI|52=20260619-03:15:11.289|56=FOLEOTRADER|10=032|8=FIXT.1.1|9=64|35=0|34=583|49=FOLEOAPI|52=20260619-03:15:31.415|56=FOLEOTRADER|10=026|8=FIXT.1.1|9=64|35=0|34=584|49=FOLEOAPI|52=20260619-03:15:51.567|56=FOLEOTRADER|10=037|8=FIXT.1.1|9=64|35=0|34=585|49=FOLEOAPI|52=20260619-03:16:11.734|56=FOLEOTRADER|10=031|8=FIXT.1.1|9=64|35=0|34=586|49=FOLEOAPI|52=20260619-03:16:31.831|56=FOLEOTRADER|10=032|8=FIXT.1.1|9=64|35=0|34=587|49=FOLEOAPI|52=20260619-03:16:51.989|56=FOLEOTRADER|10=049|8=FIXT.1.1|9=64|35=0|34=588|49=FOLEOAPI|52=20260619-03:17:12.079|56=FOLEOTRADER|10=038|8=FIXT.1.1|9=64|35=0|34=589|49=FOLEOAPI|52=20260619-03:17:32.233|56=FOLEOTRADER|10=033|8=FIXT.1.1|9=64|35=0|34=590|49=FOLEOAPI|52=20260619-03:17:52.355|56=FOLEOTRADER|10=032|8=FIXT.1.1|9=64|35=0|34=591|49=FOLEOAPI|52=20260619-03:18:12.500|56=FOLEOTRADER|10=022|8=FIXT.1.1|9=64|35=0|34=592|49=FOLEOAPI|52=20260619-03:18:32.645|56=FOLEOTRADER|10=035|8=FIXT.1.1|9=64|35=0|34=593|49=FOLEOAPI|52=20260619-03:18:52.774|56=FOLEOTRADER|10=041|8=FIXT.1.1|9=64|35=0|34=594|49=FOLEOAPI|52=20260619-03:19:12.971|56=FOLEOTRADER|10=038|8=FIXT.1.1|9=64|35=0|34=595|49=FOLEOAPI|52=20260619-03:19:33.086|56=FOLEOTRADER|10=039|8=FIXT.1.1|9=64|35=0|34=596|49=FOLEOAPI|52=20260619-03:19:53.256|56=FOLEOTRADER|10=041|8=FIXT.1.1|9=64|35=0|34=597|49=FOLEOAPI|52=20260619-03:20:13.438|56=FOLEOTRADER|10=032|8=FIXT.1.1|9=64|35=0|34=598|49=FOLEOAPI|52=20260619-03:20:33.601|56=FOLEOTRADER|10=027|8=FIXT.1.1|9=64|35=0|34=599|49=FOLEOAPI|52=20260619-03:20:53.771|56=FOLEOTRADER|10=038|8=FIXT.1.1|9=64|35=0|34=600|49=FOLEOAPI|52=20260619-03:21:13.907|56=FOLEOTRADER|10=019|8=FIXT.1.1|9=64|35=0|34=601|49=FOLEOAPI|52=20260619-03:21:34.029|56=FOLEOTRADER|10=018|8=FIXT.1.1|9=64|35=0|34=602|49=FOLEOAPI|52=20260619-03:21:54.166|56=FOLEOTRADER|10=023|8=FIXT.1.1|9=64|35=0|34=603|49=FOLEOAPI|52=20260619-03:22:14.326|56=FOLEOTRADER|10=019|8=FIXT.1.1|9=64|35=0|34=604|49=FOLEOAPI|52=20260619-03:22:34.477|56=FOLEOTRADER|10=029|8=FIXT.1.1|9=64|35=0|34=605|49=FOLEOAPI|52=20260619-03:22:54.634|56=FOLEOTRADER|10=027|8=FIXT.1.1|9=64|35=0|34=606|49=FOLEOAPI|52=20260619-03:23:14.758|56=FOLEOTRADER|10=032|8=FIXT.1.1|9=64|35=0|34=607|49=FOLEOAPI|52=20260619-03:23:34.913|56=FOLEOTRADER|10=028|8=FIXT.1.1|9=64|35=0|34=608|49=FOLEOAPI|52=20260619-03:23:55.067|56=FOLEOTRADER|10=032|8=FIXT.1.1|9=64|35=0|34=609|49=FOLEOAPI|52=20260619-03:24:15.229|56=FOLEOTRADER|10=030|8=FIXT.1.1|9=64|35=0|34=610|49=FOLEOAPI|52=20260619-03:24:35.367|56=FOLEOTRADER|10=027|8=FIXT.1.1|9=64|35=0|34=611|49=FOLEOAPI|52=20260619-03:24:55.469|56=FOLEOTRADER|10=033|8=FIXT.1.1|9=64|35=0|34=612|49=FOLEOAPI|52=20260619-03:25:15.623|56=FOLEOTRADER|10=023|8=FIXT.1.1|9=64|35=0|34=613|49=FOLEOAPI|52=20260619-03:25:35.777|56=FOLEOTRADER|10=036|8=FIXT.1.1|9=64|35=0|34=614|49=FOLEOAPI|52=20260619-03:25:55.928|56=FOLEOTRADER|10=037|8=FIXT.1.1|9=64|35=0|34=615|49=FOLEOAPI|52=20260619-03:26:16.050|56=FOLEOTRADER|10=022|8=FIXT.1.1|9=64|35=0|34=616|49=FOLEOAPI|52=20260619-03:26:36.195|56=FOLEOTRADER|10=035|8=FIXT.1.1|9=64|35=0|34=617|49=FOLEOAPI|52=20260619-03:26:56.335|56=FOLEOTRADER|10=034|8=FIXT.1.1|9=64|35=0|34=618|49=FOLEOAPI|52=20260619-03:27:16.498|56=FOLEOTRADER|10=042|8=FIXT.1.1|9=64|35=0|34=619|49=FOLEOAPI|52=20260619-03:27:36.673|56=FOLEOTRADER|10=040|8=FIXT.1.1|9=64|35=0|34=620|49=FOLEOAPI|52=20260619-03:27:56.823|56=FOLEOTRADER|10=031|8=FIXT.1.1|9=64|35=0|34=621|49=FOLEOAPI|52=20260619-03:28:16.960|56=FOLEOTRADER|10=031|8=FIXT.1.1|9=64|35=0|34=622|49=FOLEOAPI|52=20260619-03:28:37.077|56=FOLEOTRADER|10=034|8=FIXT.1.1|9=64|35=0|34=623|49=FOLEOAPI|52=20260619-03:28:57.239|56=FOLEOTRADER|10=037|8=FIXT.1.1|9=64|35=0|34=624|49=FOLEOAPI|52=20260619-03:29:17.415|56=FOLEOTRADER|10=031|8=FIXT.1.1|9=64|35=0|34=625|49=FOLEOAPI|52=20260619-03:29:37.562|56=FOLEOTRADER|10=037|8=FIXT.1.1|9=64|35=0|34=626|49=FOLEOAPI|52=20260619-03:29:57.737|56=FOLEOTRADER|10=044|8=FIXT.1.1|9=64|35=0|34=627|49=FOLEOAPI|52=20260619-03:30:17.872|56=FOLEOTRADER|10=033|8=FIXT.1.1|9=64|35=0|34=628|49=FOLEOAPI|52=20260619-03:30:38.045|56=FOLEOTRADER|10=029|8=FIXT.1.1|9=64|35=0|34=629|49=FOLEOAPI|52=20260619-03:30:58.229|56=FOLEOTRADER|10=036|8=FIXT.1.1|9=64|35=0|34=630|49=FOLEOAPI|52=20260619-03:31:18.404|56=FOLEOTRADER|10=020|8=FIXT.1.1|9=64|35=0|34=631|49=FOLEOAPI|52=20260619-03:31:38.586|56=FOLEOTRADER|10=034|8=FIXT.1.1|9=64|35=0|34=632|49=FOLEOAPI|52=20260619-03:31:58.750|56=FOLEOTRADER|10=030|8=FIXT.1.1|9=64|35=0|34=633|49=FOLEOAPI|52=20260619-03:32:18.923|56=FOLEOTRADER|10=030|8=FIXT.1.1|9=64|35=0|34=634|49=FOLEOAPI|52=20260619-03:32:39.101|56=FOLEOTRADER|10=022|8=FIXT.1.1|9=64|35=0|34=635|49=FOLEOAPI|52=20260619-03:32:59.246|56=FOLEOTRADER|10=035|8=FIXT.1.1|9=64|35=0|34=636|49=FOLEOAPI|52=20260619-03:33:19.397|56=FOLEOTRADER|10=040|8=FIXT.1.1|9=64|35=0|34=637|49=FOLEOAPI|52=20260619-03:33:39.608|56=FOLEOTRADER|10=038|8=FIXT.1.1|9=64|35=0|34=638|49=FOLEOAPI|52=20260619-03:33:59.795|56=FOLEOTRADER|10=048|8=FIXT.1.1|9=64|35=0|34=639|49=FOLEOAPI|52=20260619-03:34:19.982|56=FOLEOTRADER|10=044|8=FIXT.1.1|9=64|35=0|34=640|49=FOLEOAPI|52=20260619-03:34:40.174|56=FOLEOTRADER|10=023|8=FIXT.1.1|9=64|35=0|34=641|49=FOLEOAPI|52=20260619-03:35:00.336|56=FOLEOTRADER|10=021|8=FIXT.1.1|9=64|35=0|34=642|49=FOLEOAPI|52=20260619-03:35:20.518|56=FOLEOTRADER|10=026|8=FIXT.1.1|9=64|35=0|34=643|49=FOLEOAPI|52=20260619-03:35:40.670|56=FOLEOTRADER|10=028|8=FIXT.1.1|9=64|35=0|34=644|49=FOLEOAPI|52=20260619-03:36:00.838|56=FOLEOTRADER|10=032|8=FIXT.1.1|9=64|35=0|34=645|49=FOLEOAPI|52=20260619-03:36:20.989|56=FOLEOTRADER|10=042|8=FIXT.1.1|9=64|35=0|34=646|49=FOLEOAPI|52=20260619-03:36:41.139|56=FOLEOTRADER|10=033|8=FIXT.1.1|9=64|35=0|34=647|49=FOLEOAPI|52=20260619-03:37:01.306|56=FOLEOTRADER|10=027|8=FIXT.1.1|9=64|35=0|34=648|49=FOLEOAPI|52=20260619-03:37:21.424|56=FOLEOTRADER|10=031|8=FIXT.1.1|9=64|35=0|34=649|49=FOLEOAPI|52=20260619-03:37:41.562|56=FOLEOTRADER|10=037|8=FIXT.1.1|9=64|35=0|34=650|49=FOLEOAPI|52=20260619-03:38:01.682|56=FOLEOTRADER|10=029|8=FIXT.1.1|9=64|35=0|34=651|49=FOLEOAPI|52=20260619-03:38:21.813|56=FOLEOTRADER|10=028|8=FIXT.1.1|9=64|35=0|34=652|49=FOLEOAPI|52=20260619-03:38:41.946|56=FOLEOTRADER|10=038|8=FIXT.1.1|9=64|35=0|34=653|49=FOLEOAPI|52=20260619-03:39:02.080|56=FOLEOTRADER|10=026|8=FIXT.1.1|9=64|35=0|34=654|49=FOLEOAPI|52=20260619-03:39:22.379|56=FOLEOTRADER|10=040|8=FIXT.1.1|9=64|35=0|34=655|49=FOLEOAPI|52=20260619-03:39:42.539|56=FOLEOTRADER|10=041|8=FIXT.1.1|9=64|35=0|34=656|49=FOLEOAPI|52=20260619-03:40:02.644|56=FOLEOTRADER|10=027|8=FIXT.1.1|9=64|35=0|34=657|49=FOLEOAPI|52=20260619-03:40:22.807|56=FOLEOTRADER|10=031|8=FIXT.1.1|9=64|35=0|34=658|49=FOLEOAPI|52=20260619-03:40:42.936|56=FOLEOTRADER|10=037|8=FIXT.1.1|9=64|35=0|34=659|49=FOLEOAPI|52=20260619-03:41:03.066|56=FOLEOTRADER|10=030|8=FIXT.1.1|9=64|35=0|34=660|49=FOLEOAPI|52=20260619-03:41:23.206|56=FOLEOTRADER|10=020|8=FIXT.1.1|9=64|35=0|34=661|49=FOLEOAPI|52=20260619-03:41:43.349|56=FOLEOTRADER|10=031|8=FIXT.1.1|9=64|35=0|34=662|49=FOLEOAPI|52=20260619-03:42:03.479|56=FOLEOTRADER|10=033|8=FIXT.1.1|9=64|35=0|34=663|49=FOLEOAPI|52=20260619-03:42:23.635|56=FOLEOTRADER|10=030|8=FIXT.1.1|9=64|35=0|34=664|49=FOLEOAPI|52=20260619-03:42:43.786|56=FOLEOTRADER|10=040|8=FIXT.1.1|9=64|35=0|34=665|49=FOLEOAPI|52=20260619-03:43:03.913|56=FOLEOTRADER|10=030|8=FIXT.1.1|9=64|35=0|34=666|49=FOLEOAPI|52=20260619-03:43:24.024|56=FOLEOTRADER|10=027|8=FIXT.1.1|9=64|35=0|34=667|49=FOLEOAPI|52=20260619-03:43:44.178|56=FOLEOTRADER|10=040|8=FIXT.1.1|9=64|35=0|34=668|49=FOLEOAPI|52=20260619-03:44:04.323|56=FOLEOTRADER|10=030|8=FIXT.1.1|9=64|35=0|34=669|49=FOLEOAPI|52=20260619-03:44:24.452|56=FOLEOTRADER|10=036|8=FIXT.1.1|9=64|35=0|34=670|49=FOLEOAPI|52=20260619-03:44:44.610|56=FOLEOTRADER|10=026|8=FIXT.1.1|9=64|35=0|34=671|49=FOLEOAPI|52=20260619-03:45:04.743|56=FOLEOTRADER|10=031|8=FIXT.1.1|9=64|35=0|34=672|49=FOLEOAPI|52=20260619-03:45:24.903|56=FOLEOTRADER|10=032|8=FIXT.1.1|9=64|35=0|34=673|49=FOLEOAPI|52=20260619-03:45:45.061|56=FOLEOTRADER|10=031|8=FIXT.1.1|9=64|35=0|34=674|49=FOLEOAPI|52=20260619-03:46:05.202|56=FOLEOTRADER|10=026|8=FIXT.1.1|9=64|35=0|34=675|49=FOLEOAPI|52=20260619-03:46:25.346|56=FOLEOTRADER|10=038|8=FIXT.1.1|9=64|35=0|34=676|49=FOLEOAPI|52=20260619-03:46:45.489|56=FOLEOTRADER|10=049|8=FIXT.1.1|9=64|35=0|34=677|49=FOLEOAPI|52=20260619-03:47:05.617|56=FOLEOTRADER|10=040|8=FIXT.1.1|9=64|35=0|34=678|49=FOLEOAPI|52=20260619-03:47:25.746|56=FOLEOTRADER|10=046|8=FIXT.1.1|9=64|35=0|34=679|49=FOLEOAPI|52=20260619-03:47:45.881|56=FOLEOTRADER|10=049|8=FIXT.1.1|9=64|35=0|34=680|49=FOLEOAPI|52=20260619-03:48:06.052|56=FOLEOTRADER|10=029|8=FIXT.1.1|9=64|35=0|34=681|49=FOLEOAPI|52=20260619-03:48:26.211|56=FOLEOTRADER|10=029|8=FIXT.1.1|9=64|35=0|34=682|49=FOLEOAPI|52=20260619-03:48:46.334|56=FOLEOTRADER|10=038|8=FIXT.1.1|9=64|35=0|34=683|49=FOLEOAPI|52=20260619-03:49:06.483|56=FOLEOTRADER|10=041|8=FIXT.1.1|9=64|35=0|34=684|49=FOLEOAPI|52=20260619-03:49:26.667|56=FOLEOTRADER|10=048|8=FIXT.1.1|9=64|35=0|34=685|49=FOLEOAPI|52=20260619-03:49:46.793|56=FOLEOTRADER|10=051|8=FIXT.1.1|9=64|35=0|34=686|49=FOLEOAPI|52=20260619-03:50:06.946|56=FOLEOTRADER|10=040|8=FIXT.1.1|9=64|35=0|34=687|49=FOLEOAPI|52=20260619-03:50:27.058|56=FOLEOTRADER|10=038|8=FIXT.1.1|9=64|35=0|34=688|49=FOLEOAPI|52=20260619-03:50:47.201|56=FOLEOTRADER|10=031|8=FIXT.1.1|9=64|35=0|34=689|49=FOLEOAPI|52=20260619-03:51:07.354|56=FOLEOTRADER|10=038|8=FIXT.1.1|9=64|35=0|34=690|49=FOLEOAPI|52=20260619-03:51:27.478|56=FOLEOTRADER|10=039|8=FIXT.1.1|9=64|35=0|34=691|49=FOLEOAPI|52=20260619-03:51:47.612|56=FOLEOTRADER|10=032|8=FIXT.1.1|9=64|35=0|34=692|49=FOLEOAPI|52=20260619-03:52:07.752|56=FOLEOTRADER|10=035|8=FIXT.1.1|9=64|35=0|34=693|49=FOLEOAPI|52=20260619-03:52:27.902|56=FOLEOTRADER|10=035|8=FIXT.1.1|9=64|35=0|34=694|49=FOLEOAPI|52=20260619-03:52:48.041|56=FOLEOTRADER|10=033|8=FIXT.1.1|9=64|35=0|34=695|49=FOLEOAPI|52=20260619-03:53:08.208|56=FOLEOTRADER|10=036|8=FIXT.1.1|9=64|35=0|34=696|49=FOLEOAPI|52=20260619-03:53:28.353|56=FOLEOTRADER|10=040|8=FIXT.1.1|9=64|35=0|34=697|49=FOLEOAPI|52=20260619-03:53:48.470|56=FOLEOTRADER|10=043|8=FIXT.1.1|9=64|35=0|34=698|49=FOLEOAPI|52=20260619-03:54:08.620|56=FOLEOTRADER|10=038|8=FIXT.1.1|9=64|35=0|34=699|49=FOLEOAPI|52=20260619-03:54:28.801|56=FOLEOTRADER|10=042|8=FIXT.1.1|9=64|35=0|34=700|49=FOLEOAPI|52=20260619-03:54:48.968|56=FOLEOTRADER|10=041|8=FIXT.1.1|9=64|35=0|34=701|49=FOLEOAPI|52=20260619-03:55:09.103|56=FOLEOTRADER|10=021|8=FIXT.1.1|9=64|35=0|34=702|49=FOLEOAPI|52=20260619-03:55:29.215|56=FOLEOTRADER|10=028|8=FIXT.1.1|9=64|35=0|34=703|49=FOLEOAPI|52=20260619-03:55:49.346|56=FOLEOTRADER|10=036|8=FIXT.1.1|9=64|35=0|34=704|49=FOLEOAPI|52=20260619-03:56:09.495|56=FOLEOTRADER|10=039|8=FIXT.1.1|9=64|35=0|34=705|49=FOLEOAPI|52=20260619-03:56:29.617|56=FOLEOTRADER|10=038|8=FIXT.1.1|9=64|35=0|34=706|49=FOLEOAPI|52=20260619-03:56:49.760|56=FOLEOTRADER|10=040|8=FIXT.1.1|9=64|35=0|34=707|49=FOLEOAPI|52=20260619-03:57:09.903|56=FOLEOTRADER|10=037|8=FIXT.1.1|9=64|35=0|34=708|49=FOLEOAPI|52=20260619-03:57:30.065|56=FOLEOTRADER|10=031|8=FIXT.1.1|9=64|35=0|34=709|49=FOLEOAPI|52=20260619-03:57:50.202|56=FOLEOTRADER|10=027|8=FIXT.1.1|9=64|35=0|34=710|49=FOLEOAPI|52=20260619-03:58:10.314|56=FOLEOTRADER|10=020|8=FIXT.1.1|9=64|35=0|34=711|49=FOLEOAPI|52=20260619-03:58:30.469|56=FOLEOTRADER|10=034|8=FIXT.1.1|9=64|35=0|34=712|49=FOLEOAPI|52=20260619-03:58:50.635|56=FOLEOTRADER|10=032|8=FIXT.1.1|9=64|35=0|34=713|49=FOLEOAPI|52=20260619-03:59:10.814|56=FOLEOTRADER|10=029|8=FIXT.1.1|9=64|35=0|34=714|49=FOLEOAPI|52=20260619-03:59:30.995|56=FOLEOTRADER|10=042|8=FIXT.1.1|9=64|35=0|34=715|49=FOLEOAPI|52=20260619-03:59:51.143|56=FOLEOTRADER|10=031|8=FIXT.1.1|9=64|35=0|34=716|49=FOLEOAPI|52=20260619-04:00:11.274|56=FOLEOTRADER|10=020|8=FIXT.1.1|9=64|35=0|34=717|49=FOLEOAPI|52=20260619-04:00:31.401|56=FOLEOTRADER|10=015|8=FIXT.1.1|9=64|35=0|34=718|49=FOLEOAPI|52=20260619-04:00:51.496|56=FOLEOTRADER|10=032|8=FIXT.1.1|9=64|35=0|34=719|49=FOLEOAPI|52=20260619-04:01:11.628|56=FOLEOTRADER|10=027|8=FIXT.1.1|9=64|35=0|34=720|49=FOLEOAPI|52=20260619-04:01:31.795|56=FOLEOTRADER|10=026|8=FIXT.1.1|9=64|35=0|34=721|49=FOLEOAPI|52=20260619-04:01:51.956|56=FOLEOTRADER|10=028|8=FIXT.1.1|9=64|35=0|34=722|49=FOLEOAPI|52=20260619-04:02:12.089|56=FOLEOTRADER|10=024|8=FIXT.1.1|9=64|35=0|34=723|49=FOLEOAPI|52=20260619-04:02:32.247|56=FOLEOTRADER|10=023|8=FIXT.1.1|9=64|35=0|34=724|49=FOLEOAPI|52=20260619-04:02:52.386|56=FOLEOTRADER|10=030|8=FIXT.1.1|9=64|35=0|34=725|49=FOLEOAPI|52=20260619-04:03:12.536|56=FOLEOTRADER|10=025|8=FIXT.1.1|9=64|35=0|34=726|49=FOLEOAPI|52=20260619-04:03:32.685|56=FOLEOTRADER|10=033|8=FIXT.1.1|9=64|35=0|34=727|49=FOLEOAPI|52=20260619-04:03:52.843|56=FOLEOTRADER|10=032|8=FIXT.1.1|9=64|35=0|34=728|49=FOLEOAPI|52=20260619-04:04:12.975|56=FOLEOTRADER|10=036|8=FIXT.1.1|9=64|35=0|34=729|49=FOLEOAPI|52=20260619-04:04:33.101|56=FOLEOTRADER|10=021|8=FIXT.1.1|9=64|35=0|34=730|49=FOLEOAPI|52=20260619-04:04:53.247|56=FOLEOTRADER|10=026|8=FIXT.1.1|9=64|35=0|34=731|49=FOLEOAPI|52=20260619-04:05:13.391|56=FOLEOTRADER|10=024|8=FIXT.1.1|9=64|35=0|34=732|49=FOLEOAPI|52=20260619-04:05:33.516|56=FOLEOTRADER|10=026|8=FIXT.1.1|9=64|35=0|34=733|49=FOLEOAPI|52=20260619-04:05:53.679|56=FOLEOTRADER|10=039|8=FIXT.1.1|9=64|35=0|34=734|49=FOLEOAPI|52=20260619-04:06:13.832|56=FOLEOTRADER|10=028|8=FIXT.1.1|9=64|35=0|34=735|49=FOLEOAPI|52=20260619-04:06:33.974|56=FOLEOTRADER|10=038|8=FIXT.1.1|9=64|35=0|34=736|49=FOLEOAPI|52=20260619-04:06:54.139|56=FOLEOTRADER|10=035|8=FIXT.1.1|9=64|35=0|34=737|49=FOLEOAPI|52=20260619-04:07:14.282|56=FOLEOTRADER|10=032|8=FIXT.1.1|9=64|35=0|34=738|49=FOLEOAPI|52=20260619-04:07:34.435|56=FOLEOTRADER|10=035|8=FIXT.1.1|9=64|35=0|34=739|49=FOLEOAPI|52=20260619-04:07:54.602|56=FOLEOTRADER|10=034|8=FIXT.1.1|9=64|35=0|34=740|49=FOLEOAPI|52=20260619-04:08:14.730|56=FOLEOTRADER|10=025|8=FIXT.1.1|9=64|35=0|34=741|49=FOLEOAPI|52=20260619-04:08:34.882|56=FOLEOTRADER|10=036|8=FIXT.1.1|9=64|35=0|34=742|49=FOLEOAPI|52=20260619-04:08:55.027|56=FOLEOTRADER|10=031|8=FIXT.1.1|9=64|35=0|34=743|49=FOLEOAPI|52=20260619-04:09:15.241|56=FOLEOTRADER|10=027|8=FIXT.1.1|9=64|35=0|34=744|49=FOLEOAPI|52=20260619-04:09:35.393|56=FOLEOTRADER|10=038|8=FIXT.1.1|9=64|35=0|34=745|49=FOLEOAPI|52=20260619-04:09:55.525|56=FOLEOTRADER|10=038|8=FIXT.1.1|9=64|35=0|34=746|49=FOLEOAPI|52=20260619-04:10:15.659|56=FOLEOTRADER|10=035|8=FIXT.1.1|9=64|35=0|34=747|49=FOLEOAPI|52=20260619-04:10:35.819|56=FOLEOTRADER|10=036|8=FIXT.1.1|9=64|35=0|34=748|49=FOLEOAPI|52=20260619-04:10:55.923|56=FOLEOTRADER|10=035|8=FIXT.1.1|9=64|35=0|34=749|49=FOLEOAPI|52=20260619-04:11:16.045|56=FOLEOTRADER|10=029|8=FIXT.1.1|9=64|35=0|34=750|49=FOLEOAPI|52=20260619-04:11:36.157|56=FOLEOTRADER|10=027|8=FIXT.1.1|9=64|35=0|34=751|49=FOLEOAPI|52=20260619-04:11:56.267|56=FOLEOTRADER|10=032|8=FIXT.1.1|9=64|35=0|34=752|49=FOLEOAPI|52=20260619-04:12:16.411|56=FOLEOTRADER|10=021|8=FIXT.1.1|9=64|35=0|34=753|49=FOLEOAPI|52=20260619-04:12:36.556|56=FOLEOTRADER|10=034|8=FIXT.1.1|9=64|35=0|34=754|49=FOLEOAPI|52=20260619-04:12:56.666|56=FOLEOTRADER|10=039|8=FIXT.1.1|9=64|35=0|34=755|49=FOLEOAPI|52=20260619-04:13:16.838|56=FOLEOTRADER|10=038|8=FIXT.1.1|9=64|35=0|34=756|49=FOLEOAPI|52=20260619-04:13:36.993|56=FOLEOTRADER|10=043|8=FIXT.1.1|9=64|35=0|34=757|49=FOLEOAPI|52=20260619-04:13:57.122|56=FOLEOTRADER|10=031|8=FIXT.1.1|9=64|35=0|34=758|49=FOLEOAPI|52=20260619-04:14:17.239|56=FOLEOTRADER|10=038|8=FIXT.1.1|9=64|35=0|34=759|49=FOLEOAPI|52=20260619-04:14:37.326|56=FOLEOTRADER|10=038|8=FIXT.1.1|9=64|35=0|34=760|49=FOLEOAPI|52=20260619-04:14:57.454|56=FOLEOTRADER|10=034|8=FIXT.1.1|9=64|35=0|34=761|49=FOLEOAPI|52=20260619-04:15:17.603|56=FOLEOTRADER|10=028|8=FIXT.1.1|9=64|35=0|34=762|49=FOLEOAPI|52=20260619-04:15:37.732|56=FOLEOTRADER|10=034|8=FIXT.1.1|9=64|35=0|34=763|49=FOLEOAPI|52=20260619-04:15:57.847|56=FOLEOTRADER|10=044|8=FIXT.1.1|9=64|35=0|34=764|49=FOLEOAPI|52=20260619-04:16:17.989|56=FOLEOTRADER|10=049|8=FIXT.1.1|9=64|35=0|34=765|49=FOLEOAPI|52=20260619-04:16:38.090|56=FOLEOTRADER|10=036|8=FIXT.1.1|9=64|35=0|34=766|49=FOLEOAPI|52=20260619-04:16:58.211|56=FOLEOTRADER|10=034|8=FIXT.1.1|9=64|35=0|34=767|49=FOLEOAPI|52=20260619-04:17:18.367|56=FOLEOTRADER|10=044|8=FIXT.1.1|9=64|35=0|34=768|49=FOLEOAPI|52=20260619-04:17:38.548|56=FOLEOTRADER|10=048|8=FIXT.1.1|9=64|35=0|34=769|49=FOLEOAPI|52=20260619-04:17:58.711|56=FOLEOTRADER|10=043|8=FIXT.1.1|9=64|35=0|34=770|49=FOLEOAPI|52=20260619-04:18:18.848|56=FOLEOTRADER|10=043|8=FIXT.1.1|9=64|35=0|34=771|49=FOLEOAPI|52=20260619-04:18:38.964|56=FOLEOTRADER|10=045|8=FIXT.1.1|9=64|35=0|34=772|49=FOLEOAPI|52=20260619-04:18:59.129|56=FOLEOTRADER|10=042|8=FIXT.1.1|9=64|35=0|34=773|49=FOLEOAPI|52=20260619-04:19:19.246|56=FOLEOTRADER|10=040|8=FIXT.1.1|9=64|35=0|34=774|49=FOLEOAPI|52=20260619-04:19:39.399|56=FOLEOTRADER|10=052|8=FIXT.1.1|9=64|35=0|34=775|49=FOLEOAPI|52=20260619-04:19:59.508|56=FOLEOTRADER|10=047|8=FIXT.1.1|9=64|35=0|34=776|49=FOLEOAPI|52=20260619-04:20:19.655|56=FOLEOTRADER|10=039|8=FIXT.1.1|9=64|35=0|34=777|49=FOLEOAPI|52=20260619-04:20:39.785|56=FOLEOTRADER|10=046|8=FIXT.1.1|9=64|35=0|34=778|49=FOLEOAPI|52=20260619-04:20:59.942|56=FOLEOTRADER|10=044|8=FIXT.1.1|9=64|35=0|34=779|49=FOLEOAPI|52=20260619-04:21:20.089|56=FOLEOTRADER|10=036|8=FIXT.1.1|9=64|35=0|34=780|49=FOLEOAPI|52=20260619-04:21:40.231|56=FOLEOTRADER|10=019|8=FIXT.1.1|9=64|35=0|34=781|49=FOLEOAPI|52=20260619-04:22:00.388|56=FOLEOTRADER|10=030|8=FIXT.1.1|9=64|35=0|34=782|49=FOLEOAPI|52=20260619-04:22:20.537|56=FOLEOTRADER|10=029|8=FIXT.1.1|9=64|35=0|34=783|49=FOLEOAPI|52=20260619-04:22:40.709|56=FOLEOTRADER|10=033|8=FIXT.1.1|9=64|35=0|34=784|49=FOLEOAPI|52=20260619-04:23:00.849|56=FOLEOTRADER|10=036|8=FIXT.1.1|9=64|35=0|34=785|49=FOLEOAPI|52=20260619-04:23:20.984|56=FOLEOTRADER|10=039|8=FIXT.1.1|9=64|35=0|34=786|49=FOLEOAPI|52=20260619-04:23:41.128|56=FOLEOTRADER|10=033|8=FIXT.1.1|9=64|35=0|34=787|49=FOLEOAPI|52=20260619-04:24:01.293|56=FOLEOTRADER|10=034|8=FIXT.1.1|9=64|35=0|34=788|49=FOLEOAPI|52=20260619-04:24:21.442|56=FOLEOTRADER|10=033|8=FIXT.1.1|9=64|35=0|34=789|49=FOLEOAPI|52=20260619-04:24:41.583|56=FOLEOTRADER|10=042|8=FIXT.1.1|9=64|35=0|34=790|49=FOLEOAPI|52=20260619-04:25:01.732|56=FOLEOTRADER|10=027|8=FIXT.1.1|9=64|35=0|34=791|49=FOLEOAPI|52=20260619-04:25:21.888|56=FOLEOTRADER|10=042|8=FIXT.1.1|9=64|35=0|34=792|49=FOLEOAPI|52=20260619-04:25:42.043|56=FOLEOTRADER|10=029|8=FIXT.1.1|9=64|35=0|34=793|49=FOLEOAPI|52=20260619-04:26:02.188|56=FOLEOTRADER|10=037|8=FIXT.1.1|9=64|35=0|34=794|49=FOLEOAPI|52=20260619-04:26:22.333|56=FOLEOTRADER|10=032|8=FIXT.1.1|9=64|35=0|34=795|49=FOLEOAPI|52=20260619-04:26:42.488|56=FOLEOTRADER|10=046|8=FIXT.1.1|9=64|35=0|34=796|49=FOLEOAPI|52=20260619-04:27:02.596|56=FOLEOTRADER|10=044|8=FIXT.1.1|9=64|35=0|34=797|49=FOLEOAPI|52=20260619-04:27:22.752|56=FOLEOTRADER|10=041|8=FIXT.1.1|9=64|35=0|34=798|49=FOLEOAPI|52=20260619-04:27:42.908|56=FOLEOTRADER|10=047|8=FIXT.1.1|9=64|35=0|34=799|49=FOLEOAPI|52=20260619-04:28:03.031|56=FOLEOTRADER|10=033|8=FIXT.1.1|9=64|35=0|34=800|49=FOLEOAPI|52=20260619-04:28:23.161|56=FOLEOTRADER|10=022|8=FIXT.1.1|9=64|35=0|34=801|49=FOLEOAPI|52=20260619-04:28:43.300|56=FOLEOTRADER|10=020|8=FIXT.1.1|9=64|35=0|34=802|49=FOLEOAPI|52=20260619-04:29:03.463|56=FOLEOTRADER|10=028|8=FIXT.1.1|9=64|35=0|34=803|49=FOLEOAPI|52=20260619-04:29:23.663|56=FOLEOTRADER|10=033|8=FIXT.1.1|9=64|35=0|34=804|49=FOLEOAPI|52=20260619-04:29:43.786|56=FOLEOTRADER|10=042|8=FIXT.1.1|9=64|35=0|34=805|49=FOLEOAPI|52=20260619-04:30:03.927|56=FOLEOTRADER|10=028|8=FIXT.1.1|9=64|35=0|34=806|49=FOLEOAPI|52=20260619-04:30:24.066|56=FOLEOTRADER|10=026|8=FIXT.1.1|9=64|35=0|34=807|49=FOLEOAPI|52=20260619-04:30:44.241|56=FOLEOTRADER|10=024|8=FIXT.1.1|9=64|35=0|34=808|49=FOLEOAPI|52=20260619-04:31:04.375|56=FOLEOTRADER|10=030|8=FIXT.1.1|9=64|35=0|34=809|49=FOLEOAPI|52=20260619-04:31:24.511|56=FOLEOTRADER|10=025|8=FIXT.1.1|9=64|35=0|34=810|49=FOLEOAPI|52=20260619-04:31:44.601|56=FOLEOTRADER|10=019|8=FIXT.1.1|9=64|35=0|34=811|49=FOLEOAPI|52=20260619-04:32:04.717|56=FOLEOTRADER|10=025|8=FIXT.1.1|9=64|35=0|34=812|49=FOLEOAPI|52=20260619-04:32:24.885|56=FOLEOTRADER|10=034|8=FIXT.1.1|9=64|35=0|34=813|49=FOLEOAPI|52=20260619-04:32:45.021|56=FOLEOTRADER|10=020|8=FIXT.1.1|9=64|35=0|34=814|49=FOLEOAPI|52=20260619-04:33:05.155|56=FOLEOTRADER|10=026|8=FIXT.1.1|9=64|35=0|34=815|49=FOLEOAPI|52=20260619-04:33:25.247|56=FOLEOTRADER|10=031|8=FIXT.1.1|9=64|35=0|34=816|49=FOLEOAPI|52=20260619-04:33:45.362|56=FOLEOTRADER|10=032|8=FIXT.1.1|9=64|35=0|34=817|49=FOLEOAPI|52=20260619-04:34:05.535|56=FOLEOTRADER|10=032|8=FIXT.1.1|9=64|35=0|34=818|49=FOLEOAPI|52=20260619-04:34:25.659|56=FOLEOTRADER|10=042|8=FIXT.1.1|9=64|35=0|34=819|49=FOLEOAPI|52=20260619-04:34:45.822|56=FOLEOTRADER|10=037|8=FIXT.1.1|9=64|35=0|34=820|49=FOLEOAPI|52=20260619-04:35:05.930|56=FOLEOTRADER|10=026|8=FIXT.1.1|9=64|35=0|34=821|49=FOLEOAPI|52=20260619-04:35:26.047|56=FOLEOTRADER|10=029|8=FIXT.1.1|9=64|35=0|34=822|49=FOLEOAPI|52=20260619-04:35:46.176|56=FOLEOTRADER|10=035|8=FIXT.1.1|9=64|35=0|34=823|49=FOLEOAPI|52=20260619-04:36:06.316|56=FOLEOTRADER|10=029|8=FIXT.1.1|9=64|35=0|34=824|49=FOLEOAPI|52=20260619-04:36:26.473|56=FOLEOTRADER|10=036|8=FIXT.1.1|9=64|35=0|34=825|49=FOLEOAPI|52=20260619-04:36:46.596|56=FOLEOTRADER|10=045|8=FIXT.1.1|9=64|35=0|34=826|49=FOLEOAPI|52=20260619-04:37:06.723|56=FOLEOTRADER|10=035|8=FIXT.1.1|9=64|35=0|34=827|49=FOLEOAPI|52=20260619-04:37:26.900|56=FOLEOTRADER|10=035|8=FIXT.1.1|9=64|35=0|34=828|49=FOLEOAPI|52=20260619-04:37:47.061|56=FOLEOTRADER|10=037|8=FIXT.1.1|9=64|35=0|34=829|49=FOLEOAPI|52=20260619-04:38:07.176|56=FOLEOTRADER|10=042|8=FIXT.1.1|9=64|35=0|34=830|49=FOLEOAPI|52=20260619-04:38:27.306|56=FOLEOTRADER|10=031|8=FIXT.1.1|9=64|35=0|34=831|49=FOLEOAPI|52=20260619-04:38:47.476|56=FOLEOTRADER|10=042|8=FIXT.1.1|9=64|35=0|34=832|49=FOLEOAPI|52=20260619-04:39:07.618|56=FOLEOTRADER|10=038|8=FIXT.1.1|9=64|35=0|34=833|49=FOLEOAPI|52=20260619-04:39:27.750|56=FOLEOTRADER|10=038|8=FIXT.1.1|9=64|35=0|34=834|49=FOLEOAPI|52=20260619-04:39:47.900|56=FOLEOTRADER|10=038|8=FIXT.1.1|9=64|35=0|34=835|49=FOLEOAPI|52=20260619-04:40:08.061|56=FOLEOTRADER|10=026|8=FIXT.1.1|9=64|35=0|34=836|49=FOLEOAPI|52=20260619-04:40:28.191|56=FOLEOTRADER|10=033|8=FIXT.1.1|9=64|35=0|34=837|49=FOLEOAPI|52=20260619-04:40:48.319|56=FOLEOTRADER|10=038|8=FIXT.1.1|9=64|35=0|34=838|49=FOLEOAPI|52=20260619-04:41:08.468|56=FOLEOTRADER|10=041|8=FIXT.1.1|9=64|35=0|34=839|49=FOLEOAPI|52=20260619-04:41:28.637|56=FOLEOTRADER|10=042|8=FIXT.1.1|9=64|35=0|34=840|49=FOLEOAPI|52=20260619-04:41:48.767|56=FOLEOTRADER|10=040|8=FIXT.1.1|9=64|35=0|34=841|49=FOLEOAPI|52=20260619-04:42:08.897|56=FOLEOTRADER|10=042|8=FIXT.1.1|9=64|35=0|34=842|49=FOLEOAPI|52=20260619-04:42:29.049|56=FOLEOTRADER|10=035|8=FIXT.1.1|9=64|35=0|34=843|49=FOLEOAPI|52=20260619-04:42:49.214|56=FOLEOTRADER|10=032|8=FIXT.1.1|9=64|35=0|34=844|49=FOLEOAPI|52=20260619-04:43:09.390|56=FOLEOTRADER|10=035|8=FIXT.1.1|9=64|35=0|34=845|49=FOLEOAPI|52=20260619-04:43:29.529|56=FOLEOTRADER|10=042|8=FIXT.1.1|9=64|35=0|34=846|49=FOLEOAPI|52=20260619-04:43:49.707|56=FOLEOTRADER|10=043|8=FIXT.1.1|9=64|35=0|34=847|49=FOLEOAPI|52=20260619-04:44:09.859|56=FOLEOTRADER|10=049|8=FIXT.1.1|9=64|35=0|34=848|49=FOLEOAPI|52=20260619-04:44:29.999|56=FOLEOTRADER|10=057|8=FIXT.1.1|9=64|35=0|34=849|49=FOLEOAPI|52=20260619-04:44:50.127|56=FOLEOTRADER|10=035|8=FIXT.1.1|9=64|35=0|34=850|49=FOLEOAPI|52=20260619-04:45:10.253|56=FOLEOTRADER|10=024|8=FIXT.1.1|9=64|35=0|34=851|49=FOLEOAPI|52=20260619-04:45:30.407|56=FOLEOTRADER|10=028|8=FIXT.1.1|9=64|35=0|34=852|49=FOLEOAPI|52=20260619-04:45:50.561|56=FOLEOTRADER|10=032|8=FIXT.1.1|9=64|35=0|34=853|49=FOLEOAPI|52=20260619-04:46:10.703|56=FOLEOTRADER|10=028|8=FIXT.1.1|9=64|35=0|34=854|49=FOLEOAPI|52=20260619-04:46:30.835|56=FOLEOTRADER|10=037|8=FIXT.1.1|9=64|35=0|34=855|49=FOLEOAPI|52=20260619-04:46:50.978|56=FOLEOTRADER|10=048|8=FIXT.1.1|9=64|35=0|34=856|49=FOLEOAPI|52=20260619-04:47:11.124|56=FOLEOTRADER|10=030|8=FIXT.1.1|9=64|35=0|34=857|49=FOLEOAPI|52=20260619-04:47:31.262|56=FOLEOTRADER|10=036|8=FIXT.1.1|9=64|35=0|34=858|49=FOLEOAPI|52=20260619-04:47:51.464|56=FOLEOTRADER|10=043|8=FIXT.1.1|9=64|35=0|34=859|49=FOLEOAPI|52=20260619-04:48:11.645|56=FOLEOTRADER|10=042|8=FIXT.1.1|9=64|35=0|34=860|49=FOLEOAPI|52=20260619-04:48:31.761|56=FOLEOTRADER|10=035|8=FIXT.1.1|9=64|35=0|34=861|49=FOLEOAPI|52=20260619-04:48:51.920|56=FOLEOTRADER|10=035|8=FIXT.1.1|9=64|35=0|34=862|49=FOLEOAPI|52=20260619-04:49:12.066|56=FOLEOTRADER|10=035|8=FIXT.1.1|9=64|35=0|34=863|49=FOLEOAPI|52=20260619-04:49:32.226|56=FOLEOTRADER|10=036|8=FIXT.1.1|9=64|35=0|34=864|49=FOLEOAPI|52=20260619-04:49:52.388|56=FOLEOTRADER|10=048|8=FIXT.1.1|9=64|35=0|34=865|49=FOLEOAPI|52=20260619-04:50:12.496|56=FOLEOTRADER|10=037|8=FIXT.1.1|9=64|35=0|34=866|49=FOLEOAPI|52=20260619-04:50:32.643|56=FOLEOTRADER|10=034|8=FIXT.1.1|9=64|35=0|34=867|49=FOLEOAPI|52=20260619-04:50:52.804|56=FOLEOTRADER|10=036|8=FIXT.1.1|9=64|35=0|34=868|49=FOLEOAPI|52=20260619-04:51:12.929|56=FOLEOTRADER|10=042|8=FIXT.1.1|9=64|35=0|34=869|49=FOLEOAPI|52=20260619-04:51:33.064|56=FOLEOTRADER|10=036|8=FIXT.1.1|9=64|35=0|34=870|49=FOLEOAPI|52=20260619-04:51:53.222|56=FOLEOTRADER|10=026|8=FIXT.1.1|9=64|35=0|34=871|49=FOLEOAPI|52=20260619-04:52:13.399|56=FOLEOTRADER|10=039|8=FIXT.1.1|9=64|35=0|34=872|49=FOLEOAPI|52=20260619-04:52:33.522|56=FOLEOTRADER|10=030|8=FIXT.1.1|9=64|35=0|34=873|49=FOLEOAPI|52=20260619-04:52:53.660|56=FOLEOTRADER|10=036|8=FIXT.1.1|9=64|35=0|34=874|49=FOLEOAPI|52=20260619-04:53:13.787|56=FOLEOTRADER|10=044|8=FIXT.1.1|9=64|35=0|34=875|49=FOLEOAPI|52=20260619-04:53:33.918|56=FOLEOTRADER|10=043|8=FIXT.1.1|9=64|35=0|34=876|49=FOLEOAPI|52=20260619-04:53:54.060|56=FOLEOTRADER|10=035|8=FIXT.1.1|9=64|35=0|34=877|49=FOLEOAPI|52=20260619-04:54:14.194|56=FOLEOTRADER|10=041|8=FIXT.1.1|9=64|35=0|34=878|49=FOLEOAPI|52=20260619-04:54:34.364|56=FOLEOTRADER|10=043|8=FIXT.1.1|9=64|35=0|34=879|49=FOLEOAPI|52=20260619-04:54:54.507|56=FOLEOTRADER|10=045|8=FIXT.1.1|9=64|35=0|34=880|49=FOLEOAPI|52=20260619-04:55:14.667|56=FOLEOTRADER|10=041|8=FIXT.1.1|9=64|35=0|34=881|49=FOLEOAPI|52=20260619-04:55:34.808|56=FOLEOTRADER|10=041|8=FIXT.1.1|9=64|35=0|34=882|49=FOLEOAPI|52=20260619-04:55:54.942|56=FOLEOTRADER|10=043|8=FIXT.1.1|9=64|35=0|34=883|49=FOLEOAPI|52=20260619-04:56:15.079|56=FOLEOTRADER|10=043|8=FIXT.1.1|9=64|35=0|34=884|49=FOLEOAPI|52=20260619-04:56:35.227|56=FOLEOTRADER|10=041|8=FIXT.1.1|9=64|35=0|34=885|49=FOLEOAPI|52=20260619-04:56:55.383|56=FOLEOTRADER|10=047|8=FIXT.1.1|9=64|35=0|34=886|49=FOLEOAPI|52=20260619-04:57:15.558|56=FOLEOTRADER|10=049|8=FIXT.1.1|9=64|35=0|34=887|49=FOLEOAPI|52=20260619-04:57:35.698|56=FOLEOTRADER|10=057|8=FIXT.1.1|9=64|35=0|34=888|49=FOLEOAPI|52=20260619-04:57:55.846|56=FOLEOTRADER|10=055|8=FIXT.1.1|9=64|35=0|34=889|49=FOLEOAPI|52=20260619-04:58:16.015|56=FOLEOTRADER|10=042|8=FIXT.1.1|9=64|35=0|34=890|49=FOLEOAPI|52=20260619-04:58:36.179|56=FOLEOTRADER|10=047|8=FIXT.1.1|9=64|35=0|34=891|49=FOLEOAPI|52=20260619-04:58:56.300|56=FOLEOTRADER|10=036|8=FIXT.1.1|9=64|35=0|34=892|49=FOLEOAPI|52=20260619-04:59:16.473|56=FOLEOTRADER|10=045|8=FIXT.1.1|9=64|35=0|34=893|49=FOLEOAPI|52=20260619-04:59:36.576|56=FOLEOTRADER|10=052|8=FIXT.1.1|9=64|35=0|34=894|49=FOLEOAPI|52=20260619-04:59:56.728|56=FOLEOTRADER|10=054|8=FIXT.1.1|9=64|35=0|34=895|49=FOLEOAPI|52=20260619-05:00:16.890|56=FOLEOTRADER|10=038|8=FIXT.1.1|9=64|35=0|34=896|49=FOLEOAPI|52=20260619-05:00:37.056|56=FOLEOTRADER|10=036|8=FIXT.1.1|9=64|35=0|34=897|49=FOLEOAPI|52=20260619-05:00:57.236|56=FOLEOTRADER|10=039|8=FIXT.1.1|9=64|35=0|34=898|49=FOLEOAPI|52=20260619-05:01:17.371|56=FOLEOTRADER|10=037|8=FIXT.1.1|9=64|35=0|34=899|49=FOLEOAPI|52=20260619-05:01:37.554|56=FOLEOTRADER|10=043|8=FIXT.1.1|9=64|35=0|34=900|49=FOLEOAPI|52=20260619-05:01:57.719|56=FOLEOTRADER|10=031|8=FIXT.1.1|9=64|35=0|34=901|49=FOLEOAPI|52=20260619-05:02:17.880|56=FOLEOTRADER|10=028|8=FIXT.1.1|9=64|35=0|34=902|49=FOLEOAPI|52=20260619-05:02:37.995|56=FOLEOTRADER|10=038|8=FIXT.1.1|9=64|35=0|34=903|49=FOLEOAPI|52=20260619-05:02:58.169|56=FOLEOTRADER|10=035|8=FIXT.1.1|9=64|35=0|34=904|49=FOLEOAPI|52=20260619-05:03:18.365|56=FOLEOTRADER|10=031|8=FIXT.1.1|9=64|35=0|34=905|49=FOLEOAPI|52=20260619-05:03:38.526|56=FOLEOTRADER|10=033|8=FIXT.1.1|9=64|35=0|34=906|49=FOLEOAPI|52=20260619-05:03:58.674|56=FOLEOTRADER|10=040|8=FIXT.1.1|9=64|35=0|34=907|49=FOLEOAPI|52=20260619-05:04:18.829|56=FOLEOTRADER|10=040|8=FIXT.1.1|9=64|35=0|34=908|49=FOLEOAPI|52=20260619-05:04:38.974|56=FOLEOTRADER|10=044|8=FIXT.1.1|9=64|35=0|34=909|49=FOLEOAPI|52=20260619-05:04:59.109|56=FOLEOTRADER|10=038|8=FIXT.1.1|9=64|35=0|34=910|49=FOLEOAPI|52=20260619-05:05:19.250|56=FOLEOTRADER|10=024|8=FIXT.1.1|9=64|35=0|34=911|49=FOLEOAPI|52=20260619-05:05:39.406|56=FOLEOTRADER|10=030|8=FIXT.1.1|9=64|35=0|34=912|49=FOLEOAPI|52=20260619-05:05:59.576|56=FOLEOTRADER|10=041|8=FIXT.1.1|9=64|35=0|34=913|49=FOLEOAPI|52=20260619-05:06:19.764|56=FOLEOTRADER|10=038|8=FIXT.1.1|9=64|35=0|34=914|49=FOLEOAPI|52=20260619-05:06:39.903|56=FOLEOTRADER|10=036|8=FIXT.1.1|9=64|35=0|34=915|49=FOLEOAPI|52=20260619-05:07:00.042|56=FOLEOTRADER|10=020|8=FIXT.1.1|9=64|35=0|34=916|49=FOLEOAPI|52=20260619-05:07:20.209|56=FOLEOTRADER|10=028|8=FIXT.1.1|9=64|35=0|34=917|49=FOLEOAPI|52=20260619-05:07:40.351|56=FOLEOTRADER|10=029|8=FIXT.1.1|9=64|35=0|34=918|49=FOLEOAPI|52=20260619-05:08:00.513|56=FOLEOTRADER|10=027|8=FIXT.1.1|9=64|35=0|34=919|49=FOLEOAPI|52=20260619-05:08:20.665|56=FOLEOTRADER|10=038|8=FIXT.1.1|9=64|35=0|34=920|49=FOLEOAPI|52=20260619-05:08:40.793|56=FOLEOTRADER|10=034|8=FIXT.1.1|9=64|35=0|34=921|49=FOLEOAPI|52=20260619-05:09:00.962|56=FOLEOTRADER|10=030|8=FIXT.1.1|9=64|35=0|34=922|49=FOLEOAPI|52=20260619-05:09:21.170|56=FOLEOTRADER|10=025|8=FIXT.1.1|9=64|35=0|34=923|49=FOLEOAPI|52=20260619-05:09:41.333|56=FOLEOTRADER|10=029|8=FIXT.1.1|9=64|35=0|34=924|49=FOLEOAPI|52=20260619-05:10:01.460|56=FOLEOTRADER|10=019|8=FIXT.1.1|9=64|35=0|34=925|49=FOLEOAPI|52=20260619-05:10:21.581|56=FOLEOTRADER|10=026|8=FIXT.1.1|9=64|35=0|34=926|49=FOLEOAPI|52=20260619-05:10:41.696|56=FOLEOTRADER|10=036|8=FIXT.1.1|9=64|35=0|34=927|49=FOLEOAPI|52=20260619-05:11:01.847|56=FOLEOTRADER|10=032|8=FIXT.1.1|9=64|35=0|34=928|49=FOLEOAPI|52=20260619-05:11:21.990|56=FOLEOTRADER|10=034|8=FIXT.1.1|9=64|35=0|34=929|49=FOLEOAPI|52=20260619-05:11:42.127|56=FOLEOTRADER|10=030|8=FIXT.1.1|9=64|35=0|34=930|49=FOLEOAPI|52=20260619-05:12:02.318|56=FOLEOTRADER|10=021|8=FIXT.1.1|9=64|35=0|34=931|49=FOLEOAPI|52=20260619-05:12:22.462|56=FOLEOTRADER|10=024|8=FIXT.1.1|9=64|35=0|34=932|49=FOLEOAPI|52=20260619-05:12:42.583|56=FOLEOTRADER|10=031|8=FIXT.1.1|9=64|35=0|34=933|49=FOLEOAPI|52=20260619-05:13:02.725|56=FOLEOTRADER|10=027|8=FIXT.1.1|9=64|35=0|34=934|49=FOLEOAPI|52=20260619-05:13:22.876|56=FOLEOTRADER|10=037|8=FIXT.1.1|9=64|35=0|34=935|49=FOLEOAPI|52=20260619-05:13:42.990|56=FOLEOTRADER|10=037|8=FIXT.1.1|9=64|35=0|34=936|49=FOLEOAPI|52=20260619-05:14:03.149|56=FOLEOTRADER|10=032|8=FIXT.1.1|9=64|35=0|34=937|49=FOLEOAPI|52=20260619-05:14:23.264|56=FOLEOTRADER|10=033|8=FIXT.1.1|9=64|35=0|34=938|49=FOLEOAPI|52=20260619-05:14:43.404|56=FOLEOTRADER|10=032|8=FIXT.1.1|9=64|35=0|34=939|49=FOLEOAPI|52=20260619-05:15:03.544|56=FOLEOTRADER|10=035|8=FIXT.1.1|9=64|35=0|34=940|49=FOLEOAPI|52=20260619-05:15:23.744|56=FOLEOTRADER|10=031|8=FIXT.1.1|9=64|35=0|34=941|49=FOLEOAPI|52=20260619-05:15:43.925|56=FOLEOTRADER|10=035|8=FIXT.1.1|9=64|35=0|34=942|49=FOLEOAPI|52=20260619-05:16:04.102|56=FOLEOTRADER|10=021|8=FIXT.1.1|9=64|35=0|34=943|49=FOLEOAPI|52=20260619-05:16:24.246|56=FOLEOTRADER|10=033|8=FIXT.1.1|9=64|35=0|34=944|49=FOLEOAPI|52=20260619-05:16:44.399|56=FOLEOTRADER|10=045|8=FIXT.1.1|9=64|35=0|34=945|49=FOLEOAPI|52=20260619-05:17:04.504|56=FOLEOTRADER|10=031|8=FIXT.1.1|9=64|35=0|34=946|49=FOLEOAPI|52=20260619-05:17:24.656|56=FOLEOTRADER|10=042|8=FIXT.1.1|9=64|35=0|34=947|49=FOLEOAPI|52=20260619-05:17:44.771|56=FOLEOTRADER|10=043|8=FIXT.1.1|9=64|35=0|34=948|49=FOLEOAPI|52=20260619-05:18:04.900|56=FOLEOTRADER|10=035|8=FIXT.1.1|9=64|35=0|34=949|49=FOLEOAPI|52=20260619-05:18:25.008|56=FOLEOTRADER|10=038|8=FIXT.1.1|9=64|35=0|34=950|49=FOLEOAPI|52=20260619-05:18:45.143|56=FOLEOTRADER|10=032|8=FIXT.1.1|9=64|35=0|34=951|49=FOLEOAPI|52=20260619-05:19:05.283|56=FOLEOTRADER|10=035|8=FIXT.1.1|9=64|35=0|34=952|49=FOLEOAPI|52=20260619-05:19:25.446|56=FOLEOTRADER|10=039|8=FIXT.1.1|9=64|35=0|34=953|49=FOLEOAPI|52=20260619-05:19:45.591|56=FOLEOTRADER|10=043|8=FIXT.1.1|9=64|35=0|34=954|49=FOLEOAPI|52=20260619-05:20:05.710|56=FOLEOTRADER|10=025|8=FIXT.1.1|9=64|35=0|34=955|49=FOLEOAPI|52=20260619-05:20:25.811|56=FOLEOTRADER|10=030|8=FIXT.1.1|9=64|35=0|34=956|49=FOLEOAPI|52=20260619-05:20:45.975|56=FOLEOTRADER|10=044|8=FIXT.1.1|9=64|35=0|34=957|49=FOLEOAPI|52=20260619-05:21:06.105|56=FOLEOTRADER|10=028|8=FIXT.1.1|9=64|35=0|34=958|49=FOLEOAPI|52=20260619-05:21:26.233|56=FOLEOTRADER|10=033|8=FIXT.1.1|9=64|35=0|34=959|49=FOLEOAPI|52=20260619-05:21:46.407|56=FOLEOTRADER|10=039|8=FIXT.1.1|9=64|35=0|34=960|49=FOLEOAPI|52=20260619-05:22:06.518|56=FOLEOTRADER|10=031|8=FIXT.1.1|9=64|35=0|34=961|49=FOLEOAPI|52=20260619-05:22:26.636|56=FOLEOTRADER|10=035|8=FIXT.1.1|9=64|35=0|34=962|49=FOLEOAPI|52=20260619-05:22:46.745|56=FOLEOTRADER|10=039|8=FIXT.1.1|9=64|35=0|34=963|49=FOLEOAPI|52=20260619-05:23:06.903|56=FOLEOTRADER|10=033|8=FIXT.1.1|9=64|35=0|34=964|49=FOLEOAPI|52=20260619-05:23:27.078|56=FOLEOTRADER|10=040|8=FIXT.1.1|9=64|35=0|34=965|49=FOLEOAPI|52=20260619-05:23:47.244|56=FOLEOTRADER|10=038|8=FIXT.1.1|9=64|35=0|34=966|49=FOLEOAPI|52=20260619-05:24:07.416|56=FOLEOTRADER|10=037|8=FIXT.1.1|9=64|35=0|34=967|49=FOLEOAPI|52=20260619-05:24:27.552|56=FOLEOTRADER|10=041|8=FIXT.1.1|9=64|35=0|34=968|49=FOLEOAPI|52=20260619-05:24:47.692|56=FOLEOTRADER|10=049|8=FIXT.1.1|9=64|35=0|34=969|49=FOLEOAPI|52=20260619-05:25:07.892|56=FOLEOTRADER|10=049|8=FIXT.1.1|9=64|35=0|34=970|49=FOLEOAPI|52=20260619-05:25:28.039|56=FOLEOTRADER|10=037|8=FIXT.1.1|9=64|35=0|34=971|49=FOLEOAPI|52=20260619-05:25:48.168|56=FOLEOTRADER|10=043|8=FIXT.1.1|9=64|35=0|34=972|49=FOLEOAPI|52=20260619-05:26:08.277|56=FOLEOTRADER|10=042|8=FIXT.1.1|9=64|35=0|34=973|49=FOLEOAPI|52=20260619-05:26:28.408|56=FOLEOTRADER|10=041|8=FIXT.1.1|9=64|35=0|34=974|49=FOLEOAPI|52=20260619-05:26:48.545|56=FOLEOTRADER|10=046|8=FIXT.1.1|9=64|35=0|34=975|49=FOLEOAPI|52=20260619-05:27:08.709|56=FOLEOTRADER|10=046|8=FIXT.1.1|9=64|35=0|34=976|49=FOLEOAPI|52=20260619-05:27:28.844|56=FOLEOTRADER|10=049|8=FIXT.1.1|9=64|35=0|34=977|49=FOLEOAPI|52=20260619-05:27:48.975|56=FOLEOTRADER|10=057|8=FIXT.1.1|9=64|35=0|34=978|49=FOLEOAPI|52=20260619-05:28:09.133|56=FOLEOTRADER|10=042|8=FIXT.1.1|9=64|35=0|34=979|49=FOLEOAPI|52=20260619-05:28:29.257|56=FOLEOTRADER|10=052|8=FIXT.1.1|9=64|35=0|34=980|49=FOLEOAPI|52=20260619-05:28:49.393|56=FOLEOTRADER|10=047|8=FIXT.1.1|9=64|35=0|34=981|49=FOLEOAPI|52=20260619-05:29:09.536|56=FOLEOTRADER|10=044|8=FIXT.1.1|9=64|35=0|34=982|49=FOLEOAPI|52=20260619-05:29:29.649|56=FOLEOTRADER|10=052|8=FIXT.1.1|9=64|35=0|34=983|49=FOLEOAPI|52=20260619-05:29:49.789|56=FOLEOTRADER|10=060|8=FIXT.1.1|9=64|35=0|34=984|49=FOLEOAPI|52=20260619-05:30:09.913|56=FOLEOTRADER|10=038|8=FIXT.1.1|9=64|35=0|34=985|49=FOLEOAPI|52=20260619-05:30:30.079|56=FOLEOTRADER|10=036|8=FIXT.1.1|9=64|35=0|34=986|49=FOLEOAPI|52=20260619-05:30:50.209|56=FOLEOTRADER|10=034|8=FIXT.1.1|9=64|35=0|34=987|49=FOLEOAPI|52=20260619-05:31:10.331|56=FOLEOTRADER|10=028|8=FIXT.1.1|9=64|35=0|34=988|49=FOLEOAPI|52=20260619-05:31:30.466|56=FOLEOTRADER|10=040|8=FIXT.1.1|9=64|35=0|34=989|49=FOLEOAPI|52=20260619-05:31:50.595|56=FOLEOTRADER|10=046|8=FIXT.1.1|9=64|35=0|34=990|49=FOLEOAPI|52=20260619-05:32:10.722|56=FOLEOTRADER|10=027|8=FIXT.1.1|9=64|35=0|34=991|49=FOLEOAPI|52=20260619-05:32:30.870|56=FOLEOTRADER|10=034|8=FIXT.1.1|9=64|35=0|34=992|49=FOLEOAPI|52=20260619-05:32:51.010|56=FOLEOTRADER|10=024|8=FIXT.1.1|9=64|35=0|34=993|49=FOLEOAPI|52=20260619-05:33:11.164|56=FOLEOTRADER|10=032|8=FIXT.1.1|9=64|35=0|34=994|49=FOLEOAPI|52=20260619-05:33:31.328|56=FOLEOTRADER|10=037|8=FIXT.1.1|9=64|35=0|34=995|49=FOLEOAPI|52=20260619-05:33:51.465|56=FOLEOTRADER|10=042|8=FIXT.1.1|9=64|35=0|34=996|49=FOLEOAPI|52=20260619-05:34:11.624|56=FOLEOTRADER|10=037|8=FIXT.1.1|9=64|35=0|34=997|49=FOLEOAPI|52=20260619-05:34:31.794|56=FOLEOTRADER|10=048|8=FIXT.1.1|9=64|35=0|34=998|49=FOLEOAPI|52=20260619-05:34:51.914|56=FOLEOTRADER|10=045|8=FIXT.1.1|9=64|35=0|34=999|49=FOLEOAPI|52=20260619-05:35:12.037|56=FOLEOTRADER|10=040|8=FIXT.1.1|9=65|35=0|34=1000|49=FOLEOAPI|52=20260619-05:35:32.169|56=FOLEOTRADER|10=071|8=FIXT.1.1|9=65|35=0|34=1001|49=FOLEOAPI|52=20260619-05:35:52.296|56=FOLEOTRADER|10=075|8=FIXT.1.1|9=65|35=0|34=1002|49=FOLEOAPI|52=20260619-05:36:12.464|56=FOLEOTRADER|10=070|8=FIXT.1.1|9=65|35=0|34=1003|49=FOLEOAPI|52=20260619-05:36:32.591|56=FOLEOTRADER|10=074|8=FIXT.1.1|9=65|35=0|34=1004|49=FOLEOAPI|52=20260619-05:36:52.703|56=FOLEOTRADER|10=072|8=FIXT.1.1|9=65|35=0|34=1005|49=FOLEOAPI|52=20260619-05:37:12.859|56=FOLEOTRADER|10=082|8=FIXT.1.1|9=65|35=0|34=1006|49=FOLEOAPI|52=20260619-05:37:32.999|56=FOLEOTRADER|10=090|8=FIXT.1.1|9=65|35=0|34=1007|49=FOLEOAPI|52=20260619-05:37:53.145|56=FOLEOTRADER|10=077|8=FIXT.1.1|9=65|35=0|34=1008|49=FOLEOAPI|52=20260619-05:38:13.290|56=FOLEOTRADER|10=076|8=FIXT.1.1|9=65|35=0|34=1009|49=FOLEOAPI|52=20260619-05:38:33.451|56=FOLEOTRADER|10=078|8=FIXT.1.1|9=65|35=0|34=1010|49=FOLEOAPI|52=20260619-05:38:53.605|56=FOLEOTRADER|10=073|8=FIXT.1.1|9=65|35=0|34=1011|49=FOLEOAPI|52=20260619-05:39:13.798|56=FOLEOTRADER|10=084|8=FIXT.1.1|9=65|35=0|34=1012|49=FOLEOAPI|52=20260619-05:39:33.990|56=FOLEOTRADER|10=081|8=FIXT.1.1|9=65|35=0|34=1013|49=FOLEOAPI|52=20260619-05:39:54.131|56=FOLEOTRADER|10=072|8=FIXT.1.1|9=65|35=0|34=1014|49=FOLEOAPI|52=20260619-05:40:14.294|56=FOLEOTRADER|10=071|8=FIXT.1.1|9=65|35=0|34=1015|49=FOLEOAPI|52=20260619-05:40:34.433|56=FOLEOTRADER|10=069|8=FIXT.1.1|9=65|35=0|34=1016|49=FOLEOAPI|52=20260619-05:40:54.557|56=FOLEOTRADER|10=079|8=FIXT.1.1|9=65|35=0|34=1017|49=FOLEOAPI|52=20260619-05:41:14.679|56=FOLEOTRADER|10=082|8=FIXT.1.1|9=65|35=0|34=1018|49=FOLEOAPI|52=20260619-05:41:34.843|56=FOLEOTRADER|10=078|8=FIXT.1.1|9=65|35=0|34=1019|49=FOLEOAPI|52=20260619-05:41:54.986|56=FOLEOTRADER|10=089|8=FIXT.1.1|9=65|35=0|34=1020|49=FOLEOAPI|52=20260619-05:42:15.098|56=FOLEOTRADER|10=073|8=FIXT.1.1|9=65|35=0|34=1021|49=FOLEOAPI|52=20260619-05:42:35.250|56=FOLEOTRADER|10=066|8=FIXT.1.1|9=65|35=0|34=1022|49=FOLEOAPI|52=20260619-05:42:55.423|56=FOLEOTRADER|10=071|8=FIXT.1.1|9=65|35=0|34=1023|49=FOLEOAPI|52=20260619-05:43:15.547|56=FOLEOTRADER|10=076|8=FIXT.1.1|9=65|35=0|34=1024|49=FOLEOAPI|52=20260619-05:43:35.653|56=FOLEOTRADER|10=077|8=FIXT.1.1|9=65|35=0|34=1025|49=FOLEOAPI|52=20260619-05:43:55.762|56=FOLEOTRADER|10=081|8=FIXT.1.1|9=65|35=0|34=1026|49=FOLEOAPI|52=20260619-05:44:15.877|56=FOLEOTRADER|10=086|8=FIXT.1.1|9=65|35=0|34=1027|49=FOLEOAPI|52=20260619-05:44:36.027|56=FOLEOTRADER|10=077|8=FIXT.1.1|9=65|35=0|34=1028|49=FOLEOAPI|52=20260619-05:44:56.155|56=FOLEOTRADER|10=082|8=FIXT.1.1|9=65|35=0|34=1029|49=FOLEOAPI|52=20260619-05:45:16.285|56=FOLEOTRADER|10=084|8=FIXT.1.1|9=65|35=0|34=1030|49=FOLEOAPI|52=20260619-05:45:36.436|56=FOLEOTRADER|10=076|8=FIXT.1.1|9=65|35=0|34=1031|49=FOLEOAPI|52=20260619-05:45:56.615|56=FOLEOTRADER|10=078|8=FIXT.1.1|9=65|35=0|34=1032|49=FOLEOAPI|52=20260619-05:46:16.744|56=FOLEOTRADER|10=079|8=FIXT.1.1|9=65|35=0|34=1033|49=FOLEOAPI|52=20260619-05:46:36.866|56=FOLEOTRADER|10=087|8=FIXT.1.1|9=65|35=0|34=1034|49=FOLEOAPI|52=20260619-05:46:56.992|56=FOLEOTRADER|10=090|8=FIXT.1.1|9=65|35=0|34=1035|49=FOLEOAPI|52=20260619-05:47:17.171|56=FOLEOTRADER|10=078|8=FIXT.1.1|9=65|35=0|34=1036|49=FOLEOAPI|52=20260619-05:47:37.346|56=FOLEOTRADER|10=085|8=FIXT.1.1|9=65|35=0|34=1037|49=FOLEOAPI|52=20260619-05:47:57.489|56=FOLEOTRADER|10=096|8=FIXT.1.1|9=65|35=0|34=1038|49=FOLEOAPI|52=20260619-05:48:17.647|56=FOLEOTRADER|10=090|8=FIXT.1.1|9=65|35=0|34=1039|49=FOLEOAPI|52=20260619-05:48:37.811|56=FOLEOTRADER|10=086|8=FIXT.1.1|9=65|35=0|34=1040|49=FOLEOAPI|52=20260619-05:48:57.937|56=FOLEOTRADER|10=089|8=FIXT.1.1|9=65|35=0|34=1041|49=FOLEOAPI|52=20260619-05:49:18.111|56=FOLEOTRADER|10=072|8=FIXT.1.1|9=65|35=0|34=1042|49=FOLEOAPI|52=20260619-05:49:38.241|56=FOLEOTRADER|10=079|8=FIXT.1.1|9=65|35=0|34=1043|49=FOLEOAPI|52=20260619-05:49:58.369|56=FOLEOTRADER|10=093|8=FIXT.1.1|9=65|35=0|34=1044|49=FOLEOAPI|52=20260619-05:50:18.497|56=FOLEOTRADER|10=084|8=FIXT.1.1|9=65|35=0|34=1045|49=FOLEOAPI|52=20260619-05:50:38.631|56=FOLEOTRADER|10=077|8=FIXT.1.1|9=65|35=0|34=1046|49=FOLEOAPI|52=20260619-05:50:58.774|56=FOLEOTRADER|10=088|8=FIXT.1.1|9=65|35=0|34=1047|49=FOLEOAPI|52=20260619-05:51:18.927|56=FOLEOTRADER|10=086|8=FIXT.1.1|9=65|35=0|34=1048|49=FOLEOAPI|52=20260619-05:51:39.084|56=FOLEOTRADER|10=084|8=FIXT.1.1|9=65|35=0|34=1049|49=FOLEOAPI|52=20260619-05:51:59.242|56=FOLEOTRADER|10=083|8=FIXT.1.1|9=65|35=0|34=1050|49=FOLEOAPI|52=20260619-05:52:19.396|56=FOLEOTRADER|10=082|8=FIXT.1.1|9=65|35=0|34=1051|49=FOLEOAPI|52=20260619-05:52:39.552|56=FOLEOTRADER|10=079|8=FIXT.1.1|9=65|35=0|34=1052|49=FOLEOAPI|52=20260619-05:52:59.669|56=FOLEOTRADER|10=091|8=FIXT.1.1|9=65|35=0|34=1053|49=FOLEOAPI|52=20260619-05:53:19.832|56=FOLEOTRADER|10=081|8=FIXT.1.1|9=65|35=0|34=1054|49=FOLEOAPI|52=20260619-05:53:39.958|56=FOLEOTRADER|10=093|8=FIXT.1.1|9=65|35=0|34=1055|49=FOLEOAPI|52=20260619-05:54:00.067|56=FOLEOTRADER|10=074|8=FIXT.1.1|9=65|35=0|34=1056|49=FOLEOAPI|52=20260619-05:54:20.222|56=FOLEOTRADER|10=070|8=FIXT.1.1|9=65|35=0|34=1057|49=FOLEOAPI|52=20260619-05:54:40.327|56=FOLEOTRADER|10=079|8=FIXT.1.1|9=65|35=0|34=1058|49=FOLEOAPI|52=20260619-05:55:00.435|56=FOLEOTRADER|10=077|8=FIXT.1.1|9=65|35=0|34=1059|49=FOLEOAPI|52=20260619-05:55:20.586|56=FOLEOTRADER|10=087|8=FIXT.1.1|9=65|35=0|34=1060|49=FOLEOAPI|52=20260619-05:55:40.705|56=FOLEOTRADER|10=074|8=FIXT.1.1|9=65|35=0|34=1061|49=FOLEOAPI|52=20260619-05:56:00.816|56=FOLEOTRADER|10=075|8=FIXT.1.1|9=65|35=0|34=1062|49=FOLEOAPI|52=20260619-05:56:20.983|56=FOLEOTRADER|10=083|8=FIXT.1.1|9=65|35=0|34=1063|49=FOLEOAPI|52=20260619-05:56:41.132|56=FOLEOTRADER|10=073|8=FIXT.1.1|9=65|35=0|34=1064|49=FOLEOAPI|52=20260619-05:57:01.255|56=FOLEOTRADER|10=077|8=FIXT.1.1|9=65|35=0|34=1065|49=FOLEOAPI|52=20260619-05:57:21.376|56=FOLEOTRADER|10=084|8=FIXT.1.1|9=65|35=0|34=1066|49=FOLEOAPI|52=20260619-05:57:41.521|56=FOLEOTRADER|10=079|8=FIXT.1.1|9=65|35=0|34=1067|49=FOLEOAPI|52=20260619-05:58:01.690|56=FOLEOTRADER|10=084|8=FIXT.1.1|9=65|35=0|34=1068|49=FOLEOAPI|52=20260619-05:58:21.824|56=FOLEOTRADER|10=086|8=FIXT.1.1|9=65|35=0|34=1069|49=FOLEOAPI|52=20260619-05:58:41.951|56=FOLEOTRADER|10=090|8=FIXT.1.1|9=65|35=0|34=1070|49=FOLEOAPI|52=20260619-05:59:02.120|56=FOLEOTRADER|10=068|8=FIXT.1.1|9=65|35=0|34=1071|49=FOLEOAPI|52=20260619-05:59:22.331|56=FOLEOTRADER|10=075|8=FIXT.1.1|9=65|35=0|34=1072|49=FOLEOAPI|52=20260619-05:59:42.480|56=FOLEOTRADER|10=083|8=FIXT.1.1|9=65|35=0|34=1073|49=FOLEOAPI|52=20260619-06:00:02.618|56=FOLEOTRADER|10=070|8=FIXT.1.1|9=65|35=0|34=1074|49=FOLEOAPI|52=20260619-06:00:22.751|56=FOLEOTRADER|10=071|8=FIXT.1.1|9=65|35=0|34=1075|49=FOLEOAPI|52=20260619-06:00:42.876|56=FOLEOTRADER|10=082|8=FIXT.1.1|9=65|35=0|34=1076|49=FOLEOAPI|52=20260619-06:01:03.009|56=FOLEOTRADER|10=069|8=FIXT.1.1|9=65|35=0|34=1077|49=FOLEOAPI|52=20260619-06:01:23.149|56=FOLEOTRADER|10=077|8=FIXT.1.1|9=65|35=0|34=1078|49=FOLEOAPI|52=20260619-06:01:43.312|56=FOLEOTRADER|10=072|8=FIXT.1.1|9=65|35=0|34=1079|49=FOLEOAPI|52=20260619-06:02:03.421|56=FOLEOTRADER|10=071|8=FIXT.1.1|9=65|35=0|34=1080|49=FOLEOAPI|52=20260619-06:02:23.565|56=FOLEOTRADER|10=074|8=FIXT.1.1|9=65|35=0|34=1081|49=FOLEOAPI|52=20260619-06:02:43.718|56=FOLEOTRADER|10=077|8=FIXT.1.1|9=65|35=0|34=1082|49=FOLEOAPI|52=20260619-06:03:03.844|56=FOLEOTRADER|10=075|8=FIXT.1.1|9=65|35=0|34=1083|49=FOLEOAPI|52=20260619-06:03:23.970|56=FOLEOTRADER|10=078|8=FIXT.1.1|9=65|35=0|34=1084|49=FOLEOAPI|52=20260619-06:03:44.111|56=FOLEOTRADER|10=069|8=FIXT.1.1|9=65|35=0|34=1085|49=FOLEOAPI|52=20260619-06:04:04.236|56=FOLEOTRADER|10=075|8=FIXT.1.1|9=65|35=0|34=1086|49=FOLEOAPI|52=20260619-06:04:24.388|56=FOLEOTRADER|10=086|8=FIXT.1.1|9=65|35=0|34=1087|49=FOLEOAPI|52=20260619-06:04:44.510|56=FOLEOTRADER|10=076|8=FIXT.1.1|9=65|35=0|34=1088|49=FOLEOAPI|52=20260619-06:05:04.650|56=FOLEOTRADER|10=079|8=FIXT.1.1|9=65|35=0|34=1089|49=FOLEOAPI|52=20260619-06:05:24.804|56=FOLEOTRADER|10=083|8=FIXT.1.1|9=65|35=0|34=1090|49=FOLEOAPI|52=20260619-06:05:44.947|56=FOLEOTRADER|10=085|8=FIXT.1.1|9=65|35=0|34=1091|49=FOLEOAPI|52=20260619-06:06:05.113|56=FOLEOTRADER|10=069|8=FIXT.1.1|9=65|35=0|34=1092|49=FOLEOAPI|52=20260619-06:06:25.235|56=FOLEOTRADER|10=077|8=FIXT.1.1|9=65|35=0|34=1093|49=FOLEOAPI|52=20260619-06:06:45.388|56=FOLEOTRADER|10=089|8=FIXT.1.1|9=65|35=0|34=1094|49=FOLEOAPI|52=20260619-06:07:05.525|56=FOLEOTRADER|10=080|8=FIXT.1.1|9=65|35=0|34=1095|49=FOLEOAPI|52=20260619-06:07:25.727|56=FOLEOTRADER|10=087|8=FIXT.1.1|9=65|35=0|34=1096|49=FOLEOAPI|52=20260619-06:07:45.863|56=FOLEOTRADER|10=091|8=FIXT.1.1|9=65|35=0|34=1097|49=FOLEOAPI|52=20260619-06:08:06.020|56=FOLEOTRADER|10=075|8=FIXT.1.1|9=65|35=0|34=1098|49=FOLEOAPI|52=20260619-06:08:26.179|56=FOLEOTRADER|10=093|8=FIXT.1.1|9=65|35=0|34=1099|49=FOLEOAPI|52=20260619-06:08:46.305|56=FOLEOTRADER|10=087|8=FIXT.1.1|9=65|35=0|34=1100|49=FOLEOAPI|52=20260619-06:09:06.446|56=FOLEOTRADER|10=073|8=FIXT.1.1|9=65|35=0|34=1101|49=FOLEOAPI|52=20260619-06:09:26.602|56=FOLEOTRADER|10=070|8=FIXT.1.1|9=65|35=0|34=1102|49=FOLEOAPI|52=20260619-06:09:46.726|56=FOLEOTRADER|10=080|8=FIXT.1.1|9=65|35=0|34=1103|49=FOLEOAPI|52=20260619-06:10:06.840|56=FOLEOTRADER|10=066|8=FIXT.1.1|9=65|35=0|34=1104|49=FOLEOAPI|52=20260619-06:10:26.961|56=FOLEOTRADER|10=073|8=FIXT.1.1|9=65|35=0|34=1105|49=FOLEOAPI|52=20260619-06:10:47.083|56=FOLEOTRADER|10=072|8=FIXT.1.1|9=65|35=0|34=1106|49=FOLEOAPI|52=20260619-06:11:07.235|56=FOLEOTRADER|10=069|8=FIXT.1.1|9=65|35=0|34=1107|49=FOLEOAPI|52=20260619-06:11:27.381|56=FOLEOTRADER|10=074|8=FIXT.1.1|9=65|35=0|34=1108|49=FOLEOAPI|52=20260619-06:11:47.531|56=FOLEOTRADER|10=074|8=FIXT.1.1|9=65|35=0|34=1109|49=FOLEOAPI|52=20260619-06:12:07.640|56=FOLEOTRADER|10=073|8=FIXT.1.1|9=65|35=0|34=1110|49=FOLEOAPI|52=20260619-06:12:27.800|56=FOLEOTRADER|10=065|8=FIXT.1.1|9=65|35=0|34=1111|49=FOLEOAPI|52=20260619-06:12:47.961|56=FOLEOTRADER|10=076|8=FIXT.1.1|9=65|35=0|34=1112|49=FOLEOAPI|52=20260619-06:13:08.086|56=FOLEOTRADER|10=073|8=FIXT.1.1|9=65|35=0|34=1113|49=FOLEOAPI|52=20260619-06:13:28.203|56=FOLEOTRADER|10=067|8=FIXT.1.1|9=65|35=0|34=1114|49=FOLEOAPI|52=20260619-06:13:48.353|56=FOLEOTRADER|10=076|8=FIXT.1.1|9=65|35=0|34=1115|49=FOLEOAPI|52=20260619-06:14:08.505|56=FOLEOTRADER|10=073|8=FIXT.1.1|9=65|35=0|34=1116|49=FOLEOAPI|52=20260619-06:14:28.655|56=FOLEOTRADER|10=082|8=FIXT.1.1|9=65|35=0|34=1117|49=FOLEOAPI|52=20260619-06:14:48.802|56=FOLEOTRADER|10=079|8=FIXT.1.1|9=65|35=0|34=1118|49=FOLEOAPI|52=20260619-06:15:08.955|56=FOLEOTRADER|10=086|8=FIXT.1.1|9=65|35=0|34=1119|49=FOLEOAPI|52=20260619-06:15:29.052|56=FOLEOTRADER|10=078|8=FIXT.1.1|9=65|35=0|34=1120|49=FOLEOAPI|52=20260619-06:15:49.215|56=FOLEOTRADER|10=073|8=FIXT.1.1|9=65|35=0|34=1121|49=FOLEOAPI|52=20260619-06:16:09.372|56=FOLEOTRADER|10=075|8=FIXT.1.1|9=65|35=0|34=1122|49=FOLEOAPI|52=20260619-06:16:29.501|56=FOLEOTRADER|10=072|8=FIXT.1.1|9=65|35=0|34=1123|49=FOLEOAPI|52=20260619-06:16:49.638|56=FOLEOTRADER|10=086|8=FIXT.1.1|9=65|35=0|34=1124|49=FOLEOAPI|52=20260619-06:17:09.755|56=FOLEOTRADER|10=084|8=FIXT.1.1|9=65|35=0|34=1125|49=FOLEOAPI|52=20260619-06:17:29.895|56=FOLEOTRADER|10=092|8=FIXT.1.1|9=65|35=0|34=1126|49=FOLEOAPI|52=20260619-06:17:50.027|56=FOLEOTRADER|10=074|8=FIXT.1.1|9=65|35=0|34=1127|49=FOLEOAPI|52=20260619-06:18:10.118|56=FOLEOTRADER|10=073|8=FIXT.1.1|9=65|35=0|34=1128|49=FOLEOAPI|52=20260619-06:18:30.274|56=FOLEOTRADER|10=079|8=FIXT.1.1|9=65|35=0|34=1129|49=FOLEOAPI|52=20260619-06:18:50.396|56=FOLEOTRADER|10=087|8=FIXT.1.1|9=65|35=0|34=1130|49=FOLEOAPI|52=20260619-06:19:10.563|56=FOLEOTRADER|10=072|8=FIXT.1.1|9=65|35=0|34=1131|49=FOLEOAPI|52=20260619-06:19:30.704|56=FOLEOTRADER|10=072|8=FIXT.1.1|9=65|35=0|34=1132|49=FOLEOAPI|52=20260619-06:19:50.868|56=FOLEOTRADER|10=086|8=FIXT.1.1|9=65|35=0|34=1133|49=FOLEOAPI|52=20260619-06:20:11.014|56=FOLEOTRADER|10=059|8=FIXT.1.1|9=65|35=0|34=1134|49=FOLEOAPI|52=20260619-06:20:31.188|56=FOLEOTRADER|10=074|8=FIXT.1.1|9=65|35=0|34=1135|49=FOLEOAPI|52=20260619-06:20:51.366|56=FOLEOTRADER|10=075|8=FIXT.1.1|9=65|35=0|34=1136|49=FOLEOAPI|52=20260619-06:21:11.484|56=FOLEOTRADER|10=074|8=FIXT.1.1|9=65|35=0|34=1137|49=FOLEOAPI|52=20260619-06:21:31.609|56=FOLEOTRADER|10=076|8=FIXT.1.1|9=65|35=0|34=1138|49=FOLEOAPI|52=20260619-06:21:51.740|56=FOLEOTRADER|10=075|8=FIXT.1.1|9=65|35=0|34=1139|49=FOLEOAPI|52=20260619-06:22:11.903|56=FOLEOTRADER|10=074|8=FIXT.1.1|9=65|35=0|34=1140|49=FOLEOAPI|52=20260619-06:22:32.027|56=FOLEOTRADER|10=066|8=FIXT.1.1|9=65|35=0|34=1141|49=FOLEOAPI|52=20260619-06:22:52.179|56=FOLEOTRADER|10=077|8=FIXT.1.1|9=65|35=0|34=1142|49=FOLEOAPI|52=20260619-06:23:12.296|56=FOLEOTRADER|10=075|8=FIXT.1.1|9=65|35=0|34=1143|49=FOLEOAPI|52=20260619-06:23:32.418|56=FOLEOTRADER|10=074|8=FIXT.1.1|9=65|35=0|34=1144|49=FOLEOAPI|52=20260619-06:23:52.596|56=FOLEOTRADER|10=084|8=FIXT.1.1|9=65|35=0|34=1145|49=FOLEOAPI|52=20260619-06:24:12.728|56=FOLEOTRADER|10=079|8=FIXT.1.1|9=65|35=0|34=1146|49=FOLEOAPI|52=20260619-06:24:32.859|56=FOLEOTRADER|10=087|8=FIXT.1.1|9=65|35=0|34=1147|49=FOLEOAPI|52=20260619-06:24:53.007|56=FOLEOTRADER|10=076|8=FIXT.1.1|9=65|35=0|34=1148|49=FOLEOAPI|52=20260619-06:25:13.143|56=FOLEOTRADER|10=075|8=FIXT.1.1|9=65|35=0|34=1149|49=FOLEOAPI|52=20260619-06:25