8=FIXT.1.1|9=87|35=A|34=1|49=FOLEOAPI|52=20260608-20:31:00.966|56=FOLEOTRADER|98=0|108=20|141=Y|1137=9|10=075|8=FIXT.1.1|9=178|35=D|34=2|49=FOLEOAPI|52=20260608-20:31:01.024|56=FOLEOTRADER|11=FT-6-019ea8ee76b57453b8fa42f313098497|15=JPY|22=8|38=34|40=2|44=22|48=8306|54=1|55=8306|60=20260608-20:31:01.020|10=229|8=FIXT.1.1|9=62|35=0|34=3|49=FOLEOAPI|52=20260608-20:31:21.153|56=FOLEOTRADER|10=164|8=FIXT.1.1|9=62|35=0|34=4|49=FOLEOAPI|52=20260608-20:31:41.268|56=FOLEOTRADER|10=174|8=FIXT.1.1|9=62|35=0|34=5|49=FOLEOAPI|52=20260608-20:32:01.399|56=FOLEOTRADER|10=177|8=FIXT.1.1|9=62|35=0|34=6|49=FOLEOAPI|52=20260608-20:32:21.596|56=FOLEOTRADER|10=179|8=FIXT.1.1|9=62|35=0|34=7|49=FOLEOAPI|52=20260608-20:32:41.779|56=FOLEOTRADER|10=185|8=FIXT.1.1|9=62|35=0|34=8|49=FOLEOAPI|52=20260608-20:33:01.936|56=FOLEOTRADER|10=178|8=FIXT.1.1|9=62|35=0|34=9|49=FOLEOAPI|52=20260608-20:33:22.123|56=FOLEOTRADER|10=170|8=FIXT.1.1|9=63|35=0|34=10|49=FOLEOAPI|52=20260608-20:33:42.271|56=FOLEOTRADER|10=217|8=FIXT.1.1|9=63|35=0|34=11|49=FOLEOAPI|52=20260608-20:34:02.387|56=FOLEOTRADER|10=223|8=FIXT.1.1|9=63|35=0|34=12|49=FOLEOAPI|52=20260608-20:34:22.510|56=FOLEOTRADER|10=214|8=FIXT.1.1|9=178|35=D|34=13|49=FOLEOAPI|52=20260608-20:34:35.829|56=FOLEOTRADER|11=FT-7-019ea8f1beb07aeb8c0674299aa53dfe|15=GBP|22=8|38=200|40=2|44=50|48=MKS|54=1|55=MKS|60=20260608-20:34:35.829|10=158|8=FIXT.1.1|9=63|35=0|34=14|49=FOLEOAPI|52=20260608-20:34:55.942|56=FOLEOTRADER|10=231|8=FIXT.1.1|9=63|35=0|34=15|49=FOLEOAPI|52=20260608-20:35:16.086|56=FOLEOTRADER|10=229|8=FIXT.1.1|9=63|35=0|34=16|49=FOLEOAPI|52=20260608-20:35:36.235|56=FOLEOTRADER|10=228|8=FIXT.1.1|9=63|35=0|34=17|49=FOLEOAPI|52=20260608-20:35:56.381|56=FOLEOTRADER|10=233|8=FIXT.1.1|9=63|35=0|34=18|49=FOLEOAPI|52=20260608-20:36:16.534|56=FOLEOTRADER|10=231|8=FIXT.1.1|9=63|35=0|34=19|49=FOLEOAPI|52=20260608-20:36:36.699|56=FOLEOTRADER|10=246|8=FIXT.1.1|9=63|35=0|34=20|49=FOLEOAPI|52=20260608-20:36:56.862|56=FOLEOTRADER|10=232|8=FIXT.1.1|9=63|35=0|34=21|49=FOLEOAPI|52=20260608-20:37:17.018|56=FOLEOTRADER|10=224|8=FIXT.1.1|9=63|35=0|34=22|49=FOLEOAPI|52=20260608-20:37:37.170|56=FOLEOTRADER|10=226|8=FIXT.1.1|9=63|35=0|34=23|49=FOLEOAPI|52=20260608-20:37:57.317|56=FOLEOTRADER|10=232|8=FIXT.1.1|9=63|35=0|34=24|49=FOLEOAPI|52=20260608-20:38:17.494|56=FOLEOTRADER|10=236|8=FIXT.1.1|9=63|35=0|34=25|49=FOLEOAPI|52=20260608-20:38:37.662|56=FOLEOTRADER|10=236|8=FIXT.1.1|9=63|35=0|34=26|49=FOLEOAPI|52=20260608-20:38:57.821|56=FOLEOTRADER|10=236|8=FIXT.1.1|9=63|35=0|34=27|49=FOLEOAPI|52=20260608-20:39:17.981|56=FOLEOTRADER|10=241|8=FIXT.1.1|9=63|35=0|34=28|49=FOLEOAPI|52=20260608-20:39:38.141|56=FOLEOTRADER|10=233|8=FIXT.1.1|9=63|35=0|34=29|49=FOLEOAPI|52=20260608-20:39:58.303|56=FOLEOTRADER|10=236|8=FIXT.1.1|9=63|35=0|34=30|49=FOLEOAPI|52=20260608-20:40:18.427|56=FOLEOTRADER|10=223|8=FIXT.1.1|9=63|35=0|34=31|49=FOLEOAPI|52=20260608-20:40:38.560|56=FOLEOTRADER|10=224|8=FIXT.1.1|9=63|35=0|34=32|49=FOLEOAPI|52=20260608-20:40:58.714|56=FOLEOTRADER|10=228|8=FIXT.1.1|9=63|35=0|34=33|49=FOLEOAPI|52=20260608-20:41:18.855|56=FOLEOTRADER|10=232|8=FIXT.1.1|9=63|35=0|34=34|49=FOLEOAPI|52=20260608-20:41:39.020|56=FOLEOTRADER|10=220|8=FIXT.1.1|9=63|35=0|34=35|49=FOLEOAPI|52=20260608-20:41:59.177|56=FOLEOTRADER|10=236|8=FIXT.1.1|9=63|35=0|34=36|49=FOLEOAPI|52=20260608-20:42:19.330|56=FOLEOTRADER|10=225|8=FIXT.1.1|9=63|35=0|34=37|49=FOLEOAPI|52=20260608-20:42:39.476|56=FOLEOTRADER|10=239|8=FIXT.1.1|9=63|35=0|34=38|49=FOLEOAPI|52=20260608-20:42:59.617|56=FOLEOTRADER|10=239|8=FIXT.1.1|9=63|35=0|34=39|49=FOLEOAPI|52=20260608-20:43:19.778|56=FOLEOTRADER|10=245|8=FIXT.1.1|9=63|35=0|34=40|49=FOLEOAPI|52=20260608-20:43:39.946|56=FOLEOTRADER|10=236|8=FIXT.1.1|9=63|35=0|34=41|49=FOLEOAPI|52=20260608-20:44:00.124|56=FOLEOTRADER|10=214|8=FIXT.1.1|9=63|35=0|34=42|49=FOLEOAPI|52=20260608-20:44:20.295|56=FOLEOTRADER|10=226|8=FIXT.1.1|9=63|35=0|34=43|49=FOLEOAPI|52=20260608-20:44:40.471|56=FOLEOTRADER|10=225|8=FIXT.1.1|9=63|35=0|34=44|49=FOLEOAPI|52=20260608-20:45:00.600|56=FOLEOTRADER|10=217|8=FIXT.1.1|9=63|35=0|34=45|49=FOLEOAPI|52=20260608-20:45:20.752|56=FOLEOTRADER|10=228|8=FIXT.1.1|9=63|35=0|34=46|49=FOLEOAPI|52=20260608-20:45:40.929|56=FOLEOTRADER|10=237|8=FIXT.1.1|9=63|35=0|34=47|49=FOLEOAPI|52=20260608-20:46:01.081|56=FOLEOTRADER|10=225|8=FIXT.1.1|9=63|35=0|34=48|49=FOLEOAPI|52=20260608-20:46:21.219|56=FOLEOTRADER|10=231|8=FIXT.1.1|9=63|35=0|34=49|49=FOLEOAPI|52=20260608-20:46:41.381|56=FOLEOTRADER|10=234|8=FIXT.1.1|9=63|35=0|34=50|49=FOLEOAPI|52=20260608-20:47:01.501|56=FOLEOTRADER|10=217|8=FIXT.1.1|9=63|35=0|34=51|49=FOLEOAPI|52=20260608-20:47:21.659|56=FOLEOTRADER|10=234|8=FIXT.1.1|9=63|35=0|34=52|49=FOLEOAPI|52=20260608-20:47:41.829|56=FOLEOTRADER|10=236|8=FIXT.1.1|9=63|35=0|34=53|49=FOLEOAPI|52=20260608-20:48:01.979|56=FOLEOTRADER|10=240|8=FIXT.1.1|9=63|35=0|34=54|49=FOLEOAPI|52=20260608-20:48:22.150|56=FOLEOTRADER|10=225|8=FIXT.1.1|9=63|35=0|34=55|49=FOLEOAPI|52=20260608-20:48:42.337|56=FOLEOTRADER|10=235|8=FIXT.1.1|9=63|35=0|34=56|49=FOLEOAPI|52=20260608-20:49:02.479|56=FOLEOTRADER|10=240|8=FIXT.1.1|9=63|35=0|34=57|49=FOLEOAPI|52=20260608-20:49:22.640|56=FOLEOTRADER|10=233|8=FIXT.1.1|9=63|35=0|34=58|49=FOLEOAPI|52=20260608-20:49:42.779|56=FOLEOTRADER|10=249|8=FIXT.1.1|9=63|35=0|34=59|49=FOLEOAPI|52=20260608-20:50:02.977|56=FOLEOTRADER|10=238|8=FIXT.1.1|9=63|35=0|34=60|49=FOLEOAPI|52=20260608-20:50:23.116|56=FOLEOTRADER|10=218|8=FIXT.1.1|9=63|35=0|34=61|49=FOLEOAPI|52=20260608-20:50:43.276|56=FOLEOTRADER|10=228|8=FIXT.1.1|9=63|35=0|34=62|49=FOLEOAPI|52=20260608-20:51:03.446|56=FOLEOTRADER|10=225|8=FIXT.1.1|9=63|35=0|34=63|49=FOLEOAPI|52=20260608-20:51:23.584|56=FOLEOTRADER|10=231|8=FIXT.1.1|9=63|35=0|34=64|49=FOLEOAPI|52=20260608-20:51:43.755|56=FOLEOTRADER|10=234|8=FIXT.1.1|9=63|35=0|34=65|49=FOLEOAPI|52=20260608-20:52:03.923|56=FOLEOTRADER|10=229|8=FIXT.1.1|9=63|35=0|34=66|49=FOLEOAPI|52=20260608-20:52:24.082|56=FOLEOTRADER|10=229|8=FIXT.1.1|9=63|35=0|34=67|49=FOLEOAPI|52=20260608-20:52:44.253|56=FOLEOTRADER|10=232|8=FIXT.1.1|9=63|35=0|34=68|49=FOLEOAPI|52=20260608-20:53:04.418|56=FOLEOTRADER|10=233|8=FIXT.1.1|9=63|35=0|34=69|49=FOLEOAPI|52=20260608-20:53:24.556|56=FOLEOTRADER|10=239|8=FIXT.1.1|9=63|35=0|34=70|49=FOLEOAPI|52=20260608-20:53:44.718|56=FOLEOTRADER|10=233|8=FIXT.1.1|9=63|35=0|34=71|49=FOLEOAPI|52=20260608-20:54:04.906|56=FOLEOTRADER|10=230|8=FIXT.1.1|9=63|35=0|34=72|49=FOLEOAPI|52=20260608-20:54:25.078|56=FOLEOTRADER|10=234|8=FIXT.1.1|9=63|35=0|34=73|49=FOLEOAPI|52=20260608-20:54:45.241|56=FOLEOTRADER|10=229|8=FIXT.1.1|9=63|35=0|34=74|49=FOLEOAPI|52=20260608-20:55:05.389|56=FOLEOTRADER|10=240|8=FIXT.1.1|9=63|35=0|34=75|49=FOLEOAPI|52=20260608-20:55:25.540|56=FOLEOTRADER|10=232|8=FIXT.1.1|9=63|35=0|34=76|49=FOLEOAPI|52=20260608-20:55:45.657|56=FOLEOTRADER|10=244|8=FIXT.1.1|9=63|35=0|34=77|49=FOLEOAPI|52=20260608-20:56:05.820|56=FOLEOTRADER|10=234|8=FIXT.1.1|9=63|35=0|34=78|49=FOLEOAPI|52=20260608-20:56:26.019|56=FOLEOTRADER|10=238|8=FIXT.1.1|9=63|35=0|34=79|49=FOLEOAPI|52=20260608-20:56:46.166|56=FOLEOTRADER|10=244|8=FIXT.1.1|9=63|35=0|34=80|49=FOLEOAPI|52=20260608-20:57:06.311|56=FOLEOTRADER|10=225|8=FIXT.1.1|9=63|35=0|34=81|49=FOLEOAPI|52=20260608-20:57:26.472|56=FOLEOTRADER|10=236|8=FIXT.1.1|9=63|35=0|34=82|49=FOLEOAPI|52=20260608-20:57:46.643|56=FOLEOTRADER|10=239|8=FIXT.1.1|9=63|35=0|34=83|49=FOLEOAPI|52=20260608-20:58:06.783|56=FOLEOTRADER|10=242|8=FIXT.1.1|9=63|35=0|34=84|49=FOLEOAPI|52=20260608-20:58:26.951|56=FOLEOTRADER|10=242|8=FIXT.1.1|9=63|35=0|34=85|49=FOLEOAPI|52=20260608-20:58:47.117|56=FOLEOTRADER|10=240|8=FIXT.1.1|9=63|35=0|34=86|49=FOLEOAPI|52=20260608-20:59:07.265|56=FOLEOTRADER|10=242|8=FIXT.1.1|9=63|35=0|34=87|49=FOLEOAPI|52=20260608-20:59:27.444|56=FOLEOTRADER|10=244|8=FIXT.1.1|9=63|35=0|34=88|49=FOLEOAPI|52=20260608-20:59:47.587|56=FOLEOTRADER|10=255|8=FIXT.1.1|9=63|35=0|34=89|49=FOLEOAPI|52=20260608-21:00:07.733|56=FOLEOTRADER|10=232|8=FIXT.1.1|9=63|35=0|34=90|49=FOLEOAPI|52=20260608-21:00:28.615|56=FOLEOTRADER|10=226|8=FIXT.1.1|9=63|35=0|34=91|49=FOLEOAPI|52=20260608-21:00:48.773|56=FOLEOTRADER|10=234|8=FIXT.1.1|9=63|35=0|34=92|49=FOLEOAPI|52=20260608-21:01:08.915|56=FOLEOTRADER|10=230|8=FIXT.1.1|9=63|35=0|34=93|49=FOLEOAPI|52=20260608-21:01:29.084|56=FOLEOTRADER|10=231|8=FIXT.1.1|9=63|35=0|34=94|49=FOLEOAPI|52=20260608-21:01:49.229|56=FOLEOTRADER|10=235|8=FIXT.1.1|9=63|35=0|34=95|49=FOLEOAPI|52=20260608-21:02:09.426|56=FOLEOTRADER|10=232|8=FIXT.1.1|9=63|35=0|34=96|49=FOLEOAPI|52=20260608-21:02:29.584|56=FOLEOTRADER|10=240|8=FIXT.1.1|9=63|35=0|34=97|49=FOLEOAPI|52=20260608-21:02:49.766|56=FOLEOTRADER|10=245|8=FIXT.1.1|9=63|35=0|34=98|49=FOLEOAPI|52=20260608-21:03:09.935|56=FOLEOTRADER|10=241|8=FIXT.1.1|9=63|35=0|34=99|49=FOLEOAPI|52=20260608-21:03:30.138|56=FOLEOTRADER|10=231|8=FIXT.1.1|9=64|35=0|34=100|49=FOLEOAPI|52=20260608-21:03:50.283|56=FOLEOTRADER|10=010|8=FIXT.1.1|9=64|35=0|34=101|49=FOLEOAPI|52=20260608-21:04:10.473|56=FOLEOTRADER|10=009|8=FIXT.1.1|9=64|35=0|34=102|49=FOLEOAPI|52=20260608-21:04:30.658|56=FOLEOTRADER|10=017|8=FIXT.1.1|9=64|35=0|34=103|49=FOLEOAPI|52=20260608-21:04:50.845|56=FOLEOTRADER|10=018|8=FIXT.1.1|9=64|35=0|34=104|49=FOLEOAPI|52=20260608-21:05:10.992|56=FOLEOTRADER|10=019|8=FIXT.1.1|9=64|35=0|34=105|49=FOLEOAPI|52=20260608-21:05:31.146|56=FOLEOTRADER|10=014|8=FIXT.1.1|9=64|35=0|34=106|49=FOLEOAPI|52=20260608-21:05:51.302|56=FOLEOTRADER|10=011|8=FIXT.1.1|9=64|35=0|34=107|49=FOLEOAPI|52=20260608-21:06:11.456|56=FOLEOTRADER|10=019|8=FIXT.1.1|9=64|35=0|34=108|49=FOLEOAPI|52=20260608-21:06:31.629|56=FOLEOTRADER|10=024|8=FIXT.1.1|9=64|35=0|34=109|49=FOLEOAPI|52=20260608-21:06:51.778|56=FOLEOTRADER|10=032|8=FIXT.1.1|9=64|35=0|34=110|49=FOLEOAPI|52=20260608-21:07:11.964|56=FOLEOTRADER|10=018|8=FIXT.1.1|9=64|35=0|34=111|49=FOLEOAPI|52=20260608-21:07:32.111|56=FOLEOTRADER|10=006|8=FIXT.1.1|9=64|35=0|34=112|49=FOLEOAPI|52=20260608-21:07:52.302|56=FOLEOTRADER|10=011|8=FIXT.1.1|9=64|35=0|34=113|49=FOLEOAPI|52=20260608-21:08:12.433|56=FOLEOTRADER|10=014|8=FIXT.1.1|9=64|35=0|34=114|49=FOLEOAPI|52=20260608-21:08:32.601|56=FOLEOTRADER|10=014|8=FIXT.1.1|9=64|35=0|34=115|49=FOLEOAPI|52=20260608-21:08:52.775|56=FOLEOTRADER|10=029|8=FIXT.1.1|9=64|35=0|34=116|49=FOLEOAPI|52=20260608-21:09:12.907|56=FOLEOTRADER|10=024|8=FIXT.1.1|9=64|35=0|34=117|49=FOLEOAPI|52=20260608-21:09:33.095|56=FOLEOTRADER|10=026|8=FIXT.1.1|9=64|35=0|34=118|49=FOLEOAPI|52=20260608-21:09:53.253|56=FOLEOTRADER|10=025|8=FIXT.1.1|9=64|35=0|34=119|49=FOLEOAPI|52=20260608-21:10:13.389|56=FOLEOTRADER|10=024|8=FIXT.1.1|9=64|35=0|34=120|49=FOLEOAPI|52=20260608-21:10:33.543|56=FOLEOTRADER|10=010|8=FIXT.1.1|9=64|35=0|34=121|49=FOLEOAPI|52=20260608-21:10:53.722|56=FOLEOTRADER|10=012|8=FIXT.1.1|9=64|35=0|34=122|49=FOLEOAPI|52=20260608-21:11:13.860|56=FOLEOTRADER|10=013|8=FIXT.1.1|9=64|35=0|34=123|49=FOLEOAPI|52=20260608-21:11:34.013|56=FOLEOTRADER|10=007|8=FIXT.1.1|9=64|35=0|34=124|49=FOLEOAPI|52=20260608-21:11:54.164|56=FOLEOTRADER|10=017|8=FIXT.1.1|9=64|35=0|34=125|49=FOLEOAPI|52=20260608-21:12:14.298|56=FOLEOTRADER|10=023|8=FIXT.1.1|9=64|35=0|34=126|49=FOLEOAPI|52=20260608-21:12:34.443|56=FOLEOTRADER|10=018|8=FIXT.1.1|9=64|35=0|34=127|49=FOLEOAPI|52=20260608-21:12:54.614|56=FOLEOTRADER|10=021|8=FIXT.1.1|9=64|35=0|34=128|49=FOLEOAPI|52=20260608-21:13:14.813|56=FOLEOTRADER|10=020|8=FIXT.1.1|9=64|35=0|34=129|49=FOLEOAPI|52=20260608-21:13:34.950|56=FOLEOTRADER|10=025|8=FIXT.1.1|9=64|35=0|34=130|49=FOLEOAPI|52=20260608-21:13:55.143|56=FOLEOTRADER|10=014|8=FIXT.1.1|9=64|35=0|34=131|49=FOLEOAPI|52=20260608-21:14:15.340|56=FOLEOTRADER|10=011|8=FIXT.1.1|9=64|35=0|34=132|49=FOLEOAPI|52=20260608-21:14:35.492|56=FOLEOTRADER|10=022|8=FIXT.1.1|9=64|35=0|34=133|49=FOLEOAPI|52=20260608-21:14:55.664|56=FOLEOTRADER|10=026|8=FIXT.1.1|9=64|35=0|34=134|49=FOLEOAPI|52=20260608-21:15:15.842|56=FOLEOTRADER|10=022|8=FIXT.1.1|9=64|35=0|34=135|49=FOLEOAPI|52=20260608-21:15:35.994|56=FOLEOTRADER|10=033|8=FIXT.1.1|9=64|35=0|34=136|49=FOLEOAPI|52=20260608-21:15:56.146|56=FOLEOTRADER|10=026|8=FIXT.1.1|9=64|35=0|34=137|49=FOLEOAPI|52=20260608-21:16:16.316|56=FOLEOTRADER|10=023|8=FIXT.1.1|9=64|35=0|34=138|49=FOLEOAPI|52=20260608-21:16:36.492|56=FOLEOTRADER|10=031|8=FIXT.1.1|9=64|35=0|34=139|49=FOLEOAPI|52=20260608-21:16:56.661|56=FOLEOTRADER|10=032|8=FIXT.1.1|9=64|35=0|34=140|49=FOLEOAPI|52=20260608-21:17:16.822|56=FOLEOTRADER|10=020|8=FIXT.1.1|9=64|35=0|34=141|49=FOLEOAPI|52=20260608-21:17:36.967|56=FOLEOTRADER|10=033|8=FIXT.1.1|9=64|35=0|34=142|49=FOLEOAPI|52=20260608-21:17:57.123|56=FOLEOTRADER|10=021|8=FIXT.1.1|9=64|35=0|34=143|49=FOLEOAPI|52=20260608-21:18:17.260|56=FOLEOTRADER|10=021|8=FIXT.1.1|9=64|35=0|34=144|49=FOLEOAPI|52=20260608-21:18:37.426|56=FOLEOTRADER|10=028|8=FIXT.1.1|9=64|35=0|34=145|49=FOLEOAPI|52=20260608-21:18:57.547|56=FOLEOTRADER|10=035|8=FIXT.1.1|9=64|35=0|34=146|49=FOLEOAPI|52=20260608-21:19:17.734|56=FOLEOTRADER|10=031|8=FIXT.1.1|9=64|35=0|34=147|49=FOLEOAPI|52=20260608-21:19:37.902|56=FOLEOTRADER|10=031|8=FIXT.1.1|9=64|35=0|34=148|49=FOLEOAPI|52=20260608-21:19:58.103|56=FOLEOTRADER|10=028|8=FIXT.1.1|9=64|35=0|34=149|49=FOLEOAPI|52=20260608-21:20:18.249|56=FOLEOTRADER|10=028|8=FIXT.1.1|9=64|35=0|34=150|49=FOLEOAPI|52=20260608-21:20:38.426|56=FOLEOTRADER|10=019|8=FIXT.1.1|9=64|35=0|34=151|49=FOLEOAPI|52=20260608-21:20:58.578|56=FOLEOTRADER|10=030|8=FIXT.1.1|9=64|35=0|34=152|49=FOLEOAPI|52=20260608-21:21:18.748|56=FOLEOTRADER|10=027|8=FIXT.1.1|9=64|35=0|34=153|49=FOLEOAPI|52=20260608-21:21:38.895|56=FOLEOTRADER|10=033|8=FIXT.1.1|9=64|35=0|34=154|49=FOLEOAPI|52=20260608-21:21:59.073|56=FOLEOTRADER|10=025|8=FIXT.1.1|9=64|35=0|34=155|49=FOLEOAPI|52=20260608-21:22:19.234|56=FOLEOTRADER|10=022|8=FIXT.1.1|9=64|35=0|34=156|49=FOLEOAPI|52=20260608-21:22:39.394|56=FOLEOTRADER|10=032|8=FIXT.1.1|9=64|35=0|34=157|49=FOLEOAPI|52=20260608-21:22:59.530|56=FOLEOTRADER|10=027|8=FIXT.1.1|9=64|35=0|34=158|49=FOLEOAPI|52=20260608-21:23:19.710|56=FOLEOTRADER|10=025|8=FIXT.1.1|9=64|35=0|34=159|49=FOLEOAPI|52=20260608-21:23:39.872|56=FOLEOTRADER|10=037|8=FIXT.1.1|9=64|35=0|34=160|49=FOLEOAPI|52=20260608-21:24:00.001|56=FOLEOTRADER|10=002|8=FIXT.1.1|9=64|35=0|34=161|49=FOLEOAPI|52=20260608-21:24:20.171|56=FOLEOTRADER|10=013|8=FIXT.1.1|9=64|35=0|34=162|49=FOLEOAPI|52=20260608-21:24:40.303|56=FOLEOTRADER|10=013|8=FIXT.1.1|9=64|35=0|34=163|49=FOLEOAPI|52=20260608-21:25:00.470|56=FOLEOTRADER|10=016|8=FIXT.1.1|9=64|35=0|34=164|49=FOLEOAPI|52=20260608-21:25:20.601|56=FOLEOTRADER|10=015|8=FIXT.1.1|9=64|35=0|34=165|49=FOLEOAPI|52=20260608-21:25:40.778|56=FOLEOTRADER|10=033|8=FIXT.1.1|9=64|35=0|34=166|49=FOLEOAPI|52=20260608-21:26:00.898|56=FOLEOTRADER|10=034|8=FIXT.1.1|9=64|35=0|34=167|49=FOLEOAPI|52=20260608-21:26:21.067|56=FOLEOTRADER|10=026|8=FIXT.1.1|9=64|35=0|34=168|49=FOLEOAPI|52=20260608-21:26:41.243|56=FOLEOTRADER|10=025|8=FIXT.1.1|9=64|35=0|34=169|49=FOLEOAPI|52=20260608-21:27:01.428|56=FOLEOTRADER|10=028|8=FIXT.1.1|9=64|35=0|34=170|49=FOLEOAPI|52=20260608-21:27:21.612|56=FOLEOTRADER|10=017|8=FIXT.1.1|9=64|35=0|34=171|49=FOLEOAPI|52=20260608-21:27:41.807|56=FOLEOTRADER|10=026|8=FIXT.1.1|9=64|35=0|34=172|49=FOLEOAPI|52=20260608-21:28:01.950|56=FOLEOTRADER|10=023|8=FIXT.1.1|9=64|35=0|34=173|49=FOLEOAPI|52=20260608-21:28:22.146|56=FOLEOTRADER|10=024|8=FIXT.1.1|9=64|35=0|34=174|49=FOLEOAPI|52=20260608-21:28:42.310|56=FOLEOTRADER|10=020|8=FIXT.1.1|9=64|35=0|34=175|49=FOLEOAPI|52=20260608-21:29:02.482|56=FOLEOTRADER|10=028|8=FIXT.1.1|9=64|35=0|34=176|49=FOLEOAPI|52=20260608-21:29:22.659|56=FOLEOTRADER|10=037|8=FIXT.1.1|9=64|35=0|34=177|49=FOLEOAPI|52=20260608-21:29:42.787|56=FOLEOTRADER|10=042|8=FIXT.1.1|9=64|35=0|34=178|49=FOLEOAPI|52=20260608-21:30:02.972|56=FOLEOTRADER|10=027|8=FIXT.1.1|9=64|35=0|34=179|49=FOLEOAPI|52=20260608-21:30:23.137|56=FOLEOTRADER|10=024|8=FIXT.1.1|9=64|35=0|34=180|49=FOLEOAPI|52=20260608-21:30:43.278|56=FOLEOTRADER|10=024|8=FIXT.1.1|9=64|35=0|34=181|49=FOLEOAPI|52=20260608-21:31:03.549|56=FOLEOTRADER|10=023|8=FIXT.1.1|9=64|35=0|34=182|49=FOLEOAPI|52=20260608-21:31:23.719|56=FOLEOTRADER|10=025|8=FIXT.1.1|9=64|35=0|34=183|49=FOLEOAPI|52=20260608-21:31:43.914|56=FOLEOTRADER|10=025|8=FIXT.1.1|9=64|35=0|34=184|49=FOLEOAPI|52=20260608-21:32:04.048|56=FOLEOTRADER|10=022|8=FIXT.1.1|9=64|35=0|34=185|49=FOLEOAPI|52=20260608-21:32:24.235|56=FOLEOTRADER|10=023|8=FIXT.1.1|9=64|35=0|34=186|49=FOLEOAPI|52=20260608-21:32:44.376|56=FOLEOTRADER|10=032|8=FIXT.1.1|9=64|35=0|34=187|49=FOLEOAPI|52=20260608-21:33:04.545|56=FOLEOTRADER|10=028|8=FIXT.1.1|9=64|35=0|34=188|49=FOLEOAPI|52=20260608-21:33:24.705|56=FOLEOTRADER|10=029|8=FIXT.1.1|9=64|35=0|34=189|49=FOLEOAPI|52=20260608-21:33:44.916|56=FOLEOTRADER|10=036|8=FIXT.1.1|9=64|35=0|34=190|49=FOLEOAPI|52=20260608-21:34:05.052|56=FOLEOTRADER|10=017|8=FIXT.1.1|9=64|35=0|34=191|49=FOLEOAPI|52=20260608-21:34:25.233|56=FOLEOTRADER|10=021|8=FIXT.1.1|9=64|35=0|34=192|49=FOLEOAPI|52=20260608-21:34:45.389|56=FOLEOTRADER|10=036|8=FIXT.1.1|9=64|35=0|34=193|49=FOLEOAPI|52=20260608-21:35:05.549|56=FOLEOTRADER|10=032|8=FIXT.1.1|9=64|35=0|34=194|49=FOLEOAPI|52=20260608-21:35:25.697|56=FOLEOTRADER|10=039|8=FIXT.1.1|9=64|35=0|34=195|49=FOLEOAPI|52=20260608-21:35:45.859|56=FOLEOTRADER|10=042|8=FIXT.1.1|9=64|35=0|34=196|49=FOLEOAPI|52=20260608-21:36:06.027|56=FOLEOTRADER|10=028|8=FIXT.1.1|9=64|35=0|34=197|49=FOLEOAPI|52=20260608-21:36:26.196|56=FOLEOTRADER|10=038|8=FIXT.1.1|9=64|35=0|34=198|49=FOLEOAPI|52=20260608-21:36:46.379|56=FOLEOTRADER|10=044|8=FIXT.1.1|9=64|35=0|34=199|49=FOLEOAPI|52=20260608-21:37:06.537|56=FOLEOTRADER|10=038|8=FIXT.1.1|9=64|35=0|34=200|49=FOLEOAPI|52=20260608-21:37:26.699|56=FOLEOTRADER|10=032|8=FIXT.1.1|9=64|35=0|34=201|49=FOLEOAPI|52=20260608-21:37:46.863|56=FOLEOTRADER|10=028|8=FIXT.1.1|9=64|35=0|34=202|49=FOLEOAPI|52=20260608-21:38:07.038|56=FOLEOTRADER|10=021|8=FIXT.1.1|9=64|35=0|34=203|49=FOLEOAPI|52=20260608-21:38:27.189|56=FOLEOTRADER|10=031|8=FIXT.1.1|9=64|35=0|34=204|49=FOLEOAPI|52=20260608-21:38:47.353|56=FOLEOTRADER|10=027|8=FIXT.1.1|9=64|35=0|34=205|49=FOLEOAPI|52=20260608-21:39:07.526|56=FOLEOTRADER|10=027|8=FIXT.1.1|9=64|35=0|34=206|49=FOLEOAPI|52=20260608-21:39:27.686|56=FOLEOTRADER|10=037|8=FIXT.1.1|9=64|35=0|34=207|49=FOLEOAPI|52=20260608-21:39:47.853|56=FOLEOTRADER|10=036|8=FIXT.1.1|9=64|35=0|34=208|49=FOLEOAPI|52=20260608-21:40:07.973|56=FOLEOTRADER|10=028|8=FIXT.1.1|9=64|35=0|34=209|49=FOLEOAPI|52=20260608-21:40:28.133|56=FOLEOTRADER|10=020|8=FIXT.1.1|9=64|35=0|34=210|49=FOLEOAPI|52=20260608-21:40:48.327|56=FOLEOTRADER|10=019|8=FIXT.1.1|9=64|35=0|34=211|49=FOLEOAPI|52=20260608-21:41:08.496|56=FOLEOTRADER|10=024|8=FIXT.1.1|9=64|35=0|34=212|49=FOLEOAPI|52=20260608-21:41:28.635|56=FOLEOTRADER|10=022|8=FIXT.1.1|9=64|35=0|34=213|49=FOLEOAPI|52=20260608-21:41:48.795|56=FOLEOTRADER|10=032|8=FIXT.1.1|9=64|35=0|34=214|49=FOLEOAPI|52=20260608-21:42:08.952|56=FOLEOTRADER|10=025|8=FIXT.1.1|9=64|35=0|34=215|49=FOLEOAPI|52=20260608-21:42:29.104|56=FOLEOTRADER|10=018|8=FIXT.1.1|9=64|35=0|34=216|49=FOLEOAPI|52=20260608-21:42:49.245|56=FOLEOTRADER|10=027|8=FIXT.1.1|9=64|35=0|34=217|49=FOLEOAPI|52=20260608-21:43:09.444|56=FOLEOTRADER|10=026|8=FIXT.1.1|9=64|35=0|34=218|49=FOLEOAPI|52=20260608-21:43:29.598|56=FOLEOTRADER|10=039|8=FIXT.1.1|9=64|35=0|34=219|49=FOLEOAPI|52=20260608-21:43:49.745|56=FOLEOTRADER|10=036|8=FIXT.1.1|9=64|35=0|34=220|49=FOLEOAPI|52=20260608-21:44:09.895|56=FOLEOTRADER|10=031|8=FIXT.1.1|9=64|35=0|34=221|49=FOLEOAPI|52=20260608-21:44:30.069|56=FOLEOTRADER|10=019|8=FIXT.1.1|9=64|35=0|34=222|49=FOLEOAPI|52=20260608-21:44:50.235|56=FOLEOTRADER|10=017|8=FIXT.1.1|9=64|35=0|34=223|49=FOLEOAPI|52=20260608-21:45:10.392|56=FOLEOTRADER|10=019|8=FIXT.1.1|9=64|35=0|34=224|49=FOLEOAPI|52=20260608-21:45:30.566|56=FOLEOTRADER|10=025|8=FIXT.1.1|9=64|35=0|34=225|49=FOLEOAPI|52=20260608-21:45:50.733|56=FOLEOTRADER|10=024|8=FIXT.1.1|9=64|35=0|34=226|49=FOLEOAPI|52=20260608-21:46:10.881|56=FOLEOTRADER|10=026|8=FIXT.1.1|9=64|35=0|34=227|49=FOLEOAPI|52=20260608-21:46:31.031|56=FOLEOTRADER|10=017|8=FIXT.1.1|9=64|35=0|34=228|49=FOLEOAPI|52=20260608-21:46:51.167|56=FOLEOTRADER|10=030|8=FIXT.1.1|9=64|35=0|34=229|49=FOLEOAPI|52=20260608-21:47:11.337|56=FOLEOTRADER|10=027|8=FIXT.1.1|9=64|35=0|34=230|49=FOLEOAPI|52=20260608-21:47:31.511|56=FOLEOTRADER|10=015|8=FIXT.1.1|9=64|35=0|34=231|49=FOLEOAPI|52=20260608-21:47:51.702|56=FOLEOTRADER|10=020|8=FIXT.1.1|9=64|35=0|34=232|49=FOLEOAPI|52=20260608-21:48:11.864|56=FOLEOTRADER|10=027|8=FIXT.1.1|9=64|35=0|34=233|49=FOLEOAPI|52=20260608-21:48:32.052|56=FOLEOTRADER|10=020|8=FIXT.1.1|9=64|35=0|34=234|49=FOLEOAPI|52=20260608-21:48:52.224|56=FOLEOTRADER|10=024|8=FIXT.1.1|9=64|35=0|34=235|49=FOLEOAPI|52=20260608-21:49:12.396|56=FOLEOTRADER|10=032|8=FIXT.1.1|9=64|35=0|34=236|49=FOLEOAPI|52=20260608-21:49:32.588|56=FOLEOTRADER|10=038|8=FIXT.1.1|9=64|35=0|34=237|49=FOLEOAPI|52=20260608-21:49:52.761|56=FOLEOTRADER|10=034|8=FIXT.1.1|9=64|35=0|34=238|49=FOLEOAPI|52=20260608-21:50:12.869|56=FOLEOTRADER|10=032|8=FIXT.1.1|9=64|35=0|34=239|49=FOLEOAPI|52=20260608-21:50:33.050|56=FOLEOTRADER|10=018|8=FIXT.1.1|9=64|35=0|34=240|49=FOLEOAPI|52=20260608-21:50:53.247|56=FOLEOTRADER|10=020|8=FIXT.1.1|9=64|35=0|34=241|49=FOLEOAPI|52=20260608-21:51:13.418|56=FOLEOTRADER|10=018|8=FIXT.1.1|9=64|35=0|34=242|49=FOLEOAPI|52=20260608-21:51:33.573|56=FOLEOTRADER|10=023|8=FIXT.1.1|9=64|35=0|34=243|49=FOLEOAPI|52=20260608-21:51:53.764|56=FOLEOTRADER|10=028|8=FIXT.1.1|9=64|35=0|34=244|49=FOLEOAPI|52=20260608-21:52:13.946|56=FOLEOTRADER|10=028|8=FIXT.1.1|9=64|35=0|34=245|49=FOLEOAPI|52=20260608-21:52:34.105|56=FOLEOTRADER|10=019|8=FIXT.1.1|9=64|35=0|34=246|49=FOLEOAPI|52=20260608-21:52:54.249|56=FOLEOTRADER|10=031|8=FIXT.1.1|9=64|35=0|34=247|49=FOLEOAPI|52=20260608-21:53:14.430|56=FOLEOTRADER|10=021|8=FIXT.1.1|9=64|35=0|34=248|49=FOLEOAPI|52=20260608-21:53:34.576|56=FOLEOTRADER|10=035|8=FIXT.1.1|9=64|35=0|34=249|49=FOLEOAPI|52=20260608-21:53:54.767|56=FOLEOTRADER|10=040|8=FIXT.1.1|9=64|35=0|34=250|49=FOLEOAPI|52=20260608-21:54:14.941|56=FOLEOTRADER|10=023|8=FIXT.1.1|9=64|35=0|34=251|49=FOLEOAPI|52=20260608-21:54:35.120|56=FOLEOTRADER|10=016|8=FIXT.1.1|9=64|35=0|34=252|49=FOLEOAPI|52=20260608-21:54:55.342|56=FOLEOTRADER|10=025|8=FIXT.1.1|9=64|35=0|34=253|49=FOLEOAPI|52=20260608-21:55:15.519|56=FOLEOTRADER|10=029|8=FIXT.1.1|9=64|35=0|34=254|49=FOLEOAPI|52=20260608-21:55:35.699|56=FOLEOTRADER|10=041|8=FIXT.1.1|9=64|35=0|34=255|49=FOLEOAPI|52=20260608-21:55:55.917|56=FOLEOTRADER|10=037|8=FIXT.1.1|9=64|35=0|34=256|49=FOLEOAPI|52=20260608-21:56:16.072|56=FOLEOTRADER|10=028|8=FIXT.1.1|9=64|35=0|34=257|49=FOLEOAPI|52=20260608-21:56:36.208|56=FOLEOTRADER|10=032|8=FIXT.1.1|9=64|35=0|34=258|49=FOLEOAPI|52=20260608-21:56:56.409|56=FOLEOTRADER|10=038|8=FIXT.1.1|9=64|35=0|34=259|49=FOLEOAPI|52=20260608-21:57:16.608|56=FOLEOTRADER|10=037|8=FIXT.1.1|9=64|35=0|34=260|49=FOLEOAPI|52=20260608-21:57:36.798|56=FOLEOTRADER|10=041|8=FIXT.1.1|9=64|35=0|34=261|49=FOLEOAPI|52=20260608-21:57:57.020|56=FOLEOTRADER|10=023|8=FIXT.1.1|9=64|35=0|34=262|49=FOLEOAPI|52=20260608-21:58:17.226|56=FOLEOTRADER|10=029|8=FIXT.1.1|9=64|35=0|34=263|49=FOLEOAPI|52=20260608-21:58:37.414|56=FOLEOTRADER|10=031|8=FIXT.1.1|9=64|35=0|34=264|49=FOLEOAPI|52=20260608-21:58:57.590|56=FOLEOTRADER|10=039|8=FIXT.1.1|9=64|35=0|34=265|49=FOLEOAPI|52=20260608-21:59:17.763|56=FOLEOTRADER|10=039|8=FIXT.1.1|9=64|35=0|34=266|49=FOLEOAPI|52=20260608-21:59:37.894|56=FOLEOTRADER|10=047|8=FIXT.1.1|9=64|35=0|34=267|49=FOLEOAPI|52=20260608-21:59:58.066|56=FOLEOTRADER|10=042|8=FIXT.1.1|9=64|35=0|34=268|49=FOLEOAPI|52=20260608-22:00:18.251|56=FOLEOTRADER|10=022|8=FIXT.1.1|9=64|35=0|34=269|49=FOLEOAPI|52=20260608-22:00:38.408|56=FOLEOTRADER|10=029|8=FIXT.1.1|9=64|35=0|34=270|49=FOLEOAPI|52=20260608-22:00:58.606|56=FOLEOTRADER|10=023|8=FIXT.1.1|9=64|35=0|34=271|49=FOLEOAPI|52=20260608-22:01:18.823|56=FOLEOTRADER|10=022|8=FIXT.1.1|9=64|35=0|34=272|49=FOLEOAPI|52=20260608-22:01:39.011|56=FOLEOTRADER|10=015|8=FIXT.1.1|9=64|35=0|34=273|49=FOLEOAPI|52=20260608-22:01:59.196|56=FOLEOTRADER|10=032|8=FIXT.1.1|9=64|35=0|34=274|49=FOLEOAPI|52=20260608-22:02:19.362|56=FOLEOTRADER|10=025|8=FIXT.1.1|9=64|35=0|34=275|49=FOLEOAPI|52=20260608-22:02:39.568|56=FOLEOTRADER|10=036|8=FIXT.1.1|9=64|35=0|34=276|49=FOLEOAPI|52=20260608-22:02:59.765|56=FOLEOTRADER|10=038|8=FIXT.1.1|9=64|35=0|34=277|49=FOLEOAPI|52=20260608-22:03:19.948|56=FOLEOTRADER|10=039|8=FIXT.1.1|9=64|35=0|34=278|49=FOLEOAPI|52=20260608-22:03:40.135|56=FOLEOTRADER|10=022|8=FIXT.1.1|9=64|35=0|34=279|49=FOLEOAPI|52=20260608-22:04:00.296|56=FOLEOTRADER|10=028|8=FIXT.1.1|9=64|35=0|34=280|49=FOLEOAPI|52=20260608-22:04:20.499|56=FOLEOTRADER|10=027|8=FIXT.1.1|9=64|35=0|34=281|49=FOLEOAPI|52=20260608-22:04:40.680|56=FOLEOTRADER|10=022|8=FIXT.1.1|9=64|35=0|34=282|49=FOLEOAPI|52=20260608-22:05:00.844|56=FOLEOTRADER|10=022|8=FIXT.1.1|9=64|35=0|34=283|49=FOLEOAPI|52=20260608-22:05:21.048|56=FOLEOTRADER|10=022|8=FIXT.1.1|9=64|35=0|34=284|49=FOLEOAPI|52=20260608-22:05:41.178|56=FOLEOTRADER|10=029|8=FIXT.1.1|9=64|35=0|34=285|49=FOLEOAPI|52=20260608-22:06:01.324|56=FOLEOTRADER|10=020|8=FIXT.1.1|9=64|35=0|34=286|49=FOLEOAPI|52=20260608-22:06:21.491|56=FOLEOTRADER|10=028|8=FIXT.1.1|9=64|35=0|34=287|49=FOLEOAPI|52=20260608-22:06:41.716|56=FOLEOTRADER|10=031|8=FIXT.1.1|9=64|35=0|34=288|49=FOLEOAPI|52=20260608-22:07:01.907|56=FOLEOTRADER|10=031|8=FIXT.1.1|9=64|35=0|34=289|49=FOLEOAPI|52=20260608-22:07:22.080|56=FOLEOTRADER|10=027|8=FIXT.1.1|9=64|35=0|34=290|49=FOLEOAPI|52=20260608-22:07:42.292|56=FOLEOTRADER|10=026|8=FIXT.1.1|9=64|35=0|34=291|49=FOLEOAPI|52=20260608-22:08:02.470|56=FOLEOTRADER|10=022|8=FIXT.1.1|9=64|35=0|34=292|49=FOLEOAPI|52=20260608-22:08:22.648|56=FOLEOTRADER|10=032|8=FIXT.1.1|9=64|35=0|34=293|49=FOLEOAPI|52=20260608-22:08:42.868|56=FOLEOTRADER|10=039|8=FIXT.1.1|9=64|35=0|34=294|49=FOLEOAPI|52=20260608-22:09:03.057|56=FOLEOTRADER|10=028|8=FIXT.1.1|9=64|35=0|34=295|49=FOLEOAPI|52=20260608-22:09:23.218|56=FOLEOTRADER|10=030|8=FIXT.1.1|9=64|35=0|34=296|49=FOLEOAPI|52=20260608-22:09:43.409|56=FOLEOTRADER|10=035|8=FIXT.1.1|9=64|35=0|34=297|49=FOLEOAPI|52=20260608-22:10:03.622|56=FOLEOTRADER|10=021|8=FIXT.1.1|9=64|35=0|34=298|49=FOLEOAPI|52=20260608-22:10:23.817|56=FOLEOTRADER|10=030|8=FIXT.1.1|9=64|35=0|34=299|49=FOLEOAPI|52=20260608-22:10:43.999|56=FOLEOTRADER|10=044|8=FIXT.1.1|9=64|35=0|34=300|49=FOLEOAPI|52=20260608-22:11:04.171|56=FOLEOTRADER|10=007|8=FIXT.1.1|9=64|35=0|34=301|49=FOLEOAPI|52=20260608-22:11:24.376|56=FOLEOTRADER|10=017|8=FIXT.1.1|9=64|35=0|34=302|49=FOLEOAPI|52=20260608-22:11:44.535|56=FOLEOTRADER|10=017|8=FIXT.1.1|9=64|35=0|34=303|49=FOLEOAPI|52=20260608-22:12:04.704|56=FOLEOTRADER|10=013|8=FIXT.1.1|9=64|35=0|34=304|49=FOLEOAPI|52=20260608-22:12:24.883|56=FOLEOTRADER|10=024|8=FIXT.1.1|9=64|35=0|34=305|49=FOLEOAPI|52=20260608-22:12:45.058|56=FOLEOTRADER|10=022|8=FIXT.1.1|9=64|35=0|34=306|49=FOLEOAPI|52=20260608-22:13:05.257|56=FOLEOTRADER|10=021|8=FIXT.1.1|9=64|35=0|34=307|49=FOLEOAPI|52=20260608-22:13:25.480|56=FOLEOTRADER|10=022|8=FIXT.1.1|9=64|35=0|34=308|49=FOLEOAPI|52=20260608-22:13:45.684|56=FOLEOTRADER|10=031|8=FIXT.1.1|9=64|35=0|34=309|49=FOLEOAPI|52=20260608-22:14:05.851|56=FOLEOTRADER|10=025|8=FIXT.1.1|9=64|35=0|34=310|49=FOLEOAPI|52=20260608-22:14:26.050|56=FOLEOTRADER|10=011|8=FIXT.1.1|9=64|35=0|34=311|49=FOLEOAPI|52=20260608-22:14:46.226|56=FOLEOTRADER|10=019|8=FIXT.1.1|9=64|35=0|34=312|49=FOLEOAPI|52=20260608-22:15:06.420|56=FOLEOTRADER|10=013|8=FIXT.1.1|9=64|35=0|34=313|49=FOLEOAPI|52=20260608-22:15:26.623|56=FOLEOTRADER|10=021|8=FIXT.1.1|9=64|35=0|34=314|49=FOLEOAPI|52=20260608-22:15:46.788|56=FOLEOTRADER|10=036|8=FIXT.1.1|9=64|35=0|34=315|49=FOLEOAPI|52=20260608-22:16:06.958|56=FOLEOTRADER|10=033|8=FIXT.1.1|9=64|35=0|34=316|49=FOLEOAPI|52=20260608-22:16:27.155|56=FOLEOTRADER|10=026|8=FIXT.1.1|9=64|35=0|34=317|49=FOLEOAPI|52=20260608-22:16:47.313|56=FOLEOTRADER|10=025|8=FIXT.1.1|9=64|35=0|34=318|49=FOLEOAPI|52=20260608-22:17:07.495|56=FOLEOTRADER|10=034|8=FIXT.1.1|9=64|35=0|34=319|49=FOLEOAPI|52=20260608-22:17:27.636|56=FOLEOTRADER|10=034|8=FIXT.1.1|9=64|35=0|34=320|49=FOLEOAPI|52=20260608-22:17:47.814|56=FOLEOTRADER|10=026|8=FIXT.1.1|9=64|35=0|34=321|49=FOLEOAPI|52=20260608-22:18:07.989|56=FOLEOTRADER|10=037|8=FIXT.1.1|9=64|35=0|34=322|49=FOLEOAPI|52=20260608-22:18:28.207|56=FOLEOTRADER|10=024|8=FIXT.1.1|9=64|35=0|34=323|49=FOLEOAPI|52=20260608-22:18:48.393|56=FOLEOTRADER|10=033|8=FIXT.1.1|9=64|35=0|34=324|49=FOLEOAPI|52=20260608-22:19:08.571|56=FOLEOTRADER|10=029|8=FIXT.1.1|9=64|35=0|34=325|49=FOLEOAPI|52=20260608-22:19:28.750|56=FOLEOTRADER|10=031|8=FIXT.1.1|9=64|35=0|34=326|49=FOLEOAPI|52=20260608-22:19:48.946|56=FOLEOTRADER|10=041|8=FIXT.1.1|9=64|35=0|34=327|49=FOLEOAPI|52=20260608-22:20:09.175|56=FOLEOTRADER|10=025|8=FIXT.1.1|9=64|35=0|34=328|49=FOLEOAPI|52=20260608-22:20:29.356|56=FOLEOTRADER|10=029|8=FIXT.1.1|9=64|35=0|34=329|49=FOLEOAPI|52=20260608-22:20:49.488|56=FOLEOTRADER|10=038|8=FIXT.1.1|9=64|35=0|34=330|49=FOLEOAPI|52=20260608-22:21:09.701|56=FOLEOTRADER|10=015|8=FIXT.1.1|9=64|35=0|34=331|49=FOLEOAPI|52=20260608-22:21:29.902|56=FOLEOTRADER|10=021|8=FIXT.1.1|9=64|35=0|34=332|49=FOLEOAPI|52=20260608-22:21:50.038|56=FOLEOTRADER|10=016|8=FIXT.1.1|9=64|35=0|34=333|49=FOLEOAPI|52=20260608-22:22:10.251|56=FOLEOTRADER|10=011|8=FIXT.1.1|9=64|35=0|34=334|49=FOLEOAPI|52=20260608-22:22:30.449|56=FOLEOTRADER|10=023|8=FIXT.1.1|9=64|35=0|34=335|49=FOLEOAPI|52=20260608-22:22:50.640|56=FOLEOTRADER|10=019|8=FIXT.1.1|9=64|35=0|34=336|49=FOLEOAPI|52=20260608-22:23:10.814|56=FOLEOTRADER|10=020|8=FIXT.1.1|9=64|35=0|34=337|49=FOLEOAPI|52=20260608-22:23:31.193|56=FOLEOTRADER|10=024|8=FIXT.1.1|9=64|35=0|34=338|49=FOLEOAPI|52=20260608-22:23:51.336|56=FOLEOTRADER|10=026|8=FIXT.1.1|9=64|35=0|34=339|49=FOLEOAPI|52=20260608-22:24:11.483|56=FOLEOTRADER|10=027|8=FIXT.1.1|9=64|35=0|34=340|49=FOLEOAPI|52=20260608-22:24:31.595|56=FOLEOTRADER|10=025|8=FIXT.1.1|9=64|35=0|34=341|49=FOLEOAPI|52=20260608-22:24:51.742|56=FOLEOTRADER|10=022|8=FIXT.1.1|9=64|35=0|34=342|49=FOLEOAPI|52=20260608-22:25:11.899|56=FOLEOTRADER|10=033|8=FIXT.1.1|9=64|35=0|34=343|49=FOLEOAPI|52=20260608-22:25:32.043|56=FOLEOTRADER|10=018|8=FIXT.1.1|9=64|35=0|34=344|49=FOLEOAPI|52=20260608-22:25:52.205|56=FOLEOTRADER|10=021|8=FIXT.1.1|9=64|35=0|34=345|49=FOLEOAPI|52=20260608-22:26:12.331|56=FOLEOTRADER|10=019|8=FIXT.1.1|9=64|35=0|34=346|49=FOLEOAPI|52=20260608-22:26:32.438|56=FOLEOTRADER|10=030|8=FIXT.1.1|9=64|35=0|34=347|49=FOLEOAPI|52=20260608-22:26:52.598|56=FOLEOTRADER|10=040|8=FIXT.1.1|9=64|35=0|34=348|49=FOLEOAPI|52=20260608-22:27:12.789|56=FOLEOTRADER|10=040|8=FIXT.1.1|9=64|35=0|34=349|49=FOLEOAPI|52=20260608-22:27:32.945|56=FOLEOTRADER|10=037|8=FIXT.1.1|9=64|35=0|34=350|49=FOLEOAPI|52=20260608-22:27:53.087|56=FOLEOTRADER|10=029|8=FIXT.1.1|9=64|35=0|34=351|49=FOLEOAPI|52=20260608-22:28:13.220|56=FOLEOTRADER|10=016|8=FIXT.1.1|9=64|35=0|34=352|49=FOLEOAPI|52=20260608-22:28:33.331|56=FOLEOTRADER|10=022|8=FIXT.1.1|9=64|35=0|34=353|49=FOLEOAPI|52=20260608-22:28:53.465|56=FOLEOTRADER|10=033|8=FIXT.1.1|9=64|35=0|34=354|49=FOLEOAPI|52=20260608-22:29:13.587|56=FOLEOTRADER|10=036|8=FIXT.1.1|9=64|35=0|34=355|49=FOLEOAPI|52=20260608-22:29:33.676|56=FOLEOTRADER|10=038|8=FIXT.1.1|9=64|35=0|34=356|49=FOLEOAPI|52=20260608-22:29:53.812|56=FOLEOTRADER|10=033|