8=FIXT.1.1|9=87|35=A|34=1|49=FOLEOAPI|52=20260701-01:06:09.349|56=FOLEOTRADER|98=0|108=20|141=Y|1137=9|10=074|8=FIXT.1.1|9=182|35=D|34=2|49=FOLEOAPI|52=20260701-01:06:09.514|56=FOLEOTRADER|11=FT-6-019f1b3643cf74e997e4d03e3f5d3dc8|15=USD|22=8|38=187|40=2|44=173.568|48=PEP|54=1|55=PEP|60=20260701-01:06:09.509|10=228|8=FIXT.1.1|9=62|35=0|34=3|49=FOLEOAPI|52=20260701-01:06:29.691|56=FOLEOTRADER|10=174|8=FIXT.1.1|9=62|35=0|34=4|49=FOLEOAPI|52=20260701-01:06:49.918|56=FOLEOTRADER|10=179|8=FIXT.1.1|9=62|35=0|34=5|49=FOLEOAPI|52=20260701-01:07:10.141|56=FOLEOTRADER|10=157|8=FIXT.1.1|9=62|35=0|34=6|49=FOLEOAPI|52=20260701-01:07:30.370|56=FOLEOTRADER|10=164|8=FIXT.1.1|9=62|35=0|34=7|49=FOLEOAPI|52=20260701-01:07:50.590|56=FOLEOTRADER|10=171|8=FIXT.1.1|9=62|35=0|34=8|49=FOLEOAPI|52=20260701-01:08:10.851|56=FOLEOTRADER|10=169|8=FIXT.1.1|9=62|35=0|34=9|49=FOLEOAPI|52=20260701-01:08:31.064|56=FOLEOTRADER|10=169|8=FIXT.1.1|9=63|35=0|34=10|49=FOLEOAPI|52=20260701-01:08:51.247|56=FOLEOTRADER|10=215|8=FIXT.1.1|9=63|35=0|34=11|49=FOLEOAPI|52=20260701-01:09:11.560|56=FOLEOTRADER|10=211|8=FIXT.1.1|9=63|35=0|34=12|49=FOLEOAPI|52=20260701-01:09:31.901|56=FOLEOTRADER|10=213|8=FIXT.1.1|9=63|35=0|34=13|49=FOLEOAPI|52=20260701-01:09:52.115|56=FOLEOTRADER|10=214|8=FIXT.1.1|9=63|35=0|34=14|49=FOLEOAPI|52=20260701-01:10:12.299|56=FOLEOTRADER|10=216|8=FIXT.1.1|9=63|35=0|34=15|49=FOLEOAPI|52=20260701-01:10:32.522|56=FOLEOTRADER|10=208|8=FIXT.1.1|9=63|35=0|34=16|49=FOLEOAPI|52=20260701-01:10:52.700|56=FOLEOTRADER|10=209|8=FIXT.1.1|9=63|35=0|34=17|49=FOLEOAPI|52=20260701-01:11:12.925|56=FOLEOTRADER|10=216|8=FIXT.1.1|9=63|35=0|34=18|49=FOLEOAPI|52=20260701-01:11:33.148|56=FOLEOTRADER|10=217|8=FIXT.1.1|9=63|35=0|34=19|49=FOLEOAPI|52=20260701-01:11:53.379|56=FOLEOTRADER|10=226|8=FIXT.1.1|9=63|35=0|34=20|49=FOLEOAPI|52=20260701-01:12:13.612|56=FOLEOTRADER|10=205|8=FIXT.1.1|9=63|35=0|34=21|49=FOLEOAPI|52=20260701-01:12:33.820|56=FOLEOTRADER|10=209|8=FIXT.1.1|9=63|35=0|34=22|49=FOLEOAPI|52=20260701-01:12:54.046|56=FOLEOTRADER|10=213|8=FIXT.1.1|9=63|35=0|34=23|49=FOLEOAPI|52=20260701-01:13:14.269|56=FOLEOTRADER|10=218|8=FIXT.1.1|9=63|35=0|34=24|49=FOLEOAPI|52=20260701-01:13:34.485|56=FOLEOTRADER|10=221|8=FIXT.1.1|9=63|35=0|34=25|49=FOLEOAPI|52=20260701-01:13:54.708|56=FOLEOTRADER|10=222|8=FIXT.1.1|9=63|35=0|34=26|49=FOLEOAPI|52=20260701-01:14:14.890|56=FOLEOTRADER|10=222|8=FIXT.1.1|9=63|35=0|34=27|49=FOLEOAPI|52=20260701-01:14:35.106|56=FOLEOTRADER|10=216|8=FIXT.1.1|9=63|35=0|34=28|49=FOLEOAPI|52=20260701-01:14:55.302|56=FOLEOTRADER|10=217|8=FIXT.1.1|9=63|35=0|34=29|49=FOLEOAPI|52=20260701-01:15:15.459|56=FOLEOTRADER|10=228|8=FIXT.1.1|9=63|35=0|34=30|49=FOLEOAPI|52=20260701-01:15:35.676|56=FOLEOTRADER|10=223|8=FIXT.1.1|9=63|35=0|34=31|49=FOLEOAPI|52=20260701-01:15:55.877|56=FOLEOTRADER|10=229|8=FIXT.1.1|9=63|35=0|34=32|49=FOLEOAPI|52=20260701-01:16:16.102|56=FOLEOTRADER|10=209|8=FIXT.1.1|9=63|35=0|34=33|49=FOLEOAPI|52=20260701-01:16:36.333|56=FOLEOTRADER|10=218|8=FIXT.1.1|9=63|35=0|34=34|49=FOLEOAPI|52=20260701-01:16:56.614|56=FOLEOTRADER|10=223|8=FIXT.1.1|9=63|35=0|34=35|49=FOLEOAPI|52=20260701-01:17:16.826|56=FOLEOTRADER|10=226|8=FIXT.1.1|9=63|35=0|34=36|49=FOLEOAPI|52=20260701-01:17:37.042|56=FOLEOTRADER|10=220|8=FIXT.1.1|9=63|35=0|34=37|49=FOLEOAPI|52=20260701-01:17:57.346|56=FOLEOTRADER|10=230|8=FIXT.1.1|9=63|35=0|34=38|49=FOLEOAPI|52=20260701-01:18:17.560|56=FOLEOTRADER|10=226|8=FIXT.1.1|9=63|35=0|34=39|49=FOLEOAPI|52=20260701-01:18:37.763|56=FOLEOTRADER|10=234|8=FIXT.1.1|9=63|35=0|34=40|49=FOLEOAPI|52=20260701-01:18:57.985|56=FOLEOTRADER|10=234|8=FIXT.1.1|9=63|35=0|34=41|49=FOLEOAPI|52=20260701-01:19:18.185|56=FOLEOTRADER|10=225|8=FIXT.1.1|9=63|35=0|34=42|49=FOLEOAPI|52=20260701-01:19:38.455|56=FOLEOTRADER|10=228|8=FIXT.1.1|9=63|35=0|34=43|49=FOLEOAPI|52=20260701-01:19:58.674|56=FOLEOTRADER|10=234|8=FIXT.1.1|9=63|35=0|34=44|49=FOLEOAPI|52=20260701-01:20:18.917|56=FOLEOTRADER|10=223|8=FIXT.1.1|9=63|35=0|34=45|49=FOLEOAPI|52=20260701-01:20:39.222|56=FOLEOTRADER|10=216|8=FIXT.1.1|9=63|35=0|34=46|49=FOLEOAPI|52=20260701-01:20:59.507|56=FOLEOTRADER|10=225|8=FIXT.1.1|9=63|35=0|34=47|49=FOLEOAPI|52=20260701-01:21:19.773|56=FOLEOTRADER|10=228|8=FIXT.1.1|9=63|35=0|34=48|49=FOLEOAPI|52=20260701-01:21:40.024|56=FOLEOTRADER|10=212|8=FIXT.1.1|9=63|35=0|34=49|49=FOLEOAPI|52=20260701-01:22:00.273|56=FOLEOTRADER|10=216|8=FIXT.1.1|9=63|35=0|34=50|49=FOLEOAPI|52=20260701-01:22:20.562|56=FOLEOTRADER|10=211|8=FIXT.1.1|9=63|35=0|34=51|49=FOLEOAPI|52=20260701-01:22:40.733|56=FOLEOTRADER|10=214|8=FIXT.1.1|9=63|35=0|34=52|49=FOLEOAPI|52=20260701-01:23:00.947|56=FOLEOTRADER|10=219|8=FIXT.1.1|9=63|35=0|34=53|49=FOLEOAPI|52=20260701-01:23:21.157|56=FOLEOTRADER|10=216|8=FIXT.1.1|9=63|35=0|34=54|49=FOLEOAPI|52=20260701-01:23:41.364|56=FOLEOTRADER|10=219|8=FIXT.1.1|9=63|35=0|34=55|49=FOLEOAPI|52=20260701-01:24:01.673|56=FOLEOTRADER|10=220|8=FIXT.1.1|9=63|35=0|34=56|49=FOLEOAPI|52=20260701-01:24:22.481|56=FOLEOTRADER|10=221|8=FIXT.1.1|9=178|35=D|34=57|49=FOLEOAPI|52=20260701-01:24:27.688|56=FOLEOTRADER|11=FT-8-019f1b47079a72efaeb665fc883428dd|15=USD|22=8|38=20|40=2|44=173|48=PEP|54=2|55=PEP|60=20260701-01:24:27.688|10=043|8=FIXT.1.1|9=63|35=0|34=58|49=FOLEOAPI|52=20260701-01:24:47.853|56=FOLEOTRADER|10=233|8=FIXT.1.1|9=63|35=0|34=59|49=FOLEOAPI|52=20260701-01:25:08.381|56=FOLEOTRADER|10=228|8=FIXT.1.1|9=63|35=0|34=60|49=FOLEOAPI|52=20260701-01:25:28.727|56=FOLEOTRADER|10=226|8=FIXT.1.1|9=63|35=0|34=61|49=FOLEOAPI|52=20260701-01:25:48.915|56=FOLEOTRADER|10=228|8=FIXT.1.1|9=63|35=0|34=62|49=FOLEOAPI|52=20260701-01:26:09.140|56=FOLEOTRADER|10=217|8=FIXT.1.1|9=63|35=0|34=63|49=FOLEOAPI|52=20260701-01:26:29.366|56=FOLEOTRADER|10=230|8=FIXT.1.1|9=63|35=0|34=64|49=FOLEOAPI|52=20260701-01:26:49.596|56=FOLEOTRADER|10=238|8=FIXT.1.1|9=63|35=0|34=65|49=FOLEOAPI|52=20260701-01:27:09.828|56=FOLEOTRADER|10=234|8=FIXT.1.1|9=63|35=0|34=66|49=FOLEOAPI|52=20260701-01:27:30.026|56=FOLEOTRADER|10=219|8=FIXT.1.1|9=63|35=0|34=67|49=FOLEOAPI|52=20260701-01:27:50.380|56=FOLEOTRADER|10=225|8=FIXT.1.1|9=63|35=0|34=68|49=FOLEOAPI|52=20260701-01:28:10.553|56=FOLEOTRADER|10=225|8=FIXT.1.1|9=63|35=0|34=69|49=FOLEOAPI|52=20260701-01:28:30.798|56=FOLEOTRADER|10=239|8=FIXT.1.1|9=63|35=0|34=70|49=FOLEOAPI|52=20260701-01:28:51.116|56=FOLEOTRADER|10=218|8=FIXT.1.1|9=63|35=0|34=71|49=FOLEOAPI|52=20260701-01:29:11.343|56=FOLEOTRADER|10=218|8=FIXT.1.1|9=63|35=0|34=72|49=FOLEOAPI|52=20260701-01:29:32.055|56=FOLEOTRADER|10=222|8=FIXT.1.1|9=63|35=0|34=73|49=FOLEOAPI|52=20260701-01:29:52.661|56=FOLEOTRADER|10=228|8=FIXT.1.1|9=63|35=0|34=74|49=FOLEOAPI|52=20260701-01:30:13.350|56=FOLEOTRADER|10=213|8=FIXT.1.1|9=63|35=0|34=75|49=FOLEOAPI|52=20260701-01:30:33.824|56=FOLEOTRADER|10=222|8=FIXT.1.1|9=63|35=0|34=76|49=FOLEOAPI|52=20260701-01:30:54.176|56=FOLEOTRADER|10=226|8=FIXT.1.1|9=63|35=0|34=77|49=FOLEOAPI|52=20260701-01:31:14.693|56=FOLEOTRADER|10=228|8=FIXT.1.1|9=63|35=0|34=78|49=FOLEOAPI|52=20260701-01:31:35.473|56=FOLEOTRADER|10=228|8=FIXT.1.1|9=63|35=0|34=79|49=FOLEOAPI|52=20260701-01:31:55.627|56=FOLEOTRADER|10=232|8=FIXT.1.1|9=63|35=0|34=80|49=FOLEOAPI|52=20260701-01:32:15.810|56=FOLEOTRADER|10=215|8=FIXT.1.1|9=63|35=0|34=81|49=FOLEOAPI|52=20260701-01:32:35.997|56=FOLEOTRADER|10=234|8=FIXT.1.1|9=63|35=0|34=82|49=FOLEOAPI|52=20260701-01:32:56.197|56=FOLEOTRADER|10=230|8=FIXT.1.1|9=63|35=0|34=83|49=FOLEOAPI|52=20260701-01:33:16.384|56=FOLEOTRADER|10=226|8=FIXT.1.1|9=63|35=0|34=84|49=FOLEOAPI|52=20260701-01:33:36.620|56=FOLEOTRADER|10=222|8=FIXT.1.1|9=63|35=0|34=85|49=FOLEOAPI|52=20260701-01:33:56.939|56=FOLEOTRADER|10=238|8=FIXT.1.1|9=63|35=0|34=86|49=FOLEOAPI|52=20260701-01:34:17.152|56=FOLEOTRADER|10=224|8=FIXT.1.1|9=63|35=0|34=87|49=FOLEOAPI|52=20260701-01:34:37.417|56=FOLEOTRADER|10=231|8=FIXT.1.1|9=63|35=0|34=88|49=FOLEOAPI|52=20260701-01:34:57.586|56=FOLEOTRADER|10=241|8=FIXT.1.1|9=63|35=0|34=89|49=FOLEOAPI|52=20260701-01:35:17.796|56=FOLEOTRADER|10=242|8=FIXT.1.1|9=63|35=0|34=90|49=FOLEOAPI|52=20260701-01:35:37.995|56=FOLEOTRADER|10=237|8=FIXT.1.1|9=63|35=0|34=91|49=FOLEOAPI|52=20260701-01:35:58.202|56=FOLEOTRADER|10=222|8=FIXT.1.1|9=63|35=0|34=92|49=FOLEOAPI|52=20260701-01:36:18.452|56=FOLEOTRADER|10=227|8=FIXT.1.1|9=63|35=0|34=93|49=FOLEOAPI|52=20260701-01:36:38.619|56=FOLEOTRADER|10=235|8=FIXT.1.1|9=63|35=0|34=94|49=FOLEOAPI|52=20260701-01:36:58.825|56=FOLEOTRADER|10=237|8=FIXT.1.1|9=63|35=0|34=95|49=FOLEOAPI|52=20260701-01:37:18.975|56=FOLEOTRADER|10=241|8=FIXT.1.1|9=63|35=0|34=96|49=FOLEOAPI|52=20260701-01:37:39.184|56=FOLEOTRADER|10=237|8=FIXT.1.1|9=63|35=0|34=97|49=FOLEOAPI|52=20260701-01:37:59.378|56=FOLEOTRADER|10=245|8=FIXT.1.1|9=63|35=0|34=98|49=FOLEOAPI|52=20260701-01:38:19.574|56=FOLEOTRADER|10=241|8=FIXT.1.1|9=63|35=0|34=99|49=FOLEOAPI|52=20260701-01:38:39.785|56=FOLEOTRADER|10=248|8=FIXT.1.1|9=64|35=0|34=100|49=FOLEOAPI|52=20260701-01:38:59.997|56=FOLEOTRADER|10=031|8=FIXT.1.1|9=64|35=0|34=101|49=FOLEOAPI|52=20260701-01:39:20.402|56=FOLEOTRADER|10=002|8=FIXT.1.1|9=64|35=0|34=102|49=FOLEOAPI|52=20260701-01:39:40.643|56=FOLEOTRADER|10=012|8=FIXT.1.1|9=64|35=0|34=103|49=FOLEOAPI|52=20260701-01:40:00.858|56=FOLEOTRADER|10=009|8=FIXT.1.1|9=64|35=0|34=104|49=FOLEOAPI|52=20260701-01:40:21.019|56=FOLEOTRADER|10=002|8=FIXT.1.1|9=64|35=0|34=105|49=FOLEOAPI|52=20260701-01:40:41.240|56=FOLEOTRADER|10=001|8=FIXT.1.1|9=64|35=0|34=106|49=FOLEOAPI|52=20260701-01:41:01.569|56=FOLEOTRADER|10=013|8=FIXT.1.1|9=64|35=0|34=107|49=FOLEOAPI|52=20260701-01:41:21.759|56=FOLEOTRADER|10=017|8=FIXT.1.1|9=64|35=0|34=108|49=FOLEOAPI|52=20260701-01:41:41.969|56=FOLEOTRADER|10=023|8=FIXT.1.1|9=64|35=0|34=109|49=FOLEOAPI|52=20260701-01:42:02.185|56=FOLEOTRADER|10=012|8=FIXT.1.1|9=64|35=0|34=110|49=FOLEOAPI|52=20260701-01:42:22.389|56=FOLEOTRADER|10=012|8=FIXT.1.1|9=64|35=0|34=111|49=FOLEOAPI|52=20260701-01:42:42.613|56=FOLEOTRADER|10=005|8=FIXT.1.1|9=64|35=0|34=112|49=FOLEOAPI|52=20260701-01:43:02.772|56=FOLEOTRADER|10=009|8=FIXT.1.1|9=64|35=0|34=113|49=FOLEOAPI|52=20260701-01:43:22.978|56=FOLEOTRADER|10=020|8=FIXT.1.1|9=64|35=0|34=114|49=FOLEOAPI|52=20260701-01:43:43.178|56=FOLEOTRADER|10=016|8=FIXT.1.1|9=64|35=0|34=115|49=FOLEOAPI|52=20260701-01:44:03.404|56=FOLEOTRADER|10=006|8=FIXT.1.1|9=64|35=0|34=116|49=FOLEOAPI|52=20260701-01:44:23.599|56=FOLEOTRADER|10=024|8=FIXT.1.1|9=64|35=0|34=117|49=FOLEOAPI|52=20260701-01:44:43.799|56=FOLEOTRADER|10=029|8=FIXT.1.1|9=64|35=0|34=118|49=FOLEOAPI|52=20260701-01:45:04.071|56=FOLEOTRADER|10=011|8=FIXT.1.1|9=64|35=0|34=119|49=FOLEOAPI|52=20260701-01:45:24.277|56=FOLEOTRADER|10=022|8=FIXT.1.1|9=64|35=0|34=120|49=FOLEOAPI|52=20260701-01:45:44.498|56=FOLEOTRADER|10=021|8=FIXT.1.1|9=64|35=0|34=121|49=FOLEOAPI|52=20260701-01:46:04.686|56=FOLEOTRADER|10=018|8=FIXT.1.1|9=64|35=0|34=122|49=FOLEOAPI|52=20260701-01:46:25.270|56=FOLEOTRADER|10=011|8=FIXT.1.1|9=64|35=0|34=123|49=FOLEOAPI|52=20260701-01:46:45.448|56=FOLEOTRADER|10=021|8=FIXT.1.1|9=64|35=0|34=124|49=FOLEOAPI|52=20260701-01:47:05.679|56=FOLEOTRADER|10=025|8=FIXT.1.1|9=64|35=0|34=125|49=FOLEOAPI|52=20260701-01:47:25.856|56=FOLEOTRADER|10=025|8=FIXT.1.1|9=64|35=0|34=126|49=FOLEOAPI|52=20260701-01:47:46.020|56=FOLEOTRADER|10=012|8=FIXT.1.1|9=64|35=0|34=127|49=FOLEOAPI|52=20260701-01:48:06.197|56=FOLEOTRADER|10=025|8=FIXT.1.1|9=64|35=0|34=128|49=FOLEOAPI|52=20260701-01:48:26.412|56=FOLEOTRADER|10=018|8=FIXT.1.1|9=64|35=0|34=129|49=FOLEOAPI|52=20260701-01:48:46.606|56=FOLEOTRADER|10=026|8=FIXT.1.1|9=64|35=0|34=130|49=FOLEOAPI|52=20260701-01:49:06.860|56=FOLEOTRADER|10=017|8=FIXT.1.1|9=64|35=0|34=131|49=FOLEOAPI|52=20260701-01:49:27.144|56=FOLEOTRADER|10=016|8=FIXT.1.1|9=64|35=0|34=132|49=FOLEOAPI|52=20260701-01:49:47.439|56=FOLEOTRADER|10=026|8=FIXT.1.1|9=64|35=0|34=133|49=FOLEOAPI|52=20260701-01:50:07.659|56=FOLEOTRADER|10=019|8=FIXT.1.1|9=64|35=0|34=134|49=FOLEOAPI|52=20260701-01:50:27.886|56=FOLEOTRADER|10=024|8=FIXT.1.1|9=64|35=0|34=135|49=FOLEOAPI|52=20260701-01:50:48.128|56=FOLEOTRADER|10=017|8=FIXT.1.1|9=64|35=0|34=136|49=FOLEOAPI|52=20260701-01:51:08.336|56=FOLEOTRADER|10=016|8=FIXT.1.1|9=64|35=0|34=137|49=FOLEOAPI|52=20260701-01:51:28.571|56=FOLEOTRADER|10=020|8=FIXT.1.1|9=64|35=0|34=138|49=FOLEOAPI|52=20260701-01:51:48.766|56=FOLEOTRADER|10=029|8=FIXT.1.1|9=64|35=0|34=139|49=FOLEOAPI|52=20260701-01:52:08.925|56=FOLEOTRADER|10=024|8=FIXT.1.1|9=64|35=0|34=140|49=FOLEOAPI|52=20260701-01:52:29.149|56=FOLEOTRADER|10=017|8=FIXT.1.1|9=64|35=0|34=141|49=FOLEOAPI|52=20260701-01:52:49.334|56=FOLEOTRADER|10=016|8=FIXT.1.1|9=64|35=0|34=142|49=FOLEOAPI|52=20260701-01:53:09.575|56=FOLEOTRADER|10=021|8=FIXT.1.1|9=64|35=0|34=143|49=FOLEOAPI|52=20260701-01:53:29.801|56=FOLEOTRADER|10=016|8=FIXT.1.1|9=64|35=0|34=144|49=FOLEOAPI|52=20260701-01:53:49.988|56=FOLEOTRADER|10=035|8=FIXT.1.1|9=64|35=0|34=145|49=FOLEOAPI|52=20260701-01:54:10.204|56=FOLEOTRADER|10=006|8=FIXT.1.1|9=64|35=0|34=146|49=FOLEOAPI|52=20260701-01:54:30.413|56=FOLEOTRADER|10=011|8=FIXT.1.1|9=64|35=0|34=147|49=FOLEOAPI|52=20260701-01:54:50.614|56=FOLEOTRADER|10=017|8=FIXT.1.1|9=64|35=0|34=148|49=FOLEOAPI|52=20260701-01:55:10.803|56=FOLEOTRADER|10=015|8=FIXT.1.1|9=64|35=0|34=149|49=FOLEOAPI|52=20260701-01:55:31.074|56=FOLEOTRADER|10=019|8=FIXT.1.1|9=64|35=0|34=150|49=FOLEOAPI|52=20260701-01:55:51.265|56=FOLEOTRADER|10=015|8=FIXT.1.1|9=64|35=0|34=151|49=FOLEOAPI|52=20260701-01:56:11.506|56=FOLEOTRADER|10=011|8=FIXT.1.1|9=64|35=0|34=152|49=FOLEOAPI|52=20260701-01:56:31.710|56=FOLEOTRADER|10=011|8=FIXT.1.1|9=64|35=0|34=153|49=FOLEOAPI|52=20260701-01:56:51.944|56=FOLEOTRADER|10=023|8=FIXT.1.1|9=64|35=0|34=154|49=FOLEOAPI|52=20260701-01:57:12.109|56=FOLEOTRADER|10=015|8=FIXT.1.1|9=64|35=0|34=155|49=FOLEOAPI|52=20260701-01:57:32.286|56=FOLEOTRADER|10=024|8=FIXT.1.1|9=64|35=0|34=156|49=FOLEOAPI|52=20260701-01:57:52.546|56=FOLEOTRADER|10=026|8=FIXT.1.1|9=64|35=0|34=157|49=FOLEOAPI|52=20260701-01:58:12.752|56=FOLEOTRADER|10=023|8=FIXT.1.1|9=64|35=0|34=158|49=FOLEOAPI|52=20260701-01:58:33.008|56=FOLEOTRADER|10=021|8=FIXT.1.1|9=64|35=0|34=159|49=FOLEOAPI|52=20260701-01:58:53.328|56=FOLEOTRADER|10=029|8=FIXT.1.1|9=64|35=0|34=160|49=FOLEOAPI|52=20260701-01:59:13.544|56=FOLEOTRADER|10=018|8=FIXT.1.1|9=64|35=0|34=161|49=FOLEOAPI|52=20260701-01:59:33.731|56=FOLEOTRADER|10=019|8=FIXT.1.1|9=64|35=0|34=162|49=FOLEOAPI|52=20260701-01:59:53.912|56=FOLEOTRADER|10=023|8=FIXT.1.1|9=64|35=0|34=163|49=FOLEOAPI|52=20260701-02:00:14.103|56=FOLEOTRADER|10=000|8=FIXT.1.1|9=64|35=0|34=164|49=FOLEOAPI|52=20260701-02:00:34.323|56=FOLEOTRADER|10=007|8=FIXT.1.1|9=64|35=0|34=165|49=FOLEOAPI|52=20260701-02:00:54.548|56=FOLEOTRADER|10=019|8=FIXT.1.1|9=64|35=0|34=166|49=FOLEOAPI|52=20260701-02:01:14.767|56=FOLEOTRADER|10=020|8=FIXT.1.1|9=64|35=0|34=167|49=FOLEOAPI|52=20260701-02:01:35.020|56=FOLEOTRADER|10=006|8=FIXT.1.1|9=64|35=0|34=168|49=FOLEOAPI|52=20260701-02:01:55.222|56=FOLEOTRADER|10=013|8=FIXT.1.1|9=64|35=0|34=169|49=FOLEOAPI|52=20260701-02:02:15.416|56=FOLEOTRADER|10=016|8=FIXT.1.1|9=64|35=0|34=170|49=FOLEOAPI|52=20260701-02:02:35.636|56=FOLEOTRADER|10=014|8=FIXT.1.1|9=64|35=0|34=171|49=FOLEOAPI|52=20260701-02:02:55.815|56=FOLEOTRADER|10=016|8=FIXT.1.1|9=64|35=0|34=172|49=FOLEOAPI|52=20260701-02:03:15.967|56=FOLEOTRADER|10=022|8=FIXT.1.1|9=64|35=0|34=173|49=FOLEOAPI|52=20260701-02:03:36.152|56=FOLEOTRADER|10=012|8=FIXT.1.1|9=64|35=0|34=174|49=FOLEOAPI|52=20260701-02:03:56.353|56=FOLEOTRADER|10=018|8=FIXT.1.1|9=64|35=0|34=175|49=FOLEOAPI|52=20260701-02:04:16.564|56=FOLEOTRADER|10=020|8=FIXT.1.1|9=64|35=0|34=176|49=FOLEOAPI|52=20260701-02:04:36.802|56=FOLEOTRADER|10=018|8=FIXT.1.1|9=64|35=0|34=177|49=FOLEOAPI|52=20260701-02:04:57.036|56=FOLEOTRADER|10=021|8=FIXT.1.1|9=64|35=0|34=178|49=FOLEOAPI|52=20260701-02:05:17.201|56=FOLEOTRADER|10=013|8=FIXT.1.1|9=64|35=0|34=179|49=FOLEOAPI|52=20260701-02:05:37.505|56=FOLEOTRADER|10=023|8=FIXT.1.1|9=64|35=0|34=180|49=FOLEOAPI|52=20260701-02:05:57.735|56=FOLEOTRADER|10=022|8=FIXT.1.1|9=64|35=0|34=181|49=FOLEOAPI|52=20260701-02:06:17.994|56=FOLEOTRADER|10=027|8=FIXT.1.1|9=64|35=0|34=182|49=FOLEOAPI|52=20260701-02:06:38.198|56=FOLEOTRADER|10=027|8=FIXT.1.1|9=64|35=0|34=183|49=FOLEOAPI|52=20260701-02:06:58.760|56=FOLEOTRADER|10=025|8=FIXT.1.1|9=64|35=0|34=184|49=FOLEOAPI|52=20260701-02:07:19.024|56=FOLEOTRADER|10=017|8=FIXT.1.1|9=64|35=0|34=185|49=FOLEOAPI|52=20260701-02:07:39.252|56=FOLEOTRADER|10=023|8=FIXT.1.1|9=64|35=0|34=186|49=FOLEOAPI|52=20260701-02:07:59.470|56=FOLEOTRADER|10=028|8=FIXT.1.1|9=64|35=0|34=187|49=FOLEOAPI|52=20260701-02:08:19.710|56=FOLEOTRADER|10=023|8=FIXT.1.1|9=64|35=0|34=188|49=FOLEOAPI|52=20260701-02:08:39.883|56=FOLEOTRADER|10=037|8=FIXT.1.1|9=64|35=0|34=189|49=FOLEOAPI|52=20260701-02:09:00.144|56=FOLEOTRADER|10=017|8=FIXT.1.1|9=64|35=0|34=190|49=FOLEOAPI|52=20260701-02:09:20.334|56=FOLEOTRADER|10=012|8=FIXT.1.1|9=64|35=0|34=191|49=FOLEOAPI|52=20260701-02:09:40.499|56=FOLEOTRADER|10=027|8=FIXT.1.1|9=64|35=0|34=192|49=FOLEOAPI|52=20260701-02:10:00.653|56=FOLEOTRADER|10=008|8=FIXT.1.1|9=64|35=0|34=193|49=FOLEOAPI|52=20260701-02:10:20.887|56=FOLEOTRADER|10=020|8=FIXT.1.1|9=64|35=0|34=194|49=FOLEOAPI|52=20260701-02:10:41.078|56=FOLEOTRADER|10=016|8=FIXT.1.1|9=64|35=0|34=195|49=FOLEOAPI|52=20260701-02:11:01.305|56=FOLEOTRADER|10=007|8=FIXT.1.1|9=64|35=0|34=196|49=FOLEOAPI|52=20260701-02:11:21.559|56=FOLEOTRADER|10=021|8=FIXT.1.1|9=64|35=0|34=197|49=FOLEOAPI|52=20260701-02:11:41.738|56=FOLEOTRADER|10=023|8=FIXT.1.1|9=64|35=0|34=198|49=FOLEOAPI|52=20260701-02:12:01.937|56=FOLEOTRADER|10=022|8=FIXT.1.1|9=64|35=5|34=199|49=FOLEOAPI|52=20260701-02:12:22.185|56=FOLEOTRADER|10=026|